{
  "abi": [
    {
      "anonymous": false,
      "inputs": [
        {
          "indexed": true,
          "internalType": "address",
          "name": "owner",
          "type": "address"
        },
        {
          "indexed": true,
          "internalType": "address",
          "name": "spender",
          "type": "address"
        },
        {
          "indexed": true,
          "internalType": "uint256",
          "name": "id",
          "type": "uint256"
        }
      ],
      "name": "Approval",
      "type": "event"
    },
    {
      "anonymous": false,
      "inputs": [
        {
          "indexed": true,
          "internalType": "address",
          "name": "owner",
          "type": "address"
        },
        {
          "indexed": true,
          "internalType": "address",
          "name": "operator",
          "type": "address"
        },
        {
          "indexed": false,
          "internalType": "bool",
          "name": "approved",
          "type": "bool"
        }
      ],
      "name": "ApprovalForAll",
      "type": "event"
    },
    {
      "anonymous": false,
      "inputs": [
        {
          "indexed": true,
          "internalType": "address",
          "name": "from",
          "type": "address"
        },
        {
          "indexed": true,
          "internalType": "address",
          "name": "to",
          "type": "address"
        },
        {
          "indexed": true,
          "internalType": "uint256",
          "name": "id",
          "type": "uint256"
        }
      ],
      "name": "Transfer",
      "type": "event"
    },
    {
      "inputs": [
        {
          "internalType": "address",
          "name": "spender",
          "type": "address"
        },
        {
          "internalType": "uint256",
          "name": "id",
          "type": "uint256"
        }
      ],
      "name": "approve",
      "outputs": [],
      "stateMutability": "nonpayable",
      "type": "function"
    },
    {
      "inputs": [
        {
          "internalType": "address",
          "name": "",
          "type": "address"
        }
      ],
      "name": "balanceOf",
      "outputs": [
        {
          "internalType": "uint256",
          "name": "",
          "type": "uint256"
        }
      ],
      "stateMutability": "view",
      "type": "function"
    },
    {
      "inputs": [
        {
          "internalType": "string",
          "name": "_name",
          "type": "string"
        },
        {
          "internalType": "string",
          "name": "_symbol",
          "type": "string"
        },
        {
          "internalType": "address",
          "name": "_token",
          "type": "address"
        },
        {
          "internalType": "address",
          "name": "strategy",
          "type": "address"
        }
      ],
      "name": "baseInit",
      "outputs": [],
      "stateMutability": "nonpayable",
      "type": "function"
    },
    {
      "inputs": [
        {
          "internalType": "uint256",
          "name": "id",
          "type": "uint256"
        }
      ],
      "name": "burnNFTAndWithdrawl",
      "outputs": [],
      "stateMutability": "nonpayable",
      "type": "function"
    },
    {
      "inputs": [],
      "name": "claimJackpot",
      "outputs": [],
      "stateMutability": "nonpayable",
      "type": "function"
    },
    {
      "inputs": [],
      "name": "ctx",
      "outputs": [
        {
          "internalType": "uint16",
          "name": "jackpotBP",
          "type": "uint16"
        },
        {
          "internalType": "uint16",
          "name": "dividendsBP",
          "type": "uint16"
        },
        {
          "internalType": "uint16",
          "name": "timeDecay",
          "type": "uint16"
        },
        {
          "internalType": "uint16",
          "name": "growthFactor",
          "type": "uint16"
        },
        {
          "internalType": "uint16",
          "name": "vaultType",
          "type": "uint16"
        }
      ],
      "stateMutability": "view",
      "type": "function"
    },
    {
      "inputs": [],
      "name": "currentId",
      "outputs": [
        {
          "internalType": "uint256",
          "name": "",
          "type": "uint256"
        }
      ],
      "stateMutability": "view",
      "type": "function"
    },
    {
      "inputs": [],
      "name": "deadline",
      "outputs": [
        {
          "internalType": "uint256",
          "name": "",
          "type": "uint256"
        }
      ],
      "stateMutability": "view",
      "type": "function"
    },
    {
      "inputs": [
        {
          "internalType": "uint256",
          "name": "amount",
          "type": "uint256"
        },
        {
          "internalType": "uint256",
          "name": "id",
          "type": "uint256"
        }
      ],
      "name": "depositToId",
      "outputs": [],
      "stateMutability": "nonpayable",
      "type": "function"
    },
    {
      "inputs": [
        {
          "internalType": "uint256",
          "name": "",
          "type": "uint256"
        }
      ],
      "name": "deposits",
      "outputs": [
        {
          "internalType": "uint256",
          "name": "amount",
          "type": "uint256"
        },
        {
          "internalType": "uint256",
          "name": "tracker",
          "type": "uint256"
        }
      ],
      "stateMutability": "view",
      "type": "function"
    },
    {
      "inputs": [],
      "name": "distributeYeild",
      "outputs": [],
      "stateMutability": "nonpayable",
      "type": "function"
    },
    {
      "inputs": [
        {
          "internalType": "uint256",
          "name": "",
          "type": "uint256"
        }
      ],
      "name": "getApproved",
      "outputs": [
        {
          "internalType": "address",
          "name": "",
          "type": "address"
        }
      ],
      "stateMutability": "view",
      "type": "function"
    },
    {
      "inputs": [
        {
          "internalType": "address",
          "name": "_vaultToken",
          "type": "address"
        },
        {
          "internalType": "address",
          "name": "_strategy",
          "type": "address"
        },
        {
          "internalType": "uint16",
          "name": "_jackpotBP",
          "type": "uint16"
        },
        {
          "internalType": "uint16",
          "name": "_dividendsBP",
          "type": "uint16"
        },
        {
          "internalType": "uint256",
          "name": "_minimumPrice",
          "type": "uint256"
        },
        {
          "internalType": "uint256",
          "name": "_intialTimeSeconds",
          "type": "uint256"
        },
        {
          "internalType": "uint16",
          "name": "_timeDecay",
          "type": "uint16"
        },
        {
          "internalType": "uint16",
          "name": "_growthFactor",
          "type": "uint16"
        },
        {
          "internalType": "string",
          "name": "_name",
          "type": "string"
        },
        {
          "internalType": "string",
          "name": "_symbol",
          "type": "string"
        }
      ],
      "name": "init",
      "outputs": [],
      "stateMutability": "nonpayable",
      "type": "function"
    },
    {
      "inputs": [],
      "name": "initStrat",
      "outputs": [],
      "stateMutability": "nonpayable",
      "type": "function"
    },
    {
      "inputs": [
        {
          "internalType": "address",
          "name": "",
          "type": "address"
        },
        {
          "internalType": "address",
          "name": "",
          "type": "address"
        }
      ],
      "name": "isApprovedForAll",
      "outputs": [
        {
          "internalType": "bool",
          "name": "",
          "type": "bool"
        }
      ],
      "stateMutability": "view",
      "type": "function"
    },
    {
      "inputs": [],
      "name": "jackpot",
      "outputs": [
        {
          "internalType": "uint256",
          "name": "",
          "type": "uint256"
        }
      ],
      "stateMutability": "view",
      "type": "function"
    },
    {
      "inputs": [],
      "name": "lastDepositer",
      "outputs": [
        {
          "internalType": "address",
          "name": "",
          "type": "address"
        }
      ],
      "stateMutability": "view",
      "type": "function"
    },
    {
      "inputs": [],
      "name": "minimumPrice",
      "outputs": [
        {
          "internalType": "uint256",
          "name": "",
          "type": "uint256"
        }
      ],
      "stateMutability": "view",
      "type": "function"
    },
    {
      "inputs": [
        {
          "internalType": "uint256",
          "name": "amount",
          "type": "uint256"
        }
      ],
      "name": "mintNewNft",
      "outputs": [
        {
          "internalType": "uint256",
          "name": "",
          "type": "uint256"
        }
      ],
      "stateMutability": "nonpayable",
      "type": "function"
    },
    {
      "inputs": [],
      "name": "name",
      "outputs": [
        {
          "internalType": "string",
          "name": "",
          "type": "string"
        }
      ],
      "stateMutability": "view",
      "type": "function"
    },
    {
      "inputs": [
        {
          "internalType": "uint256",
          "name": "",
          "type": "uint256"
        }
      ],
      "name": "ownerOf",
      "outputs": [
        {
          "internalType": "address",
          "name": "",
          "type": "address"
        }
      ],
      "stateMutability": "view",
      "type": "function"
    },
    {
      "inputs": [
        {
          "internalType": "address",
          "name": "operator",
          "type": "address"
        },
        {
          "internalType": "bool",
          "name": "approved",
          "type": "bool"
        }
      ],
      "name": "setApprovalForAll",
      "outputs": [],
      "stateMutability": "nonpayable",
      "type": "function"
    },
    {
      "inputs": [],
      "name": "strat",
      "outputs": [
        {
          "internalType": "contract IStrategy",
          "name": "",
          "type": "address"
        }
      ],
      "stateMutability": "view",
      "type": "function"
    },
    {
      "inputs": [
        {
          "internalType": "bytes4",
          "name": "interfaceId",
          "type": "bytes4"
        }
      ],
      "name": "supportsInterface",
      "outputs": [
        {
          "internalType": "bool",
          "name": "",
          "type": "bool"
        }
      ],
      "stateMutability": "pure",
      "type": "function"
    },
    {
      "inputs": [],
      "name": "symbol",
      "outputs": [
        {
          "internalType": "string",
          "name": "",
          "type": "string"
        }
      ],
      "stateMutability": "view",
      "type": "function"
    },
    {
      "inputs": [
        {
          "internalType": "uint256",
          "name": "id",
          "type": "uint256"
        }
      ],
      "name": "tokenURI",
      "outputs": [
        {
          "components": [
            {
              "internalType": "string",
              "name": "name",
              "type": "string"
            },
            {
              "internalType": "address",
              "name": "vaultAddress",
              "type": "address"
            },
            {
              "internalType": "uint256",
              "name": "withdrawable",
              "type": "uint256"
            },
            {
              "internalType": "uint256",
              "name": "id",
              "type": "uint256"
            },
            {
              "internalType": "uint256",
              "name": "vaultType",
              "type": "uint256"
            }
          ],
          "internalType": "struct BaseVault.MetaData",
          "name": "",
          "type": "tuple"
        }
      ],
      "stateMutability": "view",
      "type": "function"
    },
    {
      "inputs": [],
      "name": "totalDeposits",
      "outputs": [
        {
          "internalType": "uint256",
          "name": "",
          "type": "uint256"
        }
      ],
      "stateMutability": "view",
      "type": "function"
    },
    {
      "inputs": [
        {
          "internalType": "address",
          "name": "from",
          "type": "address"
        },
        {
          "internalType": "address",
          "name": "to",
          "type": "address"
        },
        {
          "internalType": "uint256",
          "name": "id",
          "type": "uint256"
        }
      ],
      "name": "transferFrom",
      "outputs": [],
      "stateMutability": "nonpayable",
      "type": "function"
    },
    {
      "inputs": [],
      "name": "vaultToken",
      "outputs": [
        {
          "internalType": "contract ERC20",
          "name": "",
          "type": "address"
        }
      ],
      "stateMutability": "view",
      "type": "function"
    },
    {
      "inputs": [
        {
          "internalType": "uint256",
          "name": "amount",
          "type": "uint256"
        },
        {
          "internalType": "uint256",
          "name": "id",
          "type": "uint256"
        }
      ],
      "name": "withdrawFromId",
      "outputs": [],
      "stateMutability": "nonpayable",
      "type": "function"
    },
    {
      "inputs": [
        {
          "internalType": "uint256",
          "name": "id",
          "type": "uint256"
        }
      ],
      "name": "withdrawableById",
      "outputs": [
        {
          "internalType": "uint256",
          "name": "claimId",
          "type": "uint256"
        }
      ],
      "stateMutability": "view",
      "type": "function"
    },
    {
      "inputs": [],
      "name": "yeildPerDeposit",
      "outputs": [
        {
          "internalType": "uint256",
          "name": "",
          "type": "uint256"
        }
      ],
      "stateMutability": "view",
      "type": "function"
    },
    {
      "inputs": [
        {
          "internalType": "uint256",
          "name": "id",
          "type": "uint256"
        }
      ],
      "name": "yieldPerId",
      "outputs": [
        {
          "internalType": "uint256",
          "name": "",
          "type": "uint256"
        }
      ],
      "stateMutability": "view",
      "type": "function"
    }
  ],
  "bytecode": {
    "object": "0x608060405234801561001057600080fd5b5061214c806100206000396000f3fe608060405234801561001057600080fd5b50600436106101fb5760003560e01c80636c9980e11161011a578063a22cb465116100ad578063ca1e3c831161007c578063ca1e3c83146104d4578063e00dd161146104dc578063e288ea64146104e5578063e985e9c5146104ed578063eaaf1fca1461051b57600080fd5b8063a22cb4651461045c578063a2d6b25f1461046f578063b02c43d014610478578063c87b56dd146104b457600080fd5b80637d882097116100e95780637d8820971461042f5780637f386b6c1461043857806389f3dd371461044157806395d89b411461045457600080fd5b80636c9980e1146103d65780636d43d9f1146103e9578063703bafd5146103fc57806370a082311461040f57600080fd5b806323b872dd1161019257806334d894c91161016157806334d894c9146103895780634b6d69d3146103915780636352211e146103a45780636b31ee01146103cd57600080fd5b806323b872dd146102ed57806323edc94d14610300578063277838df1461031357806329dcb0cf1461038057600080fd5b8063095ea7b3116101ce578063095ea7b314610291578063159b4962146102a65780631ab2f6af146102b95780631e86a9dc146102da57600080fd5b806301ffc9a714610200578063059b2a101461022857806306fdde0314610253578063081812fc14610268575b600080fd5b61021361020e366004611bb6565b61052e565b60405190151581526020015b60405180910390f35b600e5461023b906001600160a01b031681565b6040516001600160a01b03909116815260200161021f565b61025b610580565b60405161021f9190611c2d565b61023b610276366004611c40565b6004602052600090815260409020546001600160a01b031681565b6102a461029f366004611c75565b61060e565b005b6102a46102b4366004611c9f565b6106f5565b6102cc6102c7366004611c40565b610834565b60405190815260200161021f565b60155461023b906001600160a01b031681565b6102a46102fb366004611cc1565b61089a565b6102a461030e366004611db2565b610a61565b60105461034b9061ffff808216916201000081048216916401000000008204811691600160301b8104821691600160401b9091041685565b6040805161ffff968716815294861660208601529285169284019290925283166060830152909116608082015260a00161021f565b6102cc60125481565b6102a4610b46565b6102cc61039f366004611c40565b610ce4565b61023b6103b2366004611c40565b6003602052600090815260409020546001600160a01b031681565b6102cc60135481565b6102a46103e4366004611e8f565b610e8f565b6102cc6103f7366004611c40565b610f17565b600c5461023b906001600160a01b031681565b6102cc61041d366004611f14565b60026020526000908152604090205481565b6102cc60085481565b6102cc60115481565b6102a461044f366004611c40565b610f3b565b61025b610f5f565b6102a461046a366004611f3d565b610f6c565b6102cc60075481565b61049f610486366004611c40565b6006602052600090815260409020805460019091015482565b6040805192835260208301919091520161021f565b6104c76104c2366004611c40565b610fd8565b60405161021f9190611f74565b6102a46110d5565b6102cc600f5481565b6102a4611260565b6102136104fb366004611fcc565b600560209081526000928352604080842090915290825290205460ff1681565b6102a4610529366004611c9f565b6112ee565b60006301ffc9a760e01b6001600160e01b03198316148061055f57506380ac58cd60e01b6001600160e01b03198316145b8061057a5750635b5e139f60e01b6001600160e01b03198316145b92915050565b6000805461058d90611fff565b80601f01602080910402602001604051908101604052809291908181526020018280546105b990611fff565b80156106065780601f106105db57610100808354040283529160200191610606565b820191906000526020600020905b8154815290600101906020018083116105e957829003601f168201915b505050505081565b6000818152600360205260409020546001600160a01b03163381148061065757506001600160a01b038116600090815260056020908152604080832033845290915290205460ff165b6106995760405162461bcd60e51b815260206004820152600e60248201526d1393d517d055551213d49256915160921b60448201526064015b60405180910390fd5b60008281526004602052604080822080546001600160a01b0319166001600160a01b0387811691821790925591518593918516917f8c5be1e5ebec7d5bd14f71427d1e84f3dd0314c0f7b2291e5b200ac8c7c3b92591a4505050565b6000818152600360205260409020546001600160a01b03163314801561071d57506011548210155b801561072b57506012544211155b61073457600080fd5b6040805160a08101825260105461ffff80821683526201000082048116602084018190526401000000008304821694840194909452600160301b820481166060840152600160401b909104166080820152906107a790612710906107989086612050565b6107a2919061206f565b611343565b8051612710906107bb9061ffff1685612050565b6107c5919061206f565b601360008282546107d69190612091565b9091555050602081015181516000916107ee916120a9565b6107fa906127106120cf565b61ffff169050600061271061080f8387612050565b610819919061206f565b9050610823611378565b61082d8185611415565b5050505050565b600754600082815260066020526040812054909182916402540be4009161085a91612050565b610864919061206f565b600084815260066020526040902060010154909150610889906402540be4009061206f565b61089390826120f2565b9392505050565b6000818152600360205260409020546001600160a01b038481169116146108f05760405162461bcd60e51b815260206004820152600a60248201526957524f4e475f46524f4d60b01b6044820152606401610690565b6001600160a01b03821661093a5760405162461bcd60e51b81526020600482015260116024820152701253959053125117d49150d25412515395607a1b6044820152606401610690565b336001600160a01b038416148061096757506000818152600460205260409020546001600160a01b031633145b8061099557506001600160a01b038316600090815260056020908152604080832033845290915290205460ff165b6109d25760405162461bcd60e51b815260206004820152600e60248201526d1393d517d055551213d49256915160921b6044820152606401610690565b6001600160a01b0380841660008181526002602090815260408083208054600019019055938616808352848320805460010190558583526003825284832080546001600160a01b03199081168317909155600490925284832080549092169091559251849392917fddf252ad1be2c89b69c2b068fc378daa952ba7f163c4a11628f55a4df523b3ef91a4505050565b612710610a6e888a6120a9565b61ffff161115610a7d57600080fd5b610a8982828c8c610e8f565b6040805160a08101825261ffff8a81168083528a8216602084018190528883169484018590529187166060840181905260046080909401939093526010805463ffffffff1916909117620100009092029190911767ffffffff00000000191664010000000090930267ffff000000000000191692909217600160301b9091021769ffff000000000000000019166804000000000000000017905560118690556014859055610b378542612091565b60125550505050505050505050565b600e546001600160a01b0316610b8c5760405162461bcd60e51b815260206004820152600b60248201526a4e6f20537472617465677960a81b6044820152606401610690565b6000612710600854611388610ba19190612050565b610bab919061206f565b90506000600b5482610bbd91906120f2565b905080600b6000828254610bd19190612091565b9250508190555080600a6000828254610bea9190612091565b925050819055508060096000828254610c0391906120f2565b9091555050600c54600e5460405163095ea7b360e01b81526001600160a01b0391821660048201526024810184905291169063095ea7b3906044016020604051808303816000875af1158015610c5d573d6000803e3d6000fd5b505050506040513d601f19601f82011682018060405250810190610c819190612109565b50600e5460405163b6b55f2560e01b8152600481018390526001600160a01b039091169063b6b55f2590602401600060405180830381600087803b158015610cc857600080fd5b505af1158015610cdc573d6000803e3d6000fd5b505050505050565b60006011548210158015610cfa57506012544211155b610d465760405162461bcd60e51b815260206004820152601b60248201527f556e646572706169642c206f72207061737420646561646c696e6500000000006044820152606401610690565b6040805160a08101825260105461ffff8082168084526201000083048216602085018190526401000000008404831695850195909552600160301b830482166060850152600160401b9092041660808301529091600091610da791906120a9565b610db3906127106120cf565b61ffff1690506000612710610dc88387612050565b610dd2919061206f565b90506001600f541115610e3357610df9612710846020015161ffff16876107989190612050565b825161271090610e0d9061ffff1687612050565b610e17919061206f565b60136000828254610e289190612091565b90915550610e639050565b6020830151835161271091610e47916120a9565b610e559061ffff1687612050565b610e5f919061206f565b6013555b601580546001600160a01b03191633179055610e7d611378565b610e868161154b565b95945050505050565b600d5415610ed55760405162461bcd60e51b8152602060048201526013602482015272105b1c9958591e48125b9a5d1a585b1a5e9959606a1b6044820152606401610690565b610edf8484611671565b600e80546001600160a01b039283166001600160a01b031991821617909155600c805493909216921691909117905550506001600d55565b6000610f2282610834565b60008381526006602052604090205461057a9190612091565b6000610f4682610f17565b9050610f528183611698565b610f5b826118d1565b5050565b6001805461058d90611fff565b3360008181526005602090815260408083206001600160a01b03871680855290835292819020805460ff191686151590811790915590519081529192917f17307eab39ab6107e8899845ad3d59bd9653f200f220920489ca2b5937696c31910160405180910390a35050565b6110136040518060a001604052806060815260200160006001600160a01b031681526020016000815260200160008152602001600081525090565b6040518060a001604052806000805461102b90611fff565b80601f016020809104026020016040519081016040528092919081815260200182805461105790611fff565b80156110a45780601f10611079576101008083540402835291602001916110a4565b820191906000526020600020905b81548152906001019060200180831161108757829003601f168201915b50505091835250503060208201526040016110be84610f17565b815260200183815260200160008152509050919050565b600954600c546040516370a0823160e01b8152306004820152600092916001600160a01b0316906370a0823190602401602060405180830381865afa158015611122573d6000803e3d6000fd5b505050506040513d601f19601f820116820180604052508101906111469190612126565b61115091906120f2565b905080600960008282546111649190612091565b9091555050600e546000906001600160a01b0316611183576000611207565b600a54600e60009054906101000a90046001600160a01b03166001600160a01b031663460ffdae6040518163ffffffff1660e01b8152600401602060405180830381865afa1580156111d9573d6000803e3d6000fd5b505050506040513d601f19601f820116820180604052508101906111fd9190612126565b61120791906120f2565b905080600a600082825461121b9190612091565b909155505060085461122d8284612091565b61123c906402540be400612050565b611246919061206f565b600760008282546112579190612091565b90915550505050565b601254421161126e57600080fd5b600c5460155460135460405163a9059cbb60e01b81526001600160a01b039283166004820152602481019190915291169063a9059cbb906044016020604051808303816000875af11580156112c7573d6000803e3d6000fd5b505050506040513d601f19601f820116820180604052508101906112eb9190612109565b50565b60006112f982610f17565b90508083146113355760405162461bcd60e51b81526020600482015260086024820152672ab9b290313ab93760c11b6044820152606401610690565b61133e82610f3b565b505050565b600854611355826402540be400612050565b61135f919061206f565b600760008282546113709190612091565b909155505050565b601054601454612710916113999164010000000090910461ffff1690612050565b6113a3919061206f565b601460008282546113b491906120f2565b9091555050601454601280546000906113ce908490612091565b9091555050601054601154612710916113f391600160301b90910461ffff1690612050565b6113fd919061206f565b6011600082825461140e9190612091565b9091555050565b6000818152600360205260409020546001600160a01b0316331461143857600080fd5b60085415611448576114486110d5565b60008181526006602052604081208054849290611466908490612091565b90915550506007546114789083612050565b60008281526006602052604081206001018054909190611499908490612091565b9250508190555081600860008282546114b29190612091565b9250508190555081600960008282546114cb9190612091565b9091555050600c546040516323b872dd60e01b8152336004820152306024820152604481018490526001600160a01b03909116906323b872dd906064016020604051808303816000875af1158015611527573d6000803e3d6000fd5b505050506040513d601f19601f8201168201806040525081019061133e9190612109565b60008061156633600f6000815460010191905081905561199e565b60085490915015611579576115796110d5565b60008181526006602052604090208390556007546115979084612050565b600082815260066020526040812060010180549091906115b8908490612091565b9250508190555082600860008282546115d19190612091565b9250508190555082600960008282546115ea9190612091565b9091555050600c546040516323b872dd60e01b8152336004820152306024820152604481018590526001600160a01b03909116906323b872dd906064016020604051808303816000875af1158015611646573d6000803e3d6000fd5b505050506040513d601f19601f8201168201806040525081019061166a9190612109565b5092915050565b8051611684906001906020840190611b1d565b50815161133e906000906020850190611b1d565b6116a06110d5565b6000818152600360205260409020546001600160a01b0316331480156116ce57506116ca81610f17565b8211155b6116d757600080fd5b600c546040516370a0823160e01b81523060048201526000916001600160a01b0316906370a0823190602401602060405180830381865afa158015611720573d6000803e3d6000fd5b505050506040513d601f19601f820116820180604052508101906117449190612126565b905060008061175284610834565b9050808511156117da5761176681866120f2565b6000858152600660205260408120805492945084929091906117899084906120f2565b9250508190555081600860008282546117a291906120f2565b90915550506007546000858152600660205260409020546117c39190612050565b600085815260066020526040902060010155611810565b6117e9856402540be400612050565b6000858152600660205260408120600101805490919061180a908490612091565b90915550505b600083861161182057600061182a565b61182a84876120f2565b905080156118535761183b81611aad565b82600b600082825461184d91906120f2565b90915550505b600c5460405163a9059cbb60e01b8152336004820152602481018890526001600160a01b039091169063a9059cbb906044016020604051808303816000875af11580156118a4573d6000803e3d6000fd5b505050506040513d601f19601f820116820180604052508101906118c89190612109565b50505050505050565b6000818152600360205260409020546001600160a01b0316806119235760405162461bcd60e51b815260206004820152600a6024820152691393d517d3525395115160b21b6044820152606401610690565b6001600160a01b038116600081815260026020908152604080832080546000190190558583526003825280832080546001600160a01b031990811690915560049092528083208054909216909155518492907fddf252ad1be2c89b69c2b068fc378daa952ba7f163c4a11628f55a4df523b3ef908390a45050565b60006001600160a01b0383166119ea5760405162461bcd60e51b81526020600482015260116024820152701253959053125117d49150d25412515395607a1b6044820152606401610690565b6000828152600360205260409020546001600160a01b031615611a405760405162461bcd60e51b815260206004820152600e60248201526d1053149150511657d3525395115160921b6044820152606401610690565b6001600160a01b038316600081815260026020908152604080832080546001019055858352600390915280822080546001600160a01b0319168417905551849291907fddf252ad1be2c89b69c2b068fc378daa952ba7f163c4a11628f55a4df523b3ef908290a450919050565b600e54604051631c8901bb60e31b8152600481018390526001600160a01b039091169063e4480dd890602401600060405180830381600087803b158015611af357600080fd5b505af1158015611b07573d6000803e3d6000fd5b5050505080600a600082825461137091906120f2565b828054611b2990611fff565b90600052602060002090601f016020900481019282611b4b5760008555611b91565b82601f10611b6457805160ff1916838001178555611b91565b82800160010185558215611b91579182015b82811115611b91578251825591602001919060010190611b76565b50611b9d929150611ba1565b5090565b5b80821115611b9d5760008155600101611ba2565b600060208284031215611bc857600080fd5b81356001600160e01b03198116811461089357600080fd5b6000815180845260005b81811015611c0657602081850181015186830182015201611bea565b81811115611c18576000602083870101525b50601f01601f19169290920160200192915050565b6020815260006108936020830184611be0565b600060208284031215611c5257600080fd5b5035919050565b80356001600160a01b0381168114611c7057600080fd5b919050565b60008060408385031215611c8857600080fd5b611c9183611c59565b946020939093013593505050565b60008060408385031215611cb257600080fd5b50508035926020909101359150565b600080600060608486031215611cd657600080fd5b611cdf84611c59565b9250611ced60208501611c59565b9150604084013590509250925092565b803561ffff81168114611c7057600080fd5b634e487b7160e01b600052604160045260246000fd5b600082601f830112611d3657600080fd5b813567ffffffffffffffff80821115611d5157611d51611d0f565b604051601f8301601f19908116603f01168101908282118183101715611d7957611d79611d0f565b81604052838152866020858801011115611d9257600080fd5b836020870160208301376000602085830101528094505050505092915050565b6000806000806000806000806000806101408b8d031215611dd257600080fd5b611ddb8b611c59565b9950611de960208c01611c59565b9850611df760408c01611cfd565b9750611e0560608c01611cfd565b965060808b0135955060a08b01359450611e2160c08c01611cfd565b9350611e2f60e08c01611cfd565b92506101008b013567ffffffffffffffff80821115611e4d57600080fd5b611e598e838f01611d25565b93506101208d0135915080821115611e7057600080fd5b50611e7d8d828e01611d25565b9150509295989b9194979a5092959850565b60008060008060808587031215611ea557600080fd5b843567ffffffffffffffff80821115611ebd57600080fd5b611ec988838901611d25565b95506020870135915080821115611edf57600080fd5b50611eec87828801611d25565b935050611efb60408601611c59565b9150611f0960608601611c59565b905092959194509250565b600060208284031215611f2657600080fd5b61089382611c59565b80151581146112eb57600080fd5b60008060408385031215611f5057600080fd5b611f5983611c59565b91506020830135611f6981611f2f565b809150509250929050565b602081526000825160a06020840152611f9060c0840182611be0565b905060018060a01b0360208501511660408401526040840151606084015260608401516080840152608084015160a08401528091505092915050565b60008060408385031215611fdf57600080fd5b611fe883611c59565b9150611ff660208401611c59565b90509250929050565b600181811c9082168061201357607f821691505b6020821081141561203457634e487b7160e01b600052602260045260246000fd5b50919050565b634e487b7160e01b600052601160045260246000fd5b600081600019048311821515161561206a5761206a61203a565b500290565b60008261208c57634e487b7160e01b600052601260045260246000fd5b500490565b600082198211156120a4576120a461203a565b500190565b600061ffff8083168185168083038211156120c6576120c661203a565b01949350505050565b600061ffff838116908316818110156120ea576120ea61203a565b039392505050565b6000828210156121045761210461203a565b500390565b60006020828403121561211b57600080fd5b815161089381611f2f565b60006020828403121561213857600080fd5b505191905056fea164736f6c634300080a000a",
    "linkReferences": {}
  }
}