{
  "abi": [
    {
      "type": "constructor",
      "inputs": [
        {
          "internalType": "address",
          "name": "_vaultToken",
          "type": "address"
        },
        {
          "internalType": "uint16",
          "name": "_jackpotBP",
          "type": "uint16"
        },
        {
          "internalType": "uint16",
          "name": "_dividendsBP",
          "type": "uint16"
        },
        {
          "internalType": "uint256",
          "name": "_minimumPrice",
          "type": "uint256"
        },
        {
          "internalType": "uint256",
          "name": "_intialTimeSeconds",
          "type": "uint256"
        },
        {
          "internalType": "uint16",
          "name": "_timeDecay",
          "type": "uint16"
        },
        {
          "internalType": "uint16",
          "name": "_growthFactor",
          "type": "uint16"
        },
        {
          "internalType": "string",
          "name": "name",
          "type": "string"
        },
        {
          "internalType": "string",
          "name": "symbol",
          "type": "string"
        }
      ]
    },
    {
      "type": "function",
      "name": "approve",
      "inputs": [
        {
          "internalType": "address",
          "name": "spender",
          "type": "address"
        },
        {
          "internalType": "uint256",
          "name": "id",
          "type": "uint256"
        }
      ],
      "outputs": [],
      "stateMutability": "nonpayable"
    },
    {
      "type": "function",
      "name": "balanceOf",
      "inputs": [
        {
          "internalType": "address",
          "name": "",
          "type": "address"
        }
      ],
      "outputs": [
        {
          "internalType": "uint256",
          "name": "",
          "type": "uint256"
        }
      ],
      "stateMutability": "view"
    },
    {
      "type": "function",
      "name": "burnNFTAndWithdrawl",
      "inputs": [
        {
          "internalType": "uint256",
          "name": "id",
          "type": "uint256"
        }
      ],
      "outputs": [],
      "stateMutability": "nonpayable"
    },
    {
      "type": "function",
      "name": "claimJackpot",
      "inputs": [],
      "outputs": [],
      "stateMutability": "nonpayable"
    },
    {
      "type": "function",
      "name": "ctx",
      "inputs": [],
      "outputs": [
        {
          "internalType": "uint16",
          "name": "jackpotBP",
          "type": "uint16"
        },
        {
          "internalType": "uint16",
          "name": "dividendsBP",
          "type": "uint16"
        },
        {
          "internalType": "uint16",
          "name": "timeDecay",
          "type": "uint16"
        },
        {
          "internalType": "uint16",
          "name": "growthFactor",
          "type": "uint16"
        },
        {
          "internalType": "uint16",
          "name": "vaultType",
          "type": "uint16"
        }
      ],
      "stateMutability": "view"
    },
    {
      "type": "function",
      "name": "currentId",
      "inputs": [],
      "outputs": [
        {
          "internalType": "uint256",
          "name": "",
          "type": "uint256"
        }
      ],
      "stateMutability": "view"
    },
    {
      "type": "function",
      "name": "deadline",
      "inputs": [],
      "outputs": [
        {
          "internalType": "uint256",
          "name": "",
          "type": "uint256"
        }
      ],
      "stateMutability": "view"
    },
    {
      "type": "function",
      "name": "depositToId",
      "inputs": [
        {
          "internalType": "uint256",
          "name": "amount",
          "type": "uint256"
        },
        {
          "internalType": "uint256",
          "name": "id",
          "type": "uint256"
        }
      ],
      "outputs": [],
      "stateMutability": "nonpayable"
    },
    {
      "type": "function",
      "name": "deposits",
      "inputs": [
        {
          "internalType": "uint256",
          "name": "",
          "type": "uint256"
        }
      ],
      "outputs": [
        {
          "internalType": "uint256",
          "name": "amount",
          "type": "uint256"
        },
        {
          "internalType": "uint256",
          "name": "tracker",
          "type": "uint256"
        }
      ],
      "stateMutability": "view"
    },
    {
      "type": "function",
      "name": "distributeYeild",
      "inputs": [],
      "outputs": [],
      "stateMutability": "nonpayable"
    },
    {
      "type": "function",
      "name": "getApproved",
      "inputs": [
        {
          "internalType": "uint256",
          "name": "",
          "type": "uint256"
        }
      ],
      "outputs": [
        {
          "internalType": "address",
          "name": "",
          "type": "address"
        }
      ],
      "stateMutability": "view"
    },
    {
      "type": "function",
      "name": "initStrat",
      "inputs": [],
      "outputs": [],
      "stateMutability": "nonpayable"
    },
    {
      "type": "function",
      "name": "isApprovedForAll",
      "inputs": [
        {
          "internalType": "address",
          "name": "",
          "type": "address"
        },
        {
          "internalType": "address",
          "name": "",
          "type": "address"
        }
      ],
      "outputs": [
        {
          "internalType": "bool",
          "name": "",
          "type": "bool"
        }
      ],
      "stateMutability": "view"
    },
    {
      "type": "function",
      "name": "jackpot",
      "inputs": [],
      "outputs": [
        {
          "internalType": "uint256",
          "name": "",
          "type": "uint256"
        }
      ],
      "stateMutability": "view"
    },
    {
      "type": "function",
      "name": "lastDepositer",
      "inputs": [],
      "outputs": [
        {
          "internalType": "address",
          "name": "",
          "type": "address"
        }
      ],
      "stateMutability": "view"
    },
    {
      "type": "function",
      "name": "minimumPrice",
      "inputs": [],
      "outputs": [
        {
          "internalType": "uint256",
          "name": "",
          "type": "uint256"
        }
      ],
      "stateMutability": "view"
    },
    {
      "type": "function",
      "name": "mintNewNft",
      "inputs": [
        {
          "internalType": "uint256",
          "name": "amount",
          "type": "uint256"
        }
      ],
      "outputs": [
        {
          "internalType": "uint256",
          "name": "",
          "type": "uint256"
        }
      ],
      "stateMutability": "nonpayable"
    },
    {
      "type": "function",
      "name": "name",
      "inputs": [],
      "outputs": [
        {
          "internalType": "string",
          "name": "",
          "type": "string"
        }
      ],
      "stateMutability": "view"
    },
    {
      "type": "function",
      "name": "ownerOf",
      "inputs": [
        {
          "internalType": "uint256",
          "name": "",
          "type": "uint256"
        }
      ],
      "outputs": [
        {
          "internalType": "address",
          "name": "",
          "type": "address"
        }
      ],
      "stateMutability": "view"
    },
    {
      "type": "function",
      "name": "setApprovalForAll",
      "inputs": [
        {
          "internalType": "address",
          "name": "operator",
          "type": "address"
        },
        {
          "internalType": "bool",
          "name": "approved",
          "type": "bool"
        }
      ],
      "outputs": [],
      "stateMutability": "nonpayable"
    },
    {
      "type": "function",
      "name": "setStrat",
      "inputs": [
        {
          "internalType": "address",
          "name": "addr",
          "type": "address"
        }
      ],
      "outputs": [],
      "stateMutability": "nonpayable"
    },
    {
      "type": "function",
      "name": "supportsInterface",
      "inputs": [
        {
          "internalType": "bytes4",
          "name": "interfaceId",
          "type": "bytes4"
        }
      ],
      "outputs": [
        {
          "internalType": "bool",
          "name": "",
          "type": "bool"
        }
      ],
      "stateMutability": "pure"
    },
    {
      "type": "function",
      "name": "symbol",
      "inputs": [],
      "outputs": [
        {
          "internalType": "string",
          "name": "",
          "type": "string"
        }
      ],
      "stateMutability": "view"
    },
    {
      "type": "function",
      "name": "tokenURI",
      "inputs": [
        {
          "internalType": "uint256",
          "name": "id",
          "type": "uint256"
        }
      ],
      "outputs": [
        {
          "internalType": "struct BaseVault.MetaData",
          "name": "",
          "type": "tuple",
          "components": [
            {
              "type": "string"
            },
            {
              "type": "address"
            },
            {
              "type": "uint256"
            },
            {
              "type": "uint256"
            },
            {
              "type": "uint256"
            }
          ]
        }
      ],
      "stateMutability": "view"
    },
    {
      "type": "function",
      "name": "totalDeposits",
      "inputs": [],
      "outputs": [
        {
          "internalType": "uint256",
          "name": "",
          "type": "uint256"
        }
      ],
      "stateMutability": "view"
    },
    {
      "type": "function",
      "name": "transferFrom",
      "inputs": [
        {
          "internalType": "address",
          "name": "from",
          "type": "address"
        },
        {
          "internalType": "address",
          "name": "to",
          "type": "address"
        },
        {
          "internalType": "uint256",
          "name": "id",
          "type": "uint256"
        }
      ],
      "outputs": [],
      "stateMutability": "nonpayable"
    },
    {
      "type": "function",
      "name": "withdrawFromId",
      "inputs": [
        {
          "internalType": "uint256",
          "name": "amount",
          "type": "uint256"
        },
        {
          "internalType": "uint256",
          "name": "id",
          "type": "uint256"
        }
      ],
      "outputs": [],
      "stateMutability": "nonpayable"
    },
    {
      "type": "function",
      "name": "withdrawableById",
      "inputs": [
        {
          "internalType": "uint256",
          "name": "id",
          "type": "uint256"
        }
      ],
      "outputs": [
        {
          "internalType": "uint256",
          "name": "claimId",
          "type": "uint256"
        }
      ],
      "stateMutability": "view"
    },
    {
      "type": "function",
      "name": "yeildPerDeposit",
      "inputs": [],
      "outputs": [
        {
          "internalType": "uint256",
          "name": "",
          "type": "uint256"
        }
      ],
      "stateMutability": "view"
    },
    {
      "type": "function",
      "name": "yieldPerId",
      "inputs": [
        {
          "internalType": "uint256",
          "name": "id",
          "type": "uint256"
        }
      ],
      "outputs": [
        {
          "internalType": "uint256",
          "name": "",
          "type": "uint256"
        }
      ],
      "stateMutability": "view"
    },
    {
      "type": "event",
      "name": "Approval",
      "inputs": [
        {
          "name": "owner",
          "type": "address",
          "indexed": true
        },
        {
          "name": "spender",
          "type": "address",
          "indexed": true
        },
        {
          "name": "id",
          "type": "uint256",
          "indexed": true
        }
      ],
      "anonymous": false
    },
    {
      "type": "event",
      "name": "ApprovalForAll",
      "inputs": [
        {
          "name": "owner",
          "type": "address",
          "indexed": true
        },
        {
          "name": "operator",
          "type": "address",
          "indexed": true
        },
        {
          "name": "approved",
          "type": "bool",
          "indexed": false
        }
      ],
      "anonymous": false
    },
    {
      "type": "event",
      "name": "Transfer",
      "inputs": [
        {
          "name": "from",
          "type": "address",
          "indexed": true
        },
        {
          "name": "to",
          "type": "address",
          "indexed": true
        },
        {
          "name": "id",
          "type": "uint256",
          "indexed": true
        }
      ],
      "anonymous": false
    }
  ],
  "bytecode": {
    "object": "0x60c060405260016003553480156200001657600080fd5b50604051620022cb380380620022cb8339810160408190526200003991620002ea565b88828281818160009080519060200190620000569291906200015f565b5080516200006c9060019060208401906200015f565b5050506001600160a01b0390921660805250503360a05261271062000092888a620003e9565b61ffff161115620000a257600080fd5b6040805160a08101825261ffff8a81168083528a821660208401819052888316948401859052918716606084018190526004608090940193909352600f805463ffffffff1916909117620100009092029190911763ffffffff60201b191664010000000090930261ffff60301b19169290921766010000000000009091021761ffff60401b191668040000000000000000179055601086905560138590556200014c854262000412565b601155506200046a975050505050505050565b8280546200016d906200042d565b90600052602060002090601f016020900481019282620001915760008555620001dc565b82601f10620001ac57805160ff1916838001178555620001dc565b82800160010185558215620001dc579182015b82811115620001dc578251825591602001919060010190620001bf565b50620001ea929150620001ee565b5090565b5b80821115620001ea5760008155600101620001ef565b805161ffff811681146200021857600080fd5b919050565b634e487b7160e01b600052604160045260246000fd5b600082601f8301126200024557600080fd5b81516001600160401b03808211156200026257620002626200021d565b604051601f8301601f19908116603f011681019082821181831017156200028d576200028d6200021d565b81604052838152602092508683858801011115620002aa57600080fd5b600091505b83821015620002ce5785820183015181830184015290820190620002af565b83821115620002e05760008385830101525b9695505050505050565b60008060008060008060008060006101208a8c0312156200030a57600080fd5b89516001600160a01b03811681146200032257600080fd5b98506200033260208b0162000205565b97506200034260408b0162000205565b965060608a0151955060808a015194506200036060a08b0162000205565b93506200037060c08b0162000205565b60e08b01519093506001600160401b03808211156200038e57600080fd5b6200039c8d838e0162000233565b93506101008c0151915080821115620003b457600080fd5b50620003c38c828d0162000233565b9150509295985092959850929598565b634e487b7160e01b600052601160045260246000fd5b600061ffff808316818516808303821115620004095762000409620003d3565b01949350505050565b60008219821115620004285762000428620003d3565b500190565b600181811c908216806200044257607f821691505b602082108114156200046457634e487b7160e01b600052602260045260246000fd5b50919050565b60805160a051611e11620004ba60003960006107e5015260008181610b5e01528181610fbd0152818161117d015281816113f301528181611522015281816115f501526117930152611e116000f3fe608060405234801561001057600080fd5b50600436106101da5760003560e01c80636d43d9f111610104578063a2d6b25f116100a2578063e00dd16111610071578063e00dd16114610482578063e288ea641461048b578063e985e9c514610493578063eaaf1fca146104c157600080fd5b8063a2d6b25f14610415578063b02c43d01461041e578063c87b56dd1461045a578063ca1e3c831461047a57600080fd5b80637f386b6c116100de5780637f386b6c146103de57806389f3dd37146103e757806395d89b41146103fa578063a22cb4651461040257600080fd5b80636d43d9f1146103a257806370a08231146103b55780637d882097146103d557600080fd5b80631e86a9dc1161017c57806334d894c91161014b57806334d894c9146103555780634b6d69d31461035d5780636352211e146103705780636b31ee011461039957600080fd5b80631e86a9dc146102b957806323b872dd146102cc578063277838df146102df57806329dcb0cf1461034c57600080fd5b8063095ea7b3116101b8578063095ea7b31461025d578063159b49621461027257806316cc3b07146102855780631ab2f6af1461029857600080fd5b806301ffc9a7146101df57806306fdde0314610207578063081812fc1461021c575b600080fd5b6101f26101ed366004611a69565b6104d4565b60405190151581526020015b60405180910390f35b61020f610526565b6040516101fe9190611ae0565b61024561022a366004611af3565b6006602052600090815260409020546001600160a01b031681565b6040516001600160a01b0390911681526020016101fe565b61027061026b366004611b28565b6105b4565b005b610270610280366004611b52565b61069b565b610270610293366004611b74565b6107da565b6102ab6102a6366004611af3565b610846565b6040519081526020016101fe565b601454610245906001600160a01b031681565b6102706102da366004611b8f565b6108ac565b600f546103179061ffff808216916201000081048216916401000000008204811691600160301b8104821691600160401b9091041685565b6040805161ffff968716815294861660208601529285169284019290925283166060830152909116608082015260a0016101fe565b6102ab60115481565b610270610a73565b6102ab61036b366004611af3565b610c30565b61024561037e366004611af3565b6005602052600090815260409020546001600160a01b031681565b6102ab60125481565b6102ab6103b0366004611af3565b610ddb565b6102ab6103c3366004611b74565b60046020526000908152604090205481565b6102ab600a5481565b6102ab60105481565b6102706103f5366004611af3565b610dff565b61020f610e23565b610270610410366004611bd9565b610e30565b6102ab60095481565b61044561042c366004611af3565b6008602052600090815260409020805460019091015482565b604080519283526020830191909152016101fe565b61046d610468366004611af3565b610e9c565b6040516101fe9190611c10565b610270610f99565b6102ab60035481565b610270611142565b6101f26104a1366004611c68565b600760209081526000928352604080842090915290825290205460ff1681565b6102706104cf366004611b52565b6111ef565b60006301ffc9a760e01b6001600160e01b03198316148061050557506380ac58cd60e01b6001600160e01b03198316145b806105205750635b5e139f60e01b6001600160e01b03198316145b92915050565b6000805461053390611c9b565b80601f016020809104026020016040519081016040528092919081815260200182805461055f90611c9b565b80156105ac5780601f10610581576101008083540402835291602001916105ac565b820191906000526020600020905b81548152906001019060200180831161058f57829003601f168201915b505050505081565b6000818152600560205260409020546001600160a01b0316338114806105fd57506001600160a01b038116600090815260076020908152604080832033845290915290205460ff165b61063f5760405162461bcd60e51b815260206004820152600e60248201526d1393d517d055551213d49256915160921b60448201526064015b60405180910390fd5b60008281526006602052604080822080546001600160a01b0319166001600160a01b0387811691821790925591518593918516917f8c5be1e5ebec7d5bd14f71427d1e84f3dd0314c0f7b2291e5b200ac8c7c3b92591a4505050565b6000818152600560205260409020546001600160a01b0316331480156106c357506010548210155b80156106d157506011544211155b6106da57600080fd5b6040805160a081018252600f5461ffff80821683526201000082048116602084018190526401000000008304821694840194909452600160301b820481166060840152600160401b9091041660808201529061074d906127109061073e9086611cec565b6107489190611d0b565b611244565b8051612710906107619061ffff1685611cec565b61076b9190611d0b565b6012600082825461077c9190611d2d565b90915550506020810151815160009161079491611d45565b6107a090612710611d6b565b61ffff16905060006127106107b58387611cec565b6107bf9190611d0b565b90506107c9611279565b6107d38185611316565b5050505050565b336001600160a01b037f00000000000000000000000000000000000000000000000000000000000000001614801561081b5750600e546001600160a01b0316155b61082457600080fd5b600e80546001600160a01b0319166001600160a01b0392909216919091179055565b600954600082815260086020526040812054909182916402540be4009161086c91611cec565b6108769190611d0b565b60008481526008602052604090206001015490915061089b906402540be40090611d0b565b6108a59082611d8e565b9392505050565b6000818152600560205260409020546001600160a01b038481169116146109025760405162461bcd60e51b815260206004820152600a60248201526957524f4e475f46524f4d60b01b6044820152606401610636565b6001600160a01b03821661094c5760405162461bcd60e51b81526020600482015260116024820152701253959053125117d49150d25412515395607a1b6044820152606401610636565b336001600160a01b038416148061097957506000818152600660205260409020546001600160a01b031633145b806109a757506001600160a01b038316600090815260076020908152604080832033845290915290205460ff165b6109e45760405162461bcd60e51b815260206004820152600e60248201526d1393d517d055551213d49256915160921b6044820152606401610636565b6001600160a01b0380841660008181526004602090815260408083208054600019019055938616808352848320805460010190558583526005825284832080546001600160a01b03199081168317909155600690925284832080549092169091559251849392917fddf252ad1be2c89b69c2b068fc378daa952ba7f163c4a11628f55a4df523b3ef91a4505050565b600e546001600160a01b0316610ab95760405162461bcd60e51b815260206004820152600b60248201526a4e6f20537472617465677960a81b6044820152606401610636565b6000612710600a54611388610ace9190611cec565b610ad89190611d0b565b90506000600d5482610aea9190611d8e565b905080600d6000828254610afe9190611d2d565b9250508190555080600c6000828254610b179190611d2d565b9250508190555080600b6000828254610b309190611d8e565b9091555050600e5460405163095ea7b360e01b81526001600160a01b039182166004820152602481018390527f00000000000000000000000000000000000000000000000000000000000000009091169063095ea7b3906044016020604051808303816000875af1158015610ba9573d6000803e3d6000fd5b505050506040513d601f19601f82011682018060405250810190610bcd9190611da5565b50600e5460405163b6b55f2560e01b8152600481018390526001600160a01b039091169063b6b55f2590602401600060405180830381600087803b158015610c1457600080fd5b505af1158015610c28573d6000803e3d6000fd5b505050505050565b60006010548210158015610c4657506011544211155b610c925760405162461bcd60e51b815260206004820152601b60248201527f556e646572706169642c206f72207061737420646561646c696e6500000000006044820152606401610636565b6040805160a081018252600f5461ffff8082168084526201000083048216602085018190526401000000008404831695850195909552600160301b830482166060850152600160401b9092041660808301529091600091610cf39190611d45565b610cff90612710611d6b565b61ffff1690506000612710610d148387611cec565b610d1e9190611d0b565b905060016003541115610d7f57610d45612710846020015161ffff168761073e9190611cec565b825161271090610d599061ffff1687611cec565b610d639190611d0b565b60126000828254610d749190611d2d565b90915550610daf9050565b6020830151835161271091610d9391611d45565b610da19061ffff1687611cec565b610dab9190611d0b565b6012555b601480546001600160a01b03191633179055610dc9611279565b610dd281611468565b95945050505050565b6000610de682610846565b6000838152600860205260409020546105209190611d2d565b6000610e0a82610ddb565b9050610e16818361159e565b610e1f82611811565b5050565b6001805461053390611c9b565b3360008181526007602090815260408083206001600160a01b03871680855290835292819020805460ff191686151590811790915590519081529192917f17307eab39ab6107e8899845ad3d59bd9653f200f220920489ca2b5937696c31910160405180910390a35050565b610ed76040518060a001604052806060815260200160006001600160a01b031681526020016000815260200160008152602001600081525090565b6040518060a0016040528060008054610eef90611c9b565b80601f0160208091040260200160405190810160405280929190818152602001828054610f1b90611c9b565b8015610f685780601f10610f3d57610100808354040283529160200191610f68565b820191906000526020600020905b815481529060010190602001808311610f4b57829003601f168201915b5050509183525050306020820152604001610f8284610ddb565b815260200183815260200160008152509050919050565b600b546040516370a0823160e01b8152306004820152600091906001600160a01b037f000000000000000000000000000000000000000000000000000000000000000016906370a0823190602401602060405180830381865afa158015611004573d6000803e3d6000fd5b505050506040513d601f19601f820116820180604052508101906110289190611dc2565b6110329190611d8e565b905080600b60008282546110469190611d2d565b9091555050600e546000906001600160a01b03166110655760006110e9565b600c54600e60009054906101000a90046001600160a01b03166001600160a01b031663460ffdae6040518163ffffffff1660e01b8152600401602060405180830381865afa1580156110bb573d6000803e3d6000fd5b505050506040513d601f19601f820116820180604052508101906110df9190611dc2565b6110e99190611d8e565b905080600c60008282546110fd9190611d2d565b9091555050600a5461110f8284611d2d565b61111e906402540be400611cec565b6111289190611d0b565b600960008282546111399190611d2d565b90915550505050565b601154421161115057600080fd5b60145460125460405163a9059cbb60e01b81526001600160a01b03928316600482015260248101919091527f00000000000000000000000000000000000000000000000000000000000000009091169063a9059cbb906044016020604051808303816000875af11580156111c8573d6000803e3d6000fd5b505050506040513d601f19601f820116820180604052508101906111ec9190611da5565b50565b60006111fa82610ddb565b90508083146112365760405162461bcd60e51b81526020600482015260086024820152672ab9b290313ab93760c11b6044820152606401610636565b61123f82610dff565b505050565b600a54611256826402540be400611cec565b6112609190611d0b565b600960008282546112719190611d2d565b909155505050565b600f546013546127109161129a9164010000000090910461ffff1690611cec565b6112a49190611d0b565b601360008282546112b59190611d8e565b9091555050601354601180546000906112cf908490611d2d565b9091555050600f54601054612710916112f491600160301b90910461ffff1690611cec565b6112fe9190611d0b565b6010600082825461130f9190611d2d565b9091555050565b6000818152600560205260409020546001600160a01b0316331461133957600080fd5b600a541561134957611349610f99565b60008181526008602052604081208054849290611367908490611d2d565b90915550506009546113799083611cec565b6000828152600860205260408120600101805490919061139a908490611d2d565b9250508190555081600a60008282546113b39190611d2d565b9250508190555081600b60008282546113cc9190611d2d565b90915550506040516323b872dd60e01b8152336004820152306024820152604481018390527f00000000000000000000000000000000000000000000000000000000000000006001600160a01b0316906323b872dd906064016020604051808303816000875af1158015611444573d6000803e3d6000fd5b505050506040513d601f19601f8201168201806040525081019061123f9190611da5565b600080611477336003546118de565b600a549091501561148a5761148a610f99565b60008181526008602052604090208390556009546114a89084611cec565b600082815260086020526040812060010180549091906114c9908490611d2d565b9250508190555082600a60008282546114e29190611d2d565b9250508190555082600b60008282546114fb9190611d2d565b90915550506040516323b872dd60e01b8152336004820152306024820152604481018490527f00000000000000000000000000000000000000000000000000000000000000006001600160a01b0316906323b872dd906064016020604051808303816000875af1158015611573573d6000803e3d6000fd5b505050506040513d601f19601f820116820180604052508101906115979190611da5565b5092915050565b6115a6610f99565b6000818152600560205260409020546001600160a01b0316331480156115d457506115d081610ddb565b8211155b6115dd57600080fd5b6040516370a0823160e01b81523060048201526000907f00000000000000000000000000000000000000000000000000000000000000006001600160a01b0316906370a0823190602401602060405180830381865afa158015611644573d6000803e3d6000fd5b505050506040513d601f19601f820116820180604052508101906116689190611dc2565b905060008061167684610846565b9050808511156116fe5761168a8186611d8e565b6000858152600860205260408120805492945084929091906116ad908490611d8e565b9250508190555081600a60008282546116c69190611d8e565b90915550506009546000858152600860205260409020546116e79190611cec565b600085815260086020526040902060010155611734565b61170d856402540be400611cec565b6000858152600860205260408120600101805490919061172e908490611d2d565b90915550505b600083861161174457600061174e565b61174e8487611d8e565b905080156117775761175f816119f9565b82600d60008282546117719190611d8e565b90915550505b60405163a9059cbb60e01b8152336004820152602481018790527f00000000000000000000000000000000000000000000000000000000000000006001600160a01b03169063a9059cbb906044016020604051808303816000875af11580156117e4573d6000803e3d6000fd5b505050506040513d601f19601f820116820180604052508101906118089190611da5565b50505050505050565b6000818152600560205260409020546001600160a01b0316806118635760405162461bcd60e51b815260206004820152600a6024820152691393d517d3525395115160b21b6044820152606401610636565b6001600160a01b038116600081815260046020908152604080832080546000190190558583526005825280832080546001600160a01b031990811690915560069092528083208054909216909155518492907fddf252ad1be2c89b69c2b068fc378daa952ba7f163c4a11628f55a4df523b3ef908390a45050565b60006001600160a01b03831661192a5760405162461bcd60e51b81526020600482015260116024820152701253959053125117d49150d25412515395607a1b6044820152606401610636565b6000828152600560205260409020546001600160a01b0316156119805760405162461bcd60e51b815260206004820152600e60248201526d1053149150511657d3525395115160921b6044820152606401610636565b6001600160a01b038316600081815260046020908152604080832080546001908101909155600380549091019055858352600590915280822080546001600160a01b0319168417905551849291907fddf252ad1be2c89b69c2b068fc378daa952ba7f163c4a11628f55a4df523b3ef908290a450919050565b600e54604051631c8901bb60e31b8152600481018390526001600160a01b039091169063e4480dd890602401600060405180830381600087803b158015611a3f57600080fd5b505af1158015611a53573d6000803e3d6000fd5b5050505080600c60008282546112719190611d8e565b600060208284031215611a7b57600080fd5b81356001600160e01b0319811681146108a557600080fd5b6000815180845260005b81811015611ab957602081850181015186830182015201611a9d565b81811115611acb576000602083870101525b50601f01601f19169290920160200192915050565b6020815260006108a56020830184611a93565b600060208284031215611b0557600080fd5b5035919050565b80356001600160a01b0381168114611b2357600080fd5b919050565b60008060408385031215611b3b57600080fd5b611b4483611b0c565b946020939093013593505050565b60008060408385031215611b6557600080fd5b50508035926020909101359150565b600060208284031215611b8657600080fd5b6108a582611b0c565b600080600060608486031215611ba457600080fd5b611bad84611b0c565b9250611bbb60208501611b0c565b9150604084013590509250925092565b80151581146111ec57600080fd5b60008060408385031215611bec57600080fd5b611bf583611b0c565b91506020830135611c0581611bcb565b809150509250929050565b602081526000825160a06020840152611c2c60c0840182611a93565b905060018060a01b0360208501511660408401526040840151606084015260608401516080840152608084015160a08401528091505092915050565b60008060408385031215611c7b57600080fd5b611c8483611b0c565b9150611c9260208401611b0c565b90509250929050565b600181811c90821680611caf57607f821691505b60208210811415611cd057634e487b7160e01b600052602260045260246000fd5b50919050565b634e487b7160e01b600052601160045260246000fd5b6000816000190483118215151615611d0657611d06611cd6565b500290565b600082611d2857634e487b7160e01b600052601260045260246000fd5b500490565b60008219821115611d4057611d40611cd6565b500190565b600061ffff808316818516808303821115611d6257611d62611cd6565b01949350505050565b600061ffff83811690831681811015611d8657611d86611cd6565b039392505050565b600082821015611da057611da0611cd6565b500390565b600060208284031215611db757600080fd5b81516108a581611bcb565b600060208284031215611dd457600080fd5b505191905056fea2646970667358221220bd453c5f0890c55d689ea19dd6ec46e045b431bfbce3f2b49eea841d677b7e2b64736f6c634300080b0033",
    "linkReferences": {}
  }
}