{
  "abi": [
    {
      "anonymous": false,
      "inputs": [
        {
          "indexed": true,
          "internalType": "address",
          "name": "owner",
          "type": "address"
        },
        {
          "indexed": true,
          "internalType": "address",
          "name": "spender",
          "type": "address"
        },
        {
          "indexed": true,
          "internalType": "uint256",
          "name": "id",
          "type": "uint256"
        }
      ],
      "name": "Approval",
      "type": "event"
    },
    {
      "anonymous": false,
      "inputs": [
        {
          "indexed": true,
          "internalType": "address",
          "name": "owner",
          "type": "address"
        },
        {
          "indexed": true,
          "internalType": "address",
          "name": "operator",
          "type": "address"
        },
        {
          "indexed": false,
          "internalType": "bool",
          "name": "approved",
          "type": "bool"
        }
      ],
      "name": "ApprovalForAll",
      "type": "event"
    },
    {
      "anonymous": false,
      "inputs": [
        {
          "indexed": true,
          "internalType": "address",
          "name": "from",
          "type": "address"
        },
        {
          "indexed": true,
          "internalType": "address",
          "name": "to",
          "type": "address"
        },
        {
          "indexed": true,
          "internalType": "uint256",
          "name": "id",
          "type": "uint256"
        }
      ],
      "name": "Transfer",
      "type": "event"
    },
    {
      "inputs": [
        {
          "internalType": "address",
          "name": "spender",
          "type": "address"
        },
        {
          "internalType": "uint256",
          "name": "id",
          "type": "uint256"
        }
      ],
      "name": "approve",
      "outputs": [],
      "stateMutability": "nonpayable",
      "type": "function"
    },
    {
      "inputs": [
        {
          "internalType": "address",
          "name": "",
          "type": "address"
        }
      ],
      "name": "balanceOf",
      "outputs": [
        {
          "internalType": "uint256",
          "name": "",
          "type": "uint256"
        }
      ],
      "stateMutability": "view",
      "type": "function"
    },
    {
      "inputs": [
        {
          "internalType": "string",
          "name": "_name",
          "type": "string"
        },
        {
          "internalType": "string",
          "name": "_symbol",
          "type": "string"
        },
        {
          "internalType": "address",
          "name": "_token",
          "type": "address"
        },
        {
          "internalType": "address",
          "name": "strategy",
          "type": "address"
        }
      ],
      "name": "baseInit",
      "outputs": [],
      "stateMutability": "nonpayable",
      "type": "function"
    },
    {
      "inputs": [
        {
          "internalType": "uint256",
          "name": "id",
          "type": "uint256"
        }
      ],
      "name": "burnNFTAndWithdrawl",
      "outputs": [],
      "stateMutability": "nonpayable",
      "type": "function"
    },
    {
      "inputs": [],
      "name": "claimJackpot",
      "outputs": [],
      "stateMutability": "nonpayable",
      "type": "function"
    },
    {
      "inputs": [],
      "name": "ctx",
      "outputs": [
        {
          "internalType": "uint16",
          "name": "jackpotBP",
          "type": "uint16"
        },
        {
          "internalType": "uint16",
          "name": "dividendsBP",
          "type": "uint16"
        },
        {
          "internalType": "uint16",
          "name": "timeDecay",
          "type": "uint16"
        },
        {
          "internalType": "uint16",
          "name": "growthFactor",
          "type": "uint16"
        },
        {
          "internalType": "uint16",
          "name": "vaultType",
          "type": "uint16"
        }
      ],
      "stateMutability": "view",
      "type": "function"
    },
    {
      "inputs": [],
      "name": "currentId",
      "outputs": [
        {
          "internalType": "uint256",
          "name": "",
          "type": "uint256"
        }
      ],
      "stateMutability": "view",
      "type": "function"
    },
    {
      "inputs": [],
      "name": "deadline",
      "outputs": [
        {
          "internalType": "uint256",
          "name": "",
          "type": "uint256"
        }
      ],
      "stateMutability": "view",
      "type": "function"
    },
    {
      "inputs": [
        {
          "internalType": "uint256",
          "name": "amount",
          "type": "uint256"
        },
        {
          "internalType": "uint256",
          "name": "id",
          "type": "uint256"
        }
      ],
      "name": "depositToId",
      "outputs": [],
      "stateMutability": "nonpayable",
      "type": "function"
    },
    {
      "inputs": [
        {
          "internalType": "uint256",
          "name": "",
          "type": "uint256"
        }
      ],
      "name": "deposits",
      "outputs": [
        {
          "internalType": "uint256",
          "name": "amount",
          "type": "uint256"
        },
        {
          "internalType": "uint256",
          "name": "tracker",
          "type": "uint256"
        }
      ],
      "stateMutability": "view",
      "type": "function"
    },
    {
      "inputs": [],
      "name": "distributeYeild",
      "outputs": [],
      "stateMutability": "nonpayable",
      "type": "function"
    },
    {
      "inputs": [
        {
          "internalType": "uint256",
          "name": "",
          "type": "uint256"
        }
      ],
      "name": "getApproved",
      "outputs": [
        {
          "internalType": "address",
          "name": "",
          "type": "address"
        }
      ],
      "stateMutability": "view",
      "type": "function"
    },
    {
      "inputs": [
        {
          "internalType": "address",
          "name": "_vaultToken",
          "type": "address"
        },
        {
          "internalType": "address",
          "name": "_strategy",
          "type": "address"
        },
        {
          "internalType": "uint16",
          "name": "_jackpotBP",
          "type": "uint16"
        },
        {
          "internalType": "uint16",
          "name": "_dividendsBP",
          "type": "uint16"
        },
        {
          "internalType": "uint256",
          "name": "_minimumPrice",
          "type": "uint256"
        },
        {
          "internalType": "uint256",
          "name": "_intialTimeSeconds",
          "type": "uint256"
        },
        {
          "internalType": "uint16",
          "name": "_timeDecay",
          "type": "uint16"
        },
        {
          "internalType": "uint16",
          "name": "_growthFactor",
          "type": "uint16"
        },
        {
          "internalType": "string",
          "name": "_name",
          "type": "string"
        },
        {
          "internalType": "string",
          "name": "_symbol",
          "type": "string"
        }
      ],
      "name": "init",
      "outputs": [],
      "stateMutability": "nonpayable",
      "type": "function"
    },
    {
      "inputs": [],
      "name": "initStrat",
      "outputs": [],
      "stateMutability": "nonpayable",
      "type": "function"
    },
    {
      "inputs": [
        {
          "internalType": "address",
          "name": "",
          "type": "address"
        },
        {
          "internalType": "address",
          "name": "",
          "type": "address"
        }
      ],
      "name": "isApprovedForAll",
      "outputs": [
        {
          "internalType": "bool",
          "name": "",
          "type": "bool"
        }
      ],
      "stateMutability": "view",
      "type": "function"
    },
    {
      "inputs": [],
      "name": "jackpot",
      "outputs": [
        {
          "internalType": "uint256",
          "name": "",
          "type": "uint256"
        }
      ],
      "stateMutability": "view",
      "type": "function"
    },
    {
      "inputs": [],
      "name": "lastDepositer",
      "outputs": [
        {
          "internalType": "address",
          "name": "",
          "type": "address"
        }
      ],
      "stateMutability": "view",
      "type": "function"
    },
    {
      "inputs": [],
      "name": "minimumPrice",
      "outputs": [
        {
          "internalType": "uint256",
          "name": "",
          "type": "uint256"
        }
      ],
      "stateMutability": "view",
      "type": "function"
    },
    {
      "inputs": [
        {
          "internalType": "uint256",
          "name": "amount",
          "type": "uint256"
        }
      ],
      "name": "mintNewNft",
      "outputs": [
        {
          "internalType": "uint256",
          "name": "",
          "type": "uint256"
        }
      ],
      "stateMutability": "nonpayable",
      "type": "function"
    },
    {
      "inputs": [],
      "name": "name",
      "outputs": [
        {
          "internalType": "string",
          "name": "",
          "type": "string"
        }
      ],
      "stateMutability": "view",
      "type": "function"
    },
    {
      "inputs": [
        {
          "internalType": "uint256",
          "name": "",
          "type": "uint256"
        }
      ],
      "name": "ownerOf",
      "outputs": [
        {
          "internalType": "address",
          "name": "",
          "type": "address"
        }
      ],
      "stateMutability": "view",
      "type": "function"
    },
    {
      "inputs": [
        {
          "internalType": "address",
          "name": "operator",
          "type": "address"
        },
        {
          "internalType": "bool",
          "name": "approved",
          "type": "bool"
        }
      ],
      "name": "setApprovalForAll",
      "outputs": [],
      "stateMutability": "nonpayable",
      "type": "function"
    },
    {
      "inputs": [],
      "name": "strat",
      "outputs": [
        {
          "internalType": "contract IStrategy",
          "name": "",
          "type": "address"
        }
      ],
      "stateMutability": "view",
      "type": "function"
    },
    {
      "inputs": [
        {
          "internalType": "bytes4",
          "name": "interfaceId",
          "type": "bytes4"
        }
      ],
      "name": "supportsInterface",
      "outputs": [
        {
          "internalType": "bool",
          "name": "",
          "type": "bool"
        }
      ],
      "stateMutability": "pure",
      "type": "function"
    },
    {
      "inputs": [],
      "name": "symbol",
      "outputs": [
        {
          "internalType": "string",
          "name": "",
          "type": "string"
        }
      ],
      "stateMutability": "view",
      "type": "function"
    },
    {
      "inputs": [
        {
          "internalType": "uint256",
          "name": "id",
          "type": "uint256"
        }
      ],
      "name": "tokenURI",
      "outputs": [
        {
          "components": [
            {
              "internalType": "string",
              "name": "name",
              "type": "string"
            },
            {
              "internalType": "address",
              "name": "vaultAddress",
              "type": "address"
            },
            {
              "internalType": "uint256",
              "name": "withdrawable",
              "type": "uint256"
            },
            {
              "internalType": "uint256",
              "name": "id",
              "type": "uint256"
            },
            {
              "internalType": "uint256",
              "name": "vaultType",
              "type": "uint256"
            }
          ],
          "internalType": "struct BaseVault.MetaData",
          "name": "",
          "type": "tuple"
        }
      ],
      "stateMutability": "view",
      "type": "function"
    },
    {
      "inputs": [],
      "name": "totalDeposits",
      "outputs": [
        {
          "internalType": "uint256",
          "name": "",
          "type": "uint256"
        }
      ],
      "stateMutability": "view",
      "type": "function"
    },
    {
      "inputs": [
        {
          "internalType": "address",
          "name": "from",
          "type": "address"
        },
        {
          "internalType": "address",
          "name": "to",
          "type": "address"
        },
        {
          "internalType": "uint256",
          "name": "id",
          "type": "uint256"
        }
      ],
      "name": "transferFrom",
      "outputs": [],
      "stateMutability": "nonpayable",
      "type": "function"
    },
    {
      "inputs": [],
      "name": "vaultToken",
      "outputs": [
        {
          "internalType": "contract ERC20",
          "name": "",
          "type": "address"
        }
      ],
      "stateMutability": "view",
      "type": "function"
    },
    {
      "inputs": [
        {
          "internalType": "uint256",
          "name": "amount",
          "type": "uint256"
        },
        {
          "internalType": "uint256",
          "name": "id",
          "type": "uint256"
        }
      ],
      "name": "withdrawFromId",
      "outputs": [],
      "stateMutability": "nonpayable",
      "type": "function"
    },
    {
      "inputs": [
        {
          "internalType": "uint256",
          "name": "id",
          "type": "uint256"
        }
      ],
      "name": "withdrawableById",
      "outputs": [
        {
          "internalType": "uint256",
          "name": "claimId",
          "type": "uint256"
        }
      ],
      "stateMutability": "view",
      "type": "function"
    },
    {
      "inputs": [],
      "name": "yeildPerDeposit",
      "outputs": [
        {
          "internalType": "uint256",
          "name": "",
          "type": "uint256"
        }
      ],
      "stateMutability": "view",
      "type": "function"
    },
    {
      "inputs": [
        {
          "internalType": "uint256",
          "name": "id",
          "type": "uint256"
        }
      ],
      "name": "yieldPerId",
      "outputs": [
        {
          "internalType": "uint256",
          "name": "",
          "type": "uint256"
        }
      ],
      "stateMutability": "view",
      "type": "function"
    }
  ],
  "bytecode": {
    "object": "0x6080604052600160035534801561001557600080fd5b5061213c806100256000396000f3fe608060405234801561001057600080fd5b50600436106101fb5760003560e01c80636c9980e11161011a578063a22cb465116100ad578063ca1e3c831161007c578063ca1e3c83146104d4578063e00dd161146104dc578063e288ea64146104e5578063e985e9c5146104ed578063eaaf1fca1461051b57600080fd5b8063a22cb4651461045c578063a2d6b25f1461046f578063b02c43d014610478578063c87b56dd146104b457600080fd5b80637d882097116100e95780637d8820971461042f5780637f386b6c1461043857806389f3dd371461044157806395d89b411461045457600080fd5b80636c9980e1146103d65780636d43d9f1146103e9578063703bafd5146103fc57806370a082311461040f57600080fd5b806323b872dd1161019257806334d894c91161016157806334d894c9146103895780634b6d69d3146103915780636352211e146103a45780636b31ee01146103cd57600080fd5b806323b872dd146102ed57806323edc94d14610300578063277838df1461031357806329dcb0cf1461038057600080fd5b8063095ea7b3116101ce578063095ea7b314610291578063159b4962146102a65780631ab2f6af146102b95780631e86a9dc146102da57600080fd5b806301ffc9a714610200578063059b2a101461022857806306fdde0314610253578063081812fc14610268575b600080fd5b61021361020e366004611b7d565b61052e565b60405190151581526020015b60405180910390f35b60105461023b906001600160a01b031681565b6040516001600160a01b03909116815260200161021f565b61025b610580565b60405161021f9190611bf4565b61023b610276366004611c07565b6006602052600090815260409020546001600160a01b031681565b6102a461029f366004611c3c565b61060e565b005b6102a46102b4366004611c66565b6106f5565b6102cc6102c7366004611c07565b610834565b60405190815260200161021f565b60165461023b906001600160a01b031681565b6102a46102fb366004611c88565b61089a565b6102a461030e366004611d79565b610a61565b60115461034b9061ffff808216916201000081048216916401000000008204811691600160301b8104821691600160401b9091041685565b6040805161ffff968716815294861660208601529285169284019290925283166060830152909116608082015260a00161021f565b6102cc60135481565b6102a4610b46565b6102cc61039f366004611c07565b610ce4565b61023b6103b2366004611c07565b6005602052600090815260409020546001600160a01b031681565b6102cc60145481565b6102a46103e4366004611e56565b610e8f565b6102cc6103f7366004611c07565b610ede565b600e5461023b906001600160a01b031681565b6102cc61041d366004611edb565b60046020526000908152604090205481565b6102cc600a5481565b6102cc60125481565b6102a461044f366004611c07565b610f02565b61025b610f26565b6102a461046a366004611f04565b610f33565b6102cc60095481565b61049f610486366004611c07565b6008602052600090815260409020805460019091015482565b6040805192835260208301919091520161021f565b6104c76104c2366004611c07565b610f9f565b60405161021f9190611f3b565b6102a461109c565b6102cc60035481565b6102a4611227565b6102136104fb366004611f93565b600760209081526000928352604080842090915290825290205460ff1681565b6102a4610529366004611c66565b6112b5565b60006301ffc9a760e01b6001600160e01b03198316148061055f57506380ac58cd60e01b6001600160e01b03198316145b8061057a5750635b5e139f60e01b6001600160e01b03198316145b92915050565b6000805461058d90611fc6565b80601f01602080910402602001604051908101604052809291908181526020018280546105b990611fc6565b80156106065780601f106105db57610100808354040283529160200191610606565b820191906000526020600020905b8154815290600101906020018083116105e957829003601f168201915b505050505081565b6000818152600560205260409020546001600160a01b03163381148061065757506001600160a01b038116600090815260076020908152604080832033845290915290205460ff165b6106995760405162461bcd60e51b815260206004820152600e60248201526d1393d517d055551213d49256915160921b60448201526064015b60405180910390fd5b60008281526006602052604080822080546001600160a01b0319166001600160a01b0387811691821790925591518593918516917f8c5be1e5ebec7d5bd14f71427d1e84f3dd0314c0f7b2291e5b200ac8c7c3b92591a4505050565b6000818152600560205260409020546001600160a01b03163314801561071d57506012548210155b801561072b57506013544211155b61073457600080fd5b6040805160a08101825260115461ffff80821683526201000082048116602084018190526401000000008304821694840194909452600160301b820481166060840152600160401b909104166080820152906107a790612710906107989086612017565b6107a29190612036565b61130a565b8051612710906107bb9061ffff1685612017565b6107c59190612036565b601460008282546107d69190612058565b9091555050602081015181516000916107ee91612070565b6107fa90612710612096565b61ffff169050600061271061080f8387612017565b6108199190612036565b905061082361133f565b61082d81856113dc565b5050505050565b600954600082815260086020526040812054909182916402540be4009161085a91612017565b6108649190612036565b600084815260086020526040902060010154909150610889906402540be40090612036565b61089390826120b9565b9392505050565b6000818152600560205260409020546001600160a01b038481169116146108f05760405162461bcd60e51b815260206004820152600a60248201526957524f4e475f46524f4d60b01b6044820152606401610690565b6001600160a01b03821661093a5760405162461bcd60e51b81526020600482015260116024820152701253959053125117d49150d25412515395607a1b6044820152606401610690565b336001600160a01b038416148061096757506000818152600660205260409020546001600160a01b031633145b8061099557506001600160a01b038316600090815260076020908152604080832033845290915290205460ff165b6109d25760405162461bcd60e51b815260206004820152600e60248201526d1393d517d055551213d49256915160921b6044820152606401610690565b6001600160a01b0380841660008181526004602090815260408083208054600019019055938616808352848320805460010190558583526005825284832080546001600160a01b03199081168317909155600690925284832080549092169091559251849392917fddf252ad1be2c89b69c2b068fc378daa952ba7f163c4a11628f55a4df523b3ef91a4505050565b612710610a6e888a612070565b61ffff161115610a7d57600080fd5b610a8982828c8c610e8f565b6040805160a08101825261ffff8a81168083528a8216602084018190528883169484018590529187166060840181905260046080909401939093526011805463ffffffff1916909117620100009092029190911767ffffffff00000000191664010000000090930267ffff000000000000191692909217600160301b9091021769ffff000000000000000019166804000000000000000017905560128690556015859055610b378542612058565b60135550505050505050505050565b6010546001600160a01b0316610b8c5760405162461bcd60e51b815260206004820152600b60248201526a4e6f20537472617465677960a81b6044820152606401610690565b6000612710600a54611388610ba19190612017565b610bab9190612036565b90506000600d5482610bbd91906120b9565b905080600d6000828254610bd19190612058565b9250508190555080600c6000828254610bea9190612058565b9250508190555080600b6000828254610c0391906120b9565b9091555050600e5460105460405163095ea7b360e01b81526001600160a01b0391821660048201526024810184905291169063095ea7b3906044016020604051808303816000875af1158015610c5d573d6000803e3d6000fd5b505050506040513d601f19601f82011682018060405250810190610c8191906120d0565b5060105460405163b6b55f2560e01b8152600481018390526001600160a01b039091169063b6b55f2590602401600060405180830381600087803b158015610cc857600080fd5b505af1158015610cdc573d6000803e3d6000fd5b505050505050565b60006012548210158015610cfa57506013544211155b610d465760405162461bcd60e51b815260206004820152601b60248201527f556e646572706169642c206f72207061737420646561646c696e6500000000006044820152606401610690565b6040805160a08101825260115461ffff8082168084526201000083048216602085018190526401000000008404831695850195909552600160301b830482166060850152600160401b9092041660808301529091600091610da79190612070565b610db390612710612096565b61ffff1690506000612710610dc88387612017565b610dd29190612036565b905060016003541115610e3357610df9612710846020015161ffff16876107989190612017565b825161271090610e0d9061ffff1687612017565b610e179190612036565b60146000828254610e289190612058565b90915550610e639050565b6020830151835161271091610e4791612070565b610e559061ffff1687612017565b610e5f9190612036565b6014555b601680546001600160a01b03191633179055610e7d61133f565b610e8681611512565b95945050505050565b600f5415610e9c57600080fd5b610ea6848461162c565b601080546001600160a01b039283166001600160a01b031991821617909155600e805493909216921691909117905550506001600f55565b6000610ee982610834565b60008381526008602052604090205461057a9190612058565b6000610f0d82610ede565b9050610f198183611653565b610f228261188c565b5050565b6001805461058d90611fc6565b3360008181526007602090815260408083206001600160a01b03871680855290835292819020805460ff191686151590811790915590519081529192917f17307eab39ab6107e8899845ad3d59bd9653f200f220920489ca2b5937696c31910160405180910390a35050565b610fda6040518060a001604052806060815260200160006001600160a01b031681526020016000815260200160008152602001600081525090565b6040518060a0016040528060008054610ff290611fc6565b80601f016020809104026020016040519081016040528092919081815260200182805461101e90611fc6565b801561106b5780601f106110405761010080835404028352916020019161106b565b820191906000526020600020905b81548152906001019060200180831161104e57829003601f168201915b505050918352505030602082015260400161108584610ede565b815260200183815260200160008152509050919050565b600b54600e546040516370a0823160e01b8152306004820152600092916001600160a01b0316906370a0823190602401602060405180830381865afa1580156110e9573d6000803e3d6000fd5b505050506040513d601f19601f8201168201806040525081019061110d91906120ed565b61111791906120b9565b905080600b600082825461112b9190612058565b90915550506010546000906001600160a01b031661114a5760006111ce565b600c54601060009054906101000a90046001600160a01b03166001600160a01b031663460ffdae6040518163ffffffff1660e01b8152600401602060405180830381865afa1580156111a0573d6000803e3d6000fd5b505050506040513d601f19601f820116820180604052508101906111c491906120ed565b6111ce91906120b9565b905080600c60008282546111e29190612058565b9091555050600a546111f48284612058565b611203906402540be400612017565b61120d9190612036565b6009600082825461121e9190612058565b90915550505050565b601354421161123557600080fd5b600e5460165460145460405163a9059cbb60e01b81526001600160a01b039283166004820152602481019190915291169063a9059cbb906044016020604051808303816000875af115801561128e573d6000803e3d6000fd5b505050506040513d601f19601f820116820180604052508101906112b291906120d0565b50565b60006112c082610ede565b90508083146112fc5760405162461bcd60e51b81526020600482015260086024820152672ab9b290313ab93760c11b6044820152606401610690565b61130582610f02565b505050565b600a5461131c826402540be400612017565b6113269190612036565b600960008282546113379190612058565b909155505050565b601154601554612710916113609164010000000090910461ffff1690612017565b61136a9190612036565b6015600082825461137b91906120b9565b909155505060155460138054600090611395908490612058565b9091555050601154601254612710916113ba91600160301b90910461ffff1690612017565b6113c49190612036565b601260008282546113d59190612058565b9091555050565b6000818152600560205260409020546001600160a01b031633146113ff57600080fd5b600a541561140f5761140f61109c565b6000818152600860205260408120805484929061142d908490612058565b909155505060095461143f9083612017565b60008281526008602052604081206001018054909190611460908490612058565b9250508190555081600a60008282546114799190612058565b9250508190555081600b60008282546114929190612058565b9091555050600e546040516323b872dd60e01b8152336004820152306024820152604481018490526001600160a01b03909116906323b872dd906064016020604051808303816000875af11580156114ee573d6000803e3d6000fd5b505050506040513d601f19601f8201168201806040525081019061130591906120d0565b60008061152133600354611959565b600a54909150156115345761153461109c565b60008181526008602052604090208390556009546115529084612017565b60008281526008602052604081206001018054909190611573908490612058565b9250508190555082600a600082825461158c9190612058565b9250508190555082600b60008282546115a59190612058565b9091555050600e546040516323b872dd60e01b8152336004820152306024820152604481018590526001600160a01b03909116906323b872dd906064016020604051808303816000875af1158015611601573d6000803e3d6000fd5b505050506040513d601f19601f8201168201806040525081019061162591906120d0565b5092915050565b805161163f906001906020840190611ae4565b508151611305906000906020850190611ae4565b61165b61109c565b6000818152600560205260409020546001600160a01b031633148015611689575061168581610ede565b8211155b61169257600080fd5b600e546040516370a0823160e01b81523060048201526000916001600160a01b0316906370a0823190602401602060405180830381865afa1580156116db573d6000803e3d6000fd5b505050506040513d601f19601f820116820180604052508101906116ff91906120ed565b905060008061170d84610834565b9050808511156117955761172181866120b9565b6000858152600860205260408120805492945084929091906117449084906120b9565b9250508190555081600a600082825461175d91906120b9565b909155505060095460008581526008602052604090205461177e9190612017565b6000858152600860205260409020600101556117cb565b6117a4856402540be400612017565b600085815260086020526040812060010180549091906117c5908490612058565b90915550505b60008386116117db5760006117e5565b6117e584876120b9565b9050801561180e576117f681611a74565b82600d600082825461180891906120b9565b90915550505b600e5460405163a9059cbb60e01b8152336004820152602481018890526001600160a01b039091169063a9059cbb906044016020604051808303816000875af115801561185f573d6000803e3d6000fd5b505050506040513d601f19601f8201168201806040525081019061188391906120d0565b50505050505050565b6000818152600560205260409020546001600160a01b0316806118de5760405162461bcd60e51b815260206004820152600a6024820152691393d517d3525395115160b21b6044820152606401610690565b6001600160a01b038116600081815260046020908152604080832080546000190190558583526005825280832080546001600160a01b031990811690915560069092528083208054909216909155518492907fddf252ad1be2c89b69c2b068fc378daa952ba7f163c4a11628f55a4df523b3ef908390a45050565b60006001600160a01b0383166119a55760405162461bcd60e51b81526020600482015260116024820152701253959053125117d49150d25412515395607a1b6044820152606401610690565b6000828152600560205260409020546001600160a01b0316156119fb5760405162461bcd60e51b815260206004820152600e60248201526d1053149150511657d3525395115160921b6044820152606401610690565b6001600160a01b038316600081815260046020908152604080832080546001908101909155600380549091019055858352600590915280822080546001600160a01b0319168417905551849291907fddf252ad1be2c89b69c2b068fc378daa952ba7f163c4a11628f55a4df523b3ef908290a450919050565b601054604051631c8901bb60e31b8152600481018390526001600160a01b039091169063e4480dd890602401600060405180830381600087803b158015611aba57600080fd5b505af1158015611ace573d6000803e3d6000fd5b5050505080600c600082825461133791906120b9565b828054611af090611fc6565b90600052602060002090601f016020900481019282611b125760008555611b58565b82601f10611b2b57805160ff1916838001178555611b58565b82800160010185558215611b58579182015b82811115611b58578251825591602001919060010190611b3d565b50611b64929150611b68565b5090565b5b80821115611b645760008155600101611b69565b600060208284031215611b8f57600080fd5b81356001600160e01b03198116811461089357600080fd5b6000815180845260005b81811015611bcd57602081850181015186830182015201611bb1565b81811115611bdf576000602083870101525b50601f01601f19169290920160200192915050565b6020815260006108936020830184611ba7565b600060208284031215611c1957600080fd5b5035919050565b80356001600160a01b0381168114611c3757600080fd5b919050565b60008060408385031215611c4f57600080fd5b611c5883611c20565b946020939093013593505050565b60008060408385031215611c7957600080fd5b50508035926020909101359150565b600080600060608486031215611c9d57600080fd5b611ca684611c20565b9250611cb460208501611c20565b9150604084013590509250925092565b803561ffff81168114611c3757600080fd5b634e487b7160e01b600052604160045260246000fd5b600082601f830112611cfd57600080fd5b813567ffffffffffffffff80821115611d1857611d18611cd6565b604051601f8301601f19908116603f01168101908282118183101715611d4057611d40611cd6565b81604052838152866020858801011115611d5957600080fd5b836020870160208301376000602085830101528094505050505092915050565b6000806000806000806000806000806101408b8d031215611d9957600080fd5b611da28b611c20565b9950611db060208c01611c20565b9850611dbe60408c01611cc4565b9750611dcc60608c01611cc4565b965060808b0135955060a08b01359450611de860c08c01611cc4565b9350611df660e08c01611cc4565b92506101008b013567ffffffffffffffff80821115611e1457600080fd5b611e208e838f01611cec565b93506101208d0135915080821115611e3757600080fd5b50611e448d828e01611cec565b9150509295989b9194979a5092959850565b60008060008060808587031215611e6c57600080fd5b843567ffffffffffffffff80821115611e8457600080fd5b611e9088838901611cec565b95506020870135915080821115611ea657600080fd5b50611eb387828801611cec565b935050611ec260408601611c20565b9150611ed060608601611c20565b905092959194509250565b600060208284031215611eed57600080fd5b61089382611c20565b80151581146112b257600080fd5b60008060408385031215611f1757600080fd5b611f2083611c20565b91506020830135611f3081611ef6565b809150509250929050565b602081526000825160a06020840152611f5760c0840182611ba7565b905060018060a01b0360208501511660408401526040840151606084015260608401516080840152608084015160a08401528091505092915050565b60008060408385031215611fa657600080fd5b611faf83611c20565b9150611fbd60208401611c20565b90509250929050565b600181811c90821680611fda57607f821691505b60208210811415611ffb57634e487b7160e01b600052602260045260246000fd5b50919050565b634e487b7160e01b600052601160045260246000fd5b600081600019048311821515161561203157612031612001565b500290565b60008261205357634e487b7160e01b600052601260045260246000fd5b500490565b6000821982111561206b5761206b612001565b500190565b600061ffff80831681851680830382111561208d5761208d612001565b01949350505050565b600061ffff838116908316818110156120b1576120b1612001565b039392505050565b6000828210156120cb576120cb612001565b500390565b6000602082840312156120e257600080fd5b815161089381611ef6565b6000602082840312156120ff57600080fd5b505191905056fea264697066735822122018aab5fcc4ee0a13444c5fff96c28cd5521058821ba3fb7f81ccd8bab50c29bd64736f6c634300080a0033",
    "linkReferences": {}
  },
  "methodIdentifiers": {
    "approve(address,uint256)": "095ea7b3",
    "balanceOf(address)": "70a08231",
    "baseInit(string,string,address,address)": "6c9980e1",
    "burnNFTAndWithdrawl(uint256)": "89f3dd37",
    "claimJackpot()": "e288ea64",
    "ctx()": "277838df",
    "currentId()": "e00dd161",
    "deadline()": "29dcb0cf",
    "depositToId(uint256,uint256)": "159b4962",
    "deposits(uint256)": "b02c43d0",
    "distributeYeild()": "ca1e3c83",
    "getApproved(uint256)": "081812fc",
    "init(address,address,uint16,uint16,uint256,uint256,uint16,uint16,string,string)": "23edc94d",
    "initStrat()": "34d894c9",
    "isApprovedForAll(address,address)": "e985e9c5",
    "jackpot()": "6b31ee01",
    "lastDepositer()": "1e86a9dc",
    "minimumPrice()": "7f386b6c",
    "mintNewNft(uint256)": "4b6d69d3",
    "name()": "06fdde03",
    "ownerOf(uint256)": "6352211e",
    "setApprovalForAll(address,bool)": "a22cb465",
    "strat()": "059b2a10",
    "supportsInterface(bytes4)": "01ffc9a7",
    "symbol()": "95d89b41",
    "tokenURI(uint256)": "c87b56dd",
    "totalDeposits()": "7d882097",
    "transferFrom(address,address,uint256)": "23b872dd",
    "vaultToken()": "703bafd5",
    "withdrawFromId(uint256,uint256)": "eaaf1fca",
    "withdrawableById(uint256)": "6d43d9f1",
    "yeildPerDeposit()": "a2d6b25f",
    "yieldPerId(uint256)": "1ab2f6af"
  }
}