{
  "abi": [
    {
      "type": "constructor",
      "inputs": [
        {
          "internalType": "address",
          "name": "_vaultToken",
          "type": "address"
        },
        {
          "internalType": "uint16",
          "name": "_jackpotBP",
          "type": "uint16"
        },
        {
          "internalType": "uint16",
          "name": "_dividendsBP",
          "type": "uint16"
        },
        {
          "internalType": "uint256",
          "name": "_minimumPrice",
          "type": "uint256"
        },
        {
          "internalType": "uint256",
          "name": "_intialTimeSeconds",
          "type": "uint256"
        },
        {
          "internalType": "uint16",
          "name": "_timeDecay",
          "type": "uint16"
        },
        {
          "internalType": "uint16",
          "name": "_growthFactor",
          "type": "uint16"
        },
        {
          "internalType": "string",
          "name": "name",
          "type": "string"
        },
        {
          "internalType": "string",
          "name": "symbol",
          "type": "string"
        }
      ]
    },
    {
      "type": "function",
      "name": "approve",
      "inputs": [
        {
          "internalType": "address",
          "name": "spender",
          "type": "address"
        },
        {
          "internalType": "uint256",
          "name": "id",
          "type": "uint256"
        }
      ],
      "outputs": [],
      "stateMutability": "nonpayable"
    },
    {
      "type": "function",
      "name": "balanceOf",
      "inputs": [
        {
          "internalType": "address",
          "name": "",
          "type": "address"
        }
      ],
      "outputs": [
        {
          "internalType": "uint256",
          "name": "",
          "type": "uint256"
        }
      ],
      "stateMutability": "view"
    },
    {
      "type": "function",
      "name": "burnNFTAndWithdrawl",
      "inputs": [
        {
          "internalType": "uint256",
          "name": "id",
          "type": "uint256"
        }
      ],
      "outputs": [],
      "stateMutability": "nonpayable"
    },
    {
      "type": "function",
      "name": "claimJackpot",
      "inputs": [],
      "outputs": [],
      "stateMutability": "nonpayable"
    },
    {
      "type": "function",
      "name": "ctx",
      "inputs": [],
      "outputs": [
        {
          "internalType": "uint16",
          "name": "jackpotBP",
          "type": "uint16"
        },
        {
          "internalType": "uint16",
          "name": "dividendsBP",
          "type": "uint16"
        },
        {
          "internalType": "uint16",
          "name": "timeDecay",
          "type": "uint16"
        },
        {
          "internalType": "uint16",
          "name": "growthFactor",
          "type": "uint16"
        },
        {
          "internalType": "uint16",
          "name": "vaultType",
          "type": "uint16"
        }
      ],
      "stateMutability": "view"
    },
    {
      "type": "function",
      "name": "currentId",
      "inputs": [],
      "outputs": [
        {
          "internalType": "uint256",
          "name": "",
          "type": "uint256"
        }
      ],
      "stateMutability": "view"
    },
    {
      "type": "function",
      "name": "deadline",
      "inputs": [],
      "outputs": [
        {
          "internalType": "uint256",
          "name": "",
          "type": "uint256"
        }
      ],
      "stateMutability": "view"
    },
    {
      "type": "function",
      "name": "depositToId",
      "inputs": [
        {
          "internalType": "uint256",
          "name": "amount",
          "type": "uint256"
        },
        {
          "internalType": "uint256",
          "name": "id",
          "type": "uint256"
        }
      ],
      "outputs": [],
      "stateMutability": "nonpayable"
    },
    {
      "type": "function",
      "name": "deposits",
      "inputs": [
        {
          "internalType": "uint256",
          "name": "",
          "type": "uint256"
        }
      ],
      "outputs": [
        {
          "internalType": "uint256",
          "name": "amount",
          "type": "uint256"
        },
        {
          "internalType": "uint256",
          "name": "tracker",
          "type": "uint256"
        }
      ],
      "stateMutability": "view"
    },
    {
      "type": "function",
      "name": "distributeYeild",
      "inputs": [],
      "outputs": [],
      "stateMutability": "nonpayable"
    },
    {
      "type": "function",
      "name": "getApproved",
      "inputs": [
        {
          "internalType": "uint256",
          "name": "",
          "type": "uint256"
        }
      ],
      "outputs": [
        {
          "internalType": "address",
          "name": "",
          "type": "address"
        }
      ],
      "stateMutability": "view"
    },
    {
      "type": "function",
      "name": "initStrat",
      "inputs": [],
      "outputs": [],
      "stateMutability": "nonpayable"
    },
    {
      "type": "function",
      "name": "isApprovedForAll",
      "inputs": [
        {
          "internalType": "address",
          "name": "",
          "type": "address"
        },
        {
          "internalType": "address",
          "name": "",
          "type": "address"
        }
      ],
      "outputs": [
        {
          "internalType": "bool",
          "name": "",
          "type": "bool"
        }
      ],
      "stateMutability": "view"
    },
    {
      "type": "function",
      "name": "jackpot",
      "inputs": [],
      "outputs": [
        {
          "internalType": "uint256",
          "name": "",
          "type": "uint256"
        }
      ],
      "stateMutability": "view"
    },
    {
      "type": "function",
      "name": "lastDepositer",
      "inputs": [],
      "outputs": [
        {
          "internalType": "address",
          "name": "",
          "type": "address"
        }
      ],
      "stateMutability": "view"
    },
    {
      "type": "function",
      "name": "minimumPrice",
      "inputs": [],
      "outputs": [
        {
          "internalType": "uint256",
          "name": "",
          "type": "uint256"
        }
      ],
      "stateMutability": "view"
    },
    {
      "type": "function",
      "name": "mintNewNft",
      "inputs": [
        {
          "internalType": "uint256",
          "name": "amount",
          "type": "uint256"
        }
      ],
      "outputs": [
        {
          "internalType": "uint256",
          "name": "",
          "type": "uint256"
        }
      ],
      "stateMutability": "nonpayable"
    },
    {
      "type": "function",
      "name": "name",
      "inputs": [],
      "outputs": [
        {
          "internalType": "string",
          "name": "",
          "type": "string"
        }
      ],
      "stateMutability": "view"
    },
    {
      "type": "function",
      "name": "ownerOf",
      "inputs": [
        {
          "internalType": "uint256",
          "name": "",
          "type": "uint256"
        }
      ],
      "outputs": [
        {
          "internalType": "address",
          "name": "",
          "type": "address"
        }
      ],
      "stateMutability": "view"
    },
    {
      "type": "function",
      "name": "setApprovalForAll",
      "inputs": [
        {
          "internalType": "address",
          "name": "operator",
          "type": "address"
        },
        {
          "internalType": "bool",
          "name": "approved",
          "type": "bool"
        }
      ],
      "outputs": [],
      "stateMutability": "nonpayable"
    },
    {
      "type": "function",
      "name": "setStrat",
      "inputs": [
        {
          "internalType": "address",
          "name": "addr",
          "type": "address"
        }
      ],
      "outputs": [],
      "stateMutability": "nonpayable"
    },
    {
      "type": "function",
      "name": "supportsInterface",
      "inputs": [
        {
          "internalType": "bytes4",
          "name": "interfaceId",
          "type": "bytes4"
        }
      ],
      "outputs": [
        {
          "internalType": "bool",
          "name": "",
          "type": "bool"
        }
      ],
      "stateMutability": "pure"
    },
    {
      "type": "function",
      "name": "symbol",
      "inputs": [],
      "outputs": [
        {
          "internalType": "string",
          "name": "",
          "type": "string"
        }
      ],
      "stateMutability": "view"
    },
    {
      "type": "function",
      "name": "tokenURI",
      "inputs": [
        {
          "internalType": "uint256",
          "name": "id",
          "type": "uint256"
        }
      ],
      "outputs": [
        {
          "internalType": "struct BaseVault.MetaData",
          "name": "",
          "type": "tuple",
          "components": [
            {
              "type": "string"
            },
            {
              "type": "address"
            },
            {
              "type": "uint256"
            },
            {
              "type": "uint256"
            },
            {
              "type": "uint256"
            }
          ]
        }
      ],
      "stateMutability": "view"
    },
    {
      "type": "function",
      "name": "totalDeposits",
      "inputs": [],
      "outputs": [
        {
          "internalType": "uint256",
          "name": "",
          "type": "uint256"
        }
      ],
      "stateMutability": "view"
    },
    {
      "type": "function",
      "name": "transferFrom",
      "inputs": [
        {
          "internalType": "address",
          "name": "from",
          "type": "address"
        },
        {
          "internalType": "address",
          "name": "to",
          "type": "address"
        },
        {
          "internalType": "uint256",
          "name": "id",
          "type": "uint256"
        }
      ],
      "outputs": [],
      "stateMutability": "nonpayable"
    },
    {
      "type": "function",
      "name": "withdrawFromId",
      "inputs": [
        {
          "internalType": "uint256",
          "name": "amount",
          "type": "uint256"
        },
        {
          "internalType": "uint256",
          "name": "id",
          "type": "uint256"
        }
      ],
      "outputs": [],
      "stateMutability": "nonpayable"
    },
    {
      "type": "function",
      "name": "withdrawableById",
      "inputs": [
        {
          "internalType": "uint256",
          "name": "id",
          "type": "uint256"
        }
      ],
      "outputs": [
        {
          "internalType": "uint256",
          "name": "claimId",
          "type": "uint256"
        }
      ],
      "stateMutability": "view"
    },
    {
      "type": "function",
      "name": "yeildPerDeposit",
      "inputs": [],
      "outputs": [
        {
          "internalType": "uint256",
          "name": "",
          "type": "uint256"
        }
      ],
      "stateMutability": "view"
    },
    {
      "type": "function",
      "name": "yieldPerId",
      "inputs": [
        {
          "internalType": "uint256",
          "name": "id",
          "type": "uint256"
        }
      ],
      "outputs": [
        {
          "internalType": "uint256",
          "name": "",
          "type": "uint256"
        }
      ],
      "stateMutability": "view"
    },
    {
      "type": "event",
      "name": "Approval",
      "inputs": [
        {
          "name": "owner",
          "type": "address",
          "indexed": true
        },
        {
          "name": "spender",
          "type": "address",
          "indexed": true
        },
        {
          "name": "id",
          "type": "uint256",
          "indexed": true
        }
      ],
      "anonymous": false
    },
    {
      "type": "event",
      "name": "ApprovalForAll",
      "inputs": [
        {
          "name": "owner",
          "type": "address",
          "indexed": true
        },
        {
          "name": "operator",
          "type": "address",
          "indexed": true
        },
        {
          "name": "approved",
          "type": "bool",
          "indexed": false
        }
      ],
      "anonymous": false
    },
    {
      "type": "event",
      "name": "Transfer",
      "inputs": [
        {
          "name": "from",
          "type": "address",
          "indexed": true
        },
        {
          "name": "to",
          "type": "address",
          "indexed": true
        },
        {
          "name": "id",
          "type": "uint256",
          "indexed": true
        }
      ],
      "anonymous": false
    }
  ],
  "bytecode": {
    "object": "0x60c060405260016003556402540be400600b553480156200001f57600080fd5b50604051620022ca380380620022ca8339810160408190526200004291620002f3565b888282818181600090805190602001906200005f92919062000168565b5080516200007590600190602084019062000168565b5050506001600160a01b0390921660805250503360a0526127106200009b888a620003f2565b61ffff161115620000ab57600080fd5b6040805160a08101825261ffff8a81168083528a8216602084018190528883169484018590529187166060840181905260046080909401939093526010805463ffffffff1916909117620100009092029190911763ffffffff60201b191664010000000090930261ffff60301b19169290921766010000000000009091021761ffff60401b191668040000000000000000179055601186905560148590556200015585426200041b565b6012555062000473975050505050505050565b828054620001769062000436565b90600052602060002090601f0160209004810192826200019a5760008555620001e5565b82601f10620001b557805160ff1916838001178555620001e5565b82800160010185558215620001e5579182015b82811115620001e5578251825591602001919060010190620001c8565b50620001f3929150620001f7565b5090565b5b80821115620001f35760008155600101620001f8565b805161ffff811681146200022157600080fd5b919050565b634e487b7160e01b600052604160045260246000fd5b600082601f8301126200024e57600080fd5b81516001600160401b03808211156200026b576200026b62000226565b604051601f8301601f19908116603f0116810190828211818310171562000296576200029662000226565b81604052838152602092508683858801011115620002b357600080fd5b600091505b83821015620002d75785820183015181830184015290820190620002b8565b83821115620002e95760008385830101525b9695505050505050565b60008060008060008060008060006101208a8c0312156200031357600080fd5b89516001600160a01b03811681146200032b57600080fd5b98506200033b60208b016200020e565b97506200034b60408b016200020e565b965060608a0151955060808a015194506200036960a08b016200020e565b93506200037960c08b016200020e565b60e08b01519093506001600160401b03808211156200039757600080fd5b620003a58d838e016200023c565b93506101008c0151915080821115620003bd57600080fd5b50620003cc8c828d016200023c565b9150509295985092959850929598565b634e487b7160e01b600052601160045260246000fd5b600061ffff808316818516808303821115620004125762000412620003dc565b01949350505050565b60008219821115620004315762000431620003dc565b500190565b600181811c908216806200044b57607f821691505b602082108114156200046d57634e487b7160e01b600052602260045260246000fd5b50919050565b60805160a051611e07620004c360003960006107e5015260008181610b5901528181610fb801528181611176015281816113ea01528181611519015281816115e401526117890152611e076000f3fe608060405234801561001057600080fd5b50600436106101da5760003560e01c80636d43d9f111610104578063a2d6b25f116100a2578063e00dd16111610071578063e00dd16114610482578063e288ea641461048b578063e985e9c514610493578063eaaf1fca146104c157600080fd5b8063a2d6b25f14610415578063b02c43d01461041e578063c87b56dd1461045a578063ca1e3c831461047a57600080fd5b80637f386b6c116100de5780637f386b6c146103de57806389f3dd37146103e757806395d89b41146103fa578063a22cb4651461040257600080fd5b80636d43d9f1146103a257806370a08231146103b55780637d882097146103d557600080fd5b80631e86a9dc1161017c57806334d894c91161014b57806334d894c9146103555780634b6d69d31461035d5780636352211e146103705780636b31ee011461039957600080fd5b80631e86a9dc146102b957806323b872dd146102cc578063277838df146102df57806329dcb0cf1461034c57600080fd5b8063095ea7b3116101b8578063095ea7b31461025d578063159b49621461027257806316cc3b07146102855780631ab2f6af1461029857600080fd5b806301ffc9a7146101df57806306fdde0314610207578063081812fc1461021c575b600080fd5b6101f26101ed366004611a5f565b6104d4565b60405190151581526020015b60405180910390f35b61020f610526565b6040516101fe9190611ad6565b61024561022a366004611ae9565b6006602052600090815260409020546001600160a01b031681565b6040516001600160a01b0390911681526020016101fe565b61027061026b366004611b1e565b6105b4565b005b610270610280366004611b48565b61069b565b610270610293366004611b6a565b6107da565b6102ab6102a6366004611ae9565b610846565b6040519081526020016101fe565b601554610245906001600160a01b031681565b6102706102da366004611b85565b6108a7565b6010546103179061ffff808216916201000081048216916401000000008204811691600160301b8104821691600160401b9091041685565b6040805161ffff968716815294861660208601529285169284019290925283166060830152909116608082015260a0016101fe565b6102ab60125481565b610270610a6e565b6102ab61036b366004611ae9565b610c2b565b61024561037e366004611ae9565b6005602052600090815260409020546001600160a01b031681565b6102ab60135481565b6102ab6103b0366004611ae9565b610dd6565b6102ab6103c3366004611b6a565b60046020526000908152604090205481565b6102ab600a5481565b6102ab60115481565b6102706103f5366004611ae9565b610dfa565b61020f610e1e565b610270610410366004611bcf565b610e2b565b6102ab60095481565b61044561042c366004611ae9565b6008602052600090815260409020805460019091015482565b604080519283526020830191909152016101fe565b61046d610468366004611ae9565b610e97565b6040516101fe9190611c06565b610270610f94565b6102ab60035481565b61027061113b565b6101f26104a1366004611c5e565b600760209081526000928352604080842090915290825290205460ff1681565b6102706104cf366004611b48565b6111e8565b60006301ffc9a760e01b6001600160e01b03198316148061050557506380ac58cd60e01b6001600160e01b03198316145b806105205750635b5e139f60e01b6001600160e01b03198316145b92915050565b6000805461053390611c91565b80601f016020809104026020016040519081016040528092919081815260200182805461055f90611c91565b80156105ac5780601f10610581576101008083540402835291602001916105ac565b820191906000526020600020905b81548152906001019060200180831161058f57829003601f168201915b505050505081565b6000818152600560205260409020546001600160a01b0316338114806105fd57506001600160a01b038116600090815260076020908152604080832033845290915290205460ff165b61063f5760405162461bcd60e51b815260206004820152600e60248201526d1393d517d055551213d49256915160921b60448201526064015b60405180910390fd5b60008281526006602052604080822080546001600160a01b0319166001600160a01b0387811691821790925591518593918516917f8c5be1e5ebec7d5bd14f71427d1e84f3dd0314c0f7b2291e5b200ac8c7c3b92591a4505050565b6000818152600560205260409020546001600160a01b0316331480156106c357506011548210155b80156106d157506012544211155b6106da57600080fd5b6040805160a08101825260105461ffff80821683526201000082048116602084018190526401000000008304821694840194909452600160301b820481166060840152600160401b9091041660808201529061074d906127109061073e9086611ce2565b6107489190611d01565b61123d565b8051612710906107619061ffff1685611ce2565b61076b9190611d01565b6013600082825461077c9190611d23565b90915550506020810151815160009161079491611d3b565b6107a090612710611d61565b61ffff16905060006127106107b58387611ce2565b6107bf9190611d01565b90506107c9611270565b6107d3818561130d565b5050505050565b336001600160a01b037f00000000000000000000000000000000000000000000000000000000000000001614801561081b5750600f546001600160a01b0316155b61082457600080fd5b600f80546001600160a01b0319166001600160a01b0392909216919091179055565b600b5460095460008381526008602052604081205490928392909161086b9190611ce2565b6108759190611d01565b600b5460008581526008602052604090206001015491925061089691611d01565b6108a09082611d84565b9392505050565b6000818152600560205260409020546001600160a01b038481169116146108fd5760405162461bcd60e51b815260206004820152600a60248201526957524f4e475f46524f4d60b01b6044820152606401610636565b6001600160a01b0382166109475760405162461bcd60e51b81526020600482015260116024820152701253959053125117d49150d25412515395607a1b6044820152606401610636565b336001600160a01b038416148061097457506000818152600660205260409020546001600160a01b031633145b806109a257506001600160a01b038316600090815260076020908152604080832033845290915290205460ff165b6109df5760405162461bcd60e51b815260206004820152600e60248201526d1393d517d055551213d49256915160921b6044820152606401610636565b6001600160a01b0380841660008181526004602090815260408083208054600019019055938616808352848320805460010190558583526005825284832080546001600160a01b03199081168317909155600690925284832080549092169091559251849392917fddf252ad1be2c89b69c2b068fc378daa952ba7f163c4a11628f55a4df523b3ef91a4505050565b600f546001600160a01b0316610ab45760405162461bcd60e51b815260206004820152600b60248201526a4e6f20537472617465677960a81b6044820152606401610636565b6000612710600a54611388610ac99190611ce2565b610ad39190611d01565b90506000600e5482610ae59190611d84565b905080600e6000828254610af99190611d23565b9250508190555080600d6000828254610b129190611d23565b9250508190555080600c6000828254610b2b9190611d84565b9091555050600f5460405163095ea7b360e01b81526001600160a01b039182166004820152602481018390527f00000000000000000000000000000000000000000000000000000000000000009091169063095ea7b3906044016020604051808303816000875af1158015610ba4573d6000803e3d6000fd5b505050506040513d601f19601f82011682018060405250810190610bc89190611d9b565b50600f5460405163b6b55f2560e01b8152600481018390526001600160a01b039091169063b6b55f2590602401600060405180830381600087803b158015610c0f57600080fd5b505af1158015610c23573d6000803e3d6000fd5b505050505050565b60006011548210158015610c4157506012544211155b610c8d5760405162461bcd60e51b815260206004820152601b60248201527f556e646572706169642c206f72207061737420646561646c696e6500000000006044820152606401610636565b6040805160a08101825260105461ffff8082168084526201000083048216602085018190526401000000008404831695850195909552600160301b830482166060850152600160401b9092041660808301529091600091610cee9190611d3b565b610cfa90612710611d61565b61ffff1690506000612710610d0f8387611ce2565b610d199190611d01565b905060016003541115610d7a57610d40612710846020015161ffff168761073e9190611ce2565b825161271090610d549061ffff1687611ce2565b610d5e9190611d01565b60136000828254610d6f9190611d23565b90915550610daa9050565b6020830151835161271091610d8e91611d3b565b610d9c9061ffff1687611ce2565b610da69190611d01565b6013555b601580546001600160a01b03191633179055610dc4611270565b610dcd8161145f565b95945050505050565b6000610de182610846565b6000838152600860205260409020546105209190611d23565b6000610e0582610dd6565b9050610e118183611595565b610e1a82611807565b5050565b6001805461053390611c91565b3360008181526007602090815260408083206001600160a01b03871680855290835292819020805460ff191686151590811790915590519081529192917f17307eab39ab6107e8899845ad3d59bd9653f200f220920489ca2b5937696c31910160405180910390a35050565b610ed26040518060a001604052806060815260200160006001600160a01b031681526020016000815260200160008152602001600081525090565b6040518060a0016040528060008054610eea90611c91565b80601f0160208091040260200160405190810160405280929190818152602001828054610f1690611c91565b8015610f635780601f10610f3857610100808354040283529160200191610f63565b820191906000526020600020905b815481529060010190602001808311610f4657829003601f168201915b5050509183525050306020820152604001610f7d84610dd6565b815260200183815260200160008152509050919050565b600c546040516370a0823160e01b8152306004820152600091906001600160a01b037f000000000000000000000000000000000000000000000000000000000000000016906370a0823190602401602060405180830381865afa158015610fff573d6000803e3d6000fd5b505050506040513d601f19601f820116820180604052508101906110239190611db8565b61102d9190611d84565b905080600c60008282546110419190611d23565b9091555050600f546000906001600160a01b03166110605760006110e4565b600d54600f60009054906101000a90046001600160a01b03166001600160a01b031663460ffdae6040518163ffffffff1660e01b8152600401602060405180830381865afa1580156110b6573d6000803e3d6000fd5b505050506040513d601f19601f820116820180604052508101906110da9190611db8565b6110e49190611d84565b905080600d60008282546110f89190611d23565b9091555050600a54600b5461110d8385611d23565b6111179190611ce2565b6111219190611d01565b600960008282546111329190611d23565b90915550505050565b601254421161114957600080fd5b60155460135460405163a9059cbb60e01b81526001600160a01b03928316600482015260248101919091527f00000000000000000000000000000000000000000000000000000000000000009091169063a9059cbb906044016020604051808303816000875af11580156111c1573d6000803e3d6000fd5b505050506040513d601f19601f820116820180604052508101906111e59190611d9b565b50565b60006111f382610dd6565b905080831461122f5760405162461bcd60e51b81526020600482015260086024820152672ab9b290313ab93760c11b6044820152606401610636565b61123882610dfa565b505050565b600a54600b5461124d9083611ce2565b6112579190611d01565b600960008282546112689190611d23565b909155505050565b601054601454612710916112919164010000000090910461ffff1690611ce2565b61129b9190611d01565b601460008282546112ac9190611d84565b9091555050601454601280546000906112c6908490611d23565b9091555050601054601154612710916112eb91600160301b90910461ffff1690611ce2565b6112f59190611d01565b601160008282546113069190611d23565b9091555050565b6000818152600560205260409020546001600160a01b0316331461133057600080fd5b600a541561134057611340610f94565b6000818152600860205260408120805484929061135e908490611d23565b90915550506009546113709083611ce2565b60008281526008602052604081206001018054909190611391908490611d23565b9250508190555081600a60008282546113aa9190611d23565b9250508190555081600c60008282546113c39190611d23565b90915550506040516323b872dd60e01b8152336004820152306024820152604481018390527f00000000000000000000000000000000000000000000000000000000000000006001600160a01b0316906323b872dd906064016020604051808303816000875af115801561143b573d6000803e3d6000fd5b505050506040513d601f19601f820116820180604052508101906112389190611d9b565b60008061146e336003546118d4565b600a549091501561148157611481610f94565b600081815260086020526040902083905560095461149f9084611ce2565b600082815260086020526040812060010180549091906114c0908490611d23565b9250508190555082600a60008282546114d99190611d23565b9250508190555082600c60008282546114f29190611d23565b90915550506040516323b872dd60e01b8152336004820152306024820152604481018490527f00000000000000000000000000000000000000000000000000000000000000006001600160a01b0316906323b872dd906064016020604051808303816000875af115801561156a573d6000803e3d6000fd5b505050506040513d601f19601f8201168201806040525081019061158e9190611d9b565b5092915050565b6000818152600560205260409020546001600160a01b0316331480156115c357506115bf81610dd6565b8211155b6115cc57600080fd5b6040516370a0823160e01b81523060048201526000907f00000000000000000000000000000000000000000000000000000000000000006001600160a01b0316906370a0823190602401602060405180830381865afa158015611633573d6000803e3d6000fd5b505050506040513d601f19601f820116820180604052508101906116579190611db8565b90506000611663610f94565b600061166e84610846565b9050808511156116f6576116828186611d84565b6000858152600860205260408120805492945084929091906116a5908490611d84565b9250508190555081600a60008282546116be9190611d84565b90915550506009546000858152600860205260409020546116df9190611ce2565b60008581526008602052604090206001015561172a565b600b546117039086611ce2565b60008581526008602052604081206001018054909190611724908490611d23565b90915550505b600083861161173a576000611744565b6117448487611d84565b9050801561176d57611755816119ef565b82600e60008282546117679190611d84565b90915550505b60405163a9059cbb60e01b8152336004820152602481018790527f00000000000000000000000000000000000000000000000000000000000000006001600160a01b03169063a9059cbb906044016020604051808303816000875af11580156117da573d6000803e3d6000fd5b505050506040513d601f19601f820116820180604052508101906117fe9190611d9b565b50505050505050565b6000818152600560205260409020546001600160a01b0316806118595760405162461bcd60e51b815260206004820152600a6024820152691393d517d3525395115160b21b6044820152606401610636565b6001600160a01b038116600081815260046020908152604080832080546000190190558583526005825280832080546001600160a01b031990811690915560069092528083208054909216909155518492907fddf252ad1be2c89b69c2b068fc378daa952ba7f163c4a11628f55a4df523b3ef908390a45050565b60006001600160a01b0383166119205760405162461bcd60e51b81526020600482015260116024820152701253959053125117d49150d25412515395607a1b6044820152606401610636565b6000828152600560205260409020546001600160a01b0316156119765760405162461bcd60e51b815260206004820152600e60248201526d1053149150511657d3525395115160921b6044820152606401610636565b6001600160a01b038316600081815260046020908152604080832080546001908101909155600380549091019055858352600590915280822080546001600160a01b0319168417905551849291907fddf252ad1be2c89b69c2b068fc378daa952ba7f163c4a11628f55a4df523b3ef908290a450919050565b600f54604051631c8901bb60e31b8152600481018390526001600160a01b039091169063e4480dd890602401600060405180830381600087803b158015611a3557600080fd5b505af1158015611a49573d6000803e3d6000fd5b5050505080600d60008282546112689190611d84565b600060208284031215611a7157600080fd5b81356001600160e01b0319811681146108a057600080fd5b6000815180845260005b81811015611aaf57602081850181015186830182015201611a93565b81811115611ac1576000602083870101525b50601f01601f19169290920160200192915050565b6020815260006108a06020830184611a89565b600060208284031215611afb57600080fd5b5035919050565b80356001600160a01b0381168114611b1957600080fd5b919050565b60008060408385031215611b3157600080fd5b611b3a83611b02565b946020939093013593505050565b60008060408385031215611b5b57600080fd5b50508035926020909101359150565b600060208284031215611b7c57600080fd5b6108a082611b02565b600080600060608486031215611b9a57600080fd5b611ba384611b02565b9250611bb160208501611b02565b9150604084013590509250925092565b80151581146111e557600080fd5b60008060408385031215611be257600080fd5b611beb83611b02565b91506020830135611bfb81611bc1565b809150509250929050565b602081526000825160a06020840152611c2260c0840182611a89565b905060018060a01b0360208501511660408401526040840151606084015260608401516080840152608084015160a08401528091505092915050565b60008060408385031215611c7157600080fd5b611c7a83611b02565b9150611c8860208401611b02565b90509250929050565b600181811c90821680611ca557607f821691505b60208210811415611cc657634e487b7160e01b600052602260045260246000fd5b50919050565b634e487b7160e01b600052601160045260246000fd5b6000816000190483118215151615611cfc57611cfc611ccc565b500290565b600082611d1e57634e487b7160e01b600052601260045260246000fd5b500490565b60008219821115611d3657611d36611ccc565b500190565b600061ffff808316818516808303821115611d5857611d58611ccc565b01949350505050565b600061ffff83811690831681811015611d7c57611d7c611ccc565b039392505050565b600082821015611d9657611d96611ccc565b500390565b600060208284031215611dad57600080fd5b81516108a081611bc1565b600060208284031215611dca57600080fd5b505191905056fea2646970667358221220f0e5a47ef7eb9ec48a21773a1ce609fcb2411ca54b17c28de88ccecc359a45f964736f6c634300080a0033",
    "linkReferences": {}
  }
}