{
  "abi": [
    {
      "type": "constructor",
      "inputs": [
        {
          "internalType": "address",
          "name": "_vaultToken",
          "type": "address"
        },
        {
          "internalType": "string",
          "name": "name",
          "type": "string"
        },
        {
          "internalType": "string",
          "name": "symbol",
          "type": "string"
        }
      ]
    },
    {
      "type": "function",
      "name": "approve",
      "inputs": [
        {
          "internalType": "address",
          "name": "spender",
          "type": "address"
        },
        {
          "internalType": "uint256",
          "name": "id",
          "type": "uint256"
        }
      ],
      "outputs": [],
      "stateMutability": "nonpayable"
    },
    {
      "type": "function",
      "name": "balanceOf",
      "inputs": [
        {
          "internalType": "address",
          "name": "",
          "type": "address"
        }
      ],
      "outputs": [
        {
          "internalType": "uint256",
          "name": "",
          "type": "uint256"
        }
      ],
      "stateMutability": "view"
    },
    {
      "type": "function",
      "name": "burnNFTAndWithdrawl",
      "inputs": [
        {
          "internalType": "uint256",
          "name": "id",
          "type": "uint256"
        }
      ],
      "outputs": [],
      "stateMutability": "nonpayable"
    },
    {
      "type": "function",
      "name": "currentId",
      "inputs": [],
      "outputs": [
        {
          "internalType": "uint256",
          "name": "",
          "type": "uint256"
        }
      ],
      "stateMutability": "view"
    },
    {
      "type": "function",
      "name": "depositToId",
      "inputs": [
        {
          "internalType": "uint256",
          "name": "amount",
          "type": "uint256"
        },
        {
          "internalType": "uint256",
          "name": "id",
          "type": "uint256"
        }
      ],
      "outputs": [],
      "stateMutability": "nonpayable"
    },
    {
      "type": "function",
      "name": "deposits",
      "inputs": [
        {
          "internalType": "uint256",
          "name": "",
          "type": "uint256"
        }
      ],
      "outputs": [
        {
          "internalType": "uint256",
          "name": "amount",
          "type": "uint256"
        },
        {
          "internalType": "uint256",
          "name": "tracker",
          "type": "uint256"
        }
      ],
      "stateMutability": "view"
    },
    {
      "type": "function",
      "name": "distributeYeild",
      "inputs": [],
      "outputs": [],
      "stateMutability": "nonpayable"
    },
    {
      "type": "function",
      "name": "getApproved",
      "inputs": [
        {
          "internalType": "uint256",
          "name": "",
          "type": "uint256"
        }
      ],
      "outputs": [
        {
          "internalType": "address",
          "name": "",
          "type": "address"
        }
      ],
      "stateMutability": "view"
    },
    {
      "type": "function",
      "name": "initStrat",
      "inputs": [],
      "outputs": [],
      "stateMutability": "nonpayable"
    },
    {
      "type": "function",
      "name": "isApprovedForAll",
      "inputs": [
        {
          "internalType": "address",
          "name": "",
          "type": "address"
        },
        {
          "internalType": "address",
          "name": "",
          "type": "address"
        }
      ],
      "outputs": [
        {
          "internalType": "bool",
          "name": "",
          "type": "bool"
        }
      ],
      "stateMutability": "view"
    },
    {
      "type": "function",
      "name": "mintNewNft",
      "inputs": [
        {
          "internalType": "uint256",
          "name": "amount",
          "type": "uint256"
        }
      ],
      "outputs": [
        {
          "internalType": "uint256",
          "name": "",
          "type": "uint256"
        }
      ],
      "stateMutability": "nonpayable"
    },
    {
      "type": "function",
      "name": "name",
      "inputs": [],
      "outputs": [
        {
          "internalType": "string",
          "name": "",
          "type": "string"
        }
      ],
      "stateMutability": "view"
    },
    {
      "type": "function",
      "name": "ownerOf",
      "inputs": [
        {
          "internalType": "uint256",
          "name": "",
          "type": "uint256"
        }
      ],
      "outputs": [
        {
          "internalType": "address",
          "name": "",
          "type": "address"
        }
      ],
      "stateMutability": "view"
    },
    {
      "type": "function",
      "name": "setApprovalForAll",
      "inputs": [
        {
          "internalType": "address",
          "name": "operator",
          "type": "address"
        },
        {
          "internalType": "bool",
          "name": "approved",
          "type": "bool"
        }
      ],
      "outputs": [],
      "stateMutability": "nonpayable"
    },
    {
      "type": "function",
      "name": "setStrat",
      "inputs": [
        {
          "internalType": "address",
          "name": "addr",
          "type": "address"
        }
      ],
      "outputs": [],
      "stateMutability": "nonpayable"
    },
    {
      "type": "function",
      "name": "supportsInterface",
      "inputs": [
        {
          "internalType": "bytes4",
          "name": "interfaceId",
          "type": "bytes4"
        }
      ],
      "outputs": [
        {
          "internalType": "bool",
          "name": "",
          "type": "bool"
        }
      ],
      "stateMutability": "pure"
    },
    {
      "type": "function",
      "name": "symbol",
      "inputs": [],
      "outputs": [
        {
          "internalType": "string",
          "name": "",
          "type": "string"
        }
      ],
      "stateMutability": "view"
    },
    {
      "type": "function",
      "name": "tokenURI",
      "inputs": [
        {
          "internalType": "uint256",
          "name": "id",
          "type": "uint256"
        }
      ],
      "outputs": [
        {
          "internalType": "struct BaseVault.MetaData",
          "name": "",
          "type": "tuple",
          "components": [
            {
              "type": "string"
            },
            {
              "type": "address"
            },
            {
              "type": "uint256"
            },
            {
              "type": "uint256"
            },
            {
              "type": "uint256"
            }
          ]
        }
      ],
      "stateMutability": "view"
    },
    {
      "type": "function",
      "name": "totalDeposits",
      "inputs": [],
      "outputs": [
        {
          "internalType": "uint256",
          "name": "",
          "type": "uint256"
        }
      ],
      "stateMutability": "view"
    },
    {
      "type": "function",
      "name": "transferFrom",
      "inputs": [
        {
          "internalType": "address",
          "name": "from",
          "type": "address"
        },
        {
          "internalType": "address",
          "name": "to",
          "type": "address"
        },
        {
          "internalType": "uint256",
          "name": "id",
          "type": "uint256"
        }
      ],
      "outputs": [],
      "stateMutability": "nonpayable"
    },
    {
      "type": "function",
      "name": "withdrawFromId",
      "inputs": [
        {
          "internalType": "uint256",
          "name": "id",
          "type": "uint256"
        },
        {
          "internalType": "uint256",
          "name": "amount",
          "type": "uint256"
        }
      ],
      "outputs": [],
      "stateMutability": "nonpayable"
    },
    {
      "type": "function",
      "name": "withdrawableById",
      "inputs": [
        {
          "internalType": "uint256",
          "name": "id",
          "type": "uint256"
        }
      ],
      "outputs": [
        {
          "internalType": "uint256",
          "name": "claimId",
          "type": "uint256"
        }
      ],
      "stateMutability": "view"
    },
    {
      "type": "function",
      "name": "yeildPerDeposit",
      "inputs": [],
      "outputs": [
        {
          "internalType": "uint256",
          "name": "",
          "type": "uint256"
        }
      ],
      "stateMutability": "view"
    },
    {
      "type": "function",
      "name": "yieldPerId",
      "inputs": [
        {
          "internalType": "uint256",
          "name": "id",
          "type": "uint256"
        }
      ],
      "outputs": [
        {
          "internalType": "uint256",
          "name": "",
          "type": "uint256"
        }
      ],
      "stateMutability": "view"
    },
    {
      "type": "event",
      "name": "Approval",
      "inputs": [
        {
          "name": "owner",
          "type": "address",
          "indexed": true
        },
        {
          "name": "spender",
          "type": "address",
          "indexed": true
        },
        {
          "name": "id",
          "type": "uint256",
          "indexed": true
        }
      ],
      "anonymous": false
    },
    {
      "type": "event",
      "name": "ApprovalForAll",
      "inputs": [
        {
          "name": "owner",
          "type": "address",
          "indexed": true
        },
        {
          "name": "operator",
          "type": "address",
          "indexed": true
        },
        {
          "name": "approved",
          "type": "bool",
          "indexed": false
        }
      ],
      "anonymous": false
    },
    {
      "type": "event",
      "name": "Transfer",
      "inputs": [
        {
          "name": "from",
          "type": "address",
          "indexed": true
        },
        {
          "name": "to",
          "type": "address",
          "indexed": true
        },
        {
          "name": "id",
          "type": "uint256",
          "indexed": true
        }
      ],
      "anonymous": false
    }
  ],
  "bytecode": {
    "object": "0x60c060405260016003556402540be400600b553480156200001f57600080fd5b5060405162001b1d38038062001b1d833981016040819052620000429162000201565b8151829082906200005b9060009060208501906200008e565b508051620000719060019060208401906200008e565b5050506001600160a01b0390921660805250503360a052620002c8565b8280546200009c906200028b565b90600052602060002090601f016020900481019282620000c057600085556200010b565b82601f10620000db57805160ff19168380011785556200010b565b828001600101855582156200010b579182015b828111156200010b578251825591602001919060010190620000ee565b50620001199291506200011d565b5090565b5b808211156200011957600081556001016200011e565b634e487b7160e01b600052604160045260246000fd5b600082601f8301126200015c57600080fd5b81516001600160401b038082111562000179576200017962000134565b604051601f8301601f19908116603f01168101908282118183101715620001a457620001a462000134565b81604052838152602092508683858801011115620001c157600080fd5b600091505b83821015620001e55785820183015181830184015290820190620001c6565b83821115620001f75760008385830101525b9695505050505050565b6000806000606084860312156200021757600080fd5b83516001600160a01b03811681146200022f57600080fd5b60208501519093506001600160401b03808211156200024d57600080fd5b6200025b878388016200014a565b935060408601519150808211156200027257600080fd5b5062000281868287016200014a565b9150509250925092565b600181811c90821680620002a057607f821691505b60208210811415620002c257634e487b7160e01b600052602260045260246000fd5b50919050565b60805160a05161180c62000311600039600061058f01526000818161090301528181610bbe01528181610e2801528181610f5c0152818161102701526111cc015261180c6000f3fe608060405234801561001057600080fd5b50600436106101585760003560e01c806370a08231116100c3578063b02c43d01161007c578063b02c43d014610301578063c87b56dd1461033d578063ca1e3c831461035d578063e00dd16114610365578063e985e9c51461036e578063eaaf1fca1461039c57600080fd5b806370a08231146102a15780637d882097146102c157806389f3dd37146102ca57806395d89b41146102dd578063a22cb465146102e5578063a2d6b25f146102f857600080fd5b80631ab2f6af116101155780631ab2f6af1461021657806323b872dd1461023757806334d894c91461024a5780634b6d69d3146102525780636352211e146102655780636d43d9f11461028e57600080fd5b806301ffc9a71461015d57806306fdde0314610185578063081812fc1461019a578063095ea7b3146101db578063159b4962146101f057806316cc3b0714610203575b600080fd5b61017061016b3660046114aa565b6103af565b60405190151581526020015b60405180910390f35b61018d610401565b60405161017c9190611521565b6101c36101a8366004611534565b6006602052600090815260409020546001600160a01b031681565b6040516001600160a01b03909116815260200161017c565b6101ee6101e9366004611569565b61048f565b005b6101ee6101fe366004611593565b610576565b6101ee6102113660046115b5565b610584565b610229610224366004611534565b6105f0565b60405190815260200161017c565b6101ee6102453660046115d0565b610651565b6101ee610818565b610229610260366004611534565b6109d5565b6101c3610273366004611534565b6005602052600090815260409020546001600160a01b031681565b61022961029c366004611534565b6109e0565b6102296102af3660046115b5565b60046020526000908152604090205481565b610229600a5481565b6101ee6102d8366004611534565b610a04565b61018d610a24565b6101ee6102f336600461161d565b610a31565b61022960095481565b61032861030f366004611534565b6008602052600090815260409020805460019091015482565b6040805192835260208301919091520161017c565b61035061034b366004611534565b610a9d565b60405161017c9190611654565b6101ee610b9a565b61022960035481565b61017061037c3660046116ac565b600760209081526000928352604080842090915290825290205460ff1681565b6101ee6103aa366004611593565b610d41565b60006301ffc9a760e01b6001600160e01b0319831614806103e057506380ac58cd60e01b6001600160e01b03198316145b806103fb5750635b5e139f60e01b6001600160e01b03198316145b92915050565b6000805461040e906116df565b80601f016020809104026020016040519081016040528092919081815260200182805461043a906116df565b80156104875780601f1061045c57610100808354040283529160200191610487565b820191906000526020600020905b81548152906001019060200180831161046a57829003601f168201915b505050505081565b6000818152600560205260409020546001600160a01b0316338114806104d857506001600160a01b038116600090815260076020908152604080832033845290915290205460ff165b61051a5760405162461bcd60e51b815260206004820152600e60248201526d1393d517d055551213d49256915160921b60448201526064015b60405180910390fd5b60008281526006602052604080822080546001600160a01b0319166001600160a01b0387811691821790925591518593918516917f8c5be1e5ebec7d5bd14f71427d1e84f3dd0314c0f7b2291e5b200ac8c7c3b92591a4505050565b6105808282610d4b565b5050565b336001600160a01b037f0000000000000000000000000000000000000000000000000000000000000000161480156105c55750600f546001600160a01b0316155b6105ce57600080fd5b600f80546001600160a01b0319166001600160a01b0392909216919091179055565b600b546009546000838152600860205260408120549092839290916106159190611730565b61061f919061174f565b600b546000858152600860205260409020600101549192506106409161174f565b61064a9082611771565b9392505050565b6000818152600560205260409020546001600160a01b038481169116146106a75760405162461bcd60e51b815260206004820152600a60248201526957524f4e475f46524f4d60b01b6044820152606401610511565b6001600160a01b0382166106f15760405162461bcd60e51b81526020600482015260116024820152701253959053125117d49150d25412515395607a1b6044820152606401610511565b336001600160a01b038416148061071e57506000818152600660205260409020546001600160a01b031633145b8061074c57506001600160a01b038316600090815260076020908152604080832033845290915290205460ff165b6107895760405162461bcd60e51b815260206004820152600e60248201526d1393d517d055551213d49256915160921b6044820152606401610511565b6001600160a01b0380841660008181526004602090815260408083208054600019019055938616808352848320805460010190558583526005825284832080546001600160a01b03199081168317909155600690925284832080549092169091559251849392917fddf252ad1be2c89b69c2b068fc378daa952ba7f163c4a11628f55a4df523b3ef91a4505050565b600f546001600160a01b031661085e5760405162461bcd60e51b815260206004820152600b60248201526a4e6f20537472617465677960a81b6044820152606401610511565b6000612710600a546113886108739190611730565b61087d919061174f565b90506000600e548261088f9190611771565b905080600e60008282546108a39190611788565b9250508190555080600d60008282546108bc9190611788565b9250508190555080600c60008282546108d59190611771565b9091555050600f5460405163095ea7b360e01b81526001600160a01b039182166004820152602481018390527f00000000000000000000000000000000000000000000000000000000000000009091169063095ea7b3906044016020604051808303816000875af115801561094e573d6000803e3d6000fd5b505050506040513d601f19601f8201168201806040525081019061097291906117a0565b50600f5460405163b6b55f2560e01b8152600481018390526001600160a01b039091169063b6b55f2590602401600060405180830381600087803b1580156109b957600080fd5b505af11580156109cd573d6000803e3d6000fd5b505050505050565b60006103fb82610ea2565b60006109eb826105f0565b6000838152600860205260409020546103fb9190611788565b6000610a0f826109e0565b9050610a1b8183610fd8565b6105808261124a565b6001805461040e906116df565b3360008181526007602090815260408083206001600160a01b03871680855290835292819020805460ff191686151590811790915590519081529192917f17307eab39ab6107e8899845ad3d59bd9653f200f220920489ca2b5937696c31910160405180910390a35050565b610ad86040518060a001604052806060815260200160006001600160a01b031681526020016000815260200160008152602001600081525090565b6040518060a0016040528060008054610af0906116df565b80601f0160208091040260200160405190810160405280929190818152602001828054610b1c906116df565b8015610b695780601f10610b3e57610100808354040283529160200191610b69565b820191906000526020600020905b815481529060010190602001808311610b4c57829003601f168201915b5050509183525050306020820152604001610b83846109e0565b815260200183815260200160008152509050919050565b600c546040516370a0823160e01b8152306004820152600091906001600160a01b037f000000000000000000000000000000000000000000000000000000000000000016906370a0823190602401602060405180830381865afa158015610c05573d6000803e3d6000fd5b505050506040513d601f19601f82011682018060405250810190610c2991906117bd565b610c339190611771565b905080600c6000828254610c479190611788565b9091555050600f546000906001600160a01b0316610c66576000610cea565b600d54600f60009054906101000a90046001600160a01b03166001600160a01b031663460ffdae6040518163ffffffff1660e01b8152600401602060405180830381865afa158015610cbc573d6000803e3d6000fd5b505050506040513d601f19601f82011682018060405250810190610ce091906117bd565b610cea9190611771565b905080600d6000828254610cfe9190611788565b9091555050600a54600b54610d138385611788565b610d1d9190611730565b610d27919061174f565b60096000828254610d389190611788565b90915550505050565b6105808183610fd8565b6000818152600560205260409020546001600160a01b03163314610d6e57600080fd5b600a5415610d7e57610d7e610b9a565b60008181526008602052604081208054849290610d9c908490611788565b9091555050600954610dae9083611730565b60008281526008602052604081206001018054909190610dcf908490611788565b9250508190555081600a6000828254610de89190611788565b9250508190555081600c6000828254610e019190611788565b90915550506040516323b872dd60e01b8152336004820152306024820152604481018390527f00000000000000000000000000000000000000000000000000000000000000006001600160a01b0316906323b872dd906064016020604051808303816000875af1158015610e79573d6000803e3d6000fd5b505050506040513d601f19601f82011682018060405250810190610e9d91906117a0565b505050565b600080610eb133600354611317565b600a5490915015610ec457610ec4610b9a565b6000818152600860205260409020839055600954610ee29084611730565b60008281526008602052604081206001018054909190610f03908490611788565b9250508190555082600a6000828254610f1c9190611788565b9250508190555082600c6000828254610f359190611788565b90915550506040516323b872dd60e01b8152336004820152306024820152604481018490527f00000000000000000000000000000000000000000000000000000000000000006001600160a01b0316906323b872dd906064016020604051808303816000875af1158015610fad573d6000803e3d6000fd5b505050506040513d601f19601f82011682018060405250810190610fd191906117a0565b5092915050565b6000818152600560205260409020546001600160a01b0316331480156110065750611002816109e0565b8211155b61100f57600080fd5b6040516370a0823160e01b81523060048201526000907f00000000000000000000000000000000000000000000000000000000000000006001600160a01b0316906370a0823190602401602060405180830381865afa158015611076573d6000803e3d6000fd5b505050506040513d601f19601f8201168201806040525081019061109a91906117bd565b905060006110a6610b9a565b60006110b1846105f0565b905080851115611139576110c58186611771565b6000858152600860205260408120805492945084929091906110e8908490611771565b9250508190555081600a60008282546111019190611771565b90915550506009546000858152600860205260409020546111229190611730565b60008581526008602052604090206001015561116d565b600b546111469086611730565b60008581526008602052604081206001018054909190611167908490611788565b90915550505b600083861161117d576000611187565b6111878487611771565b905080156111b05761119881611432565b82600e60008282546111aa9190611771565b90915550505b60405163a9059cbb60e01b8152336004820152602481018790527f00000000000000000000000000000000000000000000000000000000000000006001600160a01b03169063a9059cbb906044016020604051808303816000875af115801561121d573d6000803e3d6000fd5b505050506040513d601f19601f8201168201806040525081019061124191906117a0565b50505050505050565b6000818152600560205260409020546001600160a01b03168061129c5760405162461bcd60e51b815260206004820152600a6024820152691393d517d3525395115160b21b6044820152606401610511565b6001600160a01b038116600081815260046020908152604080832080546000190190558583526005825280832080546001600160a01b031990811690915560069092528083208054909216909155518492907fddf252ad1be2c89b69c2b068fc378daa952ba7f163c4a11628f55a4df523b3ef908390a45050565b60006001600160a01b0383166113635760405162461bcd60e51b81526020600482015260116024820152701253959053125117d49150d25412515395607a1b6044820152606401610511565b6000828152600560205260409020546001600160a01b0316156113b95760405162461bcd60e51b815260206004820152600e60248201526d1053149150511657d3525395115160921b6044820152606401610511565b6001600160a01b038316600081815260046020908152604080832080546001908101909155600380549091019055858352600590915280822080546001600160a01b0319168417905551849291907fddf252ad1be2c89b69c2b068fc378daa952ba7f163c4a11628f55a4df523b3ef908290a450919050565b600f54604051631c8901bb60e31b8152600481018390526001600160a01b039091169063e4480dd890602401600060405180830381600087803b15801561147857600080fd5b505af115801561148c573d6000803e3d6000fd5b5050505080600d60008282546114a29190611771565b909155505050565b6000602082840312156114bc57600080fd5b81356001600160e01b03198116811461064a57600080fd5b6000815180845260005b818110156114fa576020818501810151868301820152016114de565b8181111561150c576000602083870101525b50601f01601f19169290920160200192915050565b60208152600061064a60208301846114d4565b60006020828403121561154657600080fd5b5035919050565b80356001600160a01b038116811461156457600080fd5b919050565b6000806040838503121561157c57600080fd5b6115858361154d565b946020939093013593505050565b600080604083850312156115a657600080fd5b50508035926020909101359150565b6000602082840312156115c757600080fd5b61064a8261154d565b6000806000606084860312156115e557600080fd5b6115ee8461154d565b92506115fc6020850161154d565b9150604084013590509250925092565b801515811461161a57600080fd5b50565b6000806040838503121561163057600080fd5b6116398361154d565b915060208301356116498161160c565b809150509250929050565b602081526000825160a0602084015261167060c08401826114d4565b905060018060a01b0360208501511660408401526040840151606084015260608401516080840152608084015160a08401528091505092915050565b600080604083850312156116bf57600080fd5b6116c88361154d565b91506116d66020840161154d565b90509250929050565b600181811c908216806116f357607f821691505b6020821081141561171457634e487b7160e01b600052602260045260246000fd5b50919050565b634e487b7160e01b600052601160045260246000fd5b600081600019048311821515161561174a5761174a61171a565b500290565b60008261176c57634e487b7160e01b600052601260045260246000fd5b500490565b6000828210156117835761178361171a565b500390565b6000821982111561179b5761179b61171a565b500190565b6000602082840312156117b257600080fd5b815161064a8161160c565b6000602082840312156117cf57600080fd5b505191905056fea26469706673582212200d3dab46ae8ea7776452528aa8c297ba239eeb387baa5c78743ac31faf4cbdd664736f6c634300080a0033",
    "linkReferences": {}
  }
}