{
  "abi": [
    {
      "type": "constructor",
      "inputs": [
        {
          "internalType": "address",
          "name": "_vaultToken",
          "type": "address"
        },
        {
          "internalType": "string",
          "name": "name",
          "type": "string"
        },
        {
          "internalType": "string",
          "name": "symbol",
          "type": "string"
        }
      ]
    },
    {
      "type": "function",
      "name": "approve",
      "inputs": [
        {
          "internalType": "address",
          "name": "spender",
          "type": "address"
        },
        {
          "internalType": "uint256",
          "name": "id",
          "type": "uint256"
        }
      ],
      "outputs": [],
      "stateMutability": "nonpayable"
    },
    {
      "type": "function",
      "name": "balanceOf",
      "inputs": [
        {
          "internalType": "address",
          "name": "",
          "type": "address"
        }
      ],
      "outputs": [
        {
          "internalType": "uint256",
          "name": "",
          "type": "uint256"
        }
      ],
      "stateMutability": "view"
    },
    {
      "type": "function",
      "name": "burnNFTAndWithdrawl",
      "inputs": [
        {
          "internalType": "uint256",
          "name": "id",
          "type": "uint256"
        }
      ],
      "outputs": [],
      "stateMutability": "nonpayable"
    },
    {
      "type": "function",
      "name": "currentId",
      "inputs": [],
      "outputs": [
        {
          "internalType": "uint256",
          "name": "",
          "type": "uint256"
        }
      ],
      "stateMutability": "view"
    },
    {
      "type": "function",
      "name": "depositToId",
      "inputs": [
        {
          "internalType": "uint256",
          "name": "amount",
          "type": "uint256"
        },
        {
          "internalType": "uint256",
          "name": "id",
          "type": "uint256"
        }
      ],
      "outputs": [],
      "stateMutability": "nonpayable"
    },
    {
      "type": "function",
      "name": "deposits",
      "inputs": [
        {
          "internalType": "uint256",
          "name": "",
          "type": "uint256"
        }
      ],
      "outputs": [
        {
          "internalType": "uint256",
          "name": "amount",
          "type": "uint256"
        },
        {
          "internalType": "uint256",
          "name": "tracker",
          "type": "uint256"
        }
      ],
      "stateMutability": "view"
    },
    {
      "type": "function",
      "name": "distributeYeild",
      "inputs": [],
      "outputs": [],
      "stateMutability": "nonpayable"
    },
    {
      "type": "function",
      "name": "getApproved",
      "inputs": [
        {
          "internalType": "uint256",
          "name": "",
          "type": "uint256"
        }
      ],
      "outputs": [
        {
          "internalType": "address",
          "name": "",
          "type": "address"
        }
      ],
      "stateMutability": "view"
    },
    {
      "type": "function",
      "name": "initStrat",
      "inputs": [],
      "outputs": [],
      "stateMutability": "nonpayable"
    },
    {
      "type": "function",
      "name": "isApprovedForAll",
      "inputs": [
        {
          "internalType": "address",
          "name": "",
          "type": "address"
        },
        {
          "internalType": "address",
          "name": "",
          "type": "address"
        }
      ],
      "outputs": [
        {
          "internalType": "bool",
          "name": "",
          "type": "bool"
        }
      ],
      "stateMutability": "view"
    },
    {
      "type": "function",
      "name": "mintNewNft",
      "inputs": [
        {
          "internalType": "uint256",
          "name": "amount",
          "type": "uint256"
        }
      ],
      "outputs": [
        {
          "internalType": "uint256",
          "name": "",
          "type": "uint256"
        }
      ],
      "stateMutability": "nonpayable"
    },
    {
      "type": "function",
      "name": "name",
      "inputs": [],
      "outputs": [
        {
          "internalType": "string",
          "name": "",
          "type": "string"
        }
      ],
      "stateMutability": "view"
    },
    {
      "type": "function",
      "name": "ownerOf",
      "inputs": [
        {
          "internalType": "uint256",
          "name": "",
          "type": "uint256"
        }
      ],
      "outputs": [
        {
          "internalType": "address",
          "name": "",
          "type": "address"
        }
      ],
      "stateMutability": "view"
    },
    {
      "type": "function",
      "name": "setApprovalForAll",
      "inputs": [
        {
          "internalType": "address",
          "name": "operator",
          "type": "address"
        },
        {
          "internalType": "bool",
          "name": "approved",
          "type": "bool"
        }
      ],
      "outputs": [],
      "stateMutability": "nonpayable"
    },
    {
      "type": "function",
      "name": "setStrat",
      "inputs": [
        {
          "internalType": "address",
          "name": "addr",
          "type": "address"
        }
      ],
      "outputs": [],
      "stateMutability": "nonpayable"
    },
    {
      "type": "function",
      "name": "supportsInterface",
      "inputs": [
        {
          "internalType": "bytes4",
          "name": "interfaceId",
          "type": "bytes4"
        }
      ],
      "outputs": [
        {
          "internalType": "bool",
          "name": "",
          "type": "bool"
        }
      ],
      "stateMutability": "pure"
    },
    {
      "type": "function",
      "name": "symbol",
      "inputs": [],
      "outputs": [
        {
          "internalType": "string",
          "name": "",
          "type": "string"
        }
      ],
      "stateMutability": "view"
    },
    {
      "type": "function",
      "name": "tokenURI",
      "inputs": [
        {
          "internalType": "uint256",
          "name": "id",
          "type": "uint256"
        }
      ],
      "outputs": [
        {
          "internalType": "struct BaseVault.MetaData",
          "name": "",
          "type": "tuple",
          "components": [
            {
              "type": "string"
            },
            {
              "type": "address"
            },
            {
              "type": "uint256"
            },
            {
              "type": "uint256"
            },
            {
              "type": "uint256"
            }
          ]
        }
      ],
      "stateMutability": "view"
    },
    {
      "type": "function",
      "name": "totalDeposits",
      "inputs": [],
      "outputs": [
        {
          "internalType": "uint256",
          "name": "",
          "type": "uint256"
        }
      ],
      "stateMutability": "view"
    },
    {
      "type": "function",
      "name": "transferFrom",
      "inputs": [
        {
          "internalType": "address",
          "name": "from",
          "type": "address"
        },
        {
          "internalType": "address",
          "name": "to",
          "type": "address"
        },
        {
          "internalType": "uint256",
          "name": "id",
          "type": "uint256"
        }
      ],
      "outputs": [],
      "stateMutability": "nonpayable"
    },
    {
      "type": "function",
      "name": "withdrawFromId",
      "inputs": [
        {
          "internalType": "uint256",
          "name": "id",
          "type": "uint256"
        },
        {
          "internalType": "uint256",
          "name": "amount",
          "type": "uint256"
        }
      ],
      "outputs": [],
      "stateMutability": "nonpayable"
    },
    {
      "type": "function",
      "name": "withdrawableById",
      "inputs": [
        {
          "internalType": "uint256",
          "name": "id",
          "type": "uint256"
        }
      ],
      "outputs": [
        {
          "internalType": "uint256",
          "name": "claimId",
          "type": "uint256"
        }
      ],
      "stateMutability": "view"
    },
    {
      "type": "function",
      "name": "yeildPerDeposit",
      "inputs": [],
      "outputs": [
        {
          "internalType": "uint256",
          "name": "",
          "type": "uint256"
        }
      ],
      "stateMutability": "view"
    },
    {
      "type": "function",
      "name": "yieldPerId",
      "inputs": [
        {
          "internalType": "uint256",
          "name": "id",
          "type": "uint256"
        }
      ],
      "outputs": [
        {
          "internalType": "uint256",
          "name": "",
          "type": "uint256"
        }
      ],
      "stateMutability": "view"
    },
    {
      "type": "event",
      "name": "Approval",
      "inputs": [
        {
          "name": "owner",
          "type": "address",
          "indexed": true
        },
        {
          "name": "spender",
          "type": "address",
          "indexed": true
        },
        {
          "name": "id",
          "type": "uint256",
          "indexed": true
        }
      ],
      "anonymous": false
    },
    {
      "type": "event",
      "name": "ApprovalForAll",
      "inputs": [
        {
          "name": "owner",
          "type": "address",
          "indexed": true
        },
        {
          "name": "operator",
          "type": "address",
          "indexed": true
        },
        {
          "name": "approved",
          "type": "bool",
          "indexed": false
        }
      ],
      "anonymous": false
    },
    {
      "type": "event",
      "name": "Transfer",
      "inputs": [
        {
          "name": "from",
          "type": "address",
          "indexed": true
        },
        {
          "name": "to",
          "type": "address",
          "indexed": true
        },
        {
          "name": "id",
          "type": "uint256",
          "indexed": true
        }
      ],
      "anonymous": false
    }
  ],
  "bytecode": {
    "object": "0x60c060405260016003553480156200001657600080fd5b5060405162001b1c38038062001b1c8339810160408190526200003991620001f8565b8151829082906200005290600090602085019062000085565b5080516200006890600190602084019062000085565b5050506001600160a01b0390921660805250503360a052620002bf565b828054620000939062000282565b90600052602060002090601f016020900481019282620000b7576000855562000102565b82601f10620000d257805160ff191683800117855562000102565b8280016001018555821562000102579182015b8281111562000102578251825591602001919060010190620000e5565b506200011092915062000114565b5090565b5b8082111562000110576000815560010162000115565b634e487b7160e01b600052604160045260246000fd5b600082601f8301126200015357600080fd5b81516001600160401b03808211156200017057620001706200012b565b604051601f8301601f19908116603f011681019082821181831017156200019b576200019b6200012b565b81604052838152602092508683858801011115620001b857600080fd5b600091505b83821015620001dc5785820183015181830184015290820190620001bd565b83821115620001ee5760008385830101525b9695505050505050565b6000806000606084860312156200020e57600080fd5b83516001600160a01b03811681146200022657600080fd5b60208501519093506001600160401b03808211156200024457600080fd5b620002528783880162000141565b935060408601519150808211156200026957600080fd5b50620002788682870162000141565b9150509250925092565b600181811c908216806200029757607f821691505b60208210811415620002b957634e487b7160e01b600052602260045260246000fd5b50919050565b60805160a05161181462000308600039600061058f01526000818161090801528181610bc301528181610e2f01528181610f630152818161103601526111d401526118146000f3fe608060405234801561001057600080fd5b50600436106101585760003560e01c806370a08231116100c3578063b02c43d01161007c578063b02c43d014610301578063c87b56dd1461033d578063ca1e3c831461035d578063e00dd16114610365578063e985e9c51461036e578063eaaf1fca1461039c57600080fd5b806370a08231146102a15780637d882097146102c157806389f3dd37146102ca57806395d89b41146102dd578063a22cb465146102e5578063a2d6b25f146102f857600080fd5b80631ab2f6af116101155780631ab2f6af1461021657806323b872dd1461023757806334d894c91461024a5780634b6d69d3146102525780636352211e146102655780636d43d9f11461028e57600080fd5b806301ffc9a71461015d57806306fdde0314610185578063081812fc1461019a578063095ea7b3146101db578063159b4962146101f057806316cc3b0714610203575b600080fd5b61017061016b3660046114b2565b6103af565b60405190151581526020015b60405180910390f35b61018d610401565b60405161017c9190611529565b6101c36101a836600461153c565b6006602052600090815260409020546001600160a01b031681565b6040516001600160a01b03909116815260200161017c565b6101ee6101e9366004611571565b61048f565b005b6101ee6101fe36600461159b565b610576565b6101ee6102113660046115bd565b610584565b61022961022436600461153c565b6105f0565b60405190815260200161017c565b6101ee6102453660046115d8565b610656565b6101ee61081d565b61022961026036600461153c565b6109da565b6101c361027336600461153c565b6005602052600090815260409020546001600160a01b031681565b61022961029c36600461153c565b6109e5565b6102296102af3660046115bd565b60046020526000908152604090205481565b610229600a5481565b6101ee6102d836600461153c565b610a09565b61018d610a29565b6101ee6102f3366004611625565b610a36565b61022960095481565b61032861030f36600461153c565b6008602052600090815260409020805460019091015482565b6040805192835260208301919091520161017c565b61035061034b36600461153c565b610aa2565b60405161017c919061165c565b6101ee610b9f565b61022960035481565b61017061037c3660046116b4565b600760209081526000928352604080842090915290825290205460ff1681565b6101ee6103aa36600461159b565b610d48565b60006301ffc9a760e01b6001600160e01b0319831614806103e057506380ac58cd60e01b6001600160e01b03198316145b806103fb5750635b5e139f60e01b6001600160e01b03198316145b92915050565b6000805461040e906116e7565b80601f016020809104026020016040519081016040528092919081815260200182805461043a906116e7565b80156104875780601f1061045c57610100808354040283529160200191610487565b820191906000526020600020905b81548152906001019060200180831161046a57829003601f168201915b505050505081565b6000818152600560205260409020546001600160a01b0316338114806104d857506001600160a01b038116600090815260076020908152604080832033845290915290205460ff165b61051a5760405162461bcd60e51b815260206004820152600e60248201526d1393d517d055551213d49256915160921b60448201526064015b60405180910390fd5b60008281526006602052604080822080546001600160a01b0319166001600160a01b0387811691821790925591518593918516917f8c5be1e5ebec7d5bd14f71427d1e84f3dd0314c0f7b2291e5b200ac8c7c3b92591a4505050565b6105808282610d52565b5050565b336001600160a01b037f0000000000000000000000000000000000000000000000000000000000000000161480156105c55750600e546001600160a01b0316155b6105ce57600080fd5b600e80546001600160a01b0319166001600160a01b0392909216919091179055565b600954600082815260086020526040812054909182916402540be4009161061691611738565b6106209190611757565b600084815260086020526040902060010154909150610645906402540be40090611757565b61064f9082611779565b9392505050565b6000818152600560205260409020546001600160a01b038481169116146106ac5760405162461bcd60e51b815260206004820152600a60248201526957524f4e475f46524f4d60b01b6044820152606401610511565b6001600160a01b0382166106f65760405162461bcd60e51b81526020600482015260116024820152701253959053125117d49150d25412515395607a1b6044820152606401610511565b336001600160a01b038416148061072357506000818152600660205260409020546001600160a01b031633145b8061075157506001600160a01b038316600090815260076020908152604080832033845290915290205460ff165b61078e5760405162461bcd60e51b815260206004820152600e60248201526d1393d517d055551213d49256915160921b6044820152606401610511565b6001600160a01b0380841660008181526004602090815260408083208054600019019055938616808352848320805460010190558583526005825284832080546001600160a01b03199081168317909155600690925284832080549092169091559251849392917fddf252ad1be2c89b69c2b068fc378daa952ba7f163c4a11628f55a4df523b3ef91a4505050565b600e546001600160a01b03166108635760405162461bcd60e51b815260206004820152600b60248201526a4e6f20537472617465677960a81b6044820152606401610511565b6000612710600a546113886108789190611738565b6108829190611757565b90506000600d54826108949190611779565b905080600d60008282546108a89190611790565b9250508190555080600c60008282546108c19190611790565b9250508190555080600b60008282546108da9190611779565b9091555050600e5460405163095ea7b360e01b81526001600160a01b039182166004820152602481018390527f00000000000000000000000000000000000000000000000000000000000000009091169063095ea7b3906044016020604051808303816000875af1158015610953573d6000803e3d6000fd5b505050506040513d601f19601f8201168201806040525081019061097791906117a8565b50600e5460405163b6b55f2560e01b8152600481018390526001600160a01b039091169063b6b55f2590602401600060405180830381600087803b1580156109be57600080fd5b505af11580156109d2573d6000803e3d6000fd5b505050505050565b60006103fb82610ea9565b60006109f0826105f0565b6000838152600860205260409020546103fb9190611790565b6000610a14826109e5565b9050610a208183610fdf565b61058082611252565b6001805461040e906116e7565b3360008181526007602090815260408083206001600160a01b03871680855290835292819020805460ff191686151590811790915590519081529192917f17307eab39ab6107e8899845ad3d59bd9653f200f220920489ca2b5937696c31910160405180910390a35050565b610add6040518060a001604052806060815260200160006001600160a01b031681526020016000815260200160008152602001600081525090565b6040518060a0016040528060008054610af5906116e7565b80601f0160208091040260200160405190810160405280929190818152602001828054610b21906116e7565b8015610b6e5780601f10610b4357610100808354040283529160200191610b6e565b820191906000526020600020905b815481529060010190602001808311610b5157829003601f168201915b5050509183525050306020820152604001610b88846109e5565b815260200183815260200160008152509050919050565b600b546040516370a0823160e01b8152306004820152600091906001600160a01b037f000000000000000000000000000000000000000000000000000000000000000016906370a0823190602401602060405180830381865afa158015610c0a573d6000803e3d6000fd5b505050506040513d601f19601f82011682018060405250810190610c2e91906117c5565b610c389190611779565b905080600b6000828254610c4c9190611790565b9091555050600e546000906001600160a01b0316610c6b576000610cef565b600c54600e60009054906101000a90046001600160a01b03166001600160a01b031663460ffdae6040518163ffffffff1660e01b8152600401602060405180830381865afa158015610cc1573d6000803e3d6000fd5b505050506040513d601f19601f82011682018060405250810190610ce591906117c5565b610cef9190611779565b905080600c6000828254610d039190611790565b9091555050600a54610d158284611790565b610d24906402540be400611738565b610d2e9190611757565b60096000828254610d3f9190611790565b90915550505050565b6105808183610fdf565b6000818152600560205260409020546001600160a01b03163314610d7557600080fd5b600a5415610d8557610d85610b9f565b60008181526008602052604081208054849290610da3908490611790565b9091555050600954610db59083611738565b60008281526008602052604081206001018054909190610dd6908490611790565b9250508190555081600a6000828254610def9190611790565b9250508190555081600b6000828254610e089190611790565b90915550506040516323b872dd60e01b8152336004820152306024820152604481018390527f00000000000000000000000000000000000000000000000000000000000000006001600160a01b0316906323b872dd906064016020604051808303816000875af1158015610e80573d6000803e3d6000fd5b505050506040513d601f19601f82011682018060405250810190610ea491906117a8565b505050565b600080610eb83360035461131f565b600a5490915015610ecb57610ecb610b9f565b6000818152600860205260409020839055600954610ee99084611738565b60008281526008602052604081206001018054909190610f0a908490611790565b9250508190555082600a6000828254610f239190611790565b9250508190555082600b6000828254610f3c9190611790565b90915550506040516323b872dd60e01b8152336004820152306024820152604481018490527f00000000000000000000000000000000000000000000000000000000000000006001600160a01b0316906323b872dd906064016020604051808303816000875af1158015610fb4573d6000803e3d6000fd5b505050506040513d601f19601f82011682018060405250810190610fd891906117a8565b5092915050565b610fe7610b9f565b6000818152600560205260409020546001600160a01b0316331480156110155750611011816109e5565b8211155b61101e57600080fd5b6040516370a0823160e01b81523060048201526000907f00000000000000000000000000000000000000000000000000000000000000006001600160a01b0316906370a0823190602401602060405180830381865afa158015611085573d6000803e3d6000fd5b505050506040513d601f19601f820116820180604052508101906110a991906117c5565b90506000806110b7846105f0565b90508085111561113f576110cb8186611779565b6000858152600860205260408120805492945084929091906110ee908490611779565b9250508190555081600a60008282546111079190611779565b90915550506009546000858152600860205260409020546111289190611738565b600085815260086020526040902060010155611175565b61114e856402540be400611738565b6000858152600860205260408120600101805490919061116f908490611790565b90915550505b600083861161118557600061118f565b61118f8487611779565b905080156111b8576111a08161143a565b82600d60008282546111b29190611779565b90915550505b60405163a9059cbb60e01b8152336004820152602481018790527f00000000000000000000000000000000000000000000000000000000000000006001600160a01b03169063a9059cbb906044016020604051808303816000875af1158015611225573d6000803e3d6000fd5b505050506040513d601f19601f8201168201806040525081019061124991906117a8565b50505050505050565b6000818152600560205260409020546001600160a01b0316806112a45760405162461bcd60e51b815260206004820152600a6024820152691393d517d3525395115160b21b6044820152606401610511565b6001600160a01b038116600081815260046020908152604080832080546000190190558583526005825280832080546001600160a01b031990811690915560069092528083208054909216909155518492907fddf252ad1be2c89b69c2b068fc378daa952ba7f163c4a11628f55a4df523b3ef908390a45050565b60006001600160a01b03831661136b5760405162461bcd60e51b81526020600482015260116024820152701253959053125117d49150d25412515395607a1b6044820152606401610511565b6000828152600560205260409020546001600160a01b0316156113c15760405162461bcd60e51b815260206004820152600e60248201526d1053149150511657d3525395115160921b6044820152606401610511565b6001600160a01b038316600081815260046020908152604080832080546001908101909155600380549091019055858352600590915280822080546001600160a01b0319168417905551849291907fddf252ad1be2c89b69c2b068fc378daa952ba7f163c4a11628f55a4df523b3ef908290a450919050565b600e54604051631c8901bb60e31b8152600481018390526001600160a01b039091169063e4480dd890602401600060405180830381600087803b15801561148057600080fd5b505af1158015611494573d6000803e3d6000fd5b5050505080600c60008282546114aa9190611779565b909155505050565b6000602082840312156114c457600080fd5b81356001600160e01b03198116811461064f57600080fd5b6000815180845260005b81811015611502576020818501810151868301820152016114e6565b81811115611514576000602083870101525b50601f01601f19169290920160200192915050565b60208152600061064f60208301846114dc565b60006020828403121561154e57600080fd5b5035919050565b80356001600160a01b038116811461156c57600080fd5b919050565b6000806040838503121561158457600080fd5b61158d83611555565b946020939093013593505050565b600080604083850312156115ae57600080fd5b50508035926020909101359150565b6000602082840312156115cf57600080fd5b61064f82611555565b6000806000606084860312156115ed57600080fd5b6115f684611555565b925061160460208501611555565b9150604084013590509250925092565b801515811461162257600080fd5b50565b6000806040838503121561163857600080fd5b61164183611555565b9150602083013561165181611614565b809150509250929050565b602081526000825160a0602084015261167860c08401826114dc565b905060018060a01b0360208501511660408401526040840151606084015260608401516080840152608084015160a08401528091505092915050565b600080604083850312156116c757600080fd5b6116d083611555565b91506116de60208401611555565b90509250929050565b600181811c908216806116fb57607f821691505b6020821081141561171c57634e487b7160e01b600052602260045260246000fd5b50919050565b634e487b7160e01b600052601160045260246000fd5b600081600019048311821515161561175257611752611722565b500290565b60008261177457634e487b7160e01b600052601260045260246000fd5b500490565b60008282101561178b5761178b611722565b500390565b600082198211156117a3576117a3611722565b500190565b6000602082840312156117ba57600080fd5b815161064f81611614565b6000602082840312156117d757600080fd5b505191905056fea264697066735822122043ee49f9512bc27fd4dcb051194bf732958c5a63641791f15752a0940758bbf864736f6c634300080b0033",
    "linkReferences": {}
  }
}