{
  "abi": [
    {
      "anonymous": false,
      "inputs": [
        {
          "indexed": true,
          "internalType": "address",
          "name": "owner",
          "type": "address"
        },
        {
          "indexed": true,
          "internalType": "address",
          "name": "spender",
          "type": "address"
        },
        {
          "indexed": true,
          "internalType": "uint256",
          "name": "id",
          "type": "uint256"
        }
      ],
      "name": "Approval",
      "type": "event"
    },
    {
      "anonymous": false,
      "inputs": [
        {
          "indexed": true,
          "internalType": "address",
          "name": "owner",
          "type": "address"
        },
        {
          "indexed": true,
          "internalType": "address",
          "name": "operator",
          "type": "address"
        },
        {
          "indexed": false,
          "internalType": "bool",
          "name": "approved",
          "type": "bool"
        }
      ],
      "name": "ApprovalForAll",
      "type": "event"
    },
    {
      "anonymous": false,
      "inputs": [
        {
          "indexed": true,
          "internalType": "address",
          "name": "from",
          "type": "address"
        },
        {
          "indexed": true,
          "internalType": "address",
          "name": "to",
          "type": "address"
        },
        {
          "indexed": true,
          "internalType": "uint256",
          "name": "id",
          "type": "uint256"
        }
      ],
      "name": "Transfer",
      "type": "event"
    },
    {
      "inputs": [
        {
          "internalType": "address",
          "name": "spender",
          "type": "address"
        },
        {
          "internalType": "uint256",
          "name": "id",
          "type": "uint256"
        }
      ],
      "name": "approve",
      "outputs": [],
      "stateMutability": "nonpayable",
      "type": "function"
    },
    {
      "inputs": [
        {
          "internalType": "address",
          "name": "",
          "type": "address"
        }
      ],
      "name": "balanceOf",
      "outputs": [
        {
          "internalType": "uint256",
          "name": "",
          "type": "uint256"
        }
      ],
      "stateMutability": "view",
      "type": "function"
    },
    {
      "inputs": [
        {
          "internalType": "string",
          "name": "_name",
          "type": "string"
        },
        {
          "internalType": "string",
          "name": "_symbol",
          "type": "string"
        },
        {
          "internalType": "address",
          "name": "_token",
          "type": "address"
        },
        {
          "internalType": "address",
          "name": "strategy",
          "type": "address"
        }
      ],
      "name": "baseInit",
      "outputs": [],
      "stateMutability": "nonpayable",
      "type": "function"
    },
    {
      "inputs": [
        {
          "internalType": "uint256",
          "name": "id",
          "type": "uint256"
        }
      ],
      "name": "burnNFTAndWithdrawl",
      "outputs": [],
      "stateMutability": "nonpayable",
      "type": "function"
    },
    {
      "inputs": [],
      "name": "currentId",
      "outputs": [
        {
          "internalType": "uint256",
          "name": "",
          "type": "uint256"
        }
      ],
      "stateMutability": "view",
      "type": "function"
    },
    {
      "inputs": [
        {
          "internalType": "uint256",
          "name": "amount",
          "type": "uint256"
        },
        {
          "internalType": "uint256",
          "name": "id",
          "type": "uint256"
        }
      ],
      "name": "depositToId",
      "outputs": [],
      "stateMutability": "nonpayable",
      "type": "function"
    },
    {
      "inputs": [
        {
          "internalType": "uint256",
          "name": "",
          "type": "uint256"
        }
      ],
      "name": "deposits",
      "outputs": [
        {
          "internalType": "uint256",
          "name": "amount",
          "type": "uint256"
        },
        {
          "internalType": "uint256",
          "name": "tracker",
          "type": "uint256"
        }
      ],
      "stateMutability": "view",
      "type": "function"
    },
    {
      "inputs": [],
      "name": "distributeYeild",
      "outputs": [],
      "stateMutability": "nonpayable",
      "type": "function"
    },
    {
      "inputs": [
        {
          "internalType": "uint256",
          "name": "",
          "type": "uint256"
        }
      ],
      "name": "getApproved",
      "outputs": [
        {
          "internalType": "address",
          "name": "",
          "type": "address"
        }
      ],
      "stateMutability": "view",
      "type": "function"
    },
    {
      "inputs": [],
      "name": "initStrat",
      "outputs": [],
      "stateMutability": "nonpayable",
      "type": "function"
    },
    {
      "inputs": [
        {
          "internalType": "address",
          "name": "",
          "type": "address"
        },
        {
          "internalType": "address",
          "name": "",
          "type": "address"
        }
      ],
      "name": "isApprovedForAll",
      "outputs": [
        {
          "internalType": "bool",
          "name": "",
          "type": "bool"
        }
      ],
      "stateMutability": "view",
      "type": "function"
    },
    {
      "inputs": [
        {
          "internalType": "uint256",
          "name": "amount",
          "type": "uint256"
        }
      ],
      "name": "mintNewNft",
      "outputs": [
        {
          "internalType": "uint256",
          "name": "",
          "type": "uint256"
        }
      ],
      "stateMutability": "nonpayable",
      "type": "function"
    },
    {
      "inputs": [],
      "name": "name",
      "outputs": [
        {
          "internalType": "string",
          "name": "",
          "type": "string"
        }
      ],
      "stateMutability": "view",
      "type": "function"
    },
    {
      "inputs": [
        {
          "internalType": "uint256",
          "name": "",
          "type": "uint256"
        }
      ],
      "name": "ownerOf",
      "outputs": [
        {
          "internalType": "address",
          "name": "",
          "type": "address"
        }
      ],
      "stateMutability": "view",
      "type": "function"
    },
    {
      "inputs": [
        {
          "internalType": "address",
          "name": "operator",
          "type": "address"
        },
        {
          "internalType": "bool",
          "name": "approved",
          "type": "bool"
        }
      ],
      "name": "setApprovalForAll",
      "outputs": [],
      "stateMutability": "nonpayable",
      "type": "function"
    },
    {
      "inputs": [],
      "name": "strat",
      "outputs": [
        {
          "internalType": "contract IStrategy",
          "name": "",
          "type": "address"
        }
      ],
      "stateMutability": "view",
      "type": "function"
    },
    {
      "inputs": [
        {
          "internalType": "bytes4",
          "name": "interfaceId",
          "type": "bytes4"
        }
      ],
      "name": "supportsInterface",
      "outputs": [
        {
          "internalType": "bool",
          "name": "",
          "type": "bool"
        }
      ],
      "stateMutability": "pure",
      "type": "function"
    },
    {
      "inputs": [],
      "name": "symbol",
      "outputs": [
        {
          "internalType": "string",
          "name": "",
          "type": "string"
        }
      ],
      "stateMutability": "view",
      "type": "function"
    },
    {
      "inputs": [
        {
          "internalType": "uint256",
          "name": "id",
          "type": "uint256"
        }
      ],
      "name": "tokenURI",
      "outputs": [
        {
          "components": [
            {
              "internalType": "string",
              "name": "name",
              "type": "string"
            },
            {
              "internalType": "address",
              "name": "vaultAddress",
              "type": "address"
            },
            {
              "internalType": "uint256",
              "name": "withdrawable",
              "type": "uint256"
            },
            {
              "internalType": "uint256",
              "name": "id",
              "type": "uint256"
            },
            {
              "internalType": "uint256",
              "name": "vaultType",
              "type": "uint256"
            }
          ],
          "internalType": "struct BaseVault.MetaData",
          "name": "",
          "type": "tuple"
        }
      ],
      "stateMutability": "view",
      "type": "function"
    },
    {
      "inputs": [],
      "name": "totalDeposits",
      "outputs": [
        {
          "internalType": "uint256",
          "name": "",
          "type": "uint256"
        }
      ],
      "stateMutability": "view",
      "type": "function"
    },
    {
      "inputs": [
        {
          "internalType": "address",
          "name": "from",
          "type": "address"
        },
        {
          "internalType": "address",
          "name": "to",
          "type": "address"
        },
        {
          "internalType": "uint256",
          "name": "id",
          "type": "uint256"
        }
      ],
      "name": "transferFrom",
      "outputs": [],
      "stateMutability": "nonpayable",
      "type": "function"
    },
    {
      "inputs": [],
      "name": "vaultToken",
      "outputs": [
        {
          "internalType": "contract ERC20",
          "name": "",
          "type": "address"
        }
      ],
      "stateMutability": "view",
      "type": "function"
    },
    {
      "inputs": [
        {
          "internalType": "uint256",
          "name": "id",
          "type": "uint256"
        },
        {
          "internalType": "uint256",
          "name": "amount",
          "type": "uint256"
        }
      ],
      "name": "withdrawFromId",
      "outputs": [],
      "stateMutability": "nonpayable",
      "type": "function"
    },
    {
      "inputs": [
        {
          "internalType": "uint256",
          "name": "id",
          "type": "uint256"
        }
      ],
      "name": "withdrawableById",
      "outputs": [
        {
          "internalType": "uint256",
          "name": "claimId",
          "type": "uint256"
        }
      ],
      "stateMutability": "view",
      "type": "function"
    },
    {
      "inputs": [],
      "name": "yeildPerDeposit",
      "outputs": [
        {
          "internalType": "uint256",
          "name": "",
          "type": "uint256"
        }
      ],
      "stateMutability": "view",
      "type": "function"
    },
    {
      "inputs": [
        {
          "internalType": "uint256",
          "name": "id",
          "type": "uint256"
        }
      ],
      "name": "yieldPerId",
      "outputs": [
        {
          "internalType": "uint256",
          "name": "",
          "type": "uint256"
        }
      ],
      "stateMutability": "view",
      "type": "function"
    }
  ],
  "bytecode": {
    "object": "0x608060405234801561001057600080fd5b5061199c806100206000396000f3fe608060405234801561001057600080fd5b506004361061018e5760003560e01c8063703bafd5116100de578063a2d6b25f11610097578063ca1e3c8311610071578063ca1e3c83146103b9578063e00dd161146103c1578063e985e9c5146103ca578063eaaf1fca146103f857600080fd5b8063a2d6b25f14610354578063b02c43d01461035d578063c87b56dd1461039957600080fd5b8063703bafd5146102ea57806370a08231146102fd5780637d8820971461031d57806389f3dd371461032657806395d89b4114610339578063a22cb4651461034157600080fd5b80631ab2f6af1161014b5780634b6d69d3116101255780634b6d69d3146102885780636352211e1461029b5780636c9980e1146102c45780636d43d9f1146102d757600080fd5b80631ab2f6af1461024c57806323b872dd1461026d57806334d894c91461028057600080fd5b806301ffc9a714610193578063059b2a10146101bb57806306fdde03146101e6578063081812fc146101fb578063095ea7b314610224578063159b496214610239575b600080fd5b6101a66101a136600461153b565b61040b565b60405190151581526020015b60405180910390f35b600e546101ce906001600160a01b031681565b6040516001600160a01b0390911681526020016101b2565b6101ee61045d565b6040516101b291906115b2565b6101ce6102093660046115c5565b6004602052600090815260409020546001600160a01b031681565b6102376102323660046115fa565b6104eb565b005b610237610247366004611624565b6105d2565b61025f61025a3660046115c5565b6105e0565b6040519081526020016101b2565b61023761027b366004611646565b610646565b61023761080d565b61025f6102963660046115c5565b6109ab565b6101ce6102a93660046115c5565b6003602052600090815260409020546001600160a01b031681565b6102376102d2366004611725565b6109b6565b61025f6102e53660046115c5565b610a3e565b600c546101ce906001600160a01b031681565b61025f61030b3660046117aa565b60026020526000908152604090205481565b61025f60085481565b6102376103343660046115c5565b610a62565b6101ee610a82565b61023761034f3660046117d6565b610a8f565b61025f60075481565b61038461036b3660046115c5565b6006602052600090815260409020805460019091015482565b604080519283526020830191909152016101b2565b6103ac6103a73660046115c5565b610afb565b6040516101b2919061180d565b610237610bf8565b61025f600f5481565b6101a66103d8366004611865565b600560209081526000928352604080842090915290825290205460ff1681565b610237610406366004611624565b610d83565b60006301ffc9a760e01b6001600160e01b03198316148061043c57506380ac58cd60e01b6001600160e01b03198316145b806104575750635b5e139f60e01b6001600160e01b03198316145b92915050565b6000805461046a90611898565b80601f016020809104026020016040519081016040528092919081815260200182805461049690611898565b80156104e35780601f106104b8576101008083540402835291602001916104e3565b820191906000526020600020905b8154815290600101906020018083116104c657829003601f168201915b505050505081565b6000818152600360205260409020546001600160a01b03163381148061053457506001600160a01b038116600090815260056020908152604080832033845290915290205460ff165b6105765760405162461bcd60e51b815260206004820152600e60248201526d1393d517d055551213d49256915160921b60448201526064015b60405180910390fd5b60008281526004602052604080822080546001600160a01b0319166001600160a01b0387811691821790925591518593918516917f8c5be1e5ebec7d5bd14f71427d1e84f3dd0314c0f7b2291e5b200ac8c7c3b92591a4505050565b6105dc8282610d8d565b5050565b600754600082815260066020526040812054909182916402540be40091610606916118e9565b6106109190611908565b600084815260066020526040902060010154909150610635906402540be40090611908565b61063f908261192a565b9392505050565b6000818152600360205260409020546001600160a01b0384811691161461069c5760405162461bcd60e51b815260206004820152600a60248201526957524f4e475f46524f4d60b01b604482015260640161056d565b6001600160a01b0382166106e65760405162461bcd60e51b81526020600482015260116024820152701253959053125117d49150d25412515395607a1b604482015260640161056d565b336001600160a01b038416148061071357506000818152600460205260409020546001600160a01b031633145b8061074157506001600160a01b038316600090815260056020908152604080832033845290915290205460ff165b61077e5760405162461bcd60e51b815260206004820152600e60248201526d1393d517d055551213d49256915160921b604482015260640161056d565b6001600160a01b0380841660008181526002602090815260408083208054600019019055938616808352848320805460010190558583526003825284832080546001600160a01b03199081168317909155600490925284832080549092169091559251849392917fddf252ad1be2c89b69c2b068fc378daa952ba7f163c4a11628f55a4df523b3ef91a4505050565b600e546001600160a01b03166108535760405162461bcd60e51b815260206004820152600b60248201526a4e6f20537472617465677960a81b604482015260640161056d565b600061271060085461138861086891906118e9565b6108729190611908565b90506000600b5482610884919061192a565b905080600b60008282546108989190611941565b9250508190555080600a60008282546108b19190611941565b9250508190555080600960008282546108ca919061192a565b9091555050600c54600e5460405163095ea7b360e01b81526001600160a01b0391821660048201526024810184905291169063095ea7b3906044016020604051808303816000875af1158015610924573d6000803e3d6000fd5b505050506040513d601f19601f820116820180604052508101906109489190611959565b50600e5460405163b6b55f2560e01b8152600481018390526001600160a01b039091169063b6b55f2590602401600060405180830381600087803b15801561098f57600080fd5b505af11580156109a3573d6000803e3d6000fd5b505050505050565b600061045782610ec8565b600d54156109fc5760405162461bcd60e51b8152602060048201526013602482015272105b1c9958591e48125b9a5d1a585b1a5e9959606a1b604482015260640161056d565b610a068484610fee565b600e80546001600160a01b039283166001600160a01b031991821617909155600c805493909216921691909117905550506001600d55565b6000610a49826105e0565b6000838152600660205260409020546104579190611941565b6000610a6d82610a3e565b9050610a798183611015565b6105dc8261124e565b6001805461046a90611898565b3360008181526005602090815260408083206001600160a01b03871680855290835292819020805460ff191686151590811790915590519081529192917f17307eab39ab6107e8899845ad3d59bd9653f200f220920489ca2b5937696c31910160405180910390a35050565b610b366040518060a001604052806060815260200160006001600160a01b031681526020016000815260200160008152602001600081525090565b6040518060a0016040528060008054610b4e90611898565b80601f0160208091040260200160405190810160405280929190818152602001828054610b7a90611898565b8015610bc75780601f10610b9c57610100808354040283529160200191610bc7565b820191906000526020600020905b815481529060010190602001808311610baa57829003601f168201915b5050509183525050306020820152604001610be184610a3e565b815260200183815260200160008152509050919050565b600954600c546040516370a0823160e01b8152306004820152600092916001600160a01b0316906370a0823190602401602060405180830381865afa158015610c45573d6000803e3d6000fd5b505050506040513d601f19601f82011682018060405250810190610c699190611976565b610c73919061192a565b90508060096000828254610c879190611941565b9091555050600e546000906001600160a01b0316610ca6576000610d2a565b600a54600e60009054906101000a90046001600160a01b03166001600160a01b031663460ffdae6040518163ffffffff1660e01b8152600401602060405180830381865afa158015610cfc573d6000803e3d6000fd5b505050506040513d601f19601f82011682018060405250810190610d209190611976565b610d2a919061192a565b905080600a6000828254610d3e9190611941565b9091555050600854610d508284611941565b610d5f906402540be4006118e9565b610d699190611908565b60076000828254610d7a9190611941565b90915550505050565b6105dc8183611015565b6000818152600360205260409020546001600160a01b03163314610db057600080fd5b60085415610dc057610dc0610bf8565b60008181526006602052604081208054849290610dde908490611941565b9091555050600754610df090836118e9565b60008281526006602052604081206001018054909190610e11908490611941565b925050819055508160086000828254610e2a9190611941565b925050819055508160096000828254610e439190611941565b9091555050600c546040516323b872dd60e01b8152336004820152306024820152604481018490526001600160a01b03909116906323b872dd906064016020604051808303816000875af1158015610e9f573d6000803e3d6000fd5b505050506040513d601f19601f82011682018060405250810190610ec39190611959565b505050565b600080610ee333600f6000815460010191905081905561131b565b60085490915015610ef657610ef6610bf8565b6000818152600660205260409020839055600754610f1490846118e9565b60008281526006602052604081206001018054909190610f35908490611941565b925050819055508260086000828254610f4e9190611941565b925050819055508260096000828254610f679190611941565b9091555050600c546040516323b872dd60e01b8152336004820152306024820152604481018590526001600160a01b03909116906323b872dd906064016020604051808303816000875af1158015610fc3573d6000803e3d6000fd5b505050506040513d601f19601f82011682018060405250810190610fe79190611959565b5092915050565b80516110019060019060208401906114a2565b508151610ec39060009060208501906114a2565b61101d610bf8565b6000818152600360205260409020546001600160a01b03163314801561104b575061104781610a3e565b8211155b61105457600080fd5b600c546040516370a0823160e01b81523060048201526000916001600160a01b0316906370a0823190602401602060405180830381865afa15801561109d573d6000803e3d6000fd5b505050506040513d601f19601f820116820180604052508101906110c19190611976565b90506000806110cf846105e0565b905080851115611157576110e3818661192a565b60008581526006602052604081208054929450849290919061110690849061192a565b92505081905550816008600082825461111f919061192a565b909155505060075460008581526006602052604090205461114091906118e9565b60008581526006602052604090206001015561118d565b611166856402540be4006118e9565b60008581526006602052604081206001018054909190611187908490611941565b90915550505b600083861161119d5760006111a7565b6111a7848761192a565b905080156111d0576111b88161142a565b82600b60008282546111ca919061192a565b90915550505b600c5460405163a9059cbb60e01b8152336004820152602481018890526001600160a01b039091169063a9059cbb906044016020604051808303816000875af1158015611221573d6000803e3d6000fd5b505050506040513d601f19601f820116820180604052508101906112459190611959565b50505050505050565b6000818152600360205260409020546001600160a01b0316806112a05760405162461bcd60e51b815260206004820152600a6024820152691393d517d3525395115160b21b604482015260640161056d565b6001600160a01b038116600081815260026020908152604080832080546000190190558583526003825280832080546001600160a01b031990811690915560049092528083208054909216909155518492907fddf252ad1be2c89b69c2b068fc378daa952ba7f163c4a11628f55a4df523b3ef908390a45050565b60006001600160a01b0383166113675760405162461bcd60e51b81526020600482015260116024820152701253959053125117d49150d25412515395607a1b604482015260640161056d565b6000828152600360205260409020546001600160a01b0316156113bd5760405162461bcd60e51b815260206004820152600e60248201526d1053149150511657d3525395115160921b604482015260640161056d565b6001600160a01b038316600081815260026020908152604080832080546001019055858352600390915280822080546001600160a01b0319168417905551849291907fddf252ad1be2c89b69c2b068fc378daa952ba7f163c4a11628f55a4df523b3ef908290a450919050565b600e54604051631c8901bb60e31b8152600481018390526001600160a01b039091169063e4480dd890602401600060405180830381600087803b15801561147057600080fd5b505af1158015611484573d6000803e3d6000fd5b5050505080600a600082825461149a919061192a565b909155505050565b8280546114ae90611898565b90600052602060002090601f0160209004810192826114d05760008555611516565b82601f106114e957805160ff1916838001178555611516565b82800160010185558215611516579182015b828111156115165782518255916020019190600101906114fb565b50611522929150611526565b5090565b5b808211156115225760008155600101611527565b60006020828403121561154d57600080fd5b81356001600160e01b03198116811461063f57600080fd5b6000815180845260005b8181101561158b5760208185018101518683018201520161156f565b8181111561159d576000602083870101525b50601f01601f19169290920160200192915050565b60208152600061063f6020830184611565565b6000602082840312156115d757600080fd5b5035919050565b80356001600160a01b03811681146115f557600080fd5b919050565b6000806040838503121561160d57600080fd5b611616836115de565b946020939093013593505050565b6000806040838503121561163757600080fd5b50508035926020909101359150565b60008060006060848603121561165b57600080fd5b611664846115de565b9250611672602085016115de565b9150604084013590509250925092565b634e487b7160e01b600052604160045260246000fd5b600082601f8301126116a957600080fd5b813567ffffffffffffffff808211156116c4576116c4611682565b604051601f8301601f19908116603f011681019082821181831017156116ec576116ec611682565b8160405283815286602085880101111561170557600080fd5b836020870160208301376000602085830101528094505050505092915050565b6000806000806080858703121561173b57600080fd5b843567ffffffffffffffff8082111561175357600080fd5b61175f88838901611698565b9550602087013591508082111561177557600080fd5b5061178287828801611698565b935050611791604086016115de565b915061179f606086016115de565b905092959194509250565b6000602082840312156117bc57600080fd5b61063f826115de565b80151581146117d357600080fd5b50565b600080604083850312156117e957600080fd5b6117f2836115de565b91506020830135611802816117c5565b809150509250929050565b602081526000825160a0602084015261182960c0840182611565565b905060018060a01b0360208501511660408401526040840151606084015260608401516080840152608084015160a08401528091505092915050565b6000806040838503121561187857600080fd5b611881836115de565b915061188f602084016115de565b90509250929050565b600181811c908216806118ac57607f821691505b602082108114156118cd57634e487b7160e01b600052602260045260246000fd5b50919050565b634e487b7160e01b600052601160045260246000fd5b6000816000190483118215151615611903576119036118d3565b500290565b60008261192557634e487b7160e01b600052601260045260246000fd5b500490565b60008282101561193c5761193c6118d3565b500390565b60008219821115611954576119546118d3565b500190565b60006020828403121561196b57600080fd5b815161063f816117c5565b60006020828403121561198857600080fd5b505191905056fea164736f6c634300080a000a",
    "linkReferences": {}
  }
}