{
  "abi": [
    {
      "anonymous": false,
      "inputs": [
        {
          "indexed": true,
          "internalType": "address",
          "name": "owner",
          "type": "address"
        },
        {
          "indexed": true,
          "internalType": "address",
          "name": "spender",
          "type": "address"
        },
        {
          "indexed": true,
          "internalType": "uint256",
          "name": "id",
          "type": "uint256"
        }
      ],
      "name": "Approval",
      "type": "event"
    },
    {
      "anonymous": false,
      "inputs": [
        {
          "indexed": true,
          "internalType": "address",
          "name": "owner",
          "type": "address"
        },
        {
          "indexed": true,
          "internalType": "address",
          "name": "operator",
          "type": "address"
        },
        {
          "indexed": false,
          "internalType": "bool",
          "name": "approved",
          "type": "bool"
        }
      ],
      "name": "ApprovalForAll",
      "type": "event"
    },
    {
      "anonymous": false,
      "inputs": [
        {
          "indexed": true,
          "internalType": "address",
          "name": "from",
          "type": "address"
        },
        {
          "indexed": true,
          "internalType": "address",
          "name": "to",
          "type": "address"
        },
        {
          "indexed": true,
          "internalType": "uint256",
          "name": "id",
          "type": "uint256"
        }
      ],
      "name": "Transfer",
      "type": "event"
    },
    {
      "inputs": [
        {
          "internalType": "address",
          "name": "spender",
          "type": "address"
        },
        {
          "internalType": "uint256",
          "name": "id",
          "type": "uint256"
        }
      ],
      "name": "approve",
      "outputs": [],
      "stateMutability": "nonpayable",
      "type": "function"
    },
    {
      "inputs": [
        {
          "internalType": "address",
          "name": "",
          "type": "address"
        }
      ],
      "name": "balanceOf",
      "outputs": [
        {
          "internalType": "uint256",
          "name": "",
          "type": "uint256"
        }
      ],
      "stateMutability": "view",
      "type": "function"
    },
    {
      "inputs": [
        {
          "internalType": "string",
          "name": "_name",
          "type": "string"
        },
        {
          "internalType": "string",
          "name": "_symbol",
          "type": "string"
        },
        {
          "internalType": "address",
          "name": "_token",
          "type": "address"
        },
        {
          "internalType": "address",
          "name": "strategy",
          "type": "address"
        }
      ],
      "name": "baseInit",
      "outputs": [],
      "stateMutability": "nonpayable",
      "type": "function"
    },
    {
      "inputs": [
        {
          "internalType": "uint256",
          "name": "id",
          "type": "uint256"
        }
      ],
      "name": "burnNFTAndWithdrawl",
      "outputs": [],
      "stateMutability": "nonpayable",
      "type": "function"
    },
    {
      "inputs": [],
      "name": "currentId",
      "outputs": [
        {
          "internalType": "uint256",
          "name": "",
          "type": "uint256"
        }
      ],
      "stateMutability": "view",
      "type": "function"
    },
    {
      "inputs": [
        {
          "internalType": "uint256",
          "name": "amount",
          "type": "uint256"
        },
        {
          "internalType": "uint256",
          "name": "id",
          "type": "uint256"
        }
      ],
      "name": "depositToId",
      "outputs": [],
      "stateMutability": "nonpayable",
      "type": "function"
    },
    {
      "inputs": [
        {
          "internalType": "uint256",
          "name": "",
          "type": "uint256"
        }
      ],
      "name": "deposits",
      "outputs": [
        {
          "internalType": "uint256",
          "name": "amount",
          "type": "uint256"
        },
        {
          "internalType": "uint256",
          "name": "tracker",
          "type": "uint256"
        }
      ],
      "stateMutability": "view",
      "type": "function"
    },
    {
      "inputs": [],
      "name": "distributeYeild",
      "outputs": [],
      "stateMutability": "nonpayable",
      "type": "function"
    },
    {
      "inputs": [
        {
          "internalType": "uint256",
          "name": "",
          "type": "uint256"
        }
      ],
      "name": "getApproved",
      "outputs": [
        {
          "internalType": "address",
          "name": "",
          "type": "address"
        }
      ],
      "stateMutability": "view",
      "type": "function"
    },
    {
      "inputs": [],
      "name": "initStrat",
      "outputs": [],
      "stateMutability": "nonpayable",
      "type": "function"
    },
    {
      "inputs": [
        {
          "internalType": "address",
          "name": "",
          "type": "address"
        },
        {
          "internalType": "address",
          "name": "",
          "type": "address"
        }
      ],
      "name": "isApprovedForAll",
      "outputs": [
        {
          "internalType": "bool",
          "name": "",
          "type": "bool"
        }
      ],
      "stateMutability": "view",
      "type": "function"
    },
    {
      "inputs": [
        {
          "internalType": "uint256",
          "name": "amount",
          "type": "uint256"
        }
      ],
      "name": "mintNewNft",
      "outputs": [
        {
          "internalType": "uint256",
          "name": "",
          "type": "uint256"
        }
      ],
      "stateMutability": "nonpayable",
      "type": "function"
    },
    {
      "inputs": [],
      "name": "name",
      "outputs": [
        {
          "internalType": "string",
          "name": "",
          "type": "string"
        }
      ],
      "stateMutability": "view",
      "type": "function"
    },
    {
      "inputs": [
        {
          "internalType": "uint256",
          "name": "",
          "type": "uint256"
        }
      ],
      "name": "ownerOf",
      "outputs": [
        {
          "internalType": "address",
          "name": "",
          "type": "address"
        }
      ],
      "stateMutability": "view",
      "type": "function"
    },
    {
      "inputs": [
        {
          "internalType": "address",
          "name": "operator",
          "type": "address"
        },
        {
          "internalType": "bool",
          "name": "approved",
          "type": "bool"
        }
      ],
      "name": "setApprovalForAll",
      "outputs": [],
      "stateMutability": "nonpayable",
      "type": "function"
    },
    {
      "inputs": [],
      "name": "strat",
      "outputs": [
        {
          "internalType": "contract IStrategy",
          "name": "",
          "type": "address"
        }
      ],
      "stateMutability": "view",
      "type": "function"
    },
    {
      "inputs": [
        {
          "internalType": "bytes4",
          "name": "interfaceId",
          "type": "bytes4"
        }
      ],
      "name": "supportsInterface",
      "outputs": [
        {
          "internalType": "bool",
          "name": "",
          "type": "bool"
        }
      ],
      "stateMutability": "pure",
      "type": "function"
    },
    {
      "inputs": [],
      "name": "symbol",
      "outputs": [
        {
          "internalType": "string",
          "name": "",
          "type": "string"
        }
      ],
      "stateMutability": "view",
      "type": "function"
    },
    {
      "inputs": [
        {
          "internalType": "uint256",
          "name": "id",
          "type": "uint256"
        }
      ],
      "name": "tokenURI",
      "outputs": [
        {
          "components": [
            {
              "internalType": "string",
              "name": "name",
              "type": "string"
            },
            {
              "internalType": "address",
              "name": "vaultAddress",
              "type": "address"
            },
            {
              "internalType": "uint256",
              "name": "withdrawable",
              "type": "uint256"
            },
            {
              "internalType": "uint256",
              "name": "id",
              "type": "uint256"
            },
            {
              "internalType": "uint256",
              "name": "vaultType",
              "type": "uint256"
            }
          ],
          "internalType": "struct BaseVault.MetaData",
          "name": "",
          "type": "tuple"
        }
      ],
      "stateMutability": "view",
      "type": "function"
    },
    {
      "inputs": [],
      "name": "totalDeposits",
      "outputs": [
        {
          "internalType": "uint256",
          "name": "",
          "type": "uint256"
        }
      ],
      "stateMutability": "view",
      "type": "function"
    },
    {
      "inputs": [
        {
          "internalType": "address",
          "name": "from",
          "type": "address"
        },
        {
          "internalType": "address",
          "name": "to",
          "type": "address"
        },
        {
          "internalType": "uint256",
          "name": "id",
          "type": "uint256"
        }
      ],
      "name": "transferFrom",
      "outputs": [],
      "stateMutability": "nonpayable",
      "type": "function"
    },
    {
      "inputs": [],
      "name": "vaultToken",
      "outputs": [
        {
          "internalType": "contract ERC20",
          "name": "",
          "type": "address"
        }
      ],
      "stateMutability": "view",
      "type": "function"
    },
    {
      "inputs": [
        {
          "internalType": "uint256",
          "name": "id",
          "type": "uint256"
        },
        {
          "internalType": "uint256",
          "name": "amount",
          "type": "uint256"
        }
      ],
      "name": "withdrawFromId",
      "outputs": [],
      "stateMutability": "nonpayable",
      "type": "function"
    },
    {
      "inputs": [
        {
          "internalType": "uint256",
          "name": "id",
          "type": "uint256"
        }
      ],
      "name": "withdrawableById",
      "outputs": [
        {
          "internalType": "uint256",
          "name": "claimId",
          "type": "uint256"
        }
      ],
      "stateMutability": "view",
      "type": "function"
    },
    {
      "inputs": [],
      "name": "yeildPerDeposit",
      "outputs": [
        {
          "internalType": "uint256",
          "name": "",
          "type": "uint256"
        }
      ],
      "stateMutability": "view",
      "type": "function"
    },
    {
      "inputs": [
        {
          "internalType": "uint256",
          "name": "id",
          "type": "uint256"
        }
      ],
      "name": "yieldPerId",
      "outputs": [
        {
          "internalType": "uint256",
          "name": "",
          "type": "uint256"
        }
      ],
      "stateMutability": "view",
      "type": "function"
    }
  ],
  "bytecode": {
    "object": "0x6080604052600160035534801561001557600080fd5b506119ca806100256000396000f3fe608060405234801561001057600080fd5b506004361061018e5760003560e01c8063703bafd5116100de578063a2d6b25f11610097578063ca1e3c8311610071578063ca1e3c83146103b9578063e00dd161146103c1578063e985e9c5146103ca578063eaaf1fca146103f857600080fd5b8063a2d6b25f14610354578063b02c43d01461035d578063c87b56dd1461039957600080fd5b8063703bafd5146102ea57806370a08231146102fd5780637d8820971461031d57806389f3dd371461032657806395d89b4114610339578063a22cb4651461034157600080fd5b80631ab2f6af1161014b5780634b6d69d3116101255780634b6d69d3146102885780636352211e1461029b5780636c9980e1146102c45780636d43d9f1146102d757600080fd5b80631ab2f6af1461024c57806323b872dd1461026d57806334d894c91461028057600080fd5b806301ffc9a714610193578063059b2a10146101bb57806306fdde03146101e6578063081812fc146101fb578063095ea7b314610224578063159b496214610239575b600080fd5b6101a66101a1366004611540565b61040b565b60405190151581526020015b60405180910390f35b6010546101ce906001600160a01b031681565b6040516001600160a01b0390911681526020016101b2565b6101ee61045d565b6040516101b291906115b7565b6101ce6102093660046115ca565b6006602052600090815260409020546001600160a01b031681565b6102376102323660046115ff565b6104eb565b005b610237610247366004611629565b6105d2565b61025f61025a3660046115ca565b6105e0565b6040519081526020016101b2565b61023761027b36600461164b565b610646565b61023761080d565b61025f6102963660046115ca565b6109ab565b6101ce6102a93660046115ca565b6005602052600090815260409020546001600160a01b031681565b6102376102d236600461172a565b6109b6565b61025f6102e53660046115ca565b610a43565b600e546101ce906001600160a01b031681565b61025f61030b3660046117af565b60046020526000908152604090205481565b61025f600a5481565b6102376103343660046115ca565b610a67565b6101ee610a87565b61023761034f3660046117db565b610a94565b61025f60095481565b61038461036b3660046115ca565b6008602052600090815260409020805460019091015482565b604080519283526020830191909152016101b2565b6103ac6103a73660046115ca565b610b00565b6040516101b29190611812565b610237610bfd565b61025f60035481565b6101a66103d836600461186a565b600760209081526000928352604080842090915290825290205460ff1681565b610237610406366004611629565b610d88565b60006301ffc9a760e01b6001600160e01b03198316148061043c57506380ac58cd60e01b6001600160e01b03198316145b806104575750635b5e139f60e01b6001600160e01b03198316145b92915050565b6000805461046a9061189d565b80601f01602080910402602001604051908101604052809291908181526020018280546104969061189d565b80156104e35780601f106104b8576101008083540402835291602001916104e3565b820191906000526020600020905b8154815290600101906020018083116104c657829003601f168201915b505050505081565b6000818152600560205260409020546001600160a01b03163381148061053457506001600160a01b038116600090815260076020908152604080832033845290915290205460ff165b6105765760405162461bcd60e51b815260206004820152600e60248201526d1393d517d055551213d49256915160921b60448201526064015b60405180910390fd5b60008281526006602052604080822080546001600160a01b0319166001600160a01b0387811691821790925591518593918516917f8c5be1e5ebec7d5bd14f71427d1e84f3dd0314c0f7b2291e5b200ac8c7c3b92591a4505050565b6105dc8282610d92565b5050565b600954600082815260086020526040812054909182916402540be40091610606916118ee565b610610919061190d565b600084815260086020526040902060010154909150610635906402540be4009061190d565b61063f908261192f565b9392505050565b6000818152600560205260409020546001600160a01b0384811691161461069c5760405162461bcd60e51b815260206004820152600a60248201526957524f4e475f46524f4d60b01b604482015260640161056d565b6001600160a01b0382166106e65760405162461bcd60e51b81526020600482015260116024820152701253959053125117d49150d25412515395607a1b604482015260640161056d565b336001600160a01b038416148061071357506000818152600660205260409020546001600160a01b031633145b8061074157506001600160a01b038316600090815260076020908152604080832033845290915290205460ff165b61077e5760405162461bcd60e51b815260206004820152600e60248201526d1393d517d055551213d49256915160921b604482015260640161056d565b6001600160a01b0380841660008181526004602090815260408083208054600019019055938616808352848320805460010190558583526005825284832080546001600160a01b03199081168317909155600690925284832080549092169091559251849392917fddf252ad1be2c89b69c2b068fc378daa952ba7f163c4a11628f55a4df523b3ef91a4505050565b6010546001600160a01b03166108535760405162461bcd60e51b815260206004820152600b60248201526a4e6f20537472617465677960a81b604482015260640161056d565b6000612710600a5461138861086891906118ee565b610872919061190d565b90506000600d5482610884919061192f565b905080600d60008282546108989190611946565b9250508190555080600c60008282546108b19190611946565b9250508190555080600b60008282546108ca919061192f565b9091555050600e5460105460405163095ea7b360e01b81526001600160a01b0391821660048201526024810184905291169063095ea7b3906044016020604051808303816000875af1158015610924573d6000803e3d6000fd5b505050506040513d601f19601f82011682018060405250810190610948919061195e565b5060105460405163b6b55f2560e01b8152600481018390526001600160a01b039091169063b6b55f2590602401600060405180830381600087803b15801561098f57600080fd5b505af11580156109a3573d6000803e3d6000fd5b505050505050565b600061045782610ecd565b600f54156109fc5760405162461bcd60e51b8152602060048201526013602482015272105b1c9958591e48125b9a5d1a585b1a5e9959606a1b604482015260640161056d565b610a068484610fe7565b601080546001600160a01b039283166001600160a01b031991821617909155600e8054939092169216919091179055505060016003819055600f55565b6000610a4e826105e0565b6000838152600860205260409020546104579190611946565b6000610a7282610a43565b9050610a7e818361100e565b6105dc82611247565b6001805461046a9061189d565b3360008181526007602090815260408083206001600160a01b03871680855290835292819020805460ff191686151590811790915590519081529192917f17307eab39ab6107e8899845ad3d59bd9653f200f220920489ca2b5937696c31910160405180910390a35050565b610b3b6040518060a001604052806060815260200160006001600160a01b031681526020016000815260200160008152602001600081525090565b6040518060a0016040528060008054610b539061189d565b80601f0160208091040260200160405190810160405280929190818152602001828054610b7f9061189d565b8015610bcc5780601f10610ba157610100808354040283529160200191610bcc565b820191906000526020600020905b815481529060010190602001808311610baf57829003601f168201915b5050509183525050306020820152604001610be684610a43565b815260200183815260200160008152509050919050565b600b54600e546040516370a0823160e01b8152306004820152600092916001600160a01b0316906370a0823190602401602060405180830381865afa158015610c4a573d6000803e3d6000fd5b505050506040513d601f19601f82011682018060405250810190610c6e919061197b565b610c78919061192f565b905080600b6000828254610c8c9190611946565b90915550506010546000906001600160a01b0316610cab576000610d2f565b600c54601060009054906101000a90046001600160a01b03166001600160a01b031663460ffdae6040518163ffffffff1660e01b8152600401602060405180830381865afa158015610d01573d6000803e3d6000fd5b505050506040513d601f19601f82011682018060405250810190610d25919061197b565b610d2f919061192f565b905080600c6000828254610d439190611946565b9091555050600a54610d558284611946565b610d64906402540be4006118ee565b610d6e919061190d565b60096000828254610d7f9190611946565b90915550505050565b6105dc818361100e565b6000818152600560205260409020546001600160a01b03163314610db557600080fd5b600a5415610dc557610dc5610bfd565b60008181526008602052604081208054849290610de3908490611946565b9091555050600954610df590836118ee565b60008281526008602052604081206001018054909190610e16908490611946565b9250508190555081600a6000828254610e2f9190611946565b9250508190555081600b6000828254610e489190611946565b9091555050600e546040516323b872dd60e01b8152336004820152306024820152604481018490526001600160a01b03909116906323b872dd906064016020604051808303816000875af1158015610ea4573d6000803e3d6000fd5b505050506040513d601f19601f82011682018060405250810190610ec8919061195e565b505050565b600080610edc33600354611314565b600a5490915015610eef57610eef610bfd565b6000818152600860205260409020839055600954610f0d90846118ee565b60008281526008602052604081206001018054909190610f2e908490611946565b9250508190555082600a6000828254610f479190611946565b9250508190555082600b6000828254610f609190611946565b9091555050600e546040516323b872dd60e01b8152336004820152306024820152604481018590526001600160a01b03909116906323b872dd906064016020604051808303816000875af1158015610fbc573d6000803e3d6000fd5b505050506040513d601f19601f82011682018060405250810190610fe0919061195e565b5092915050565b8051610ffa9060019060208401906114a7565b508151610ec89060009060208501906114a7565b611016610bfd565b6000818152600560205260409020546001600160a01b031633148015611044575061104081610a43565b8211155b61104d57600080fd5b600e546040516370a0823160e01b81523060048201526000916001600160a01b0316906370a0823190602401602060405180830381865afa158015611096573d6000803e3d6000fd5b505050506040513d601f19601f820116820180604052508101906110ba919061197b565b90506000806110c8846105e0565b905080851115611150576110dc818661192f565b6000858152600860205260408120805492945084929091906110ff90849061192f565b9250508190555081600a6000828254611118919061192f565b909155505060095460008581526008602052604090205461113991906118ee565b600085815260086020526040902060010155611186565b61115f856402540be4006118ee565b60008581526008602052604081206001018054909190611180908490611946565b90915550505b60008386116111965760006111a0565b6111a0848761192f565b905080156111c9576111b18161142f565b82600d60008282546111c3919061192f565b90915550505b600e5460405163a9059cbb60e01b8152336004820152602481018890526001600160a01b039091169063a9059cbb906044016020604051808303816000875af115801561121a573d6000803e3d6000fd5b505050506040513d601f19601f8201168201806040525081019061123e919061195e565b50505050505050565b6000818152600560205260409020546001600160a01b0316806112995760405162461bcd60e51b815260206004820152600a6024820152691393d517d3525395115160b21b604482015260640161056d565b6001600160a01b038116600081815260046020908152604080832080546000190190558583526005825280832080546001600160a01b031990811690915560069092528083208054909216909155518492907fddf252ad1be2c89b69c2b068fc378daa952ba7f163c4a11628f55a4df523b3ef908390a45050565b60006001600160a01b0383166113605760405162461bcd60e51b81526020600482015260116024820152701253959053125117d49150d25412515395607a1b604482015260640161056d565b6000828152600560205260409020546001600160a01b0316156113b65760405162461bcd60e51b815260206004820152600e60248201526d1053149150511657d3525395115160921b604482015260640161056d565b6001600160a01b038316600081815260046020908152604080832080546001908101909155600380549091019055858352600590915280822080546001600160a01b0319168417905551849291907fddf252ad1be2c89b69c2b068fc378daa952ba7f163c4a11628f55a4df523b3ef908290a450919050565b601054604051631c8901bb60e31b8152600481018390526001600160a01b039091169063e4480dd890602401600060405180830381600087803b15801561147557600080fd5b505af1158015611489573d6000803e3d6000fd5b5050505080600c600082825461149f919061192f565b909155505050565b8280546114b39061189d565b90600052602060002090601f0160209004810192826114d5576000855561151b565b82601f106114ee57805160ff191683800117855561151b565b8280016001018555821561151b579182015b8281111561151b578251825591602001919060010190611500565b5061152792915061152b565b5090565b5b80821115611527576000815560010161152c565b60006020828403121561155257600080fd5b81356001600160e01b03198116811461063f57600080fd5b6000815180845260005b8181101561159057602081850181015186830182015201611574565b818111156115a2576000602083870101525b50601f01601f19169290920160200192915050565b60208152600061063f602083018461156a565b6000602082840312156115dc57600080fd5b5035919050565b80356001600160a01b03811681146115fa57600080fd5b919050565b6000806040838503121561161257600080fd5b61161b836115e3565b946020939093013593505050565b6000806040838503121561163c57600080fd5b50508035926020909101359150565b60008060006060848603121561166057600080fd5b611669846115e3565b9250611677602085016115e3565b9150604084013590509250925092565b634e487b7160e01b600052604160045260246000fd5b600082601f8301126116ae57600080fd5b813567ffffffffffffffff808211156116c9576116c9611687565b604051601f8301601f19908116603f011681019082821181831017156116f1576116f1611687565b8160405283815286602085880101111561170a57600080fd5b836020870160208301376000602085830101528094505050505092915050565b6000806000806080858703121561174057600080fd5b843567ffffffffffffffff8082111561175857600080fd5b6117648883890161169d565b9550602087013591508082111561177a57600080fd5b506117878782880161169d565b935050611796604086016115e3565b91506117a4606086016115e3565b905092959194509250565b6000602082840312156117c157600080fd5b61063f826115e3565b80151581146117d857600080fd5b50565b600080604083850312156117ee57600080fd5b6117f7836115e3565b91506020830135611807816117ca565b809150509250929050565b602081526000825160a0602084015261182e60c084018261156a565b905060018060a01b0360208501511660408401526040840151606084015260608401516080840152608084015160a08401528091505092915050565b6000806040838503121561187d57600080fd5b611886836115e3565b9150611894602084016115e3565b90509250929050565b600181811c908216806118b157607f821691505b602082108114156118d257634e487b7160e01b600052602260045260246000fd5b50919050565b634e487b7160e01b600052601160045260246000fd5b6000816000190483118215151615611908576119086118d8565b500290565b60008261192a57634e487b7160e01b600052601260045260246000fd5b500490565b600082821015611941576119416118d8565b500390565b60008219821115611959576119596118d8565b500190565b60006020828403121561197057600080fd5b815161063f816117ca565b60006020828403121561198d57600080fd5b505191905056fea264697066735822122085814c42e6ffb489ab9e67bea52adea4cac47d6cb12b3c641b7d54fee19dbd4b64736f6c634300080a0033",
    "linkReferences": {}
  }
}