{
  "abi": [
    {
      "type": "constructor",
      "inputs": [
        {
          "internalType": "address",
          "name": "_vaultToken",
          "type": "address"
        },
        {
          "internalType": "string",
          "name": "name",
          "type": "string"
        },
        {
          "internalType": "string",
          "name": "symbol",
          "type": "string"
        },
        {
          "internalType": "uint16",
          "name": "_quorom",
          "type": "uint16"
        }
      ]
    },
    {
      "type": "function",
      "name": "approve",
      "inputs": [
        {
          "internalType": "address",
          "name": "spender",
          "type": "address"
        },
        {
          "internalType": "uint256",
          "name": "id",
          "type": "uint256"
        }
      ],
      "outputs": [],
      "stateMutability": "nonpayable"
    },
    {
      "type": "function",
      "name": "balanceOf",
      "inputs": [
        {
          "internalType": "address",
          "name": "",
          "type": "address"
        }
      ],
      "outputs": [
        {
          "internalType": "uint256",
          "name": "",
          "type": "uint256"
        }
      ],
      "stateMutability": "view"
    },
    {
      "type": "function",
      "name": "burnNFTAndWithdrawl",
      "inputs": [
        {
          "internalType": "uint256",
          "name": "id",
          "type": "uint256"
        }
      ],
      "outputs": [],
      "stateMutability": "nonpayable"
    },
    {
      "type": "function",
      "name": "createProposal",
      "inputs": [
        {
          "internalType": "string",
          "name": "descriptor",
          "type": "string"
        },
        {
          "internalType": "struct PDelegate.Manage[]",
          "name": "_recipients",
          "type": "tuple[]",
          "components": [
            {
              "type": "address"
            },
            {
              "type": "uint256"
            }
          ]
        },
        {
          "internalType": "uint256",
          "name": "time",
          "type": "uint256"
        }
      ],
      "outputs": [
        {
          "internalType": "bytes32",
          "name": "",
          "type": "bytes32"
        }
      ],
      "stateMutability": "nonpayable"
    },
    {
      "type": "function",
      "name": "ctx",
      "inputs": [],
      "outputs": [
        {
          "internalType": "uint16",
          "name": "quorom",
          "type": "uint16"
        },
        {
          "internalType": "uint16",
          "name": "vaultType",
          "type": "uint16"
        }
      ],
      "stateMutability": "view"
    },
    {
      "type": "function",
      "name": "currentId",
      "inputs": [],
      "outputs": [
        {
          "internalType": "uint256",
          "name": "",
          "type": "uint256"
        }
      ],
      "stateMutability": "view"
    },
    {
      "type": "function",
      "name": "delegateVotes",
      "inputs": [
        {
          "internalType": "uint256",
          "name": "fromId",
          "type": "uint256"
        },
        {
          "internalType": "uint256",
          "name": "toId",
          "type": "uint256"
        }
      ],
      "outputs": [],
      "stateMutability": "nonpayable"
    },
    {
      "type": "function",
      "name": "delegatedAmount",
      "inputs": [
        {
          "internalType": "uint256",
          "name": "",
          "type": "uint256"
        }
      ],
      "outputs": [
        {
          "internalType": "uint256",
          "name": "",
          "type": "uint256"
        }
      ],
      "stateMutability": "view"
    },
    {
      "type": "function",
      "name": "delegation",
      "inputs": [
        {
          "internalType": "uint256",
          "name": "",
          "type": "uint256"
        }
      ],
      "outputs": [
        {
          "internalType": "uint256",
          "name": "delegatee",
          "type": "uint256"
        },
        {
          "internalType": "uint256",
          "name": "weight",
          "type": "uint256"
        }
      ],
      "stateMutability": "view"
    },
    {
      "type": "function",
      "name": "depositToId",
      "inputs": [
        {
          "internalType": "uint256",
          "name": "amount",
          "type": "uint256"
        },
        {
          "internalType": "uint256",
          "name": "id",
          "type": "uint256"
        }
      ],
      "outputs": [],
      "stateMutability": "nonpayable"
    },
    {
      "type": "function",
      "name": "deposits",
      "inputs": [
        {
          "internalType": "uint256",
          "name": "",
          "type": "uint256"
        }
      ],
      "outputs": [
        {
          "internalType": "uint256",
          "name": "amount",
          "type": "uint256"
        },
        {
          "internalType": "uint256",
          "name": "tracker",
          "type": "uint256"
        }
      ],
      "stateMutability": "view"
    },
    {
      "type": "function",
      "name": "distributeYeild",
      "inputs": [],
      "outputs": [],
      "stateMutability": "nonpayable"
    },
    {
      "type": "function",
      "name": "executeProposal",
      "inputs": [
        {
          "internalType": "bytes32",
          "name": "descriptor",
          "type": "bytes32"
        }
      ],
      "outputs": [
        {
          "internalType": "bool",
          "name": "",
          "type": "bool"
        }
      ],
      "stateMutability": "nonpayable"
    },
    {
      "type": "function",
      "name": "getApproved",
      "inputs": [
        {
          "internalType": "uint256",
          "name": "",
          "type": "uint256"
        }
      ],
      "outputs": [
        {
          "internalType": "address",
          "name": "",
          "type": "address"
        }
      ],
      "stateMutability": "view"
    },
    {
      "type": "function",
      "name": "initStrat",
      "inputs": [],
      "outputs": [],
      "stateMutability": "nonpayable"
    },
    {
      "type": "function",
      "name": "isApprovedForAll",
      "inputs": [
        {
          "internalType": "address",
          "name": "",
          "type": "address"
        },
        {
          "internalType": "address",
          "name": "",
          "type": "address"
        }
      ],
      "outputs": [
        {
          "internalType": "bool",
          "name": "",
          "type": "bool"
        }
      ],
      "stateMutability": "view"
    },
    {
      "type": "function",
      "name": "lockRedelgation",
      "inputs": [
        {
          "internalType": "uint256",
          "name": "",
          "type": "uint256"
        }
      ],
      "outputs": [
        {
          "internalType": "uint256",
          "name": "",
          "type": "uint256"
        }
      ],
      "stateMutability": "view"
    },
    {
      "type": "function",
      "name": "mintNewNft",
      "inputs": [
        {
          "internalType": "uint256",
          "name": "amount",
          "type": "uint256"
        }
      ],
      "outputs": [
        {
          "internalType": "uint256",
          "name": "",
          "type": "uint256"
        }
      ],
      "stateMutability": "nonpayable"
    },
    {
      "type": "function",
      "name": "name",
      "inputs": [],
      "outputs": [
        {
          "internalType": "string",
          "name": "",
          "type": "string"
        }
      ],
      "stateMutability": "view"
    },
    {
      "type": "function",
      "name": "ownerOf",
      "inputs": [
        {
          "internalType": "uint256",
          "name": "",
          "type": "uint256"
        }
      ],
      "outputs": [
        {
          "internalType": "address",
          "name": "",
          "type": "address"
        }
      ],
      "stateMutability": "view"
    },
    {
      "type": "function",
      "name": "proposals",
      "inputs": [
        {
          "internalType": "bytes32",
          "name": "",
          "type": "bytes32"
        }
      ],
      "outputs": [
        {
          "internalType": "bytes32",
          "name": "key",
          "type": "bytes32"
        },
        {
          "internalType": "uint256",
          "name": "idSnapshot",
          "type": "uint256"
        },
        {
          "internalType": "uint256",
          "name": "recipientsLength",
          "type": "uint256"
        },
        {
          "internalType": "uint256",
          "name": "none",
          "type": "uint256"
        },
        {
          "internalType": "uint256",
          "name": "endTime",
          "type": "uint256"
        },
        {
          "internalType": "bool",
          "name": "executed",
          "type": "bool"
        }
      ],
      "stateMutability": "view"
    },
    {
      "type": "function",
      "name": "removeAllDelegation",
      "inputs": [
        {
          "internalType": "uint256",
          "name": "id",
          "type": "uint256"
        }
      ],
      "outputs": [],
      "stateMutability": "nonpayable"
    },
    {
      "type": "function",
      "name": "returnManagedFunds",
      "inputs": [
        {
          "internalType": "uint256",
          "name": "amount",
          "type": "uint256"
        }
      ],
      "outputs": [],
      "stateMutability": "nonpayable"
    },
    {
      "type": "function",
      "name": "setApprovalForAll",
      "inputs": [
        {
          "internalType": "address",
          "name": "operator",
          "type": "address"
        },
        {
          "internalType": "bool",
          "name": "approved",
          "type": "bool"
        }
      ],
      "outputs": [],
      "stateMutability": "nonpayable"
    },
    {
      "type": "function",
      "name": "setStrat",
      "inputs": [
        {
          "internalType": "address",
          "name": "addr",
          "type": "address"
        }
      ],
      "outputs": [],
      "stateMutability": "nonpayable"
    },
    {
      "type": "function",
      "name": "supportsInterface",
      "inputs": [
        {
          "internalType": "bytes4",
          "name": "interfaceId",
          "type": "bytes4"
        }
      ],
      "outputs": [
        {
          "internalType": "bool",
          "name": "",
          "type": "bool"
        }
      ],
      "stateMutability": "pure"
    },
    {
      "type": "function",
      "name": "symbol",
      "inputs": [],
      "outputs": [
        {
          "internalType": "string",
          "name": "",
          "type": "string"
        }
      ],
      "stateMutability": "view"
    },
    {
      "type": "function",
      "name": "tokenURI",
      "inputs": [
        {
          "internalType": "uint256",
          "name": "id",
          "type": "uint256"
        }
      ],
      "outputs": [
        {
          "internalType": "struct BaseVault.MetaData",
          "name": "",
          "type": "tuple",
          "components": [
            {
              "type": "string"
            },
            {
              "type": "address"
            },
            {
              "type": "uint256"
            },
            {
              "type": "uint256"
            },
            {
              "type": "uint256"
            }
          ]
        }
      ],
      "stateMutability": "view"
    },
    {
      "type": "function",
      "name": "totalDeposits",
      "inputs": [],
      "outputs": [
        {
          "internalType": "uint256",
          "name": "",
          "type": "uint256"
        }
      ],
      "stateMutability": "view"
    },
    {
      "type": "function",
      "name": "transferFrom",
      "inputs": [
        {
          "internalType": "address",
          "name": "from",
          "type": "address"
        },
        {
          "internalType": "address",
          "name": "to",
          "type": "address"
        },
        {
          "internalType": "uint256",
          "name": "id",
          "type": "uint256"
        }
      ],
      "outputs": [],
      "stateMutability": "nonpayable"
    },
    {
      "type": "function",
      "name": "vote",
      "inputs": [
        {
          "internalType": "uint256",
          "name": "id",
          "type": "uint256"
        },
        {
          "internalType": "uint256",
          "name": "key",
          "type": "uint256"
        },
        {
          "internalType": "bytes32",
          "name": "descriptor",
          "type": "bytes32"
        }
      ],
      "outputs": [],
      "stateMutability": "nonpayable"
    },
    {
      "type": "function",
      "name": "voted",
      "inputs": [
        {
          "internalType": "uint256",
          "name": "",
          "type": "uint256"
        },
        {
          "internalType": "bytes32",
          "name": "",
          "type": "bytes32"
        }
      ],
      "outputs": [
        {
          "internalType": "bool",
          "name": "",
          "type": "bool"
        }
      ],
      "stateMutability": "view"
    },
    {
      "type": "function",
      "name": "votes",
      "inputs": [
        {
          "internalType": "bytes32",
          "name": "",
          "type": "bytes32"
        },
        {
          "internalType": "uint256",
          "name": "",
          "type": "uint256"
        }
      ],
      "outputs": [
        {
          "internalType": "uint256",
          "name": "",
          "type": "uint256"
        }
      ],
      "stateMutability": "view"
    },
    {
      "type": "function",
      "name": "withdrawFromId",
      "inputs": [
        {
          "internalType": "uint256",
          "name": "id",
          "type": "uint256"
        },
        {
          "internalType": "uint256",
          "name": "amount",
          "type": "uint256"
        }
      ],
      "outputs": [],
      "stateMutability": "nonpayable"
    },
    {
      "type": "function",
      "name": "withdrawableById",
      "inputs": [
        {
          "internalType": "uint256",
          "name": "id",
          "type": "uint256"
        }
      ],
      "outputs": [
        {
          "internalType": "uint256",
          "name": "",
          "type": "uint256"
        }
      ],
      "stateMutability": "view"
    },
    {
      "type": "function",
      "name": "yeildPerDeposit",
      "inputs": [],
      "outputs": [
        {
          "internalType": "uint256",
          "name": "",
          "type": "uint256"
        }
      ],
      "stateMutability": "view"
    },
    {
      "type": "function",
      "name": "yieldPerId",
      "inputs": [
        {
          "internalType": "uint256",
          "name": "id",
          "type": "uint256"
        }
      ],
      "outputs": [
        {
          "internalType": "uint256",
          "name": "",
          "type": "uint256"
        }
      ],
      "stateMutability": "view"
    },
    {
      "type": "event",
      "name": "Approval",
      "inputs": [
        {
          "name": "owner",
          "type": "address",
          "indexed": true
        },
        {
          "name": "spender",
          "type": "address",
          "indexed": true
        },
        {
          "name": "id",
          "type": "uint256",
          "indexed": true
        }
      ],
      "anonymous": false
    },
    {
      "type": "event",
      "name": "ApprovalForAll",
      "inputs": [
        {
          "name": "owner",
          "type": "address",
          "indexed": true
        },
        {
          "name": "operator",
          "type": "address",
          "indexed": true
        },
        {
          "name": "approved",
          "type": "bool",
          "indexed": false
        }
      ],
      "anonymous": false
    },
    {
      "type": "event",
      "name": "Transfer",
      "inputs": [
        {
          "name": "from",
          "type": "address",
          "indexed": true
        },
        {
          "name": "to",
          "type": "address",
          "indexed": true
        },
        {
          "name": "id",
          "type": "uint256",
          "indexed": true
        }
      ],
      "anonymous": false
    }
  ],
  "bytecode": {
    "object": "0x60c060405260016003556402540be400600b553480156200001f57600080fd5b50604051620027e5380380620027e5833981016040819052620000429162000256565b8383838282828181816000908051906020019062000062929190620000e3565b50805162000078906001906020840190620000e3565b5050506001600160a01b0390921660805250503360a0525050506105dc61ffff82161015620000a657600080fd5b6040805180820190915261ffff90911680825260016020909201919091526011805463ffffffff1916909117620100001790555062000338915050565b828054620000f190620002fb565b90600052602060002090601f01602090048101928262000115576000855562000160565b82601f106200013057805160ff191683800117855562000160565b8280016001018555821562000160579182015b828111156200016057825182559160200191906001019062000143565b506200016e92915062000172565b5090565b5b808211156200016e576000815560010162000173565b634e487b7160e01b600052604160045260246000fd5b600082601f830112620001b157600080fd5b81516001600160401b0380821115620001ce57620001ce62000189565b604051601f8301601f19908116603f01168101908282118183101715620001f957620001f962000189565b816040528381526020925086838588010111156200021657600080fd5b600091505b838210156200023a57858201830151818301840152908201906200021b565b838211156200024c5760008385830101525b9695505050505050565b600080600080608085870312156200026d57600080fd5b84516001600160a01b03811681146200028557600080fd5b60208601519094506001600160401b0380821115620002a357600080fd5b620002b1888389016200019f565b94506040870151915080821115620002c857600080fd5b50620002d7878288016200019f565b925050606085015161ffff81168114620002f057600080fd5b939692955090935050565b600181811c908216806200031057607f821691505b602082108114156200033257634e487b7160e01b600052602260045260246000fd5b50919050565b60805160a05161244f6200039660003960006108ce015260008181610c4201528181610d58015281816113ef01528181611741015281816118760152818161194201528181611ae701528181611c470152611d1b015261244f6000f3fe608060405234801561001057600080fd5b50600436106102275760003560e01c80636d43d9f111610130578063a22cb465116100b8578063ca1e3c831161007c578063ca1e3c83146105f3578063cfa7b65f146105fb578063e00dd1611461060e578063e985e9c514610617578063eaaf1fca1461064557600080fd5b8063a22cb46514610554578063a2d6b25f14610567578063b02c43d014610570578063b1a61dda146105ac578063c87b56dd146105d357600080fd5b80637f4b4323116100ff5780637f4b4323146104f357806389f3dd37146105135780638c881eeb1461052657806395d89b4114610539578063980ff6c61461054157600080fd5b80636d43d9f1146104975780636e60ecb0146104aa57806370a08231146104ca5780637d882097146104ea57600080fd5b80631ab2f6af116101b357806334d894c91161018257806334d894c91461042d5780634b6d69d3146104355780634fad28a7146104485780635ade4ad11461045b5780636352211e1461046e57600080fd5b80631ab2f6af1461035f57806323b872dd14610372578063277838df1461038557806332ed5b12146103b857600080fd5b80630847a4fb116101fa5780630847a4fb146102d8578063095ea7b314610311578063159b496214610326578063169dd1d21461033957806316cc3b071461034c57600080fd5b806301ffc9a71461022c57806302f99ae71461025457806306fdde0314610282578063081812fc14610297575b600080fd5b61023f61023a366004611edd565b610658565b60405190151581526020015b60405180910390f35b61023f610262366004611f07565b601760209081526000928352604080842090915290825290205460ff1681565b61028a6106aa565b60405161024b9190611f76565b6102c06102a5366004611f89565b6006602052600090815260409020546001600160a01b031681565b6040516001600160a01b03909116815260200161024b565b6103036102e6366004611f07565b601660209081526000928352604080842090915290825290205481565b60405190815260200161024b565b61032461031f366004611fbe565b610738565b005b610324610334366004611f07565b61081f565b610324610347366004611f89565b61082d565b61032461035a366004611fe8565b6108c3565b61030361036d366004611f89565b61092f565b610324610380366004612003565b610990565b60115461039d9061ffff808216916201000090041682565b6040805161ffff93841681529290911660208301520161024b565b6103fe6103c6366004611f89565b601560205260009081526040902080546001820154600383015460048401546005850154600690950154939492939192909160ff1686565b6040805196875260208701959095529385019290925260608401526080830152151560a082015260c00161024b565b610324610b57565b610303610443366004611f89565b610d14565b610324610456366004611f89565b610d1f565b6103036104693660046120af565b610dcd565b6102c061047c366004611f89565b6005602052600090815260409020546001600160a01b031681565b6103036104a5366004611f89565b610ee1565b6103036104b8366004611f89565b60186020526000908152604090205481565b6103036104d8366004611fe8565b60046020526000908152604090205481565b610303600a5481565b610303610501366004611f89565b60146020526000908152604090205481565b610324610521366004611f89565b610f36565b6103246105343660046121e2565b610f56565b61028a6110cc565b61023f61054f366004611f89565b6110d9565b61032461056236600461221f565b611262565b61030360095481565b61059761057e366004611f89565b6008602052600090815260409020805460019091015482565b6040805192835260208301919091520161024b565b6105976105ba366004611f89565b6013602052600090815260409020805460019091015482565b6105e66105e1366004611f89565b6112ce565b60405161024b9190612256565b6103246113cb565b610324610609366004611f07565b611579565b61030360035481565b61023f6106253660046122ae565b600760209081526000928352604080842090915290825290205460ff1681565b610324610653366004611f07565b611662565b60006301ffc9a760e01b6001600160e01b03198316148061068957506380ac58cd60e01b6001600160e01b03198316145b806106a45750635b5e139f60e01b6001600160e01b03198316145b92915050565b600080546106b7906122e1565b80601f01602080910402602001604051908101604052809291908181526020018280546106e3906122e1565b80156107305780601f1061070557610100808354040283529160200191610730565b820191906000526020600020905b81548152906001019060200180831161071357829003601f168201915b505050505081565b6000818152600560205260409020546001600160a01b03163381148061078157506001600160a01b038116600090815260076020908152604080832033845290915290205460ff165b6107c35760405162461bcd60e51b815260206004820152600e60248201526d1393d517d055551213d49256915160921b60448201526064015b60405180910390fd5b60008281526006602052604080822080546001600160a01b0319166001600160a01b0387811691821790925591518593918516917f8c5be1e5ebec7d5bd14f71427d1e84f3dd0314c0f7b2291e5b200ac8c7c3b92591a4505050565b610829828261166c565b5050565b6000818152601360209081526040808320546005909252909120546001600160a01b03163314801561086d57506000818152601860205260409020544210155b61087657600080fd5b600082815260136020908152604080832060010154848452601490925282208054919290916108a6908490612332565b909155505050600090815260136020526040812081815560010155565b336001600160a01b037f0000000000000000000000000000000000000000000000000000000000000000161480156109045750600f546001600160a01b0316155b61090d57600080fd5b600f80546001600160a01b0319166001600160a01b0392909216919091179055565b600b546009546000838152600860205260408120549092839290916109549190612349565b61095e9190612368565b600b5460008581526008602052604090206001015491925061097f91612368565b6109899082612332565b9392505050565b6000818152600560205260409020546001600160a01b038481169116146109e65760405162461bcd60e51b815260206004820152600a60248201526957524f4e475f46524f4d60b01b60448201526064016107ba565b6001600160a01b038216610a305760405162461bcd60e51b81526020600482015260116024820152701253959053125117d49150d25412515395607a1b60448201526064016107ba565b336001600160a01b0384161480610a5d57506000818152600660205260409020546001600160a01b031633145b80610a8b57506001600160a01b038316600090815260076020908152604080832033845290915290205460ff165b610ac85760405162461bcd60e51b815260206004820152600e60248201526d1393d517d055551213d49256915160921b60448201526064016107ba565b6001600160a01b0380841660008181526004602090815260408083208054600019019055938616808352848320805460010190558583526005825284832080546001600160a01b03199081168317909155600690925284832080549092169091559251849392917fddf252ad1be2c89b69c2b068fc378daa952ba7f163c4a11628f55a4df523b3ef91a4505050565b600f546001600160a01b0316610b9d5760405162461bcd60e51b815260206004820152600b60248201526a4e6f20537472617465677960a81b60448201526064016107ba565b6000612710600a54611388610bb29190612349565b610bbc9190612368565b90506000600e5482610bce9190612332565b905080600e6000828254610be2919061238a565b9250508190555080600d6000828254610bfb919061238a565b9250508190555080600c6000828254610c149190612332565b9091555050600f5460405163095ea7b360e01b81526001600160a01b039182166004820152602481018390527f00000000000000000000000000000000000000000000000000000000000000009091169063095ea7b3906044016020604051808303816000875af1158015610c8d573d6000803e3d6000fd5b505050506040513d601f19601f82011682018060405250810190610cb191906123a2565b50600f5460405163b6b55f2560e01b8152600481018390526001600160a01b039091169063b6b55f2590602401600060405180830381600087803b158015610cf857600080fd5b505af1158015610d0c573d6000803e3d6000fd5b505050505050565b60006106a4826117bc565b80600c6000828254610d319190612332565b90915550506040516323b872dd60e01b8152336004820152306024820152604481018290527f00000000000000000000000000000000000000000000000000000000000000006001600160a01b0316906323b872dd906064016020604051808303816000875af1158015610da9573d6000803e3d6000fd5b505050506040513d601f19601f8201168201806040525081019061082991906123a2565b8151600090620151808310801590610de857506203f4808311155b8015610df5575060038111155b610dfe57600080fd5b60008686604051602001610e139291906123bf565b60408051601f19818403018152918152815160209283012060128054600181019091557fbb8a6a4669ba250d26cd7a459eca9d215f8307e33aebe50379bc5a3617ec34440181905560008181526015909352908220909250905b83811015610ed457868181518110610e8757610e876123cf565b60209081029190910181015151600083815260028501909252604090912080546001600160a01b0319166001600160a01b0390921691909117905580610ecc816123e5565b915050610e6d565b5090979650505050505050565b6000610eec8261092f565b600a54600084815260086020526040902054601054600e54610f0e908461238a565b610f189190612332565b610f229190612349565b610f2c9190612368565b6106a4919061238a565b6000610f4182610ee1565b9050610f4d81836118f2565b61082982611b65565b60008181526015602052604090206001015483108015610f8c57506000838152600560205260409020546001600160a01b031633145b610f9557600080fd5b60008381526017602090815260408083208484528252808320805460ff19166001179055601590915290206003015482111561103857600083815260136020908152604080832060010154600890925290912054610ff39190612332565b60008481526014602052604090205461100c919061238a565b6000828152601560205260408120600401805490919061102d90849061238a565b909155506110a89050565b6000838152601360209081526040808320600101546008909252909120546110609190612332565b600084815260146020526040902054611079919061238a565b6000828152601660209081526040808320868452909152812080549091906110a290849061238a565b90915550505b6110b5426203f48061238a565b600093845260186020526040909320929092555050565b600180546106b7906122e1565b6000818152601560205260408120600581015442108015906111005750600681015460ff16155b61110957600080fd5b6000838152601560205260408120600601805460ff1916600117905560038201549080805b8381101561119557600087815260166020908152604080832084845290915290205461115a818461238a565b6000898152601660209081526040808320888452909152902054909350811115611182578193505b508061118d816123e5565b91505061112e565b5060008681526016602090815260408083208584529091529020546004850154106111c65750600095945050505050565b601154600a54612710916111e09161ffff90911690612349565b6111ea9190612368565b81101561122c5760405162461bcd60e51b815260206004820152601060248201526f4e6f7420456e6f75676820566f74657360801b60448201526064016107ba565b600082815260028501602052604090206001810154905461125691906001600160a01b0316611c32565b50600195945050505050565b3360008181526007602090815260408083206001600160a01b03871680855290835292819020805460ff191686151590811790915590519081529192917f17307eab39ab6107e8899845ad3d59bd9653f200f220920489ca2b5937696c31910160405180910390a35050565b6113096040518060a001604052806060815260200160006001600160a01b031681526020016000815260200160008152602001600081525090565b6040518060a0016040528060008054611321906122e1565b80601f016020809104026020016040519081016040528092919081815260200182805461134d906122e1565b801561139a5780601f1061136f5761010080835404028352916020019161139a565b820191906000526020600020905b81548152906001019060200180831161137d57829003601f168201915b50505091835250503060208201526040016113b484610ee1565b815260200183815260200160008152509050919050565b600c546040516370a0823160e01b8152306004820152600091906001600160a01b037f000000000000000000000000000000000000000000000000000000000000000016906370a0823190602401602060405180830381865afa158015611436573d6000803e3d6000fd5b505050506040513d601f19601f8201168201806040525081019061145a9190612400565b6114649190612332565b905080600c6000828254611478919061238a565b9091555050600f546000906001600160a01b031661149757600061151b565b600d54600f60009054906101000a90046001600160a01b03166001600160a01b031663460ffdae6040518163ffffffff1660e01b8152600401602060405180830381865afa1580156114ed573d6000803e3d6000fd5b505050506040513d601f19601f820116820180604052508101906115119190612400565b61151b9190612332565b905080600d600082825461152f919061238a565b9091555060009050611541828461238a565b9050600a54600b54826115549190612349565b61155e9190612368565b6009600082825461156f919061238a565b9091555050505050565b6000828152601360209081526040808320546005909252909120546001600160a01b0316331480156115ab5750818314155b6115b457600080fd5b8082146115d6576000818152601860205260409020544210156115d657600080fd5b6000838152600860205260409020548115611621576000848152601360209081526040808320600101548584526014909252822080549192909161161b908490612332565b90915550505b6000838152601460205260408120805483929061163f90849061238a565b909155505060008481526013602052604090206001810191909155929092555050565b61082981836118f2565b6000818152600560205260409020546001600160a01b0316331461168f57600080fd5b6116976113cb565b600081815260086020526040812080548492906116b590849061238a565b90915550506009546116c79083612349565b600082815260086020526040812060010180549091906116e890849061238a565b9250508190555081600a6000828254611701919061238a565b9250508190555081600c600082825461171a919061238a565b90915550506040516323b872dd60e01b8152336004820152306024820152604481018390527f00000000000000000000000000000000000000000000000000000000000000006001600160a01b0316906323b872dd906064015b6020604051808303816000875af1158015611793573d6000803e3d6000fd5b505050506040513d601f19601f820116820180604052508101906117b791906123a2565b505050565b6000806117cb33600354611d4a565b600a54909150156117de576117de6113cb565b60008181526008602052604090208390556009546117fc9084612349565b6000828152600860205260408120600101805490919061181d90849061238a565b9250508190555082600a6000828254611836919061238a565b9250508190555082600c600082825461184f919061238a565b90915550506040516323b872dd60e01b8152336004820152306024820152604481018490527f00000000000000000000000000000000000000000000000000000000000000006001600160a01b0316906323b872dd906064016020604051808303816000875af11580156118c7573d6000803e3d6000fd5b505050506040513d601f19601f820116820180604052508101906118eb91906123a2565b5092915050565b6000818152600560205260409020546001600160a01b0316331461191557600080fd5b61191e81610ee1565b82111561192a57600080fd5b6040516370a0823160e01b81523060048201526000907f00000000000000000000000000000000000000000000000000000000000000006001600160a01b0316906370a0823190602401602060405180830381865afa158015611991573d6000803e3d6000fd5b505050506040513d601f19601f820116820180604052508101906119b59190612400565b905060006119c16113cb565b60006119cc8461092f565b905080851115611a54576119e08186612332565b600085815260086020526040812080549294508492909190611a03908490612332565b9250508190555081600a6000828254611a1c9190612332565b9091555050600954600085815260086020526040902054611a3d9190612349565b600085815260086020526040902060010155611a88565b600b54611a619086612349565b60008581526008602052604081206001018054909190611a8290849061238a565b90915550505b6000838611611a98576000611aa2565b611aa28487612332565b90508015611acb57611ab381611e65565b82600e6000828254611ac59190612332565b90915550505b60405163a9059cbb60e01b8152336004820152602481018790527f00000000000000000000000000000000000000000000000000000000000000006001600160a01b03169063a9059cbb906044016020604051808303816000875af1158015611b38573d6000803e3d6000fd5b505050506040513d601f19601f82011682018060405250810190611b5c91906123a2565b50505050505050565b6000818152600560205260409020546001600160a01b031680611bb75760405162461bcd60e51b815260206004820152600a6024820152691393d517d3525395115160b21b60448201526064016107ba565b6001600160a01b038116600081815260046020908152604080832080546000190190558583526005825280832080546001600160a01b031990811690915560069092528083208054909216909155518492907fddf252ad1be2c89b69c2b068fc378daa952ba7f163c4a11628f55a4df523b3ef908390a45050565b6040516370a0823160e01b81523060048201527f00000000000000000000000000000000000000000000000000000000000000006001600160a01b0316906370a0823190602401602060405180830381865afa158015611c96573d6000803e3d6000fd5b505050506040513d601f19601f82011682018060405250810190611cba9190612400565b8210611cc557600080fd5b8160106000828254611cd7919061238a565b9250508190555081600c6000828254611cf09190612332565b909155505060405163a9059cbb60e01b81526001600160a01b038281166004830152602482018490527f0000000000000000000000000000000000000000000000000000000000000000169063a9059cbb90604401611774565b60006001600160a01b038316611d965760405162461bcd60e51b81526020600482015260116024820152701253959053125117d49150d25412515395607a1b60448201526064016107ba565b6000828152600560205260409020546001600160a01b031615611dec5760405162461bcd60e51b815260206004820152600e60248201526d1053149150511657d3525395115160921b60448201526064016107ba565b6001600160a01b038316600081815260046020908152604080832080546001908101909155600380549091019055858352600590915280822080546001600160a01b0319168417905551849291907fddf252ad1be2c89b69c2b068fc378daa952ba7f163c4a11628f55a4df523b3ef908290a450919050565b600f54604051631c8901bb60e31b8152600481018390526001600160a01b039091169063e4480dd890602401600060405180830381600087803b158015611eab57600080fd5b505af1158015611ebf573d6000803e3d6000fd5b5050505080600d6000828254611ed59190612332565b909155505050565b600060208284031215611eef57600080fd5b81356001600160e01b03198116811461098957600080fd5b60008060408385031215611f1a57600080fd5b50508035926020909101359150565b6000815180845260005b81811015611f4f57602081850181015186830182015201611f33565b81811115611f61576000602083870101525b50601f01601f19169290920160200192915050565b6020815260006109896020830184611f29565b600060208284031215611f9b57600080fd5b5035919050565b80356001600160a01b0381168114611fb957600080fd5b919050565b60008060408385031215611fd157600080fd5b611fda83611fa2565b946020939093013593505050565b600060208284031215611ffa57600080fd5b61098982611fa2565b60008060006060848603121561201857600080fd5b61202184611fa2565b925061202f60208501611fa2565b9150604084013590509250925092565b634e487b7160e01b600052604160045260246000fd5b6040805190810167ffffffffffffffff811182821017156120785761207861203f565b60405290565b604051601f8201601f1916810167ffffffffffffffff811182821017156120a7576120a761203f565b604052919050565b600080600080606085870312156120c557600080fd5b843567ffffffffffffffff808211156120dd57600080fd5b818701915087601f8301126120f157600080fd5b81358181111561210057600080fd5b6020898183860101111561211357600080fd5b80840197508196508089013593508284111561212e57600080fd5b838901935089601f85011261214257600080fd5b83359150828211156121565761215661203f565b612164818360051b0161207e565b828152818101935060069290921b84018101918a83111561218457600080fd5b938101935b828510156121ce576040858c0312156121a25760008081fd5b6121aa612055565b6121b386611fa2565b81528583013583820152845260409094019392810192612189565b979a96995096976040013596505050505050565b6000806000606084860312156121f757600080fd5b505081359360208301359350604090920135919050565b801515811461221c57600080fd5b50565b6000806040838503121561223257600080fd5b61223b83611fa2565b9150602083013561224b8161220e565b809150509250929050565b602081526000825160a0602084015261227260c0840182611f29565b905060018060a01b0360208501511660408401526040840151606084015260608401516080840152608084015160a08401528091505092915050565b600080604083850312156122c157600080fd5b6122ca83611fa2565b91506122d860208401611fa2565b90509250929050565b600181811c908216806122f557607f821691505b6020821081141561231657634e487b7160e01b600052602260045260246000fd5b50919050565b634e487b7160e01b600052601160045260246000fd5b6000828210156123445761234461231c565b500390565b60008160001904831182151516156123635761236361231c565b500290565b60008261238557634e487b7160e01b600052601260045260246000fd5b500490565b6000821982111561239d5761239d61231c565b500190565b6000602082840312156123b457600080fd5b81516109898161220e565b8183823760009101908152919050565b634e487b7160e01b600052603260045260246000fd5b60006000198214156123f9576123f961231c565b5060010190565b60006020828403121561241257600080fd5b505191905056fea2646970667358221220530e65f54ed122e49c1ed62b5a60d558b5392cfa40e64f41f17fd7dba20bf3f864736f6c634300080a0033",
    "linkReferences": {}
  }
}