{
  "abi": [
    {
      "type": "constructor",
      "inputs": [
        {
          "internalType": "address",
          "name": "_vaultToken",
          "type": "address"
        },
        {
          "internalType": "string",
          "name": "name",
          "type": "string"
        },
        {
          "internalType": "string",
          "name": "symbol",
          "type": "string"
        },
        {
          "internalType": "uint16",
          "name": "_quorom",
          "type": "uint16"
        }
      ]
    },
    {
      "type": "function",
      "name": "approve",
      "inputs": [
        {
          "internalType": "address",
          "name": "spender",
          "type": "address"
        },
        {
          "internalType": "uint256",
          "name": "id",
          "type": "uint256"
        }
      ],
      "outputs": [],
      "stateMutability": "nonpayable"
    },
    {
      "type": "function",
      "name": "balanceOf",
      "inputs": [
        {
          "internalType": "address",
          "name": "",
          "type": "address"
        }
      ],
      "outputs": [
        {
          "internalType": "uint256",
          "name": "",
          "type": "uint256"
        }
      ],
      "stateMutability": "view"
    },
    {
      "type": "function",
      "name": "burnNFTAndWithdrawl",
      "inputs": [
        {
          "internalType": "uint256",
          "name": "id",
          "type": "uint256"
        }
      ],
      "outputs": [],
      "stateMutability": "nonpayable"
    },
    {
      "type": "function",
      "name": "createProposal",
      "inputs": [
        {
          "internalType": "string",
          "name": "descriptor",
          "type": "string"
        },
        {
          "internalType": "struct PDelegate.Manage[]",
          "name": "_recipients",
          "type": "tuple[]",
          "components": [
            {
              "type": "address"
            },
            {
              "type": "uint256"
            }
          ]
        },
        {
          "internalType": "uint256",
          "name": "time",
          "type": "uint256"
        }
      ],
      "outputs": [
        {
          "internalType": "bytes32",
          "name": "",
          "type": "bytes32"
        }
      ],
      "stateMutability": "nonpayable"
    },
    {
      "type": "function",
      "name": "ctx",
      "inputs": [],
      "outputs": [
        {
          "internalType": "uint16",
          "name": "quorom",
          "type": "uint16"
        },
        {
          "internalType": "uint16",
          "name": "vaultType",
          "type": "uint16"
        }
      ],
      "stateMutability": "view"
    },
    {
      "type": "function",
      "name": "currentId",
      "inputs": [],
      "outputs": [
        {
          "internalType": "uint256",
          "name": "",
          "type": "uint256"
        }
      ],
      "stateMutability": "view"
    },
    {
      "type": "function",
      "name": "delegateVotes",
      "inputs": [
        {
          "internalType": "uint256",
          "name": "fromId",
          "type": "uint256"
        },
        {
          "internalType": "uint256",
          "name": "toId",
          "type": "uint256"
        }
      ],
      "outputs": [],
      "stateMutability": "nonpayable"
    },
    {
      "type": "function",
      "name": "delegatedAmount",
      "inputs": [
        {
          "internalType": "uint256",
          "name": "",
          "type": "uint256"
        }
      ],
      "outputs": [
        {
          "internalType": "uint256",
          "name": "",
          "type": "uint256"
        }
      ],
      "stateMutability": "view"
    },
    {
      "type": "function",
      "name": "delegation",
      "inputs": [
        {
          "internalType": "uint256",
          "name": "",
          "type": "uint256"
        }
      ],
      "outputs": [
        {
          "internalType": "uint256",
          "name": "delegatee",
          "type": "uint256"
        },
        {
          "internalType": "uint256",
          "name": "weight",
          "type": "uint256"
        }
      ],
      "stateMutability": "view"
    },
    {
      "type": "function",
      "name": "depositToId",
      "inputs": [
        {
          "internalType": "uint256",
          "name": "amount",
          "type": "uint256"
        },
        {
          "internalType": "uint256",
          "name": "id",
          "type": "uint256"
        }
      ],
      "outputs": [],
      "stateMutability": "nonpayable"
    },
    {
      "type": "function",
      "name": "deposits",
      "inputs": [
        {
          "internalType": "uint256",
          "name": "",
          "type": "uint256"
        }
      ],
      "outputs": [
        {
          "internalType": "uint256",
          "name": "amount",
          "type": "uint256"
        },
        {
          "internalType": "uint256",
          "name": "tracker",
          "type": "uint256"
        }
      ],
      "stateMutability": "view"
    },
    {
      "type": "function",
      "name": "distributeYeild",
      "inputs": [],
      "outputs": [],
      "stateMutability": "nonpayable"
    },
    {
      "type": "function",
      "name": "executeProposal",
      "inputs": [
        {
          "internalType": "bytes32",
          "name": "descriptor",
          "type": "bytes32"
        }
      ],
      "outputs": [
        {
          "internalType": "bool",
          "name": "",
          "type": "bool"
        }
      ],
      "stateMutability": "nonpayable"
    },
    {
      "type": "function",
      "name": "getApproved",
      "inputs": [
        {
          "internalType": "uint256",
          "name": "",
          "type": "uint256"
        }
      ],
      "outputs": [
        {
          "internalType": "address",
          "name": "",
          "type": "address"
        }
      ],
      "stateMutability": "view"
    },
    {
      "type": "function",
      "name": "initStrat",
      "inputs": [],
      "outputs": [],
      "stateMutability": "nonpayable"
    },
    {
      "type": "function",
      "name": "isApprovedForAll",
      "inputs": [
        {
          "internalType": "address",
          "name": "",
          "type": "address"
        },
        {
          "internalType": "address",
          "name": "",
          "type": "address"
        }
      ],
      "outputs": [
        {
          "internalType": "bool",
          "name": "",
          "type": "bool"
        }
      ],
      "stateMutability": "view"
    },
    {
      "type": "function",
      "name": "lockRedelgation",
      "inputs": [
        {
          "internalType": "uint256",
          "name": "",
          "type": "uint256"
        }
      ],
      "outputs": [
        {
          "internalType": "uint256",
          "name": "",
          "type": "uint256"
        }
      ],
      "stateMutability": "view"
    },
    {
      "type": "function",
      "name": "mintNewNft",
      "inputs": [
        {
          "internalType": "uint256",
          "name": "amount",
          "type": "uint256"
        }
      ],
      "outputs": [
        {
          "internalType": "uint256",
          "name": "",
          "type": "uint256"
        }
      ],
      "stateMutability": "nonpayable"
    },
    {
      "type": "function",
      "name": "name",
      "inputs": [],
      "outputs": [
        {
          "internalType": "string",
          "name": "",
          "type": "string"
        }
      ],
      "stateMutability": "view"
    },
    {
      "type": "function",
      "name": "ownerOf",
      "inputs": [
        {
          "internalType": "uint256",
          "name": "",
          "type": "uint256"
        }
      ],
      "outputs": [
        {
          "internalType": "address",
          "name": "",
          "type": "address"
        }
      ],
      "stateMutability": "view"
    },
    {
      "type": "function",
      "name": "proposals",
      "inputs": [
        {
          "internalType": "bytes32",
          "name": "",
          "type": "bytes32"
        }
      ],
      "outputs": [
        {
          "internalType": "bytes32",
          "name": "key",
          "type": "bytes32"
        },
        {
          "internalType": "uint256",
          "name": "idSnapshot",
          "type": "uint256"
        },
        {
          "internalType": "uint256",
          "name": "recipientsLength",
          "type": "uint256"
        },
        {
          "internalType": "uint256",
          "name": "none",
          "type": "uint256"
        },
        {
          "internalType": "uint256",
          "name": "endTime",
          "type": "uint256"
        },
        {
          "internalType": "bool",
          "name": "executed",
          "type": "bool"
        }
      ],
      "stateMutability": "view"
    },
    {
      "type": "function",
      "name": "removeAllDelegation",
      "inputs": [
        {
          "internalType": "uint256",
          "name": "id",
          "type": "uint256"
        }
      ],
      "outputs": [],
      "stateMutability": "nonpayable"
    },
    {
      "type": "function",
      "name": "returnManagedFunds",
      "inputs": [
        {
          "internalType": "uint256",
          "name": "amount",
          "type": "uint256"
        }
      ],
      "outputs": [],
      "stateMutability": "nonpayable"
    },
    {
      "type": "function",
      "name": "setApprovalForAll",
      "inputs": [
        {
          "internalType": "address",
          "name": "operator",
          "type": "address"
        },
        {
          "internalType": "bool",
          "name": "approved",
          "type": "bool"
        }
      ],
      "outputs": [],
      "stateMutability": "nonpayable"
    },
    {
      "type": "function",
      "name": "setStrat",
      "inputs": [
        {
          "internalType": "address",
          "name": "addr",
          "type": "address"
        }
      ],
      "outputs": [],
      "stateMutability": "nonpayable"
    },
    {
      "type": "function",
      "name": "supportsInterface",
      "inputs": [
        {
          "internalType": "bytes4",
          "name": "interfaceId",
          "type": "bytes4"
        }
      ],
      "outputs": [
        {
          "internalType": "bool",
          "name": "",
          "type": "bool"
        }
      ],
      "stateMutability": "pure"
    },
    {
      "type": "function",
      "name": "symbol",
      "inputs": [],
      "outputs": [
        {
          "internalType": "string",
          "name": "",
          "type": "string"
        }
      ],
      "stateMutability": "view"
    },
    {
      "type": "function",
      "name": "tokenURI",
      "inputs": [
        {
          "internalType": "uint256",
          "name": "id",
          "type": "uint256"
        }
      ],
      "outputs": [
        {
          "internalType": "struct BaseVault.MetaData",
          "name": "",
          "type": "tuple",
          "components": [
            {
              "type": "string"
            },
            {
              "type": "address"
            },
            {
              "type": "uint256"
            },
            {
              "type": "uint256"
            },
            {
              "type": "uint256"
            }
          ]
        }
      ],
      "stateMutability": "view"
    },
    {
      "type": "function",
      "name": "totalDeposits",
      "inputs": [],
      "outputs": [
        {
          "internalType": "uint256",
          "name": "",
          "type": "uint256"
        }
      ],
      "stateMutability": "view"
    },
    {
      "type": "function",
      "name": "transferFrom",
      "inputs": [
        {
          "internalType": "address",
          "name": "from",
          "type": "address"
        },
        {
          "internalType": "address",
          "name": "to",
          "type": "address"
        },
        {
          "internalType": "uint256",
          "name": "id",
          "type": "uint256"
        }
      ],
      "outputs": [],
      "stateMutability": "nonpayable"
    },
    {
      "type": "function",
      "name": "vote",
      "inputs": [
        {
          "internalType": "uint256",
          "name": "id",
          "type": "uint256"
        },
        {
          "internalType": "uint256",
          "name": "key",
          "type": "uint256"
        },
        {
          "internalType": "bytes32",
          "name": "descriptor",
          "type": "bytes32"
        }
      ],
      "outputs": [],
      "stateMutability": "nonpayable"
    },
    {
      "type": "function",
      "name": "voted",
      "inputs": [
        {
          "internalType": "uint256",
          "name": "",
          "type": "uint256"
        },
        {
          "internalType": "bytes32",
          "name": "",
          "type": "bytes32"
        }
      ],
      "outputs": [
        {
          "internalType": "bool",
          "name": "",
          "type": "bool"
        }
      ],
      "stateMutability": "view"
    },
    {
      "type": "function",
      "name": "votes",
      "inputs": [
        {
          "internalType": "bytes32",
          "name": "",
          "type": "bytes32"
        },
        {
          "internalType": "uint256",
          "name": "",
          "type": "uint256"
        }
      ],
      "outputs": [
        {
          "internalType": "uint256",
          "name": "",
          "type": "uint256"
        }
      ],
      "stateMutability": "view"
    },
    {
      "type": "function",
      "name": "withdrawFromId",
      "inputs": [
        {
          "internalType": "uint256",
          "name": "id",
          "type": "uint256"
        },
        {
          "internalType": "uint256",
          "name": "amount",
          "type": "uint256"
        }
      ],
      "outputs": [],
      "stateMutability": "nonpayable"
    },
    {
      "type": "function",
      "name": "withdrawableById",
      "inputs": [
        {
          "internalType": "uint256",
          "name": "id",
          "type": "uint256"
        }
      ],
      "outputs": [
        {
          "internalType": "uint256",
          "name": "",
          "type": "uint256"
        }
      ],
      "stateMutability": "view"
    },
    {
      "type": "function",
      "name": "yeildPerDeposit",
      "inputs": [],
      "outputs": [
        {
          "internalType": "uint256",
          "name": "",
          "type": "uint256"
        }
      ],
      "stateMutability": "view"
    },
    {
      "type": "function",
      "name": "yieldPerId",
      "inputs": [
        {
          "internalType": "uint256",
          "name": "id",
          "type": "uint256"
        }
      ],
      "outputs": [
        {
          "internalType": "uint256",
          "name": "",
          "type": "uint256"
        }
      ],
      "stateMutability": "view"
    },
    {
      "type": "event",
      "name": "Approval",
      "inputs": [
        {
          "name": "owner",
          "type": "address",
          "indexed": true
        },
        {
          "name": "spender",
          "type": "address",
          "indexed": true
        },
        {
          "name": "id",
          "type": "uint256",
          "indexed": true
        }
      ],
      "anonymous": false
    },
    {
      "type": "event",
      "name": "ApprovalForAll",
      "inputs": [
        {
          "name": "owner",
          "type": "address",
          "indexed": true
        },
        {
          "name": "operator",
          "type": "address",
          "indexed": true
        },
        {
          "name": "approved",
          "type": "bool",
          "indexed": false
        }
      ],
      "anonymous": false
    },
    {
      "type": "event",
      "name": "Transfer",
      "inputs": [
        {
          "name": "from",
          "type": "address",
          "indexed": true
        },
        {
          "name": "to",
          "type": "address",
          "indexed": true
        },
        {
          "name": "id",
          "type": "uint256",
          "indexed": true
        }
      ],
      "anonymous": false
    }
  ],
  "bytecode": {
    "object": "0x60c060405260016003553480156200001657600080fd5b50604051620027fd380380620027fd83398101604081905262000039916200024d565b8383838282828181816000908051906020019062000059929190620000da565b5080516200006f906001906020840190620000da565b5050506001600160a01b0390921660805250503360a0525050506105dc61ffff821610156200009d57600080fd5b6040805180820190915261ffff90911680825260016020909201919091526010805463ffffffff191690911762010000179055506200032f915050565b828054620000e890620002f2565b90600052602060002090601f0160209004810192826200010c576000855562000157565b82601f106200012757805160ff191683800117855562000157565b8280016001018555821562000157579182015b82811115620001575782518255916020019190600101906200013a565b506200016592915062000169565b5090565b5b808211156200016557600081556001016200016a565b634e487b7160e01b600052604160045260246000fd5b600082601f830112620001a857600080fd5b81516001600160401b0380821115620001c557620001c562000180565b604051601f8301601f19908116603f01168101908282118183101715620001f057620001f062000180565b816040528381526020925086838588010111156200020d57600080fd5b600091505b8382101562000231578582018301518183018401529082019062000212565b83821115620002435760008385830101525b9695505050505050565b600080600080608085870312156200026457600080fd5b84516001600160a01b03811681146200027c57600080fd5b60208601519094506001600160401b03808211156200029a57600080fd5b620002a88883890162000196565b94506040870151915080821115620002bf57600080fd5b50620002ce8782880162000196565b925050606085015161ffff81168114620002e757600080fd5b939692955090935050565b600181811c908216806200030757607f821691505b602082108114156200032957634e487b7160e01b600052602260045260246000fd5b50919050565b60805160a0516124706200038d60003960006108ce015260008181610c4701528181610d760152818161140d01528181611762015281816118970152818161196a01528181611b0801528181611c680152611d3c01526124706000f3fe608060405234801561001057600080fd5b50600436106102275760003560e01c80636d43d9f111610130578063a22cb465116100b8578063ca1e3c831161007c578063ca1e3c83146105f3578063cfa7b65f146105fb578063e00dd1611461060e578063e985e9c514610617578063eaaf1fca1461064557600080fd5b8063a22cb46514610554578063a2d6b25f14610567578063b02c43d014610570578063b1a61dda146105ac578063c87b56dd146105d357600080fd5b80637f4b4323116100ff5780637f4b4323146104f357806389f3dd37146105135780638c881eeb1461052657806395d89b4114610539578063980ff6c61461054157600080fd5b80636d43d9f1146104975780636e60ecb0146104aa57806370a08231146104ca5780637d882097146104ea57600080fd5b80631ab2f6af116101b357806334d894c91161018257806334d894c91461042d5780634b6d69d3146104355780634fad28a7146104485780635ade4ad11461045b5780636352211e1461046e57600080fd5b80631ab2f6af1461035f57806323b872dd14610372578063277838df1461038557806332ed5b12146103b857600080fd5b80630847a4fb116101fa5780630847a4fb146102d8578063095ea7b314610311578063159b496214610326578063169dd1d21461033957806316cc3b071461034c57600080fd5b806301ffc9a71461022c57806302f99ae71461025457806306fdde0314610282578063081812fc14610297575b600080fd5b61023f61023a366004611efe565b610658565b60405190151581526020015b60405180910390f35b61023f610262366004611f28565b601660209081526000928352604080842090915290825290205460ff1681565b61028a6106aa565b60405161024b9190611f97565b6102c06102a5366004611faa565b6006602052600090815260409020546001600160a01b031681565b6040516001600160a01b03909116815260200161024b565b6103036102e6366004611f28565b601560209081526000928352604080842090915290825290205481565b60405190815260200161024b565b61032461031f366004611fdf565b610738565b005b610324610334366004611f28565b61081f565b610324610347366004611faa565b61082d565b61032461035a366004612009565b6108c3565b61030361036d366004611faa565b61092f565b610324610380366004612024565b610995565b60105461039d9061ffff808216916201000090041682565b6040805161ffff93841681529290911660208301520161024b565b6103fe6103c6366004611faa565b601460205260009081526040902080546001820154600383015460048401546005850154600690950154939492939192909160ff1686565b6040805196875260208701959095529385019290925260608401526080830152151560a082015260c00161024b565b610324610b5c565b610303610443366004611faa565b610d19565b610324610456366004611faa565b610d24565b6103036104693660046120d0565b610deb565b6102c061047c366004611faa565b6005602052600090815260409020546001600160a01b031681565b6103036104a5366004611faa565b610eff565b6103036104b8366004611faa565b60176020526000908152604090205481565b6103036104d8366004612009565b60046020526000908152604090205481565b610303600a5481565b610303610501366004611faa565b60136020526000908152604090205481565b610324610521366004611faa565b610f54565b610324610534366004612203565b610f74565b61028a6110ea565b61023f61054f366004611faa565b6110f7565b610324610562366004612240565b611280565b61030360095481565b61059761057e366004611faa565b6008602052600090815260409020805460019091015482565b6040805192835260208301919091520161024b565b6105976105ba366004611faa565b6012602052600090815260409020805460019091015482565b6105e66105e1366004611faa565b6112ec565b60405161024b9190612277565b6103246113e9565b610324610609366004611f28565b611592565b61030360035481565b61023f6106253660046122cf565b600760209081526000928352604080842090915290825290205460ff1681565b610324610653366004611f28565b61167b565b60006301ffc9a760e01b6001600160e01b03198316148061068957506380ac58cd60e01b6001600160e01b03198316145b806106a45750635b5e139f60e01b6001600160e01b03198316145b92915050565b600080546106b790612302565b80601f01602080910402602001604051908101604052809291908181526020018280546106e390612302565b80156107305780601f1061070557610100808354040283529160200191610730565b820191906000526020600020905b81548152906001019060200180831161071357829003601f168201915b505050505081565b6000818152600560205260409020546001600160a01b03163381148061078157506001600160a01b038116600090815260076020908152604080832033845290915290205460ff165b6107c35760405162461bcd60e51b815260206004820152600e60248201526d1393d517d055551213d49256915160921b60448201526064015b60405180910390fd5b60008281526006602052604080822080546001600160a01b0319166001600160a01b0387811691821790925591518593918516917f8c5be1e5ebec7d5bd14f71427d1e84f3dd0314c0f7b2291e5b200ac8c7c3b92591a4505050565b6108298282611685565b5050565b6000818152601260209081526040808320546005909252909120546001600160a01b03163314801561086d57506000818152601760205260409020544210155b61087657600080fd5b600082815260126020908152604080832060010154848452601390925282208054919290916108a6908490612353565b909155505050600090815260126020526040812081815560010155565b336001600160a01b037f0000000000000000000000000000000000000000000000000000000000000000161480156109045750600e546001600160a01b0316155b61090d57600080fd5b600e80546001600160a01b0319166001600160a01b0392909216919091179055565b600954600082815260086020526040812054909182916402540be400916109559161236a565b61095f9190612389565b600084815260086020526040902060010154909150610984906402540be40090612389565b61098e9082612353565b9392505050565b6000818152600560205260409020546001600160a01b038481169116146109eb5760405162461bcd60e51b815260206004820152600a60248201526957524f4e475f46524f4d60b01b60448201526064016107ba565b6001600160a01b038216610a355760405162461bcd60e51b81526020600482015260116024820152701253959053125117d49150d25412515395607a1b60448201526064016107ba565b336001600160a01b0384161480610a6257506000818152600660205260409020546001600160a01b031633145b80610a9057506001600160a01b038316600090815260076020908152604080832033845290915290205460ff165b610acd5760405162461bcd60e51b815260206004820152600e60248201526d1393d517d055551213d49256915160921b60448201526064016107ba565b6001600160a01b0380841660008181526004602090815260408083208054600019019055938616808352848320805460010190558583526005825284832080546001600160a01b03199081168317909155600690925284832080549092169091559251849392917fddf252ad1be2c89b69c2b068fc378daa952ba7f163c4a11628f55a4df523b3ef91a4505050565b600e546001600160a01b0316610ba25760405162461bcd60e51b815260206004820152600b60248201526a4e6f20537472617465677960a81b60448201526064016107ba565b6000612710600a54611388610bb7919061236a565b610bc19190612389565b90506000600d5482610bd39190612353565b905080600d6000828254610be791906123ab565b9250508190555080600c6000828254610c0091906123ab565b9250508190555080600b6000828254610c199190612353565b9091555050600e5460405163095ea7b360e01b81526001600160a01b039182166004820152602481018390527f00000000000000000000000000000000000000000000000000000000000000009091169063095ea7b3906044016020604051808303816000875af1158015610c92573d6000803e3d6000fd5b505050506040513d601f19601f82011682018060405250810190610cb691906123c3565b50600e5460405163b6b55f2560e01b8152600481018390526001600160a01b039091169063b6b55f2590602401600060405180830381600087803b158015610cfd57600080fd5b505af1158015610d11573d6000803e3d6000fd5b505050505050565b60006106a4826117dd565b80600b6000828254610d3691906123ab565b9250508190555080600f6000828254610d4f9190612353565b90915550506040516323b872dd60e01b8152336004820152306024820152604481018290527f00000000000000000000000000000000000000000000000000000000000000006001600160a01b0316906323b872dd906064016020604051808303816000875af1158015610dc7573d6000803e3d6000fd5b505050506040513d601f19601f8201168201806040525081019061082991906123c3565b8151600090620151808310801590610e0657506203f4808311155b8015610e13575060038111155b610e1c57600080fd5b60008686604051602001610e319291906123e0565b60408051601f19818403018152918152815160209283012060118054600181019091557f31ecc21a745e3968a04e9570e4425bc18fa8019c68028196b546d1669c200c680181905560008181526014909352908220909250905b83811015610ef257868181518110610ea557610ea56123f0565b60209081029190910181015151600083815260028501909252604090912080546001600160a01b0319166001600160a01b0390921691909117905580610eea81612406565b915050610e8b565b5090979650505050505050565b6000610f0a8261092f565b600a54600084815260086020526040902054600f54600d54610f2c90846123ab565b610f369190612353565b610f40919061236a565b610f4a9190612389565b6106a491906123ab565b6000610f5f82610eff565b9050610f6b8183611913565b61082982611b86565b60008181526014602052604090206001015483108015610faa57506000838152600560205260409020546001600160a01b031633145b610fb357600080fd5b60008381526016602090815260408083208484528252808320805460ff191660011790556014909152902060030154821115611056576000838152601260209081526040808320600101546008909252909120546110119190612353565b60008481526013602052604090205461102a91906123ab565b6000828152601460205260408120600401805490919061104b9084906123ab565b909155506110c69050565b60008381526012602090815260408083206001015460089092529091205461107e9190612353565b60008481526013602052604090205461109791906123ab565b6000828152601560209081526040808320868452909152812080549091906110c09084906123ab565b90915550505b6110d3426203f4806123ab565b600093845260176020526040909320929092555050565b600180546106b790612302565b60008181526014602052604081206005810154421080159061111e5750600681015460ff16155b61112757600080fd5b6000838152601460205260408120600601805460ff1916600117905560038201549080805b838110156111b357600087815260156020908152604080832084845290915290205461117881846123ab565b60008981526015602090815260408083208884529091529020549093508111156111a0578193505b50806111ab81612406565b91505061114c565b5060008681526015602090815260408083208584529091529020546004850154106111e45750600095945050505050565b601054600a54612710916111fe9161ffff9091169061236a565b6112089190612389565b81101561124a5760405162461bcd60e51b815260206004820152601060248201526f4e6f7420456e6f75676820566f74657360801b60448201526064016107ba565b600082815260028501602052604090206001810154905461127491906001600160a01b0316611c53565b50600195945050505050565b3360008181526007602090815260408083206001600160a01b03871680855290835292819020805460ff191686151590811790915590519081529192917f17307eab39ab6107e8899845ad3d59bd9653f200f220920489ca2b5937696c31910160405180910390a35050565b6113276040518060a001604052806060815260200160006001600160a01b031681526020016000815260200160008152602001600081525090565b6040518060a001604052806000805461133f90612302565b80601f016020809104026020016040519081016040528092919081815260200182805461136b90612302565b80156113b85780601f1061138d576101008083540402835291602001916113b8565b820191906000526020600020905b81548152906001019060200180831161139b57829003601f168201915b50505091835250503060208201526040016113d284610eff565b815260200183815260200160008152509050919050565b600b546040516370a0823160e01b8152306004820152600091906001600160a01b037f000000000000000000000000000000000000000000000000000000000000000016906370a0823190602401602060405180830381865afa158015611454573d6000803e3d6000fd5b505050506040513d601f19601f820116820180604052508101906114789190612421565b6114829190612353565b905080600b600082825461149691906123ab565b9091555050600e546000906001600160a01b03166114b5576000611539565b600c54600e60009054906101000a90046001600160a01b03166001600160a01b031663460ffdae6040518163ffffffff1660e01b8152600401602060405180830381865afa15801561150b573d6000803e3d6000fd5b505050506040513d601f19601f8201168201806040525081019061152f9190612421565b6115399190612353565b905080600c600082825461154d91906123ab565b9091555050600a5461155f82846123ab565b61156e906402540be40061236a565b6115789190612389565b6009600082825461158991906123ab565b90915550505050565b6000828152601260209081526040808320546005909252909120546001600160a01b0316331480156115c45750818314155b6115cd57600080fd5b8082146115ef576000818152601760205260409020544210156115ef57600080fd5b600083815260086020526040902054811561163a5760008481526012602090815260408083206001015485845260139092528220805491929091611634908490612353565b90915550505b600083815260136020526040812080548392906116589084906123ab565b909155505060008481526012602052604090206001810191909155929092555050565b6108298183611913565b6000818152600560205260409020546001600160a01b031633146116a857600080fd5b600a54156116b8576116b86113e9565b600081815260086020526040812080548492906116d69084906123ab565b90915550506009546116e8908361236a565b600082815260086020526040812060010180549091906117099084906123ab565b9250508190555081600a600082825461172291906123ab565b9250508190555081600b600082825461173b91906123ab565b90915550506040516323b872dd60e01b8152336004820152306024820152604481018390527f00000000000000000000000000000000000000000000000000000000000000006001600160a01b0316906323b872dd906064015b6020604051808303816000875af11580156117b4573d6000803e3d6000fd5b505050506040513d601f19601f820116820180604052508101906117d891906123c3565b505050565b6000806117ec33600354611d6b565b600a54909150156117ff576117ff6113e9565b600081815260086020526040902083905560095461181d908461236a565b6000828152600860205260408120600101805490919061183e9084906123ab565b9250508190555082600a600082825461185791906123ab565b9250508190555082600b600082825461187091906123ab565b90915550506040516323b872dd60e01b8152336004820152306024820152604481018490527f00000000000000000000000000000000000000000000000000000000000000006001600160a01b0316906323b872dd906064016020604051808303816000875af11580156118e8573d6000803e3d6000fd5b505050506040513d601f19601f8201168201806040525081019061190c91906123c3565b5092915050565b61191b6113e9565b6000818152600560205260409020546001600160a01b031633148015611949575061194581610eff565b8211155b61195257600080fd5b6040516370a0823160e01b81523060048201526000907f00000000000000000000000000000000000000000000000000000000000000006001600160a01b0316906370a0823190602401602060405180830381865afa1580156119b9573d6000803e3d6000fd5b505050506040513d601f19601f820116820180604052508101906119dd9190612421565b90506000806119eb8461092f565b905080851115611a73576119ff8186612353565b600085815260086020526040812080549294508492909190611a22908490612353565b9250508190555081600a6000828254611a3b9190612353565b9091555050600954600085815260086020526040902054611a5c919061236a565b600085815260086020526040902060010155611aa9565b611a82856402540be40061236a565b60008581526008602052604081206001018054909190611aa39084906123ab565b90915550505b6000838611611ab9576000611ac3565b611ac38487612353565b90508015611aec57611ad481611e86565b82600d6000828254611ae69190612353565b90915550505b60405163a9059cbb60e01b8152336004820152602481018790527f00000000000000000000000000000000000000000000000000000000000000006001600160a01b03169063a9059cbb906044016020604051808303816000875af1158015611b59573d6000803e3d6000fd5b505050506040513d601f19601f82011682018060405250810190611b7d91906123c3565b50505050505050565b6000818152600560205260409020546001600160a01b031680611bd85760405162461bcd60e51b815260206004820152600a6024820152691393d517d3525395115160b21b60448201526064016107ba565b6001600160a01b038116600081815260046020908152604080832080546000190190558583526005825280832080546001600160a01b031990811690915560069092528083208054909216909155518492907fddf252ad1be2c89b69c2b068fc378daa952ba7f163c4a11628f55a4df523b3ef908390a45050565b6040516370a0823160e01b81523060048201527f00000000000000000000000000000000000000000000000000000000000000006001600160a01b0316906370a0823190602401602060405180830381865afa158015611cb7573d6000803e3d6000fd5b505050506040513d601f19601f82011682018060405250810190611cdb9190612421565b8210611ce657600080fd5b81600f6000828254611cf891906123ab565b9250508190555081600b6000828254611d119190612353565b909155505060405163a9059cbb60e01b81526001600160a01b038281166004830152602482018490527f0000000000000000000000000000000000000000000000000000000000000000169063a9059cbb90604401611795565b60006001600160a01b038316611db75760405162461bcd60e51b81526020600482015260116024820152701253959053125117d49150d25412515395607a1b60448201526064016107ba565b6000828152600560205260409020546001600160a01b031615611e0d5760405162461bcd60e51b815260206004820152600e60248201526d1053149150511657d3525395115160921b60448201526064016107ba565b6001600160a01b038316600081815260046020908152604080832080546001908101909155600380549091019055858352600590915280822080546001600160a01b0319168417905551849291907fddf252ad1be2c89b69c2b068fc378daa952ba7f163c4a11628f55a4df523b3ef908290a450919050565b600e54604051631c8901bb60e31b8152600481018390526001600160a01b039091169063e4480dd890602401600060405180830381600087803b158015611ecc57600080fd5b505af1158015611ee0573d6000803e3d6000fd5b5050505080600c6000828254611ef69190612353565b909155505050565b600060208284031215611f1057600080fd5b81356001600160e01b03198116811461098e57600080fd5b60008060408385031215611f3b57600080fd5b50508035926020909101359150565b6000815180845260005b81811015611f7057602081850181015186830182015201611f54565b81811115611f82576000602083870101525b50601f01601f19169290920160200192915050565b60208152600061098e6020830184611f4a565b600060208284031215611fbc57600080fd5b5035919050565b80356001600160a01b0381168114611fda57600080fd5b919050565b60008060408385031215611ff257600080fd5b611ffb83611fc3565b946020939093013593505050565b60006020828403121561201b57600080fd5b61098e82611fc3565b60008060006060848603121561203957600080fd5b61204284611fc3565b925061205060208501611fc3565b9150604084013590509250925092565b634e487b7160e01b600052604160045260246000fd5b6040805190810167ffffffffffffffff8111828210171561209957612099612060565b60405290565b604051601f8201601f1916810167ffffffffffffffff811182821017156120c8576120c8612060565b604052919050565b600080600080606085870312156120e657600080fd5b843567ffffffffffffffff808211156120fe57600080fd5b818701915087601f83011261211257600080fd5b81358181111561212157600080fd5b6020898183860101111561213457600080fd5b80840197508196508089013593508284111561214f57600080fd5b838901935089601f85011261216357600080fd5b833591508282111561217757612177612060565b612185818360051b0161209f565b828152818101935060069290921b84018101918a8311156121a557600080fd5b938101935b828510156121ef576040858c0312156121c35760008081fd5b6121cb612076565b6121d486611fc3565b815285830135838201528452604090940193928101926121aa565b979a96995096976040013596505050505050565b60008060006060848603121561221857600080fd5b505081359360208301359350604090920135919050565b801515811461223d57600080fd5b50565b6000806040838503121561225357600080fd5b61225c83611fc3565b9150602083013561226c8161222f565b809150509250929050565b602081526000825160a0602084015261229360c0840182611f4a565b905060018060a01b0360208501511660408401526040840151606084015260608401516080840152608084015160a08401528091505092915050565b600080604083850312156122e257600080fd5b6122eb83611fc3565b91506122f960208401611fc3565b90509250929050565b600181811c9082168061231657607f821691505b6020821081141561233757634e487b7160e01b600052602260045260246000fd5b50919050565b634e487b7160e01b600052601160045260246000fd5b6000828210156123655761236561233d565b500390565b60008160001904831182151516156123845761238461233d565b500290565b6000826123a657634e487b7160e01b600052601260045260246000fd5b500490565b600082198211156123be576123be61233d565b500190565b6000602082840312156123d557600080fd5b815161098e8161222f565b8183823760009101908152919050565b634e487b7160e01b600052603260045260246000fd5b600060001982141561241a5761241a61233d565b5060010190565b60006020828403121561243357600080fd5b505191905056fea264697066735822122037b3f69f7a2e87c13cbbbf1fb838744551da925edc83583d72a07ee54fc07bdc64736f6c634300080b0033",
    "linkReferences": {}
  }
}