{
  "abi": [
    {
      "type": "constructor",
      "inputs": [
        {
          "internalType": "address",
          "name": "aaveStrategy",
          "type": "address"
        },
        {
          "internalType": "address",
          "name": "_token",
          "type": "address"
        }
      ]
    },
    {
      "type": "function",
      "name": "aToken",
      "inputs": [],
      "outputs": [
        {
          "internalType": "contract ERC20",
          "name": "",
          "type": "address"
        }
      ],
      "stateMutability": "view"
    },
    {
      "type": "function",
      "name": "deposit",
      "inputs": [
        {
          "internalType": "uint256",
          "name": "amount",
          "type": "uint256"
        }
      ],
      "outputs": [],
      "stateMutability": "nonpayable"
    },
    {
      "type": "function",
      "name": "initVault",
      "inputs": [
        {
          "internalType": "address",
          "name": "_vault",
          "type": "address"
        }
      ],
      "outputs": [],
      "stateMutability": "nonpayable"
    },
    {
      "type": "function",
      "name": "pool",
      "inputs": [],
      "outputs": [
        {
          "internalType": "contract IPool",
          "name": "",
          "type": "address"
        }
      ],
      "stateMutability": "view"
    },
    {
      "type": "function",
      "name": "setAToken",
      "inputs": [
        {
          "internalType": "address",
          "name": "_aToken",
          "type": "address"
        }
      ],
      "outputs": [],
      "stateMutability": "nonpayable"
    },
    {
      "type": "function",
      "name": "token",
      "inputs": [],
      "outputs": [
        {
          "internalType": "contract ERC20",
          "name": "",
          "type": "address"
        }
      ],
      "stateMutability": "view"
    },
    {
      "type": "function",
      "name": "withdrawl",
      "inputs": [
        {
          "internalType": "uint256",
          "name": "amount",
          "type": "uint256"
        }
      ],
      "outputs": [],
      "stateMutability": "nonpayable"
    },
    {
      "type": "function",
      "name": "withdrawlableVaultToken",
      "inputs": [],
      "outputs": [
        {
          "internalType": "uint256",
          "name": "",
          "type": "uint256"
        }
      ],
      "stateMutability": "view"
    }
  ],
  "bytecode": {
    "object": "0x60a060405234801561001057600080fd5b5060405161057738038061057783398101604081905261002f91610080565b600080546001600160a01b039384166001600160a01b03199182161790915560018054929093169116179055336080526100b3565b80516001600160a01b038116811461007b57600080fd5b919050565b6000806040838503121561009357600080fd5b61009c83610064565b91506100aa60208401610064565b90509250929050565b6080516104a96100ce600039600061015201526104a96000f3fe608060405234801561001057600080fd5b50600436106100885760003560e01c8063a0c1f15e1161005b578063a0c1f15e146100fb578063b6b55f251461010e578063e4480dd814610121578063fc0c546a1461013457600080fd5b806316f0115b1461008d5780632ebe3fbb146100bd578063460ffdae146100d25780635f09d84c146100e8575b600080fd5b6000546100a0906001600160a01b031681565b6040516001600160a01b0390911681526020015b60405180910390f35b6100d06100cb3660046103ef565b610147565b005b6100da6101b3565b6040519081526020016100b4565b6100d06100f63660046103ef565b610225565b6002546100a0906001600160a01b031681565b6100d061011c36600461041f565b61025d565b6100d061012f36600461041f565b610350565b6001546100a0906001600160a01b031681565b336001600160a01b037f00000000000000000000000000000000000000000000000000000000000000001614801561018857506003546001600160a01b0316155b61019157600080fd5b600380546001600160a01b0319166001600160a01b0392909216919091179055565b6002546040516370a0823160e01b81523060048201526000916001600160a01b0316906370a0823190602401602060405180830381865afa1580156101fc573d6000803e3d6000fd5b505050506040513d601f19601f820116820180604052508101906102209190610438565b905090565b6002546001600160a01b03161561023b57600080fd5b600280546001600160a01b0319166001600160a01b0392909216919091179055565b60015460005460405163095ea7b360e01b81526001600160a01b0391821660048201526024810184905291169063095ea7b3906044016020604051808303816000875af11580156102b2573d6000803e3d6000fd5b505050506040513d601f19601f820116820180604052508101906102d69190610451565b506000805460015460405163617ba03760e01b81526001600160a01b039182166004820152602481018590523060448201526064810193909352169063617ba03790608401600060405180830381600087803b15801561033557600080fd5b505af1158015610349573d6000803e3d6000fd5b5050505050565b6003546001600160a01b0316331461036757600080fd5b600054600154600354604051631a4ca37b60e21b81526001600160a01b0392831660048201526024810185905290821660448201529116906369328dec906064016020604051808303816000875af11580156103c7573d6000803e3d6000fd5b505050506040513d601f19601f820116820180604052508101906103eb9190610438565b5050565b60006020828403121561040157600080fd5b81356001600160a01b038116811461041857600080fd5b9392505050565b60006020828403121561043157600080fd5b5035919050565b60006020828403121561044a57600080fd5b5051919050565b60006020828403121561046357600080fd5b8151801515811461041857600080fdfea26469706673582212207619d695580d9ff1e7f99d2c81fa2461e6654deb116d8d67a39218d576c2bd1e64736f6c634300080b0033",
    "linkReferences": {}
  }
}