{
  "abi": [
    {
      "type": "function",
      "name": "createVault",
      "inputs": [
        {
          "internalType": "bytes",
          "name": "vaultCreationCode",
          "type": "bytes"
        },
        {
          "internalType": "bytes",
          "name": "strategyCreationCode",
          "type": "bytes"
        },
        {
          "internalType": "address",
          "name": "vaultToken",
          "type": "address"
        },
        {
          "internalType": "address",
          "name": "yieldVault",
          "type": "address"
        },
        {
          "internalType": "bytes",
          "name": "_constructor",
          "type": "bytes"
        }
      ],
      "outputs": [
        {
          "internalType": "address",
          "name": "vault",
          "type": "address"
        }
      ],
      "stateMutability": "nonpayable"
    },
    {
      "type": "function",
      "name": "vaults",
      "inputs": [
        {
          "internalType": "uint256",
          "name": "",
          "type": "uint256"
        }
      ],
      "outputs": [
        {
          "internalType": "address",
          "name": "",
          "type": "address"
        }
      ],
      "stateMutability": "view"
    }
  ],
  "bytecode": {
    "object": "0x608060405234801561001057600080fd5b50610420806100206000396000f3fe608060405234801561001057600080fd5b50600436106100365760003560e01c80637fa59fc01461003b5780638c64ea4a1461006a575b600080fd5b61004e6100493660046102ab565b61007d565b6040516001600160a01b03909116815260200160405180910390f35b61004e610078366004610369565b61021c565b600080898985856040516020016100979493929190610382565b60408051808303601f190181528282526001600160a01b0388811660208501528916838301528151808403830181526060840190925292506000916100e3918b918b91906080016103a4565b604051602081830303815290604052905060008151602083016000f090508251602084016000f06040516316cc3b0760e01b81526001600160a01b038381166004830152919550908516906316cc3b0790602401600060405180830381600087803b15801561015157600080fd5b505af1158015610165573d6000803e3d6000fd5b5050604051632ebe3fbb60e01b81526001600160a01b03878116600483015284169250632ebe3fbb9150602401600060405180830381600087803b1580156101ac57600080fd5b505af11580156101c0573d6000803e3d6000fd5b5050600080546001810182559080527f290decd9548b62a8d60345a988386fc84ba6bc95484008f6362f93160ef3e5630180546001600160a01b0319166001600160a01b03881617905550939c9b505050505050505050505050565b6000818154811061022c57600080fd5b6000918252602090912001546001600160a01b0316905081565b60008083601f84011261025857600080fd5b50813567ffffffffffffffff81111561027057600080fd5b60208301915083602082850101111561028857600080fd5b9250929050565b80356001600160a01b03811681146102a657600080fd5b919050565b60008060008060008060008060a0898b0312156102c757600080fd5b883567ffffffffffffffff808211156102df57600080fd5b6102eb8c838d01610246565b909a50985060208b013591508082111561030457600080fd5b6103108c838d01610246565b909850965086915061032460408c0161028f565b955061033260608c0161028f565b945060808b013591508082111561034857600080fd5b506103558b828c01610246565b999c989b5096995094979396929594505050565b60006020828403121561037b57600080fd5b5035919050565b8385823760008482016000815283858237600093019283525090949350505050565b82848237600083820160008152835160005b818110156103d057602081870181015184830152016103b6565b818111156103df576000828401525b50019594505050505056fea2646970667358221220f84a2c134b31b55cb2f0e452655c26ff66f5deae62d10a55b4f4e8a091d76a6f64736f6c634300080a0033",
    "linkReferences": {}
  }
}