{
  "abi": [
    {
      "inputs": [],
      "stateMutability": "nonpayable",
      "type": "constructor"
    },
    {
      "anonymous": false,
      "inputs": [
        {
          "indexed": false,
          "internalType": "uint256",
          "name": "_index",
          "type": "uint256"
        },
        {
          "indexed": false,
          "internalType": "address",
          "name": "_impl",
          "type": "address"
        }
      ],
      "name": "NewStrat",
      "type": "event"
    },
    {
      "anonymous": false,
      "inputs": [
        {
          "indexed": false,
          "internalType": "uint256",
          "name": "_index",
          "type": "uint256"
        },
        {
          "indexed": false,
          "internalType": "address",
          "name": "_impl",
          "type": "address"
        }
      ],
      "name": "NewVault",
      "type": "event"
    },
    {
      "inputs": [],
      "name": "admin",
      "outputs": [
        {
          "internalType": "address",
          "name": "",
          "type": "address"
        }
      ],
      "stateMutability": "view",
      "type": "function"
    },
    {
      "inputs": [
        {
          "internalType": "uint256",
          "name": "vKey",
          "type": "uint256"
        },
        {
          "internalType": "bytes32",
          "name": "id",
          "type": "bytes32"
        },
        {
          "internalType": "string",
          "name": "name",
          "type": "string"
        },
        {
          "internalType": "string",
          "name": "symbol",
          "type": "string"
        },
        {
          "internalType": "address",
          "name": "token",
          "type": "address"
        }
      ],
      "name": "createVault",
      "outputs": [
        {
          "internalType": "address",
          "name": "vault",
          "type": "address"
        }
      ],
      "stateMutability": "nonpayable",
      "type": "function"
    },
    {
      "inputs": [
        {
          "internalType": "uint256",
          "name": "",
          "type": "uint256"
        }
      ],
      "name": "keys",
      "outputs": [
        {
          "internalType": "bytes32",
          "name": "",
          "type": "bytes32"
        }
      ],
      "stateMutability": "view",
      "type": "function"
    },
    {
      "inputs": [
        {
          "internalType": "uint256",
          "name": "",
          "type": "uint256"
        }
      ],
      "name": "sImpl",
      "outputs": [
        {
          "internalType": "address",
          "name": "",
          "type": "address"
        }
      ],
      "stateMutability": "view",
      "type": "function"
    },
    {
      "inputs": [
        {
          "internalType": "uint256",
          "name": "_index",
          "type": "uint256"
        },
        {
          "internalType": "address",
          "name": "_impl",
          "type": "address"
        }
      ],
      "name": "setSImpl",
      "outputs": [],
      "stateMutability": "nonpayable",
      "type": "function"
    },
    {
      "inputs": [
        {
          "internalType": "uint256",
          "name": "_index",
          "type": "uint256"
        },
        {
          "internalType": "address",
          "name": "_token",
          "type": "address"
        },
        {
          "internalType": "address",
          "name": "_underlying",
          "type": "address"
        }
      ],
      "name": "setUnderlying",
      "outputs": [],
      "stateMutability": "nonpayable",
      "type": "function"
    },
    {
      "inputs": [
        {
          "internalType": "uint256",
          "name": "_index",
          "type": "uint256"
        },
        {
          "internalType": "address",
          "name": "_impl",
          "type": "address"
        }
      ],
      "name": "setVImpl",
      "outputs": [],
      "stateMutability": "nonpayable",
      "type": "function"
    },
    {
      "inputs": [
        {
          "internalType": "uint256",
          "name": "",
          "type": "uint256"
        }
      ],
      "name": "vImpl",
      "outputs": [
        {
          "internalType": "address",
          "name": "",
          "type": "address"
        }
      ],
      "stateMutability": "view",
      "type": "function"
    },
    {
      "inputs": [
        {
          "internalType": "bytes32",
          "name": "",
          "type": "bytes32"
        }
      ],
      "name": "vaults",
      "outputs": [
        {
          "internalType": "address",
          "name": "",
          "type": "address"
        }
      ],
      "stateMutability": "view",
      "type": "function"
    }
  ],
  "bytecode": {
    "object": "0x608060405234801561001057600080fd5b50600580546001600160a01b03191633179055610732806100326000396000f3fe608060405234801561001057600080fd5b50600436106100935760003560e01c8063ca22a6e111610066578063ca22a6e114610127578063cca23bf214610150578063e2a356a514610179578063e5c16bc51461018c578063f851a4401461019f57600080fd5b80630cb6aaf11461009857806329d263cc146100be5780633977775c146100d357806386ffe4ee146100fe575b600080fd5b6100ab6100a63660046104a2565b6101b2565b6040519081526020015b60405180910390f35b6100d16100cc3660046104d2565b6101d3565b005b6100e66100e13660046105b1565b610225565b6040516001600160a01b0390911681526020016100b5565b6100e661010c3660046104a2565b6001602052600090815260409020546001600160a01b031681565b6100e66101353660046104a2565b6000602081905290815260409020546001600160a01b031681565b6100e661015e3660046104a2565b6004602052600090815260409020546001600160a01b031681565b6100d1610187366004610639565b61030f565b6100d161019a366004610639565b61038b565b6005546100e6906001600160a01b031681565b600381815481106101c257600080fd5b600091825260209091200154905081565b6005546001600160a01b031633146101ea57600080fd5b60009283526002602090815260408085206001600160a01b0394851686529091529092208054919092166001600160a01b0319909116179055565b600085815260208190526040812054610246906001600160a01b0316610401565b604051636c9980e160e01b81529091506001600160a01b03821690636c9980e19061027c908790879087906000906004016106b2565b600060405180830381600087803b15801561029657600080fd5b505af11580156102aa573d6000803e3d6000fd5b505060038054600181019091557fc2575a0e9e593c00f959f8c92f12db2869c3395a3b0502d05e2516446f71f85b01879055505060009485526004602052604090942080546001600160a01b0319166001600160a01b03861617905550919392505050565b6005546001600160a01b0316331461032657600080fd5b6000828152602081815260409182902080546001600160a01b0319166001600160a01b0385169081179091558251858152918201527fc117b81c381b8c8066e461527733c2f11b87ebf36631b006cb5a74e3c0388b1391015b60405180910390a15050565b6005546001600160a01b031633146103a257600080fd5b60008281526001602090815260409182902080546001600160a01b0319166001600160a01b0385169081179091558251858152918201527f7db4106e64eb535cdc28ec9c40f88069b966623d027fb00f51344f67031f9b98910161037f565b6000604051733d602d80600a3d3981f3363d3d373d3d3d363d7360601b81528260601b60148201526e5af43d82803e903d91602b57fd5bf360881b60288201526037816000f09150506001600160a01b03811661049d5760405162461bcd60e51b8152602060048201526016602482015275115490cc4c4d8dce8818dc99585d194819985a5b195960521b604482015260640160405180910390fd5b919050565b6000602082840312156104b457600080fd5b5035919050565b80356001600160a01b038116811461049d57600080fd5b6000806000606084860312156104e757600080fd5b833592506104f7602085016104bb565b9150610505604085016104bb565b90509250925092565b634e487b7160e01b600052604160045260246000fd5b600082601f83011261053557600080fd5b813567ffffffffffffffff808211156105505761055061050e565b604051601f8301601f19908116603f011681019082821181831017156105785761057861050e565b8160405283815286602085880101111561059157600080fd5b836020870160208301376000602085830101528094505050505092915050565b600080600080600060a086880312156105c957600080fd5b8535945060208601359350604086013567ffffffffffffffff808211156105ef57600080fd5b6105fb89838a01610524565b9450606088013591508082111561061157600080fd5b5061061e88828901610524565b92505061062d608087016104bb565b90509295509295909350565b6000806040838503121561064c57600080fd5b8235915061065c602084016104bb565b90509250929050565b6000815180845260005b8181101561068b5760208185018101518683018201520161066f565b8181111561069d576000602083870101525b50601f01601f19169290920160200192915050565b6080815260006106c56080830187610665565b82810360208401526106d78187610665565b6001600160a01b0395861660408501529390941660609092019190915250939250505056fea26469706673582212205450a5c5ae548f8c0576f8d32f88b42cab675e40862ffb6d7f20b19f8f11dac064736f6c634300080a0033",
    "linkReferences": {}
  }
}