{
  "abi": [
    {
      "anonymous": false,
      "inputs": [
        {
          "indexed": true,
          "internalType": "address",
          "name": "owner",
          "type": "address"
        },
        {
          "indexed": true,
          "internalType": "address",
          "name": "spender",
          "type": "address"
        },
        {
          "indexed": true,
          "internalType": "uint256",
          "name": "id",
          "type": "uint256"
        }
      ],
      "name": "Approval",
      "type": "event"
    },
    {
      "anonymous": false,
      "inputs": [
        {
          "indexed": true,
          "internalType": "address",
          "name": "owner",
          "type": "address"
        },
        {
          "indexed": true,
          "internalType": "address",
          "name": "operator",
          "type": "address"
        },
        {
          "indexed": false,
          "internalType": "bool",
          "name": "approved",
          "type": "bool"
        }
      ],
      "name": "ApprovalForAll",
      "type": "event"
    },
    {
      "anonymous": false,
      "inputs": [
        {
          "indexed": true,
          "internalType": "address",
          "name": "from",
          "type": "address"
        },
        {
          "indexed": true,
          "internalType": "address",
          "name": "to",
          "type": "address"
        },
        {
          "indexed": true,
          "internalType": "uint256",
          "name": "id",
          "type": "uint256"
        }
      ],
      "name": "Transfer",
      "type": "event"
    },
    {
      "inputs": [
        {
          "internalType": "address",
          "name": "spender",
          "type": "address"
        },
        {
          "internalType": "uint256",
          "name": "id",
          "type": "uint256"
        }
      ],
      "name": "approve",
      "outputs": [],
      "stateMutability": "nonpayable",
      "type": "function"
    },
    {
      "inputs": [
        {
          "internalType": "address",
          "name": "",
          "type": "address"
        }
      ],
      "name": "balanceOf",
      "outputs": [
        {
          "internalType": "uint256",
          "name": "",
          "type": "uint256"
        }
      ],
      "stateMutability": "view",
      "type": "function"
    },
    {
      "inputs": [
        {
          "internalType": "string",
          "name": "_name",
          "type": "string"
        },
        {
          "internalType": "string",
          "name": "_symbol",
          "type": "string"
        },
        {
          "internalType": "address",
          "name": "_token",
          "type": "address"
        },
        {
          "internalType": "address",
          "name": "strategy",
          "type": "address"
        }
      ],
      "name": "baseInit",
      "outputs": [],
      "stateMutability": "nonpayable",
      "type": "function"
    },
    {
      "inputs": [
        {
          "internalType": "uint256",
          "name": "id",
          "type": "uint256"
        }
      ],
      "name": "burnNFTAndWithdrawl",
      "outputs": [],
      "stateMutability": "nonpayable",
      "type": "function"
    },
    {
      "inputs": [],
      "name": "currentId",
      "outputs": [
        {
          "internalType": "uint256",
          "name": "",
          "type": "uint256"
        }
      ],
      "stateMutability": "view",
      "type": "function"
    },
    {
      "inputs": [
        {
          "internalType": "uint256",
          "name": "amount",
          "type": "uint256"
        },
        {
          "internalType": "uint256",
          "name": "id",
          "type": "uint256"
        }
      ],
      "name": "depositToId",
      "outputs": [],
      "stateMutability": "nonpayable",
      "type": "function"
    },
    {
      "inputs": [
        {
          "internalType": "uint256",
          "name": "",
          "type": "uint256"
        }
      ],
      "name": "deposits",
      "outputs": [
        {
          "internalType": "uint256",
          "name": "amount",
          "type": "uint256"
        },
        {
          "internalType": "uint256",
          "name": "tracker",
          "type": "uint256"
        }
      ],
      "stateMutability": "view",
      "type": "function"
    },
    {
      "inputs": [],
      "name": "distributeYeild",
      "outputs": [],
      "stateMutability": "nonpayable",
      "type": "function"
    },
    {
      "inputs": [
        {
          "internalType": "uint256",
          "name": "",
          "type": "uint256"
        }
      ],
      "name": "getApproved",
      "outputs": [
        {
          "internalType": "address",
          "name": "",
          "type": "address"
        }
      ],
      "stateMutability": "view",
      "type": "function"
    },
    {
      "inputs": [
        {
          "internalType": "string",
          "name": "_name",
          "type": "string"
        },
        {
          "internalType": "string",
          "name": "_symbol",
          "type": "string"
        },
        {
          "internalType": "address",
          "name": "_token",
          "type": "address"
        },
        {
          "internalType": "address",
          "name": "strategy",
          "type": "address"
        },
        {
          "internalType": "uint16",
          "name": "_tokenPercent",
          "type": "uint16"
        },
        {
          "internalType": "address",
          "name": "_recipient",
          "type": "address"
        }
      ],
      "name": "init",
      "outputs": [],
      "stateMutability": "nonpayable",
      "type": "function"
    },
    {
      "inputs": [],
      "name": "initStrat",
      "outputs": [],
      "stateMutability": "nonpayable",
      "type": "function"
    },
    {
      "inputs": [
        {
          "internalType": "address",
          "name": "",
          "type": "address"
        },
        {
          "internalType": "address",
          "name": "",
          "type": "address"
        }
      ],
      "name": "isApprovedForAll",
      "outputs": [
        {
          "internalType": "bool",
          "name": "",
          "type": "bool"
        }
      ],
      "stateMutability": "view",
      "type": "function"
    },
    {
      "inputs": [
        {
          "internalType": "uint256",
          "name": "amount",
          "type": "uint256"
        }
      ],
      "name": "mintNewNft",
      "outputs": [
        {
          "internalType": "uint256",
          "name": "",
          "type": "uint256"
        }
      ],
      "stateMutability": "nonpayable",
      "type": "function"
    },
    {
      "inputs": [],
      "name": "name",
      "outputs": [
        {
          "internalType": "string",
          "name": "",
          "type": "string"
        }
      ],
      "stateMutability": "view",
      "type": "function"
    },
    {
      "inputs": [
        {
          "internalType": "uint256",
          "name": "",
          "type": "uint256"
        }
      ],
      "name": "ownerOf",
      "outputs": [
        {
          "internalType": "address",
          "name": "",
          "type": "address"
        }
      ],
      "stateMutability": "view",
      "type": "function"
    },
    {
      "inputs": [
        {
          "internalType": "address",
          "name": "operator",
          "type": "address"
        },
        {
          "internalType": "bool",
          "name": "approved",
          "type": "bool"
        }
      ],
      "name": "setApprovalForAll",
      "outputs": [],
      "stateMutability": "nonpayable",
      "type": "function"
    },
    {
      "inputs": [],
      "name": "strat",
      "outputs": [
        {
          "internalType": "contract IStrategy",
          "name": "",
          "type": "address"
        }
      ],
      "stateMutability": "view",
      "type": "function"
    },
    {
      "inputs": [
        {
          "internalType": "bytes4",
          "name": "interfaceId",
          "type": "bytes4"
        }
      ],
      "name": "supportsInterface",
      "outputs": [
        {
          "internalType": "bool",
          "name": "",
          "type": "bool"
        }
      ],
      "stateMutability": "pure",
      "type": "function"
    },
    {
      "inputs": [],
      "name": "symbol",
      "outputs": [
        {
          "internalType": "string",
          "name": "",
          "type": "string"
        }
      ],
      "stateMutability": "view",
      "type": "function"
    },
    {
      "inputs": [
        {
          "internalType": "uint256",
          "name": "id",
          "type": "uint256"
        }
      ],
      "name": "tokenURI",
      "outputs": [
        {
          "components": [
            {
              "internalType": "string",
              "name": "name",
              "type": "string"
            },
            {
              "internalType": "address",
              "name": "vaultAddress",
              "type": "address"
            },
            {
              "internalType": "uint256",
              "name": "withdrawable",
              "type": "uint256"
            },
            {
              "internalType": "uint256",
              "name": "id",
              "type": "uint256"
            },
            {
              "internalType": "uint256",
              "name": "vaultType",
              "type": "uint256"
            }
          ],
          "internalType": "struct BaseVault.MetaData",
          "name": "",
          "type": "tuple"
        }
      ],
      "stateMutability": "view",
      "type": "function"
    },
    {
      "inputs": [],
      "name": "totalDeposits",
      "outputs": [
        {
          "internalType": "uint256",
          "name": "",
          "type": "uint256"
        }
      ],
      "stateMutability": "view",
      "type": "function"
    },
    {
      "inputs": [
        {
          "internalType": "address",
          "name": "from",
          "type": "address"
        },
        {
          "internalType": "address",
          "name": "to",
          "type": "address"
        },
        {
          "internalType": "uint256",
          "name": "id",
          "type": "uint256"
        }
      ],
      "name": "transferFrom",
      "outputs": [],
      "stateMutability": "nonpayable",
      "type": "function"
    },
    {
      "inputs": [],
      "name": "vaultToken",
      "outputs": [
        {
          "internalType": "contract ERC20",
          "name": "",
          "type": "address"
        }
      ],
      "stateMutability": "view",
      "type": "function"
    },
    {
      "inputs": [
        {
          "internalType": "uint256",
          "name": "id",
          "type": "uint256"
        },
        {
          "internalType": "uint256",
          "name": "amount",
          "type": "uint256"
        }
      ],
      "name": "withdrawFromId",
      "outputs": [],
      "stateMutability": "nonpayable",
      "type": "function"
    },
    {
      "inputs": [
        {
          "internalType": "uint256",
          "name": "id",
          "type": "uint256"
        }
      ],
      "name": "withdrawableById",
      "outputs": [
        {
          "internalType": "uint256",
          "name": "claimId",
          "type": "uint256"
        }
      ],
      "stateMutability": "view",
      "type": "function"
    },
    {
      "inputs": [],
      "name": "withdrawlToRecipient",
      "outputs": [],
      "stateMutability": "nonpayable",
      "type": "function"
    },
    {
      "inputs": [],
      "name": "yeildPerDeposit",
      "outputs": [
        {
          "internalType": "uint256",
          "name": "",
          "type": "uint256"
        }
      ],
      "stateMutability": "view",
      "type": "function"
    },
    {
      "inputs": [],
      "name": "yieldForRecipient",
      "outputs": [
        {
          "internalType": "uint256",
          "name": "",
          "type": "uint256"
        }
      ],
      "stateMutability": "view",
      "type": "function"
    },
    {
      "inputs": [
        {
          "internalType": "uint256",
          "name": "id",
          "type": "uint256"
        }
      ],
      "name": "yieldPerId",
      "outputs": [
        {
          "internalType": "uint256",
          "name": "",
          "type": "uint256"
        }
      ],
      "stateMutability": "view",
      "type": "function"
    }
  ],
  "bytecode": {
    "object": "0x608060405234801561001057600080fd5b50611bfc806100206000396000f3fe608060405234801561001057600080fd5b50600436106101cf5760003560e01c8063703bafd511610104578063af6b0918116100a2578063ca1e3c8311610071578063ca1e3c831461041e578063e00dd16114610426578063e985e9c51461042f578063eaaf1fca1461045d57600080fd5b8063af6b0918146103b1578063b02c43d0146103b9578063c16845e7146103f5578063c87b56dd146103fe57600080fd5b806389f3dd37116100de57806389f3dd371461037a57806395d89b411461038d578063a22cb46514610395578063a2d6b25f146103a857600080fd5b8063703bafd51461033e57806370a08231146103515780637d8820971461037157600080fd5b806323b872dd1161017157806353914b571161014b57806353914b57146102dc5780636352211e146102ef5780636c9980e1146103185780636d43d9f11461032b57600080fd5b806323b872dd146102ae57806334d894c9146102c15780634b6d69d3146102c957600080fd5b8063081812fc116101ad578063081812fc1461023c578063095ea7b314610265578063159b49621461027a5780631ab2f6af1461028d57600080fd5b806301ffc9a7146101d4578063059b2a10146101fc57806306fdde0314610227575b600080fd5b6101e76101e23660046116f0565b610470565b60405190151581526020015b60405180910390f35b600e5461020f906001600160a01b031681565b6040516001600160a01b0390911681526020016101f3565b61022f6104c2565b6040516101f39190611767565b61020f61024a36600461177a565b6004602052600090815260409020546001600160a01b031681565b6102786102733660046117af565b610550565b005b6102786102883660046117d9565b610637565b6102a061029b36600461177a565b610645565b6040519081526020016101f3565b6102786102bc3660046117fb565b6106ab565b610278610872565b6102a06102d736600461177a565b610a10565b6102786102ea3660046118da565b610a1b565b61020f6102fd36600461177a565b6003602052600090815260409020546001600160a01b031681565b610278610326366004611988565b610a96565b6102a061033936600461177a565b610b1e565b600c5461020f906001600160a01b031681565b6102a061035f366004611a0d565b60026020526000908152604090205481565b6102a060085481565b61027861038836600461177a565b610b42565b61022f610b62565b6102786103a3366004611a36565b610b6f565b6102a060075481565b610278610bdb565b6103e06103c736600461177a565b6006602052600090815260409020805460019091015482565b604080519283526020830191909152016101f3565b6102a060115481565b61041161040c36600461177a565b610c63565b6040516101f39190611a6d565b610278610d60565b6102a0600f5481565b6101e761043d366004611ac5565b600560209081526000928352604080842090915290825290205460ff1681565b61027861046b3660046117d9565b610f38565b60006301ffc9a760e01b6001600160e01b0319831614806104a157506380ac58cd60e01b6001600160e01b03198316145b806104bc5750635b5e139f60e01b6001600160e01b03198316145b92915050565b600080546104cf90611af8565b80601f01602080910402602001604051908101604052809291908181526020018280546104fb90611af8565b80156105485780601f1061051d57610100808354040283529160200191610548565b820191906000526020600020905b81548152906001019060200180831161052b57829003601f168201915b505050505081565b6000818152600360205260409020546001600160a01b03163381148061059957506001600160a01b038116600090815260056020908152604080832033845290915290205460ff165b6105db5760405162461bcd60e51b815260206004820152600e60248201526d1393d517d055551213d49256915160921b60448201526064015b60405180910390fd5b60008281526004602052604080822080546001600160a01b0319166001600160a01b0387811691821790925591518593918516917f8c5be1e5ebec7d5bd14f71427d1e84f3dd0314c0f7b2291e5b200ac8c7c3b92591a4505050565b6106418282610f42565b5050565b600754600082815260066020526040812054909182916402540be4009161066b91611b49565b6106759190611b68565b60008481526006602052604090206001015490915061069a906402540be40090611b68565b6106a49082611b8a565b9392505050565b6000818152600360205260409020546001600160a01b038481169116146107015760405162461bcd60e51b815260206004820152600a60248201526957524f4e475f46524f4d60b01b60448201526064016105d2565b6001600160a01b03821661074b5760405162461bcd60e51b81526020600482015260116024820152701253959053125117d49150d25412515395607a1b60448201526064016105d2565b336001600160a01b038416148061077857506000818152600460205260409020546001600160a01b031633145b806107a657506001600160a01b038316600090815260056020908152604080832033845290915290205460ff165b6107e35760405162461bcd60e51b815260206004820152600e60248201526d1393d517d055551213d49256915160921b60448201526064016105d2565b6001600160a01b0380841660008181526002602090815260408083208054600019019055938616808352848320805460010190558583526003825284832080546001600160a01b03199081168317909155600490925284832080549092169091559251849392917fddf252ad1be2c89b69c2b068fc378daa952ba7f163c4a11628f55a4df523b3ef91a4505050565b600e546001600160a01b03166108b85760405162461bcd60e51b815260206004820152600b60248201526a4e6f20537472617465677960a81b60448201526064016105d2565b60006127106008546113886108cd9190611b49565b6108d79190611b68565b90506000600b54826108e99190611b8a565b905080600b60008282546108fd9190611ba1565b9250508190555080600a60008282546109169190611ba1565b92505081905550806009600082825461092f9190611b8a565b9091555050600c54600e5460405163095ea7b360e01b81526001600160a01b0391821660048201526024810184905291169063095ea7b3906044016020604051808303816000875af1158015610989573d6000803e3d6000fd5b505050506040513d601f19601f820116820180604052508101906109ad9190611bb9565b50600e5460405163b6b55f2560e01b8152600481018390526001600160a01b039091169063b6b55f2590602401600060405180830381600087803b1580156109f457600080fd5b505af1158015610a08573d6000803e3d6000fd5b505050505050565b60006104bc8261107d565b600d5415610a2857600080fd5b610a3486868686610a96565b6040805160608101825261ffff93909316808452600360208501526001600160a01b039290921692018290526010805463ffffffff19169091176203000017640100000000600160c01b03191664010000000090920291909117905550505050565b600d5415610adc5760405162461bcd60e51b8152602060048201526013602482015272105b1c9958591e48125b9a5d1a585b1a5e9959606a1b60448201526064016105d2565b610ae684846111a3565b600e80546001600160a01b039283166001600160a01b031991821617909155600c805493909216921691909117905550506001600d55565b6000610b2982610645565b6000838152600660205260409020546104bc9190611ba1565b6000610b4d82610b1e565b9050610b5981836111ca565b61064182611403565b600180546104cf90611af8565b3360008181526005602090815260408083206001600160a01b03871680855290835292819020805460ff191686151590811790915590519081529192917f17307eab39ab6107e8899845ad3d59bd9653f200f220920489ca2b5937696c31910160405180910390a35050565b600c5460105460115460405163a9059cbb60e01b81526001600160a01b0364010000000090930483166004820152602481019190915291169063a9059cbb906044016020604051808303816000875af1158015610c3c573d6000803e3d6000fd5b505050506040513d601f19601f82011682018060405250810190610c609190611bb9565b50565b610c9e6040518060a001604052806060815260200160006001600160a01b031681526020016000815260200160008152602001600081525090565b6040518060a0016040528060008054610cb690611af8565b80601f0160208091040260200160405190810160405280929190818152602001828054610ce290611af8565b8015610d2f5780601f10610d0457610100808354040283529160200191610d2f565b820191906000526020600020905b815481529060010190602001808311610d1257829003601f168201915b5050509183525050306020820152604001610d4984610b1e565b815260200183815260200160008152509050919050565b600954600c546040516370a0823160e01b8152306004820152600092916001600160a01b0316906370a0823190602401602060405180830381865afa158015610dad573d6000803e3d6000fd5b505050506040513d601f19601f82011682018060405250810190610dd19190611bd6565b610ddb9190611b8a565b90508060096000828254610def9190611ba1565b9091555050600e546000906001600160a01b0316610e0e576000610e92565b600a54600e60009054906101000a90046001600160a01b03166001600160a01b031663460ffdae6040518163ffffffff1660e01b8152600401602060405180830381865afa158015610e64573d6000803e3d6000fd5b505050506040513d601f19601f82011682018060405250810190610e889190611bd6565b610e929190611b8a565b905080600a6000828254610ea69190611ba1565b9091555060009050610eb88284611ba1565b60105490915060009061271090610ed39061ffff1684611b49565b610edd9190611b68565b90508060116000828254610ef19190611ba1565b9091555050600854610f038284611b8a565b610f12906402540be400611b49565b610f1c9190611b68565b60076000828254610f2d9190611ba1565b909155505050505050565b61064181836111ca565b6000818152600360205260409020546001600160a01b03163314610f6557600080fd5b60085415610f7557610f75610d60565b60008181526006602052604081208054849290610f93908490611ba1565b9091555050600754610fa59083611b49565b60008281526006602052604081206001018054909190610fc6908490611ba1565b925050819055508160086000828254610fdf9190611ba1565b925050819055508160096000828254610ff89190611ba1565b9091555050600c546040516323b872dd60e01b8152336004820152306024820152604481018490526001600160a01b03909116906323b872dd906064016020604051808303816000875af1158015611054573d6000803e3d6000fd5b505050506040513d601f19601f820116820180604052508101906110789190611bb9565b505050565b60008061109833600f600081546001019190508190556114d0565b600854909150156110ab576110ab610d60565b60008181526006602052604090208390556007546110c99084611b49565b600082815260066020526040812060010180549091906110ea908490611ba1565b9250508190555082600860008282546111039190611ba1565b92505081905550826009600082825461111c9190611ba1565b9091555050600c546040516323b872dd60e01b8152336004820152306024820152604481018590526001600160a01b03909116906323b872dd906064016020604051808303816000875af1158015611178573d6000803e3d6000fd5b505050506040513d601f19601f8201168201806040525081019061119c9190611bb9565b5092915050565b80516111b6906001906020840190611657565b508151611078906000906020850190611657565b6111d2610d60565b6000818152600360205260409020546001600160a01b03163314801561120057506111fc81610b1e565b8211155b61120957600080fd5b600c546040516370a0823160e01b81523060048201526000916001600160a01b0316906370a0823190602401602060405180830381865afa158015611252573d6000803e3d6000fd5b505050506040513d601f19601f820116820180604052508101906112769190611bd6565b905060008061128484610645565b90508085111561130c576112988186611b8a565b6000858152600660205260408120805492945084929091906112bb908490611b8a565b9250508190555081600860008282546112d49190611b8a565b90915550506007546000858152600660205260409020546112f59190611b49565b600085815260066020526040902060010155611342565b61131b856402540be400611b49565b6000858152600660205260408120600101805490919061133c908490611ba1565b90915550505b600083861161135257600061135c565b61135c8487611b8a565b905080156113855761136d816115df565b82600b600082825461137f9190611b8a565b90915550505b600c5460405163a9059cbb60e01b8152336004820152602481018890526001600160a01b039091169063a9059cbb906044016020604051808303816000875af11580156113d6573d6000803e3d6000fd5b505050506040513d601f19601f820116820180604052508101906113fa9190611bb9565b50505050505050565b6000818152600360205260409020546001600160a01b0316806114555760405162461bcd60e51b815260206004820152600a6024820152691393d517d3525395115160b21b60448201526064016105d2565b6001600160a01b038116600081815260026020908152604080832080546000190190558583526003825280832080546001600160a01b031990811690915560049092528083208054909216909155518492907fddf252ad1be2c89b69c2b068fc378daa952ba7f163c4a11628f55a4df523b3ef908390a45050565b60006001600160a01b03831661151c5760405162461bcd60e51b81526020600482015260116024820152701253959053125117d49150d25412515395607a1b60448201526064016105d2565b6000828152600360205260409020546001600160a01b0316156115725760405162461bcd60e51b815260206004820152600e60248201526d1053149150511657d3525395115160921b60448201526064016105d2565b6001600160a01b038316600081815260026020908152604080832080546001019055858352600390915280822080546001600160a01b0319168417905551849291907fddf252ad1be2c89b69c2b068fc378daa952ba7f163c4a11628f55a4df523b3ef908290a450919050565b600e54604051631c8901bb60e31b8152600481018390526001600160a01b039091169063e4480dd890602401600060405180830381600087803b15801561162557600080fd5b505af1158015611639573d6000803e3d6000fd5b5050505080600a600082825461164f9190611b8a565b909155505050565b82805461166390611af8565b90600052602060002090601f01602090048101928261168557600085556116cb565b82601f1061169e57805160ff19168380011785556116cb565b828001600101855582156116cb579182015b828111156116cb5782518255916020019190600101906116b0565b506116d79291506116db565b5090565b5b808211156116d757600081556001016116dc565b60006020828403121561170257600080fd5b81356001600160e01b0319811681146106a457600080fd5b6000815180845260005b8181101561174057602081850181015186830182015201611724565b81811115611752576000602083870101525b50601f01601f19169290920160200192915050565b6020815260006106a4602083018461171a565b60006020828403121561178c57600080fd5b5035919050565b80356001600160a01b03811681146117aa57600080fd5b919050565b600080604083850312156117c257600080fd5b6117cb83611793565b946020939093013593505050565b600080604083850312156117ec57600080fd5b50508035926020909101359150565b60008060006060848603121561181057600080fd5b61181984611793565b925061182760208501611793565b9150604084013590509250925092565b634e487b7160e01b600052604160045260246000fd5b600082601f83011261185e57600080fd5b813567ffffffffffffffff8082111561187957611879611837565b604051601f8301601f19908116603f011681019082821181831017156118a1576118a1611837565b816040528381528660208588010111156118ba57600080fd5b836020870160208301376000602085830101528094505050505092915050565b60008060008060008060c087890312156118f357600080fd5b863567ffffffffffffffff8082111561190b57600080fd5b6119178a838b0161184d565b9750602089013591508082111561192d57600080fd5b5061193a89828a0161184d565b95505061194960408801611793565b935061195760608801611793565b9250608087013561ffff8116811461196e57600080fd5b915061197c60a08801611793565b90509295509295509295565b6000806000806080858703121561199e57600080fd5b843567ffffffffffffffff808211156119b657600080fd5b6119c28883890161184d565b955060208701359150808211156119d857600080fd5b506119e58782880161184d565b9350506119f460408601611793565b9150611a0260608601611793565b905092959194509250565b600060208284031215611a1f57600080fd5b6106a482611793565b8015158114610c6057600080fd5b60008060408385031215611a4957600080fd5b611a5283611793565b91506020830135611a6281611a28565b809150509250929050565b602081526000825160a06020840152611a8960c084018261171a565b905060018060a01b0360208501511660408401526040840151606084015260608401516080840152608084015160a08401528091505092915050565b60008060408385031215611ad857600080fd5b611ae183611793565b9150611aef60208401611793565b90509250929050565b600181811c90821680611b0c57607f821691505b60208210811415611b2d57634e487b7160e01b600052602260045260246000fd5b50919050565b634e487b7160e01b600052601160045260246000fd5b6000816000190483118215151615611b6357611b63611b33565b500290565b600082611b8557634e487b7160e01b600052601260045260246000fd5b500490565b600082821015611b9c57611b9c611b33565b500390565b60008219821115611bb457611bb4611b33565b500190565b600060208284031215611bcb57600080fd5b81516106a481611a28565b600060208284031215611be857600080fd5b505191905056fea164736f6c634300080a000a",
    "linkReferences": {}
  }
}