{
  "abi": [
    {
      "type": "constructor",
      "inputs": [
        {
          "internalType": "address",
          "name": "_vaultToken",
          "type": "address"
        },
        {
          "internalType": "address",
          "name": "_recipient",
          "type": "address"
        },
        {
          "internalType": "uint16",
          "name": "_tokenPercent",
          "type": "uint16"
        },
        {
          "internalType": "string",
          "name": "name",
          "type": "string"
        },
        {
          "internalType": "string",
          "name": "symbol",
          "type": "string"
        }
      ]
    },
    {
      "type": "function",
      "name": "approve",
      "inputs": [
        {
          "internalType": "address",
          "name": "spender",
          "type": "address"
        },
        {
          "internalType": "uint256",
          "name": "id",
          "type": "uint256"
        }
      ],
      "outputs": [],
      "stateMutability": "nonpayable"
    },
    {
      "type": "function",
      "name": "balanceOf",
      "inputs": [
        {
          "internalType": "address",
          "name": "",
          "type": "address"
        }
      ],
      "outputs": [
        {
          "internalType": "uint256",
          "name": "",
          "type": "uint256"
        }
      ],
      "stateMutability": "view"
    },
    {
      "type": "function",
      "name": "burnNFTAndWithdrawl",
      "inputs": [
        {
          "internalType": "uint256",
          "name": "id",
          "type": "uint256"
        }
      ],
      "outputs": [],
      "stateMutability": "nonpayable"
    },
    {
      "type": "function",
      "name": "currentId",
      "inputs": [],
      "outputs": [
        {
          "internalType": "uint256",
          "name": "",
          "type": "uint256"
        }
      ],
      "stateMutability": "view"
    },
    {
      "type": "function",
      "name": "depositToId",
      "inputs": [
        {
          "internalType": "uint256",
          "name": "amount",
          "type": "uint256"
        },
        {
          "internalType": "uint256",
          "name": "id",
          "type": "uint256"
        }
      ],
      "outputs": [],
      "stateMutability": "nonpayable"
    },
    {
      "type": "function",
      "name": "deposits",
      "inputs": [
        {
          "internalType": "uint256",
          "name": "",
          "type": "uint256"
        }
      ],
      "outputs": [
        {
          "internalType": "uint256",
          "name": "amount",
          "type": "uint256"
        },
        {
          "internalType": "uint256",
          "name": "tracker",
          "type": "uint256"
        }
      ],
      "stateMutability": "view"
    },
    {
      "type": "function",
      "name": "distributeYeild",
      "inputs": [],
      "outputs": [],
      "stateMutability": "nonpayable"
    },
    {
      "type": "function",
      "name": "getApproved",
      "inputs": [
        {
          "internalType": "uint256",
          "name": "",
          "type": "uint256"
        }
      ],
      "outputs": [
        {
          "internalType": "address",
          "name": "",
          "type": "address"
        }
      ],
      "stateMutability": "view"
    },
    {
      "type": "function",
      "name": "initStrat",
      "inputs": [],
      "outputs": [],
      "stateMutability": "nonpayable"
    },
    {
      "type": "function",
      "name": "isApprovedForAll",
      "inputs": [
        {
          "internalType": "address",
          "name": "",
          "type": "address"
        },
        {
          "internalType": "address",
          "name": "",
          "type": "address"
        }
      ],
      "outputs": [
        {
          "internalType": "bool",
          "name": "",
          "type": "bool"
        }
      ],
      "stateMutability": "view"
    },
    {
      "type": "function",
      "name": "mintNewNft",
      "inputs": [
        {
          "internalType": "uint256",
          "name": "amount",
          "type": "uint256"
        }
      ],
      "outputs": [
        {
          "internalType": "uint256",
          "name": "",
          "type": "uint256"
        }
      ],
      "stateMutability": "nonpayable"
    },
    {
      "type": "function",
      "name": "name",
      "inputs": [],
      "outputs": [
        {
          "internalType": "string",
          "name": "",
          "type": "string"
        }
      ],
      "stateMutability": "view"
    },
    {
      "type": "function",
      "name": "ownerOf",
      "inputs": [
        {
          "internalType": "uint256",
          "name": "",
          "type": "uint256"
        }
      ],
      "outputs": [
        {
          "internalType": "address",
          "name": "",
          "type": "address"
        }
      ],
      "stateMutability": "view"
    },
    {
      "type": "function",
      "name": "setApprovalForAll",
      "inputs": [
        {
          "internalType": "address",
          "name": "operator",
          "type": "address"
        },
        {
          "internalType": "bool",
          "name": "approved",
          "type": "bool"
        }
      ],
      "outputs": [],
      "stateMutability": "nonpayable"
    },
    {
      "type": "function",
      "name": "setStrat",
      "inputs": [
        {
          "internalType": "address",
          "name": "addr",
          "type": "address"
        }
      ],
      "outputs": [],
      "stateMutability": "nonpayable"
    },
    {
      "type": "function",
      "name": "supportsInterface",
      "inputs": [
        {
          "internalType": "bytes4",
          "name": "interfaceId",
          "type": "bytes4"
        }
      ],
      "outputs": [
        {
          "internalType": "bool",
          "name": "",
          "type": "bool"
        }
      ],
      "stateMutability": "pure"
    },
    {
      "type": "function",
      "name": "symbol",
      "inputs": [],
      "outputs": [
        {
          "internalType": "string",
          "name": "",
          "type": "string"
        }
      ],
      "stateMutability": "view"
    },
    {
      "type": "function",
      "name": "tokenURI",
      "inputs": [
        {
          "internalType": "uint256",
          "name": "id",
          "type": "uint256"
        }
      ],
      "outputs": [
        {
          "internalType": "struct BaseVault.MetaData",
          "name": "",
          "type": "tuple",
          "components": [
            {
              "type": "string"
            },
            {
              "type": "address"
            },
            {
              "type": "uint256"
            },
            {
              "type": "uint256"
            },
            {
              "type": "uint256"
            }
          ]
        }
      ],
      "stateMutability": "view"
    },
    {
      "type": "function",
      "name": "totalDeposits",
      "inputs": [],
      "outputs": [
        {
          "internalType": "uint256",
          "name": "",
          "type": "uint256"
        }
      ],
      "stateMutability": "view"
    },
    {
      "type": "function",
      "name": "transferFrom",
      "inputs": [
        {
          "internalType": "address",
          "name": "from",
          "type": "address"
        },
        {
          "internalType": "address",
          "name": "to",
          "type": "address"
        },
        {
          "internalType": "uint256",
          "name": "id",
          "type": "uint256"
        }
      ],
      "outputs": [],
      "stateMutability": "nonpayable"
    },
    {
      "type": "function",
      "name": "withdrawFromId",
      "inputs": [
        {
          "internalType": "uint256",
          "name": "id",
          "type": "uint256"
        },
        {
          "internalType": "uint256",
          "name": "amount",
          "type": "uint256"
        }
      ],
      "outputs": [],
      "stateMutability": "nonpayable"
    },
    {
      "type": "function",
      "name": "withdrawableById",
      "inputs": [
        {
          "internalType": "uint256",
          "name": "id",
          "type": "uint256"
        }
      ],
      "outputs": [
        {
          "internalType": "uint256",
          "name": "claimId",
          "type": "uint256"
        }
      ],
      "stateMutability": "view"
    },
    {
      "type": "function",
      "name": "withdrawlToRecipient",
      "inputs": [],
      "outputs": [],
      "stateMutability": "nonpayable"
    },
    {
      "type": "function",
      "name": "yeildPerDeposit",
      "inputs": [],
      "outputs": [
        {
          "internalType": "uint256",
          "name": "",
          "type": "uint256"
        }
      ],
      "stateMutability": "view"
    },
    {
      "type": "function",
      "name": "yieldForRecipient",
      "inputs": [],
      "outputs": [
        {
          "internalType": "uint256",
          "name": "",
          "type": "uint256"
        }
      ],
      "stateMutability": "view"
    },
    {
      "type": "function",
      "name": "yieldPerId",
      "inputs": [
        {
          "internalType": "uint256",
          "name": "id",
          "type": "uint256"
        }
      ],
      "outputs": [
        {
          "internalType": "uint256",
          "name": "",
          "type": "uint256"
        }
      ],
      "stateMutability": "view"
    },
    {
      "type": "event",
      "name": "Approval",
      "inputs": [
        {
          "name": "owner",
          "type": "address",
          "indexed": true
        },
        {
          "name": "spender",
          "type": "address",
          "indexed": true
        },
        {
          "name": "id",
          "type": "uint256",
          "indexed": true
        }
      ],
      "anonymous": false
    },
    {
      "type": "event",
      "name": "ApprovalForAll",
      "inputs": [
        {
          "name": "owner",
          "type": "address",
          "indexed": true
        },
        {
          "name": "operator",
          "type": "address",
          "indexed": true
        },
        {
          "name": "approved",
          "type": "bool",
          "indexed": false
        }
      ],
      "anonymous": false
    },
    {
      "type": "event",
      "name": "Transfer",
      "inputs": [
        {
          "name": "from",
          "type": "address",
          "indexed": true
        },
        {
          "name": "to",
          "type": "address",
          "indexed": true
        },
        {
          "name": "id",
          "type": "uint256",
          "indexed": true
        }
      ],
      "anonymous": false
    }
  ],
  "bytecode": {
    "object": "0x60c060405260016003556402540be400600b553480156200001f57600080fd5b5060405162001cf538038062001cf5833981016040819052620000429162000275565b848282818181600090805190602001906200005f929190620000e5565b50805162000075906001906020840190620000e5565b505050506001600160a01b03918216608052503360a0526040805160608101825261ffff959095168086526003602087015295909116930183905250506010805463ffffffff19169092176203000017600160201b600160c01b031916640100000000909102179055506200035d565b828054620000f39062000320565b90600052602060002090601f01602090048101928262000117576000855562000162565b82601f106200013257805160ff191683800117855562000162565b8280016001018555821562000162579182015b828111156200016257825182559160200191906001019062000145565b506200017092915062000174565b5090565b5b8082111562000170576000815560010162000175565b80516001600160a01b0381168114620001a357600080fd5b919050565b634e487b7160e01b600052604160045260246000fd5b600082601f830112620001d057600080fd5b81516001600160401b0380821115620001ed57620001ed620001a8565b604051601f8301601f19908116603f01168101908282118183101715620002185762000218620001a8565b816040528381526020925086838588010111156200023557600080fd5b600091505b838210156200025957858201830151818301840152908201906200023a565b838211156200026b5760008385830101525b9695505050505050565b600080600080600060a086880312156200028e57600080fd5b62000299866200018b565b9450620002a9602087016200018b565b9350604086015161ffff81168114620002c157600080fd5b60608701519093506001600160401b0380821115620002df57600080fd5b620002ed89838a01620001be565b935060808801519150808211156200030457600080fd5b506200031388828901620001be565b9150509295509295909350565b600181811c908216806200033557607f821691505b602082108114156200035757634e487b7160e01b600052602260045260246000fd5b50919050565b60805160a051611948620003ad60003960006105d601526000818161094a01528181610b1a01528181610cab01528181610f670152818161109b01528181611166015261130b01526119486000f3fe608060405234801561001057600080fd5b506004361061018e5760003560e01c80637d882097116100de578063b02c43d011610097578063ca1e3c8311610071578063ca1e3c83146103a4578063e00dd161146103ac578063e985e9c5146103b5578063eaaf1fca146103e357600080fd5b8063b02c43d01461033f578063c16845e71461037b578063c87b56dd1461038457600080fd5b80637d882097146102f757806389f3dd371461030057806395d89b4114610313578063a22cb4651461031b578063a2d6b25f1461032e578063af6b09181461033757600080fd5b80631ab2f6af1161014b5780634b6d69d3116101255780634b6d69d3146102885780636352211e1461029b5780636d43d9f1146102c457806370a08231146102d757600080fd5b80631ab2f6af1461024c57806323b872dd1461026d57806334d894c91461028057600080fd5b806301ffc9a71461019357806306fdde03146101bb578063081812fc146101d0578063095ea7b314610211578063159b49621461022657806316cc3b0714610239575b600080fd5b6101a66101a13660046115e9565b6103f6565b60405190151581526020015b60405180910390f35b6101c3610448565b6040516101b29190611660565b6101f96101de366004611673565b6006602052600090815260409020546001600160a01b031681565b6040516001600160a01b0390911681526020016101b2565b61022461021f3660046116a8565b6104d6565b005b6102246102343660046116d2565b6105bd565b6102246102473660046116f4565b6105cb565b61025f61025a366004611673565b610637565b6040519081526020016101b2565b61022461027b36600461170f565b610698565b61022461085f565b61025f610296366004611673565b610a1c565b6101f96102a9366004611673565b6005602052600090815260409020546001600160a01b031681565b61025f6102d2366004611673565b610a27565b61025f6102e53660046116f4565b60046020526000908152604090205481565b61025f600a5481565b61022461030e366004611673565b610a4b565b6101c3610a6b565b610224610329366004611759565b610a78565b61025f60095481565b610224610ae4565b61036661034d366004611673565b6008602052600090815260409020805460019091015482565b604080519283526020830191909152016101b2565b61025f60115481565b610397610392366004611673565b610b8a565b6040516101b29190611790565b610224610c87565b61025f60035481565b6101a66103c33660046117e8565b600760209081526000928352604080842090915290825290205460ff1681565b6102246103f13660046116d2565b610e80565b60006301ffc9a760e01b6001600160e01b03198316148061042757506380ac58cd60e01b6001600160e01b03198316145b806104425750635b5e139f60e01b6001600160e01b03198316145b92915050565b600080546104559061181b565b80601f01602080910402602001604051908101604052809291908181526020018280546104819061181b565b80156104ce5780601f106104a3576101008083540402835291602001916104ce565b820191906000526020600020905b8154815290600101906020018083116104b157829003601f168201915b505050505081565b6000818152600560205260409020546001600160a01b03163381148061051f57506001600160a01b038116600090815260076020908152604080832033845290915290205460ff165b6105615760405162461bcd60e51b815260206004820152600e60248201526d1393d517d055551213d49256915160921b60448201526064015b60405180910390fd5b60008281526006602052604080822080546001600160a01b0319166001600160a01b0387811691821790925591518593918516917f8c5be1e5ebec7d5bd14f71427d1e84f3dd0314c0f7b2291e5b200ac8c7c3b92591a4505050565b6105c78282610e8a565b5050565b336001600160a01b037f00000000000000000000000000000000000000000000000000000000000000001614801561060c5750600f546001600160a01b0316155b61061557600080fd5b600f80546001600160a01b0319166001600160a01b0392909216919091179055565b600b5460095460008381526008602052604081205490928392909161065c919061186c565b610666919061188b565b600b546000858152600860205260409020600101549192506106879161188b565b61069190826118ad565b9392505050565b6000818152600560205260409020546001600160a01b038481169116146106ee5760405162461bcd60e51b815260206004820152600a60248201526957524f4e475f46524f4d60b01b6044820152606401610558565b6001600160a01b0382166107385760405162461bcd60e51b81526020600482015260116024820152701253959053125117d49150d25412515395607a1b6044820152606401610558565b336001600160a01b038416148061076557506000818152600660205260409020546001600160a01b031633145b8061079357506001600160a01b038316600090815260076020908152604080832033845290915290205460ff165b6107d05760405162461bcd60e51b815260206004820152600e60248201526d1393d517d055551213d49256915160921b6044820152606401610558565b6001600160a01b0380841660008181526004602090815260408083208054600019019055938616808352848320805460010190558583526005825284832080546001600160a01b03199081168317909155600690925284832080549092169091559251849392917fddf252ad1be2c89b69c2b068fc378daa952ba7f163c4a11628f55a4df523b3ef91a4505050565b600f546001600160a01b03166108a55760405162461bcd60e51b815260206004820152600b60248201526a4e6f20537472617465677960a81b6044820152606401610558565b6000612710600a546113886108ba919061186c565b6108c4919061188b565b90506000600e54826108d691906118ad565b905080600e60008282546108ea91906118c4565b9250508190555080600d600082825461090391906118c4565b9250508190555080600c600082825461091c91906118ad565b9091555050600f5460405163095ea7b360e01b81526001600160a01b039182166004820152602481018390527f00000000000000000000000000000000000000000000000000000000000000009091169063095ea7b3906044016020604051808303816000875af1158015610995573d6000803e3d6000fd5b505050506040513d601f19601f820116820180604052508101906109b991906118dc565b50600f5460405163b6b55f2560e01b8152600481018390526001600160a01b039091169063b6b55f2590602401600060405180830381600087803b158015610a0057600080fd5b505af1158015610a14573d6000803e3d6000fd5b505050505050565b600061044282610fe1565b6000610a3282610637565b60008381526008602052604090205461044291906118c4565b6000610a5682610a27565b9050610a628183611117565b6105c782611389565b600180546104559061181b565b3360008181526007602090815260408083206001600160a01b03871680855290835292819020805460ff191686151590811790915590519081529192917f17307eab39ab6107e8899845ad3d59bd9653f200f220920489ca2b5937696c31910160405180910390a35050565b60105460115460405163a9059cbb60e01b81526401000000009092046001600160a01b03908116600484015260248301919091527f0000000000000000000000000000000000000000000000000000000000000000169063a9059cbb906044016020604051808303816000875af1158015610b63573d6000803e3d6000fd5b505050506040513d601f19601f82011682018060405250810190610b8791906118dc565b50565b610bc56040518060a001604052806060815260200160006001600160a01b031681526020016000815260200160008152602001600081525090565b6040518060a0016040528060008054610bdd9061181b565b80601f0160208091040260200160405190810160405280929190818152602001828054610c099061181b565b8015610c565780601f10610c2b57610100808354040283529160200191610c56565b820191906000526020600020905b815481529060010190602001808311610c3957829003601f168201915b5050509183525050306020820152604001610c7084610a27565b815260200183815260200160008152509050919050565b600c546040516370a0823160e01b8152306004820152600091906001600160a01b037f000000000000000000000000000000000000000000000000000000000000000016906370a0823190602401602060405180830381865afa158015610cf2573d6000803e3d6000fd5b505050506040513d601f19601f82011682018060405250810190610d1691906118f9565b610d2091906118ad565b905080600c6000828254610d3491906118c4565b9091555050600f546000906001600160a01b0316610d53576000610dd7565b600d54600f60009054906101000a90046001600160a01b03166001600160a01b031663460ffdae6040518163ffffffff1660e01b8152600401602060405180830381865afa158015610da9573d6000803e3d6000fd5b505050506040513d601f19601f82011682018060405250810190610dcd91906118f9565b610dd791906118ad565b905080600d6000828254610deb91906118c4565b9091555060009050610dfd82846118c4565b60105490915060009061271090610e189061ffff168461186c565b610e22919061188b565b90506000610e3082846118ad565b90508160116000828254610e4491906118c4565b9091555050600a54600b54610e59908361186c565b610e63919061188b565b60096000828254610e7491906118c4565b90915550505050505050565b6105c78183611117565b6000818152600560205260409020546001600160a01b03163314610ead57600080fd5b600a5415610ebd57610ebd610c87565b60008181526008602052604081208054849290610edb9084906118c4565b9091555050600954610eed908361186c565b60008281526008602052604081206001018054909190610f0e9084906118c4565b9250508190555081600a6000828254610f2791906118c4565b9250508190555081600c6000828254610f4091906118c4565b90915550506040516323b872dd60e01b8152336004820152306024820152604481018390527f00000000000000000000000000000000000000000000000000000000000000006001600160a01b0316906323b872dd906064016020604051808303816000875af1158015610fb8573d6000803e3d6000fd5b505050506040513d601f19601f82011682018060405250810190610fdc91906118dc565b505050565b600080610ff033600354611456565b600a549091501561100357611003610c87565b6000818152600860205260409020839055600954611021908461186c565b600082815260086020526040812060010180549091906110429084906118c4565b9250508190555082600a600082825461105b91906118c4565b9250508190555082600c600082825461107491906118c4565b90915550506040516323b872dd60e01b8152336004820152306024820152604481018490527f00000000000000000000000000000000000000000000000000000000000000006001600160a01b0316906323b872dd906064016020604051808303816000875af11580156110ec573d6000803e3d6000fd5b505050506040513d601f19601f8201168201806040525081019061111091906118dc565b5092915050565b6000818152600560205260409020546001600160a01b031633148015611145575061114181610a27565b8211155b61114e57600080fd5b6040516370a0823160e01b81523060048201526000907f00000000000000000000000000000000000000000000000000000000000000006001600160a01b0316906370a0823190602401602060405180830381865afa1580156111b5573d6000803e3d6000fd5b505050506040513d601f19601f820116820180604052508101906111d991906118f9565b905060006111e5610c87565b60006111f084610637565b9050808511156112785761120481866118ad565b6000858152600860205260408120805492945084929091906112279084906118ad565b9250508190555081600a600082825461124091906118ad565b9091555050600954600085815260086020526040902054611261919061186c565b6000858152600860205260409020600101556112ac565b600b54611285908661186c565b600085815260086020526040812060010180549091906112a69084906118c4565b90915550505b60008386116112bc5760006112c6565b6112c684876118ad565b905080156112ef576112d781611571565b82600e60008282546112e991906118ad565b90915550505b60405163a9059cbb60e01b8152336004820152602481018790527f00000000000000000000000000000000000000000000000000000000000000006001600160a01b03169063a9059cbb906044016020604051808303816000875af115801561135c573d6000803e3d6000fd5b505050506040513d601f19601f8201168201806040525081019061138091906118dc565b50505050505050565b6000818152600560205260409020546001600160a01b0316806113db5760405162461bcd60e51b815260206004820152600a6024820152691393d517d3525395115160b21b6044820152606401610558565b6001600160a01b038116600081815260046020908152604080832080546000190190558583526005825280832080546001600160a01b031990811690915560069092528083208054909216909155518492907fddf252ad1be2c89b69c2b068fc378daa952ba7f163c4a11628f55a4df523b3ef908390a45050565b60006001600160a01b0383166114a25760405162461bcd60e51b81526020600482015260116024820152701253959053125117d49150d25412515395607a1b6044820152606401610558565b6000828152600560205260409020546001600160a01b0316156114f85760405162461bcd60e51b815260206004820152600e60248201526d1053149150511657d3525395115160921b6044820152606401610558565b6001600160a01b038316600081815260046020908152604080832080546001908101909155600380549091019055858352600590915280822080546001600160a01b0319168417905551849291907fddf252ad1be2c89b69c2b068fc378daa952ba7f163c4a11628f55a4df523b3ef908290a450919050565b600f54604051631c8901bb60e31b8152600481018390526001600160a01b039091169063e4480dd890602401600060405180830381600087803b1580156115b757600080fd5b505af11580156115cb573d6000803e3d6000fd5b5050505080600d60008282546115e191906118ad565b909155505050565b6000602082840312156115fb57600080fd5b81356001600160e01b03198116811461069157600080fd5b6000815180845260005b818110156116395760208185018101518683018201520161161d565b8181111561164b576000602083870101525b50601f01601f19169290920160200192915050565b6020815260006106916020830184611613565b60006020828403121561168557600080fd5b5035919050565b80356001600160a01b03811681146116a357600080fd5b919050565b600080604083850312156116bb57600080fd5b6116c48361168c565b946020939093013593505050565b600080604083850312156116e557600080fd5b50508035926020909101359150565b60006020828403121561170657600080fd5b6106918261168c565b60008060006060848603121561172457600080fd5b61172d8461168c565b925061173b6020850161168c565b9150604084013590509250925092565b8015158114610b8757600080fd5b6000806040838503121561176c57600080fd5b6117758361168c565b915060208301356117858161174b565b809150509250929050565b602081526000825160a060208401526117ac60c0840182611613565b905060018060a01b0360208501511660408401526040840151606084015260608401516080840152608084015160a08401528091505092915050565b600080604083850312156117fb57600080fd5b6118048361168c565b91506118126020840161168c565b90509250929050565b600181811c9082168061182f57607f821691505b6020821081141561185057634e487b7160e01b600052602260045260246000fd5b50919050565b634e487b7160e01b600052601160045260246000fd5b600081600019048311821515161561188657611886611856565b500290565b6000826118a857634e487b7160e01b600052601260045260246000fd5b500490565b6000828210156118bf576118bf611856565b500390565b600082198211156118d7576118d7611856565b500190565b6000602082840312156118ee57600080fd5b81516106918161174b565b60006020828403121561190b57600080fd5b505191905056fea26469706673582212203bf64ef5a0f2652c36f2659add9f409c80da119a8c3fb509d1faecfe2966ca9b64736f6c634300080a0033",
    "linkReferences": {}
  }
}