{
  "abi": [
    {
      "anonymous": false,
      "inputs": [
        {
          "indexed": true,
          "internalType": "address",
          "name": "owner",
          "type": "address"
        },
        {
          "indexed": true,
          "internalType": "address",
          "name": "spender",
          "type": "address"
        },
        {
          "indexed": true,
          "internalType": "uint256",
          "name": "id",
          "type": "uint256"
        }
      ],
      "name": "Approval",
      "type": "event"
    },
    {
      "anonymous": false,
      "inputs": [
        {
          "indexed": true,
          "internalType": "address",
          "name": "owner",
          "type": "address"
        },
        {
          "indexed": true,
          "internalType": "address",
          "name": "operator",
          "type": "address"
        },
        {
          "indexed": false,
          "internalType": "bool",
          "name": "approved",
          "type": "bool"
        }
      ],
      "name": "ApprovalForAll",
      "type": "event"
    },
    {
      "anonymous": false,
      "inputs": [
        {
          "indexed": true,
          "internalType": "address",
          "name": "from",
          "type": "address"
        },
        {
          "indexed": true,
          "internalType": "address",
          "name": "to",
          "type": "address"
        },
        {
          "indexed": true,
          "internalType": "uint256",
          "name": "id",
          "type": "uint256"
        }
      ],
      "name": "Transfer",
      "type": "event"
    },
    {
      "inputs": [
        {
          "internalType": "address",
          "name": "spender",
          "type": "address"
        },
        {
          "internalType": "uint256",
          "name": "id",
          "type": "uint256"
        }
      ],
      "name": "approve",
      "outputs": [],
      "stateMutability": "nonpayable",
      "type": "function"
    },
    {
      "inputs": [
        {
          "internalType": "address",
          "name": "",
          "type": "address"
        }
      ],
      "name": "balanceOf",
      "outputs": [
        {
          "internalType": "uint256",
          "name": "",
          "type": "uint256"
        }
      ],
      "stateMutability": "view",
      "type": "function"
    },
    {
      "inputs": [
        {
          "internalType": "string",
          "name": "_name",
          "type": "string"
        },
        {
          "internalType": "string",
          "name": "_symbol",
          "type": "string"
        },
        {
          "internalType": "address",
          "name": "_token",
          "type": "address"
        },
        {
          "internalType": "address",
          "name": "strategy",
          "type": "address"
        }
      ],
      "name": "baseInit",
      "outputs": [],
      "stateMutability": "nonpayable",
      "type": "function"
    },
    {
      "inputs": [
        {
          "internalType": "uint256",
          "name": "id",
          "type": "uint256"
        }
      ],
      "name": "burnNFTAndWithdrawl",
      "outputs": [],
      "stateMutability": "nonpayable",
      "type": "function"
    },
    {
      "inputs": [],
      "name": "currentId",
      "outputs": [
        {
          "internalType": "uint256",
          "name": "",
          "type": "uint256"
        }
      ],
      "stateMutability": "view",
      "type": "function"
    },
    {
      "inputs": [
        {
          "internalType": "uint256",
          "name": "amount",
          "type": "uint256"
        },
        {
          "internalType": "uint256",
          "name": "id",
          "type": "uint256"
        }
      ],
      "name": "depositToId",
      "outputs": [],
      "stateMutability": "nonpayable",
      "type": "function"
    },
    {
      "inputs": [
        {
          "internalType": "uint256",
          "name": "",
          "type": "uint256"
        }
      ],
      "name": "deposits",
      "outputs": [
        {
          "internalType": "uint256",
          "name": "amount",
          "type": "uint256"
        },
        {
          "internalType": "uint256",
          "name": "tracker",
          "type": "uint256"
        }
      ],
      "stateMutability": "view",
      "type": "function"
    },
    {
      "inputs": [],
      "name": "distributeYeild",
      "outputs": [],
      "stateMutability": "nonpayable",
      "type": "function"
    },
    {
      "inputs": [
        {
          "internalType": "uint256",
          "name": "",
          "type": "uint256"
        }
      ],
      "name": "getApproved",
      "outputs": [
        {
          "internalType": "address",
          "name": "",
          "type": "address"
        }
      ],
      "stateMutability": "view",
      "type": "function"
    },
    {
      "inputs": [
        {
          "internalType": "string",
          "name": "_name",
          "type": "string"
        },
        {
          "internalType": "string",
          "name": "_symbol",
          "type": "string"
        },
        {
          "internalType": "address",
          "name": "_token",
          "type": "address"
        },
        {
          "internalType": "address",
          "name": "strategy",
          "type": "address"
        },
        {
          "internalType": "uint16",
          "name": "_tokenPercent",
          "type": "uint16"
        },
        {
          "internalType": "address",
          "name": "_recipient",
          "type": "address"
        }
      ],
      "name": "init",
      "outputs": [],
      "stateMutability": "nonpayable",
      "type": "function"
    },
    {
      "inputs": [],
      "name": "initStrat",
      "outputs": [],
      "stateMutability": "nonpayable",
      "type": "function"
    },
    {
      "inputs": [
        {
          "internalType": "address",
          "name": "",
          "type": "address"
        },
        {
          "internalType": "address",
          "name": "",
          "type": "address"
        }
      ],
      "name": "isApprovedForAll",
      "outputs": [
        {
          "internalType": "bool",
          "name": "",
          "type": "bool"
        }
      ],
      "stateMutability": "view",
      "type": "function"
    },
    {
      "inputs": [
        {
          "internalType": "uint256",
          "name": "amount",
          "type": "uint256"
        }
      ],
      "name": "mintNewNft",
      "outputs": [
        {
          "internalType": "uint256",
          "name": "",
          "type": "uint256"
        }
      ],
      "stateMutability": "nonpayable",
      "type": "function"
    },
    {
      "inputs": [],
      "name": "name",
      "outputs": [
        {
          "internalType": "string",
          "name": "",
          "type": "string"
        }
      ],
      "stateMutability": "view",
      "type": "function"
    },
    {
      "inputs": [
        {
          "internalType": "uint256",
          "name": "",
          "type": "uint256"
        }
      ],
      "name": "ownerOf",
      "outputs": [
        {
          "internalType": "address",
          "name": "",
          "type": "address"
        }
      ],
      "stateMutability": "view",
      "type": "function"
    },
    {
      "inputs": [
        {
          "internalType": "address",
          "name": "operator",
          "type": "address"
        },
        {
          "internalType": "bool",
          "name": "approved",
          "type": "bool"
        }
      ],
      "name": "setApprovalForAll",
      "outputs": [],
      "stateMutability": "nonpayable",
      "type": "function"
    },
    {
      "inputs": [],
      "name": "strat",
      "outputs": [
        {
          "internalType": "contract IStrategy",
          "name": "",
          "type": "address"
        }
      ],
      "stateMutability": "view",
      "type": "function"
    },
    {
      "inputs": [
        {
          "internalType": "bytes4",
          "name": "interfaceId",
          "type": "bytes4"
        }
      ],
      "name": "supportsInterface",
      "outputs": [
        {
          "internalType": "bool",
          "name": "",
          "type": "bool"
        }
      ],
      "stateMutability": "pure",
      "type": "function"
    },
    {
      "inputs": [],
      "name": "symbol",
      "outputs": [
        {
          "internalType": "string",
          "name": "",
          "type": "string"
        }
      ],
      "stateMutability": "view",
      "type": "function"
    },
    {
      "inputs": [
        {
          "internalType": "uint256",
          "name": "id",
          "type": "uint256"
        }
      ],
      "name": "tokenURI",
      "outputs": [
        {
          "components": [
            {
              "internalType": "string",
              "name": "name",
              "type": "string"
            },
            {
              "internalType": "address",
              "name": "vaultAddress",
              "type": "address"
            },
            {
              "internalType": "uint256",
              "name": "withdrawable",
              "type": "uint256"
            },
            {
              "internalType": "uint256",
              "name": "id",
              "type": "uint256"
            },
            {
              "internalType": "uint256",
              "name": "vaultType",
              "type": "uint256"
            }
          ],
          "internalType": "struct BaseVault.MetaData",
          "name": "",
          "type": "tuple"
        }
      ],
      "stateMutability": "view",
      "type": "function"
    },
    {
      "inputs": [],
      "name": "totalDeposits",
      "outputs": [
        {
          "internalType": "uint256",
          "name": "",
          "type": "uint256"
        }
      ],
      "stateMutability": "view",
      "type": "function"
    },
    {
      "inputs": [
        {
          "internalType": "address",
          "name": "from",
          "type": "address"
        },
        {
          "internalType": "address",
          "name": "to",
          "type": "address"
        },
        {
          "internalType": "uint256",
          "name": "id",
          "type": "uint256"
        }
      ],
      "name": "transferFrom",
      "outputs": [],
      "stateMutability": "nonpayable",
      "type": "function"
    },
    {
      "inputs": [],
      "name": "vaultToken",
      "outputs": [
        {
          "internalType": "contract ERC20",
          "name": "",
          "type": "address"
        }
      ],
      "stateMutability": "view",
      "type": "function"
    },
    {
      "inputs": [
        {
          "internalType": "uint256",
          "name": "id",
          "type": "uint256"
        },
        {
          "internalType": "uint256",
          "name": "amount",
          "type": "uint256"
        }
      ],
      "name": "withdrawFromId",
      "outputs": [],
      "stateMutability": "nonpayable",
      "type": "function"
    },
    {
      "inputs": [
        {
          "internalType": "uint256",
          "name": "id",
          "type": "uint256"
        }
      ],
      "name": "withdrawableById",
      "outputs": [
        {
          "internalType": "uint256",
          "name": "claimId",
          "type": "uint256"
        }
      ],
      "stateMutability": "view",
      "type": "function"
    },
    {
      "inputs": [],
      "name": "withdrawlToRecipient",
      "outputs": [],
      "stateMutability": "nonpayable",
      "type": "function"
    },
    {
      "inputs": [],
      "name": "yeildPerDeposit",
      "outputs": [
        {
          "internalType": "uint256",
          "name": "",
          "type": "uint256"
        }
      ],
      "stateMutability": "view",
      "type": "function"
    },
    {
      "inputs": [],
      "name": "yieldForRecipient",
      "outputs": [
        {
          "internalType": "uint256",
          "name": "",
          "type": "uint256"
        }
      ],
      "stateMutability": "view",
      "type": "function"
    },
    {
      "inputs": [
        {
          "internalType": "uint256",
          "name": "id",
          "type": "uint256"
        }
      ],
      "name": "yieldPerId",
      "outputs": [
        {
          "internalType": "uint256",
          "name": "",
          "type": "uint256"
        }
      ],
      "stateMutability": "view",
      "type": "function"
    }
  ],
  "bytecode": {
    "object": "0x6080604052600160035534801561001557600080fd5b50611c2a806100256000396000f3fe608060405234801561001057600080fd5b50600436106101cf5760003560e01c8063703bafd511610104578063af6b0918116100a2578063ca1e3c8311610071578063ca1e3c831461041e578063e00dd16114610426578063e985e9c51461042f578063eaaf1fca1461045d57600080fd5b8063af6b0918146103b1578063b02c43d0146103b9578063c16845e7146103f5578063c87b56dd146103fe57600080fd5b806389f3dd37116100de57806389f3dd371461037a57806395d89b411461038d578063a22cb46514610395578063a2d6b25f146103a857600080fd5b8063703bafd51461033e57806370a08231146103515780637d8820971461037157600080fd5b806323b872dd1161017157806353914b571161014b57806353914b57146102dc5780636352211e146102ef5780636c9980e1146103185780636d43d9f11461032b57600080fd5b806323b872dd146102ae57806334d894c9146102c15780634b6d69d3146102c957600080fd5b8063081812fc116101ad578063081812fc1461023c578063095ea7b314610265578063159b49621461027a5780631ab2f6af1461028d57600080fd5b806301ffc9a7146101d4578063059b2a10146101fc57806306fdde0314610227575b600080fd5b6101e76101e23660046116f5565b610470565b60405190151581526020015b60405180910390f35b60105461020f906001600160a01b031681565b6040516001600160a01b0390911681526020016101f3565b61022f6104c2565b6040516101f3919061176c565b61020f61024a36600461177f565b6006602052600090815260409020546001600160a01b031681565b6102786102733660046117b4565b610550565b005b6102786102883660046117de565b610637565b6102a061029b36600461177f565b610645565b6040519081526020016101f3565b6102786102bc366004611800565b6106ab565b610278610872565b6102a06102d736600461177f565b610a10565b6102786102ea3660046118df565b610a1b565b61020f6102fd36600461177f565b6005602052600090815260409020546001600160a01b031681565b61027861032636600461198d565b610a96565b6102a061033936600461177f565b610b23565b600e5461020f906001600160a01b031681565b6102a061035f366004611a12565b60046020526000908152604090205481565b6102a0600a5481565b61027861038836600461177f565b610b47565b61022f610b67565b6102786103a3366004611a3b565b610b74565b6102a060095481565b610278610be0565b6103e06103c736600461177f565b6008602052600090815260409020805460019091015482565b604080519283526020830191909152016101f3565b6102a060125481565b61041161040c36600461177f565b610c68565b6040516101f39190611a72565b610278610d65565b6102a060035481565b6101e761043d366004611aca565b600760209081526000928352604080842090915290825290205460ff1681565b61027861046b3660046117de565b610f3d565b60006301ffc9a760e01b6001600160e01b0319831614806104a157506380ac58cd60e01b6001600160e01b03198316145b806104bc5750635b5e139f60e01b6001600160e01b03198316145b92915050565b600080546104cf90611afd565b80601f01602080910402602001604051908101604052809291908181526020018280546104fb90611afd565b80156105485780601f1061051d57610100808354040283529160200191610548565b820191906000526020600020905b81548152906001019060200180831161052b57829003601f168201915b505050505081565b6000818152600560205260409020546001600160a01b03163381148061059957506001600160a01b038116600090815260076020908152604080832033845290915290205460ff165b6105db5760405162461bcd60e51b815260206004820152600e60248201526d1393d517d055551213d49256915160921b60448201526064015b60405180910390fd5b60008281526006602052604080822080546001600160a01b0319166001600160a01b0387811691821790925591518593918516917f8c5be1e5ebec7d5bd14f71427d1e84f3dd0314c0f7b2291e5b200ac8c7c3b92591a4505050565b6106418282610f47565b5050565b600954600082815260086020526040812054909182916402540be4009161066b91611b4e565b6106759190611b6d565b60008481526008602052604090206001015490915061069a906402540be40090611b6d565b6106a49082611b8f565b9392505050565b6000818152600560205260409020546001600160a01b038481169116146107015760405162461bcd60e51b815260206004820152600a60248201526957524f4e475f46524f4d60b01b60448201526064016105d2565b6001600160a01b03821661074b5760405162461bcd60e51b81526020600482015260116024820152701253959053125117d49150d25412515395607a1b60448201526064016105d2565b336001600160a01b038416148061077857506000818152600660205260409020546001600160a01b031633145b806107a657506001600160a01b038316600090815260076020908152604080832033845290915290205460ff165b6107e35760405162461bcd60e51b815260206004820152600e60248201526d1393d517d055551213d49256915160921b60448201526064016105d2565b6001600160a01b0380841660008181526004602090815260408083208054600019019055938616808352848320805460010190558583526005825284832080546001600160a01b03199081168317909155600690925284832080549092169091559251849392917fddf252ad1be2c89b69c2b068fc378daa952ba7f163c4a11628f55a4df523b3ef91a4505050565b6010546001600160a01b03166108b85760405162461bcd60e51b815260206004820152600b60248201526a4e6f20537472617465677960a81b60448201526064016105d2565b6000612710600a546113886108cd9190611b4e565b6108d79190611b6d565b90506000600d54826108e99190611b8f565b905080600d60008282546108fd9190611ba6565b9250508190555080600c60008282546109169190611ba6565b9250508190555080600b600082825461092f9190611b8f565b9091555050600e5460105460405163095ea7b360e01b81526001600160a01b0391821660048201526024810184905291169063095ea7b3906044016020604051808303816000875af1158015610989573d6000803e3d6000fd5b505050506040513d601f19601f820116820180604052508101906109ad9190611bbe565b5060105460405163b6b55f2560e01b8152600481018390526001600160a01b039091169063b6b55f2590602401600060405180830381600087803b1580156109f457600080fd5b505af1158015610a08573d6000803e3d6000fd5b505050505050565b60006104bc82611082565b600f5415610a2857600080fd5b610a3486868686610a96565b6040805160608101825261ffff93909316808452600360208501526001600160a01b039290921692018290526011805463ffffffff19169091176203000017640100000000600160c01b03191664010000000090920291909117905550505050565b600f5415610adc5760405162461bcd60e51b8152602060048201526013602482015272105b1c9958591e48125b9a5d1a585b1a5e9959606a1b60448201526064016105d2565b610ae6848461119c565b601080546001600160a01b039283166001600160a01b031991821617909155600e8054939092169216919091179055505060016003819055600f55565b6000610b2e82610645565b6000838152600860205260409020546104bc9190611ba6565b6000610b5282610b23565b9050610b5e81836111c3565b610641826113fc565b600180546104cf90611afd565b3360008181526007602090815260408083206001600160a01b03871680855290835292819020805460ff191686151590811790915590519081529192917f17307eab39ab6107e8899845ad3d59bd9653f200f220920489ca2b5937696c31910160405180910390a35050565b600e5460115460125460405163a9059cbb60e01b81526001600160a01b0364010000000090930483166004820152602481019190915291169063a9059cbb906044016020604051808303816000875af1158015610c41573d6000803e3d6000fd5b505050506040513d601f19601f82011682018060405250810190610c659190611bbe565b50565b610ca36040518060a001604052806060815260200160006001600160a01b031681526020016000815260200160008152602001600081525090565b6040518060a0016040528060008054610cbb90611afd565b80601f0160208091040260200160405190810160405280929190818152602001828054610ce790611afd565b8015610d345780601f10610d0957610100808354040283529160200191610d34565b820191906000526020600020905b815481529060010190602001808311610d1757829003601f168201915b5050509183525050306020820152604001610d4e84610b23565b815260200183815260200160008152509050919050565b600b54600e546040516370a0823160e01b8152306004820152600092916001600160a01b0316906370a0823190602401602060405180830381865afa158015610db2573d6000803e3d6000fd5b505050506040513d601f19601f82011682018060405250810190610dd69190611bdb565b610de09190611b8f565b905080600b6000828254610df49190611ba6565b90915550506010546000906001600160a01b0316610e13576000610e97565b600c54601060009054906101000a90046001600160a01b03166001600160a01b031663460ffdae6040518163ffffffff1660e01b8152600401602060405180830381865afa158015610e69573d6000803e3d6000fd5b505050506040513d601f19601f82011682018060405250810190610e8d9190611bdb565b610e979190611b8f565b905080600c6000828254610eab9190611ba6565b9091555060009050610ebd8284611ba6565b60115490915060009061271090610ed89061ffff1684611b4e565b610ee29190611b6d565b90508060126000828254610ef69190611ba6565b9091555050600a54610f088284611b8f565b610f17906402540be400611b4e565b610f219190611b6d565b60096000828254610f329190611ba6565b909155505050505050565b61064181836111c3565b6000818152600560205260409020546001600160a01b03163314610f6a57600080fd5b600a5415610f7a57610f7a610d65565b60008181526008602052604081208054849290610f98908490611ba6565b9091555050600954610faa9083611b4e565b60008281526008602052604081206001018054909190610fcb908490611ba6565b9250508190555081600a6000828254610fe49190611ba6565b9250508190555081600b6000828254610ffd9190611ba6565b9091555050600e546040516323b872dd60e01b8152336004820152306024820152604481018490526001600160a01b03909116906323b872dd906064016020604051808303816000875af1158015611059573d6000803e3d6000fd5b505050506040513d601f19601f8201168201806040525081019061107d9190611bbe565b505050565b600080611091336003546114c9565b600a54909150156110a4576110a4610d65565b60008181526008602052604090208390556009546110c29084611b4e565b600082815260086020526040812060010180549091906110e3908490611ba6565b9250508190555082600a60008282546110fc9190611ba6565b9250508190555082600b60008282546111159190611ba6565b9091555050600e546040516323b872dd60e01b8152336004820152306024820152604481018590526001600160a01b03909116906323b872dd906064016020604051808303816000875af1158015611171573d6000803e3d6000fd5b505050506040513d601f19601f820116820180604052508101906111959190611bbe565b5092915050565b80516111af90600190602084019061165c565b50815161107d90600090602085019061165c565b6111cb610d65565b6000818152600560205260409020546001600160a01b0316331480156111f957506111f581610b23565b8211155b61120257600080fd5b600e546040516370a0823160e01b81523060048201526000916001600160a01b0316906370a0823190602401602060405180830381865afa15801561124b573d6000803e3d6000fd5b505050506040513d601f19601f8201168201806040525081019061126f9190611bdb565b905060008061127d84610645565b905080851115611305576112918186611b8f565b6000858152600860205260408120805492945084929091906112b4908490611b8f565b9250508190555081600a60008282546112cd9190611b8f565b90915550506009546000858152600860205260409020546112ee9190611b4e565b60008581526008602052604090206001015561133b565b611314856402540be400611b4e565b60008581526008602052604081206001018054909190611335908490611ba6565b90915550505b600083861161134b576000611355565b6113558487611b8f565b9050801561137e57611366816115e4565b82600d60008282546113789190611b8f565b90915550505b600e5460405163a9059cbb60e01b8152336004820152602481018890526001600160a01b039091169063a9059cbb906044016020604051808303816000875af11580156113cf573d6000803e3d6000fd5b505050506040513d601f19601f820116820180604052508101906113f39190611bbe565b50505050505050565b6000818152600560205260409020546001600160a01b03168061144e5760405162461bcd60e51b815260206004820152600a6024820152691393d517d3525395115160b21b60448201526064016105d2565b6001600160a01b038116600081815260046020908152604080832080546000190190558583526005825280832080546001600160a01b031990811690915560069092528083208054909216909155518492907fddf252ad1be2c89b69c2b068fc378daa952ba7f163c4a11628f55a4df523b3ef908390a45050565b60006001600160a01b0383166115155760405162461bcd60e51b81526020600482015260116024820152701253959053125117d49150d25412515395607a1b60448201526064016105d2565b6000828152600560205260409020546001600160a01b03161561156b5760405162461bcd60e51b815260206004820152600e60248201526d1053149150511657d3525395115160921b60448201526064016105d2565b6001600160a01b038316600081815260046020908152604080832080546001908101909155600380549091019055858352600590915280822080546001600160a01b0319168417905551849291907fddf252ad1be2c89b69c2b068fc378daa952ba7f163c4a11628f55a4df523b3ef908290a450919050565b601054604051631c8901bb60e31b8152600481018390526001600160a01b039091169063e4480dd890602401600060405180830381600087803b15801561162a57600080fd5b505af115801561163e573d6000803e3d6000fd5b5050505080600c60008282546116549190611b8f565b909155505050565b82805461166890611afd565b90600052602060002090601f01602090048101928261168a57600085556116d0565b82601f106116a357805160ff19168380011785556116d0565b828001600101855582156116d0579182015b828111156116d05782518255916020019190600101906116b5565b506116dc9291506116e0565b5090565b5b808211156116dc57600081556001016116e1565b60006020828403121561170757600080fd5b81356001600160e01b0319811681146106a457600080fd5b6000815180845260005b8181101561174557602081850181015186830182015201611729565b81811115611757576000602083870101525b50601f01601f19169290920160200192915050565b6020815260006106a4602083018461171f565b60006020828403121561179157600080fd5b5035919050565b80356001600160a01b03811681146117af57600080fd5b919050565b600080604083850312156117c757600080fd5b6117d083611798565b946020939093013593505050565b600080604083850312156117f157600080fd5b50508035926020909101359150565b60008060006060848603121561181557600080fd5b61181e84611798565b925061182c60208501611798565b9150604084013590509250925092565b634e487b7160e01b600052604160045260246000fd5b600082601f83011261186357600080fd5b813567ffffffffffffffff8082111561187e5761187e61183c565b604051601f8301601f19908116603f011681019082821181831017156118a6576118a661183c565b816040528381528660208588010111156118bf57600080fd5b836020870160208301376000602085830101528094505050505092915050565b60008060008060008060c087890312156118f857600080fd5b863567ffffffffffffffff8082111561191057600080fd5b61191c8a838b01611852565b9750602089013591508082111561193257600080fd5b5061193f89828a01611852565b95505061194e60408801611798565b935061195c60608801611798565b9250608087013561ffff8116811461197357600080fd5b915061198160a08801611798565b90509295509295509295565b600080600080608085870312156119a357600080fd5b843567ffffffffffffffff808211156119bb57600080fd5b6119c788838901611852565b955060208701359150808211156119dd57600080fd5b506119ea87828801611852565b9350506119f960408601611798565b9150611a0760608601611798565b905092959194509250565b600060208284031215611a2457600080fd5b6106a482611798565b8015158114610c6557600080fd5b60008060408385031215611a4e57600080fd5b611a5783611798565b91506020830135611a6781611a2d565b809150509250929050565b602081526000825160a06020840152611a8e60c084018261171f565b905060018060a01b0360208501511660408401526040840151606084015260608401516080840152608084015160a08401528091505092915050565b60008060408385031215611add57600080fd5b611ae683611798565b9150611af460208401611798565b90509250929050565b600181811c90821680611b1157607f821691505b60208210811415611b3257634e487b7160e01b600052602260045260246000fd5b50919050565b634e487b7160e01b600052601160045260246000fd5b6000816000190483118215151615611b6857611b68611b38565b500290565b600082611b8a57634e487b7160e01b600052601260045260246000fd5b500490565b600082821015611ba157611ba1611b38565b500390565b60008219821115611bb957611bb9611b38565b500190565b600060208284031215611bd057600080fd5b81516106a481611a2d565b600060208284031215611bed57600080fd5b505191905056fea264697066735822122055e7f25966232b53c1074c26852dd4d9a888f142e9902054e758c62ec29aad9364736f6c634300080a0033",
    "linkReferences": {}
  }
}