{
  "abi": [
    {
      "anonymous": false,
      "inputs": [
        {
          "indexed": true,
          "internalType": "address",
          "name": "owner",
          "type": "address"
        },
        {
          "indexed": true,
          "internalType": "address",
          "name": "spender",
          "type": "address"
        },
        {
          "indexed": true,
          "internalType": "uint256",
          "name": "id",
          "type": "uint256"
        }
      ],
      "name": "Approval",
      "type": "event"
    },
    {
      "anonymous": false,
      "inputs": [
        {
          "indexed": true,
          "internalType": "address",
          "name": "owner",
          "type": "address"
        },
        {
          "indexed": true,
          "internalType": "address",
          "name": "operator",
          "type": "address"
        },
        {
          "indexed": false,
          "internalType": "bool",
          "name": "approved",
          "type": "bool"
        }
      ],
      "name": "ApprovalForAll",
      "type": "event"
    },
    {
      "anonymous": false,
      "inputs": [
        {
          "indexed": true,
          "internalType": "address",
          "name": "from",
          "type": "address"
        },
        {
          "indexed": true,
          "internalType": "address",
          "name": "to",
          "type": "address"
        },
        {
          "indexed": true,
          "internalType": "uint256",
          "name": "id",
          "type": "uint256"
        }
      ],
      "name": "Transfer",
      "type": "event"
    },
    {
      "inputs": [
        {
          "internalType": "address",
          "name": "spender",
          "type": "address"
        },
        {
          "internalType": "uint256",
          "name": "id",
          "type": "uint256"
        }
      ],
      "name": "approve",
      "outputs": [],
      "stateMutability": "nonpayable",
      "type": "function"
    },
    {
      "inputs": [
        {
          "internalType": "address",
          "name": "",
          "type": "address"
        }
      ],
      "name": "balanceOf",
      "outputs": [
        {
          "internalType": "uint256",
          "name": "",
          "type": "uint256"
        }
      ],
      "stateMutability": "view",
      "type": "function"
    },
    {
      "inputs": [
        {
          "internalType": "string",
          "name": "_name",
          "type": "string"
        },
        {
          "internalType": "string",
          "name": "_symbol",
          "type": "string"
        },
        {
          "internalType": "address",
          "name": "_token",
          "type": "address"
        },
        {
          "internalType": "address",
          "name": "strategy",
          "type": "address"
        }
      ],
      "name": "baseInit",
      "outputs": [],
      "stateMutability": "nonpayable",
      "type": "function"
    },
    {
      "inputs": [
        {
          "internalType": "uint256",
          "name": "id",
          "type": "uint256"
        }
      ],
      "name": "burnNFTAndWithdrawl",
      "outputs": [],
      "stateMutability": "nonpayable",
      "type": "function"
    },
    {
      "inputs": [],
      "name": "currentId",
      "outputs": [
        {
          "internalType": "uint256",
          "name": "",
          "type": "uint256"
        }
      ],
      "stateMutability": "view",
      "type": "function"
    },
    {
      "inputs": [
        {
          "internalType": "uint256",
          "name": "amount",
          "type": "uint256"
        },
        {
          "internalType": "uint256",
          "name": "id",
          "type": "uint256"
        }
      ],
      "name": "depositToId",
      "outputs": [],
      "stateMutability": "nonpayable",
      "type": "function"
    },
    {
      "inputs": [
        {
          "internalType": "uint256",
          "name": "",
          "type": "uint256"
        }
      ],
      "name": "deposits",
      "outputs": [
        {
          "internalType": "uint256",
          "name": "amount",
          "type": "uint256"
        },
        {
          "internalType": "uint256",
          "name": "tracker",
          "type": "uint256"
        }
      ],
      "stateMutability": "view",
      "type": "function"
    },
    {
      "inputs": [],
      "name": "distributeYeild",
      "outputs": [],
      "stateMutability": "nonpayable",
      "type": "function"
    },
    {
      "inputs": [
        {
          "internalType": "uint256",
          "name": "",
          "type": "uint256"
        }
      ],
      "name": "getApproved",
      "outputs": [
        {
          "internalType": "address",
          "name": "",
          "type": "address"
        }
      ],
      "stateMutability": "view",
      "type": "function"
    },
    {
      "inputs": [
        {
          "internalType": "string",
          "name": "_name",
          "type": "string"
        },
        {
          "internalType": "string",
          "name": "_symbol",
          "type": "string"
        },
        {
          "internalType": "address",
          "name": "_token",
          "type": "address"
        },
        {
          "internalType": "address",
          "name": "strategy",
          "type": "address"
        }
      ],
      "name": "init",
      "outputs": [],
      "stateMutability": "nonpayable",
      "type": "function"
    },
    {
      "inputs": [],
      "name": "initStrat",
      "outputs": [],
      "stateMutability": "nonpayable",
      "type": "function"
    },
    {
      "inputs": [
        {
          "internalType": "address",
          "name": "",
          "type": "address"
        },
        {
          "internalType": "address",
          "name": "",
          "type": "address"
        }
      ],
      "name": "isApprovedForAll",
      "outputs": [
        {
          "internalType": "bool",
          "name": "",
          "type": "bool"
        }
      ],
      "stateMutability": "view",
      "type": "function"
    },
    {
      "inputs": [
        {
          "internalType": "uint256",
          "name": "amount",
          "type": "uint256"
        }
      ],
      "name": "mintNewNft",
      "outputs": [
        {
          "internalType": "uint256",
          "name": "",
          "type": "uint256"
        }
      ],
      "stateMutability": "nonpayable",
      "type": "function"
    },
    {
      "inputs": [],
      "name": "name",
      "outputs": [
        {
          "internalType": "string",
          "name": "",
          "type": "string"
        }
      ],
      "stateMutability": "view",
      "type": "function"
    },
    {
      "inputs": [
        {
          "internalType": "uint256",
          "name": "",
          "type": "uint256"
        }
      ],
      "name": "ownerOf",
      "outputs": [
        {
          "internalType": "address",
          "name": "",
          "type": "address"
        }
      ],
      "stateMutability": "view",
      "type": "function"
    },
    {
      "inputs": [
        {
          "internalType": "uint256",
          "name": "amount",
          "type": "uint256"
        }
      ],
      "name": "returnManagedFunds",
      "outputs": [],
      "stateMutability": "nonpayable",
      "type": "function"
    },
    {
      "inputs": [
        {
          "internalType": "address",
          "name": "operator",
          "type": "address"
        },
        {
          "internalType": "bool",
          "name": "approved",
          "type": "bool"
        }
      ],
      "name": "setApprovalForAll",
      "outputs": [],
      "stateMutability": "nonpayable",
      "type": "function"
    },
    {
      "inputs": [],
      "name": "strat",
      "outputs": [
        {
          "internalType": "contract IStrategy",
          "name": "",
          "type": "address"
        }
      ],
      "stateMutability": "view",
      "type": "function"
    },
    {
      "inputs": [
        {
          "internalType": "bytes4",
          "name": "interfaceId",
          "type": "bytes4"
        }
      ],
      "name": "supportsInterface",
      "outputs": [
        {
          "internalType": "bool",
          "name": "",
          "type": "bool"
        }
      ],
      "stateMutability": "pure",
      "type": "function"
    },
    {
      "inputs": [],
      "name": "symbol",
      "outputs": [
        {
          "internalType": "string",
          "name": "",
          "type": "string"
        }
      ],
      "stateMutability": "view",
      "type": "function"
    },
    {
      "inputs": [
        {
          "internalType": "uint256",
          "name": "id",
          "type": "uint256"
        }
      ],
      "name": "tokenURI",
      "outputs": [
        {
          "components": [
            {
              "internalType": "string",
              "name": "name",
              "type": "string"
            },
            {
              "internalType": "address",
              "name": "vaultAddress",
              "type": "address"
            },
            {
              "internalType": "uint256",
              "name": "withdrawable",
              "type": "uint256"
            },
            {
              "internalType": "uint256",
              "name": "id",
              "type": "uint256"
            },
            {
              "internalType": "uint256",
              "name": "vaultType",
              "type": "uint256"
            }
          ],
          "internalType": "struct BaseVault.MetaData",
          "name": "",
          "type": "tuple"
        }
      ],
      "stateMutability": "view",
      "type": "function"
    },
    {
      "inputs": [],
      "name": "totalDeposits",
      "outputs": [
        {
          "internalType": "uint256",
          "name": "",
          "type": "uint256"
        }
      ],
      "stateMutability": "view",
      "type": "function"
    },
    {
      "inputs": [
        {
          "internalType": "address",
          "name": "from",
          "type": "address"
        },
        {
          "internalType": "address",
          "name": "to",
          "type": "address"
        },
        {
          "internalType": "uint256",
          "name": "id",
          "type": "uint256"
        }
      ],
      "name": "transferFrom",
      "outputs": [],
      "stateMutability": "nonpayable",
      "type": "function"
    },
    {
      "inputs": [],
      "name": "vaultToken",
      "outputs": [
        {
          "internalType": "contract ERC20",
          "name": "",
          "type": "address"
        }
      ],
      "stateMutability": "view",
      "type": "function"
    },
    {
      "inputs": [
        {
          "internalType": "uint256",
          "name": "id",
          "type": "uint256"
        },
        {
          "internalType": "uint256",
          "name": "amount",
          "type": "uint256"
        }
      ],
      "name": "withdrawFromId",
      "outputs": [],
      "stateMutability": "nonpayable",
      "type": "function"
    },
    {
      "inputs": [
        {
          "internalType": "uint256",
          "name": "id",
          "type": "uint256"
        }
      ],
      "name": "withdrawableById",
      "outputs": [
        {
          "internalType": "uint256",
          "name": "",
          "type": "uint256"
        }
      ],
      "stateMutability": "view",
      "type": "function"
    },
    {
      "inputs": [],
      "name": "yeildPerDeposit",
      "outputs": [
        {
          "internalType": "uint256",
          "name": "",
          "type": "uint256"
        }
      ],
      "stateMutability": "view",
      "type": "function"
    },
    {
      "inputs": [
        {
          "internalType": "uint256",
          "name": "id",
          "type": "uint256"
        }
      ],
      "name": "yieldPerId",
      "outputs": [
        {
          "internalType": "uint256",
          "name": "",
          "type": "uint256"
        }
      ],
      "stateMutability": "view",
      "type": "function"
    }
  ],
  "bytecode": {
    "object": "0x608060405234801561001057600080fd5b50611ae6806100206000396000f3fe608060405234801561001057600080fd5b50600436106101c45760003560e01c80636d43d9f1116100f9578063a2d6b25f11610097578063ca1e3c8311610071578063ca1e3c8314610415578063e00dd1611461041d578063e985e9c514610426578063eaaf1fca1461045457600080fd5b8063a2d6b25f146103b0578063b02c43d0146103b9578063c87b56dd146103f557600080fd5b80637d882097116100d35780637d8820971461037957806389f3dd371461038257806395d89b4114610395578063a22cb4651461039d57600080fd5b80636d43d9f114610333578063703bafd51461034657806370a082311461035957600080fd5b80631ab2f6af116101665780634b6d69d3116101405780634b6d69d3146102d15780634fad28a7146102e45780636352211e146102f75780636c9980e11461032057600080fd5b80631ab2f6af1461029557806323b872dd146102b657806334d894c9146102c957600080fd5b8063081812fc116101a2578063081812fc14610231578063095ea7b31461025a5780630e07f8541461026f578063159b49621461028257600080fd5b806301ffc9a7146101c9578063059b2a10146101f157806306fdde031461021c575b600080fd5b6101dc6101d7366004611685565b610467565b60405190151581526020015b60405180910390f35b600e54610204906001600160a01b031681565b6040516001600160a01b0390911681526020016101e8565b6102246104b9565b6040516101e891906116fc565b61020461023f36600461170f565b6004602052600090815260409020546001600160a01b031681565b61026d610268366004611744565b610547565b005b61026d61027d366004611811565b61062e565b61026d610290366004611896565b610640565b6102a86102a336600461170f565b61064e565b6040519081526020016101e8565b61026d6102c43660046118b8565b6106b4565b61026d61087b565b6102a86102df36600461170f565b610a19565b61026d6102f236600461170f565b610a24565b61020461030536600461170f565b6003602052600090815260409020546001600160a01b031681565b61026d61032e366004611811565b610acf565b6102a861034136600461170f565b610b57565b600c54610204906001600160a01b031681565b6102a86103673660046118f4565b60026020526000908152604090205481565b6102a860085481565b61026d61039036600461170f565b610bac565b610224610bcc565b61026d6103ab366004611920565b610bd9565b6102a860075481565b6103e06103c736600461170f565b6006602052600090815260409020805460019091015482565b604080519283526020830191909152016101e8565b61040861040336600461170f565b610c45565b6040516101e89190611957565b61026d610d42565b6102a8600f5481565b6101dc6104343660046119af565b600560209081526000928352604080842090915290825290205460ff1681565b61026d610462366004611896565b610ecd565b60006301ffc9a760e01b6001600160e01b03198316148061049857506380ac58cd60e01b6001600160e01b03198316145b806104b35750635b5e139f60e01b6001600160e01b03198316145b92915050565b600080546104c6906119e2565b80601f01602080910402602001604051908101604052809291908181526020018280546104f2906119e2565b801561053f5780601f106105145761010080835404028352916020019161053f565b820191906000526020600020905b81548152906001019060200180831161052257829003601f168201915b505050505081565b6000818152600360205260409020546001600160a01b03163381148061059057506001600160a01b038116600090815260056020908152604080832033845290915290205460ff165b6105d25760405162461bcd60e51b815260206004820152600e60248201526d1393d517d055551213d49256915160921b60448201526064015b60405180910390fd5b60008281526004602052604080822080546001600160a01b0319166001600160a01b0387811691821790925591518593918516917f8c5be1e5ebec7d5bd14f71427d1e84f3dd0314c0f7b2291e5b200ac8c7c3b92591a4505050565b61063a84848484610acf565b50505050565b61064a8282610ed7565b5050565b600754600082815260066020526040812054909182916402540be4009161067491611a33565b61067e9190611a52565b6000848152600660205260409020600101549091506106a3906402540be40090611a52565b6106ad9082611a74565b9392505050565b6000818152600360205260409020546001600160a01b0384811691161461070a5760405162461bcd60e51b815260206004820152600a60248201526957524f4e475f46524f4d60b01b60448201526064016105c9565b6001600160a01b0382166107545760405162461bcd60e51b81526020600482015260116024820152701253959053125117d49150d25412515395607a1b60448201526064016105c9565b336001600160a01b038416148061078157506000818152600460205260409020546001600160a01b031633145b806107af57506001600160a01b038316600090815260056020908152604080832033845290915290205460ff165b6107ec5760405162461bcd60e51b815260206004820152600e60248201526d1393d517d055551213d49256915160921b60448201526064016105c9565b6001600160a01b0380841660008181526002602090815260408083208054600019019055938616808352848320805460010190558583526003825284832080546001600160a01b03199081168317909155600490925284832080549092169091559251849392917fddf252ad1be2c89b69c2b068fc378daa952ba7f163c4a11628f55a4df523b3ef91a4505050565b600e546001600160a01b03166108c15760405162461bcd60e51b815260206004820152600b60248201526a4e6f20537472617465677960a81b60448201526064016105c9565b60006127106008546113886108d69190611a33565b6108e09190611a52565b90506000600b54826108f29190611a74565b905080600b60008282546109069190611a8b565b9250508190555080600a600082825461091f9190611a8b565b9250508190555080600960008282546109389190611a74565b9091555050600c54600e5460405163095ea7b360e01b81526001600160a01b0391821660048201526024810184905291169063095ea7b3906044016020604051808303816000875af1158015610992573d6000803e3d6000fd5b505050506040513d601f19601f820116820180604052508101906109b69190611aa3565b50600e5460405163b6b55f2560e01b8152600481018390526001600160a01b039091169063b6b55f2590602401600060405180830381600087803b1580156109fd57600080fd5b505af1158015610a11573d6000803e3d6000fd5b505050505050565b60006104b382611012565b8060096000828254610a369190611a8b565b925050819055508060106000828254610a4f9190611a74565b9091555050600c546040516323b872dd60e01b8152336004820152306024820152604481018390526001600160a01b03909116906323b872dd906064016020604051808303816000875af1158015610aab573d6000803e3d6000fd5b505050506040513d601f19601f8201168201806040525081019061064a9190611aa3565b600d5415610b155760405162461bcd60e51b8152602060048201526013602482015272105b1c9958591e48125b9a5d1a585b1a5e9959606a1b60448201526064016105c9565b610b1f8484611138565b600e80546001600160a01b039283166001600160a01b031991821617909155600c805493909216921691909117905550506001600d55565b6000610b628261064e565b600854600084815260066020526040902054601054600b54610b849084611a8b565b610b8e9190611a74565b610b989190611a33565b610ba29190611a52565b6104b39190611a8b565b6000610bb782610b57565b9050610bc3818361115f565b61064a82611398565b600180546104c6906119e2565b3360008181526005602090815260408083206001600160a01b03871680855290835292819020805460ff191686151590811790915590519081529192917f17307eab39ab6107e8899845ad3d59bd9653f200f220920489ca2b5937696c31910160405180910390a35050565b610c806040518060a001604052806060815260200160006001600160a01b031681526020016000815260200160008152602001600081525090565b6040518060a0016040528060008054610c98906119e2565b80601f0160208091040260200160405190810160405280929190818152602001828054610cc4906119e2565b8015610d115780601f10610ce657610100808354040283529160200191610d11565b820191906000526020600020905b815481529060010190602001808311610cf457829003601f168201915b5050509183525050306020820152604001610d2b84610b57565b815260200183815260200160008152509050919050565b600954600c546040516370a0823160e01b8152306004820152600092916001600160a01b0316906370a0823190602401602060405180830381865afa158015610d8f573d6000803e3d6000fd5b505050506040513d601f19601f82011682018060405250810190610db39190611ac0565b610dbd9190611a74565b90508060096000828254610dd19190611a8b565b9091555050600e546000906001600160a01b0316610df0576000610e74565b600a54600e60009054906101000a90046001600160a01b03166001600160a01b031663460ffdae6040518163ffffffff1660e01b8152600401602060405180830381865afa158015610e46573d6000803e3d6000fd5b505050506040513d601f19601f82011682018060405250810190610e6a9190611ac0565b610e749190611a74565b905080600a6000828254610e889190611a8b565b9091555050600854610e9a8284611a8b565b610ea9906402540be400611a33565b610eb39190611a52565b60076000828254610ec49190611a8b565b90915550505050565b61064a818361115f565b6000818152600360205260409020546001600160a01b03163314610efa57600080fd5b60085415610f0a57610f0a610d42565b60008181526006602052604081208054849290610f28908490611a8b565b9091555050600754610f3a9083611a33565b60008281526006602052604081206001018054909190610f5b908490611a8b565b925050819055508160086000828254610f749190611a8b565b925050819055508160096000828254610f8d9190611a8b565b9091555050600c546040516323b872dd60e01b8152336004820152306024820152604481018490526001600160a01b03909116906323b872dd906064016020604051808303816000875af1158015610fe9573d6000803e3d6000fd5b505050506040513d601f19601f8201168201806040525081019061100d9190611aa3565b505050565b60008061102d33600f60008154600101919050819055611465565b6008549091501561104057611040610d42565b600081815260066020526040902083905560075461105e9084611a33565b6000828152600660205260408120600101805490919061107f908490611a8b565b9250508190555082600860008282546110989190611a8b565b9250508190555082600960008282546110b19190611a8b565b9091555050600c546040516323b872dd60e01b8152336004820152306024820152604481018590526001600160a01b03909116906323b872dd906064016020604051808303816000875af115801561110d573d6000803e3d6000fd5b505050506040513d601f19601f820116820180604052508101906111319190611aa3565b5092915050565b805161114b9060019060208401906115ec565b50815161100d9060009060208501906115ec565b611167610d42565b6000818152600360205260409020546001600160a01b031633148015611195575061119181610b57565b8211155b61119e57600080fd5b600c546040516370a0823160e01b81523060048201526000916001600160a01b0316906370a0823190602401602060405180830381865afa1580156111e7573d6000803e3d6000fd5b505050506040513d601f19601f8201168201806040525081019061120b9190611ac0565b90506000806112198461064e565b9050808511156112a15761122d8186611a74565b600085815260066020526040812080549294508492909190611250908490611a74565b9250508190555081600860008282546112699190611a74565b909155505060075460008581526006602052604090205461128a9190611a33565b6000858152600660205260409020600101556112d7565b6112b0856402540be400611a33565b600085815260066020526040812060010180549091906112d1908490611a8b565b90915550505b60008386116112e75760006112f1565b6112f18487611a74565b9050801561131a5761130281611574565b82600b60008282546113149190611a74565b90915550505b600c5460405163a9059cbb60e01b8152336004820152602481018890526001600160a01b039091169063a9059cbb906044016020604051808303816000875af115801561136b573d6000803e3d6000fd5b505050506040513d601f19601f8201168201806040525081019061138f9190611aa3565b50505050505050565b6000818152600360205260409020546001600160a01b0316806113ea5760405162461bcd60e51b815260206004820152600a6024820152691393d517d3525395115160b21b60448201526064016105c9565b6001600160a01b038116600081815260026020908152604080832080546000190190558583526003825280832080546001600160a01b031990811690915560049092528083208054909216909155518492907fddf252ad1be2c89b69c2b068fc378daa952ba7f163c4a11628f55a4df523b3ef908390a45050565b60006001600160a01b0383166114b15760405162461bcd60e51b81526020600482015260116024820152701253959053125117d49150d25412515395607a1b60448201526064016105c9565b6000828152600360205260409020546001600160a01b0316156115075760405162461bcd60e51b815260206004820152600e60248201526d1053149150511657d3525395115160921b60448201526064016105c9565b6001600160a01b038316600081815260026020908152604080832080546001019055858352600390915280822080546001600160a01b0319168417905551849291907fddf252ad1be2c89b69c2b068fc378daa952ba7f163c4a11628f55a4df523b3ef908290a450919050565b600e54604051631c8901bb60e31b8152600481018390526001600160a01b039091169063e4480dd890602401600060405180830381600087803b1580156115ba57600080fd5b505af11580156115ce573d6000803e3d6000fd5b5050505080600a60008282546115e49190611a74565b909155505050565b8280546115f8906119e2565b90600052602060002090601f01602090048101928261161a5760008555611660565b82601f1061163357805160ff1916838001178555611660565b82800160010185558215611660579182015b82811115611660578251825591602001919060010190611645565b5061166c929150611670565b5090565b5b8082111561166c5760008155600101611671565b60006020828403121561169757600080fd5b81356001600160e01b0319811681146106ad57600080fd5b6000815180845260005b818110156116d5576020818501810151868301820152016116b9565b818111156116e7576000602083870101525b50601f01601f19169290920160200192915050565b6020815260006106ad60208301846116af565b60006020828403121561172157600080fd5b5035919050565b80356001600160a01b038116811461173f57600080fd5b919050565b6000806040838503121561175757600080fd5b61176083611728565b946020939093013593505050565b634e487b7160e01b600052604160045260246000fd5b600082601f83011261179557600080fd5b813567ffffffffffffffff808211156117b0576117b061176e565b604051601f8301601f19908116603f011681019082821181831017156117d8576117d861176e565b816040528381528660208588010111156117f157600080fd5b836020870160208301376000602085830101528094505050505092915050565b6000806000806080858703121561182757600080fd5b843567ffffffffffffffff8082111561183f57600080fd5b61184b88838901611784565b9550602087013591508082111561186157600080fd5b5061186e87828801611784565b93505061187d60408601611728565b915061188b60608601611728565b905092959194509250565b600080604083850312156118a957600080fd5b50508035926020909101359150565b6000806000606084860312156118cd57600080fd5b6118d684611728565b92506118e460208501611728565b9150604084013590509250925092565b60006020828403121561190657600080fd5b6106ad82611728565b801515811461191d57600080fd5b50565b6000806040838503121561193357600080fd5b61193c83611728565b9150602083013561194c8161190f565b809150509250929050565b602081526000825160a0602084015261197360c08401826116af565b905060018060a01b0360208501511660408401526040840151606084015260608401516080840152608084015160a08401528091505092915050565b600080604083850312156119c257600080fd5b6119cb83611728565b91506119d960208401611728565b90509250929050565b600181811c908216806119f657607f821691505b60208210811415611a1757634e487b7160e01b600052602260045260246000fd5b50919050565b634e487b7160e01b600052601160045260246000fd5b6000816000190483118215151615611a4d57611a4d611a1d565b500290565b600082611a6f57634e487b7160e01b600052601260045260246000fd5b500490565b600082821015611a8657611a86611a1d565b500390565b60008219821115611a9e57611a9e611a1d565b500190565b600060208284031215611ab557600080fd5b81516106ad8161190f565b600060208284031215611ad257600080fd5b505191905056fea164736f6c634300080a000a",
    "linkReferences": {}
  }
}