{
  "abi": [
    {
      "anonymous": false,
      "inputs": [
        {
          "indexed": true,
          "internalType": "address",
          "name": "owner",
          "type": "address"
        },
        {
          "indexed": true,
          "internalType": "address",
          "name": "spender",
          "type": "address"
        },
        {
          "indexed": true,
          "internalType": "uint256",
          "name": "id",
          "type": "uint256"
        }
      ],
      "name": "Approval",
      "type": "event"
    },
    {
      "anonymous": false,
      "inputs": [
        {
          "indexed": true,
          "internalType": "address",
          "name": "owner",
          "type": "address"
        },
        {
          "indexed": true,
          "internalType": "address",
          "name": "operator",
          "type": "address"
        },
        {
          "indexed": false,
          "internalType": "bool",
          "name": "approved",
          "type": "bool"
        }
      ],
      "name": "ApprovalForAll",
      "type": "event"
    },
    {
      "anonymous": false,
      "inputs": [
        {
          "indexed": true,
          "internalType": "address",
          "name": "from",
          "type": "address"
        },
        {
          "indexed": true,
          "internalType": "address",
          "name": "to",
          "type": "address"
        },
        {
          "indexed": true,
          "internalType": "uint256",
          "name": "id",
          "type": "uint256"
        }
      ],
      "name": "Transfer",
      "type": "event"
    },
    {
      "inputs": [
        {
          "internalType": "address",
          "name": "spender",
          "type": "address"
        },
        {
          "internalType": "uint256",
          "name": "id",
          "type": "uint256"
        }
      ],
      "name": "approve",
      "outputs": [],
      "stateMutability": "nonpayable",
      "type": "function"
    },
    {
      "inputs": [
        {
          "internalType": "address",
          "name": "",
          "type": "address"
        }
      ],
      "name": "balanceOf",
      "outputs": [
        {
          "internalType": "uint256",
          "name": "",
          "type": "uint256"
        }
      ],
      "stateMutability": "view",
      "type": "function"
    },
    {
      "inputs": [
        {
          "internalType": "string",
          "name": "_name",
          "type": "string"
        },
        {
          "internalType": "string",
          "name": "_symbol",
          "type": "string"
        },
        {
          "internalType": "address",
          "name": "_token",
          "type": "address"
        },
        {
          "internalType": "address",
          "name": "strategy",
          "type": "address"
        }
      ],
      "name": "baseInit",
      "outputs": [],
      "stateMutability": "nonpayable",
      "type": "function"
    },
    {
      "inputs": [
        {
          "internalType": "uint256",
          "name": "id",
          "type": "uint256"
        }
      ],
      "name": "burnNFTAndWithdrawl",
      "outputs": [],
      "stateMutability": "nonpayable",
      "type": "function"
    },
    {
      "inputs": [],
      "name": "currentId",
      "outputs": [
        {
          "internalType": "uint256",
          "name": "",
          "type": "uint256"
        }
      ],
      "stateMutability": "view",
      "type": "function"
    },
    {
      "inputs": [
        {
          "internalType": "uint256",
          "name": "amount",
          "type": "uint256"
        },
        {
          "internalType": "uint256",
          "name": "id",
          "type": "uint256"
        }
      ],
      "name": "depositToId",
      "outputs": [],
      "stateMutability": "nonpayable",
      "type": "function"
    },
    {
      "inputs": [
        {
          "internalType": "uint256",
          "name": "",
          "type": "uint256"
        }
      ],
      "name": "deposits",
      "outputs": [
        {
          "internalType": "uint256",
          "name": "amount",
          "type": "uint256"
        },
        {
          "internalType": "uint256",
          "name": "tracker",
          "type": "uint256"
        }
      ],
      "stateMutability": "view",
      "type": "function"
    },
    {
      "inputs": [],
      "name": "distributeYeild",
      "outputs": [],
      "stateMutability": "nonpayable",
      "type": "function"
    },
    {
      "inputs": [
        {
          "internalType": "uint256",
          "name": "",
          "type": "uint256"
        }
      ],
      "name": "getApproved",
      "outputs": [
        {
          "internalType": "address",
          "name": "",
          "type": "address"
        }
      ],
      "stateMutability": "view",
      "type": "function"
    },
    {
      "inputs": [
        {
          "internalType": "string",
          "name": "_name",
          "type": "string"
        },
        {
          "internalType": "string",
          "name": "_symbol",
          "type": "string"
        },
        {
          "internalType": "address",
          "name": "_token",
          "type": "address"
        },
        {
          "internalType": "address",
          "name": "strategy",
          "type": "address"
        }
      ],
      "name": "init",
      "outputs": [],
      "stateMutability": "nonpayable",
      "type": "function"
    },
    {
      "inputs": [],
      "name": "initStrat",
      "outputs": [],
      "stateMutability": "nonpayable",
      "type": "function"
    },
    {
      "inputs": [
        {
          "internalType": "address",
          "name": "",
          "type": "address"
        },
        {
          "internalType": "address",
          "name": "",
          "type": "address"
        }
      ],
      "name": "isApprovedForAll",
      "outputs": [
        {
          "internalType": "bool",
          "name": "",
          "type": "bool"
        }
      ],
      "stateMutability": "view",
      "type": "function"
    },
    {
      "inputs": [
        {
          "internalType": "uint256",
          "name": "amount",
          "type": "uint256"
        }
      ],
      "name": "mintNewNft",
      "outputs": [
        {
          "internalType": "uint256",
          "name": "",
          "type": "uint256"
        }
      ],
      "stateMutability": "nonpayable",
      "type": "function"
    },
    {
      "inputs": [],
      "name": "name",
      "outputs": [
        {
          "internalType": "string",
          "name": "",
          "type": "string"
        }
      ],
      "stateMutability": "view",
      "type": "function"
    },
    {
      "inputs": [
        {
          "internalType": "uint256",
          "name": "",
          "type": "uint256"
        }
      ],
      "name": "ownerOf",
      "outputs": [
        {
          "internalType": "address",
          "name": "",
          "type": "address"
        }
      ],
      "stateMutability": "view",
      "type": "function"
    },
    {
      "inputs": [
        {
          "internalType": "uint256",
          "name": "amount",
          "type": "uint256"
        }
      ],
      "name": "returnManagedFunds",
      "outputs": [],
      "stateMutability": "nonpayable",
      "type": "function"
    },
    {
      "inputs": [
        {
          "internalType": "address",
          "name": "operator",
          "type": "address"
        },
        {
          "internalType": "bool",
          "name": "approved",
          "type": "bool"
        }
      ],
      "name": "setApprovalForAll",
      "outputs": [],
      "stateMutability": "nonpayable",
      "type": "function"
    },
    {
      "inputs": [],
      "name": "strat",
      "outputs": [
        {
          "internalType": "contract IStrategy",
          "name": "",
          "type": "address"
        }
      ],
      "stateMutability": "view",
      "type": "function"
    },
    {
      "inputs": [
        {
          "internalType": "bytes4",
          "name": "interfaceId",
          "type": "bytes4"
        }
      ],
      "name": "supportsInterface",
      "outputs": [
        {
          "internalType": "bool",
          "name": "",
          "type": "bool"
        }
      ],
      "stateMutability": "pure",
      "type": "function"
    },
    {
      "inputs": [],
      "name": "symbol",
      "outputs": [
        {
          "internalType": "string",
          "name": "",
          "type": "string"
        }
      ],
      "stateMutability": "view",
      "type": "function"
    },
    {
      "inputs": [
        {
          "internalType": "uint256",
          "name": "id",
          "type": "uint256"
        }
      ],
      "name": "tokenURI",
      "outputs": [
        {
          "components": [
            {
              "internalType": "string",
              "name": "name",
              "type": "string"
            },
            {
              "internalType": "address",
              "name": "vaultAddress",
              "type": "address"
            },
            {
              "internalType": "uint256",
              "name": "withdrawable",
              "type": "uint256"
            },
            {
              "internalType": "uint256",
              "name": "id",
              "type": "uint256"
            },
            {
              "internalType": "uint256",
              "name": "vaultType",
              "type": "uint256"
            }
          ],
          "internalType": "struct BaseVault.MetaData",
          "name": "",
          "type": "tuple"
        }
      ],
      "stateMutability": "view",
      "type": "function"
    },
    {
      "inputs": [],
      "name": "totalDeposits",
      "outputs": [
        {
          "internalType": "uint256",
          "name": "",
          "type": "uint256"
        }
      ],
      "stateMutability": "view",
      "type": "function"
    },
    {
      "inputs": [
        {
          "internalType": "address",
          "name": "from",
          "type": "address"
        },
        {
          "internalType": "address",
          "name": "to",
          "type": "address"
        },
        {
          "internalType": "uint256",
          "name": "id",
          "type": "uint256"
        }
      ],
      "name": "transferFrom",
      "outputs": [],
      "stateMutability": "nonpayable",
      "type": "function"
    },
    {
      "inputs": [],
      "name": "vaultToken",
      "outputs": [
        {
          "internalType": "contract ERC20",
          "name": "",
          "type": "address"
        }
      ],
      "stateMutability": "view",
      "type": "function"
    },
    {
      "inputs": [
        {
          "internalType": "uint256",
          "name": "id",
          "type": "uint256"
        },
        {
          "internalType": "uint256",
          "name": "amount",
          "type": "uint256"
        }
      ],
      "name": "withdrawFromId",
      "outputs": [],
      "stateMutability": "nonpayable",
      "type": "function"
    },
    {
      "inputs": [
        {
          "internalType": "uint256",
          "name": "id",
          "type": "uint256"
        }
      ],
      "name": "withdrawableById",
      "outputs": [
        {
          "internalType": "uint256",
          "name": "",
          "type": "uint256"
        }
      ],
      "stateMutability": "view",
      "type": "function"
    },
    {
      "inputs": [],
      "name": "yeildPerDeposit",
      "outputs": [
        {
          "internalType": "uint256",
          "name": "",
          "type": "uint256"
        }
      ],
      "stateMutability": "view",
      "type": "function"
    },
    {
      "inputs": [
        {
          "internalType": "uint256",
          "name": "id",
          "type": "uint256"
        }
      ],
      "name": "yieldPerId",
      "outputs": [
        {
          "internalType": "uint256",
          "name": "",
          "type": "uint256"
        }
      ],
      "stateMutability": "view",
      "type": "function"
    }
  ],
  "bytecode": {
    "object": "0x6080604052600160035534801561001557600080fd5b50611ad6806100256000396000f3fe608060405234801561001057600080fd5b50600436106101c45760003560e01c80636d43d9f1116100f9578063a2d6b25f11610097578063ca1e3c8311610071578063ca1e3c8314610415578063e00dd1611461041d578063e985e9c514610426578063eaaf1fca1461045457600080fd5b8063a2d6b25f146103b0578063b02c43d0146103b9578063c87b56dd146103f557600080fd5b80637d882097116100d35780637d8820971461037957806389f3dd371461038257806395d89b4114610395578063a22cb4651461039d57600080fd5b80636d43d9f114610333578063703bafd51461034657806370a082311461035957600080fd5b80631ab2f6af116101665780634b6d69d3116101405780634b6d69d3146102d15780634fad28a7146102e45780636352211e146102f75780636c9980e11461032057600080fd5b80631ab2f6af1461029557806323b872dd146102b657806334d894c9146102c957600080fd5b8063081812fc116101a2578063081812fc14610231578063095ea7b31461025a5780630e07f8541461026f578063159b49621461028257600080fd5b806301ffc9a7146101c9578063059b2a10146101f157806306fdde031461021c575b600080fd5b6101dc6101d736600461164c565b610467565b60405190151581526020015b60405180910390f35b601054610204906001600160a01b031681565b6040516001600160a01b0390911681526020016101e8565b6102246104b9565b6040516101e891906116c3565b61020461023f3660046116d6565b6006602052600090815260409020546001600160a01b031681565b61026d61026836600461170b565b610547565b005b61026d61027d3660046117d8565b61062e565b61026d61029036600461185d565b610640565b6102a86102a33660046116d6565b61064e565b6040519081526020016101e8565b61026d6102c436600461187f565b6106b4565b61026d61087b565b6102a86102df3660046116d6565b610a19565b61026d6102f23660046116d6565b610a24565b6102046103053660046116d6565b6005602052600090815260409020546001600160a01b031681565b61026d61032e3660046117d8565b610acf565b6102a86103413660046116d6565b610b1e565b600e54610204906001600160a01b031681565b6102a86103673660046118bb565b60046020526000908152604090205481565b6102a8600a5481565b61026d6103903660046116d6565b610b73565b610224610b93565b61026d6103ab3660046118e7565b610ba0565b6102a860095481565b6103e06103c73660046116d6565b6008602052600090815260409020805460019091015482565b604080519283526020830191909152016101e8565b6104086104033660046116d6565b610c0c565b6040516101e8919061191e565b61026d610d09565b6102a860035481565b6101dc610434366004611976565b600760209081526000928352604080842090915290825290205460ff1681565b61026d61046236600461185d565b610e94565b60006301ffc9a760e01b6001600160e01b03198316148061049857506380ac58cd60e01b6001600160e01b03198316145b806104b35750635b5e139f60e01b6001600160e01b03198316145b92915050565b600080546104c6906119a9565b80601f01602080910402602001604051908101604052809291908181526020018280546104f2906119a9565b801561053f5780601f106105145761010080835404028352916020019161053f565b820191906000526020600020905b81548152906001019060200180831161052257829003601f168201915b505050505081565b6000818152600560205260409020546001600160a01b03163381148061059057506001600160a01b038116600090815260076020908152604080832033845290915290205460ff165b6105d25760405162461bcd60e51b815260206004820152600e60248201526d1393d517d055551213d49256915160921b60448201526064015b60405180910390fd5b60008281526006602052604080822080546001600160a01b0319166001600160a01b0387811691821790925591518593918516917f8c5be1e5ebec7d5bd14f71427d1e84f3dd0314c0f7b2291e5b200ac8c7c3b92591a4505050565b61063a84848484610acf565b50505050565b61064a8282610e9e565b5050565b600954600082815260086020526040812054909182916402540be40091610674916119fa565b61067e9190611a19565b6000848152600860205260409020600101549091506106a3906402540be40090611a19565b6106ad9082611a3b565b9392505050565b6000818152600560205260409020546001600160a01b0384811691161461070a5760405162461bcd60e51b815260206004820152600a60248201526957524f4e475f46524f4d60b01b60448201526064016105c9565b6001600160a01b0382166107545760405162461bcd60e51b81526020600482015260116024820152701253959053125117d49150d25412515395607a1b60448201526064016105c9565b336001600160a01b038416148061078157506000818152600660205260409020546001600160a01b031633145b806107af57506001600160a01b038316600090815260076020908152604080832033845290915290205460ff165b6107ec5760405162461bcd60e51b815260206004820152600e60248201526d1393d517d055551213d49256915160921b60448201526064016105c9565b6001600160a01b0380841660008181526004602090815260408083208054600019019055938616808352848320805460010190558583526005825284832080546001600160a01b03199081168317909155600690925284832080549092169091559251849392917fddf252ad1be2c89b69c2b068fc378daa952ba7f163c4a11628f55a4df523b3ef91a4505050565b6010546001600160a01b03166108c15760405162461bcd60e51b815260206004820152600b60248201526a4e6f20537472617465677960a81b60448201526064016105c9565b6000612710600a546113886108d691906119fa565b6108e09190611a19565b90506000600d54826108f29190611a3b565b905080600d60008282546109069190611a52565b9250508190555080600c600082825461091f9190611a52565b9250508190555080600b60008282546109389190611a3b565b9091555050600e5460105460405163095ea7b360e01b81526001600160a01b0391821660048201526024810184905291169063095ea7b3906044016020604051808303816000875af1158015610992573d6000803e3d6000fd5b505050506040513d601f19601f820116820180604052508101906109b69190611a6a565b5060105460405163b6b55f2560e01b8152600481018390526001600160a01b039091169063b6b55f2590602401600060405180830381600087803b1580156109fd57600080fd5b505af1158015610a11573d6000803e3d6000fd5b505050505050565b60006104b382610fd9565b80600b6000828254610a369190611a52565b925050819055508060116000828254610a4f9190611a3b565b9091555050600e546040516323b872dd60e01b8152336004820152306024820152604481018390526001600160a01b03909116906323b872dd906064016020604051808303816000875af1158015610aab573d6000803e3d6000fd5b505050506040513d601f19601f8201168201806040525081019061064a9190611a6a565b600f5415610adc57600080fd5b610ae684846110f3565b601080546001600160a01b039283166001600160a01b031991821617909155600e805493909216921691909117905550506001600f55565b6000610b298261064e565b600a54600084815260086020526040902054601154600d54610b4b9084611a52565b610b559190611a3b565b610b5f91906119fa565b610b699190611a19565b6104b39190611a52565b6000610b7e82610b1e565b9050610b8a818361111a565b61064a82611353565b600180546104c6906119a9565b3360008181526007602090815260408083206001600160a01b03871680855290835292819020805460ff191686151590811790915590519081529192917f17307eab39ab6107e8899845ad3d59bd9653f200f220920489ca2b5937696c31910160405180910390a35050565b610c476040518060a001604052806060815260200160006001600160a01b031681526020016000815260200160008152602001600081525090565b6040518060a0016040528060008054610c5f906119a9565b80601f0160208091040260200160405190810160405280929190818152602001828054610c8b906119a9565b8015610cd85780601f10610cad57610100808354040283529160200191610cd8565b820191906000526020600020905b815481529060010190602001808311610cbb57829003601f168201915b5050509183525050306020820152604001610cf284610b1e565b815260200183815260200160008152509050919050565b600b54600e546040516370a0823160e01b8152306004820152600092916001600160a01b0316906370a0823190602401602060405180830381865afa158015610d56573d6000803e3d6000fd5b505050506040513d601f19601f82011682018060405250810190610d7a9190611a87565b610d849190611a3b565b905080600b6000828254610d989190611a52565b90915550506010546000906001600160a01b0316610db7576000610e3b565b600c54601060009054906101000a90046001600160a01b03166001600160a01b031663460ffdae6040518163ffffffff1660e01b8152600401602060405180830381865afa158015610e0d573d6000803e3d6000fd5b505050506040513d601f19601f82011682018060405250810190610e319190611a87565b610e3b9190611a3b565b905080600c6000828254610e4f9190611a52565b9091555050600a54610e618284611a52565b610e70906402540be4006119fa565b610e7a9190611a19565b60096000828254610e8b9190611a52565b90915550505050565b61064a818361111a565b6000818152600560205260409020546001600160a01b03163314610ec157600080fd5b600a5415610ed157610ed1610d09565b60008181526008602052604081208054849290610eef908490611a52565b9091555050600954610f0190836119fa565b60008281526008602052604081206001018054909190610f22908490611a52565b9250508190555081600a6000828254610f3b9190611a52565b9250508190555081600b6000828254610f549190611a52565b9091555050600e546040516323b872dd60e01b8152336004820152306024820152604481018490526001600160a01b03909116906323b872dd906064016020604051808303816000875af1158015610fb0573d6000803e3d6000fd5b505050506040513d601f19601f82011682018060405250810190610fd49190611a6a565b505050565b600080610fe833600354611420565b600a5490915015610ffb57610ffb610d09565b600081815260086020526040902083905560095461101990846119fa565b6000828152600860205260408120600101805490919061103a908490611a52565b9250508190555082600a60008282546110539190611a52565b9250508190555082600b600082825461106c9190611a52565b9091555050600e546040516323b872dd60e01b8152336004820152306024820152604481018590526001600160a01b03909116906323b872dd906064016020604051808303816000875af11580156110c8573d6000803e3d6000fd5b505050506040513d601f19601f820116820180604052508101906110ec9190611a6a565b5092915050565b80516111069060019060208401906115b3565b508151610fd49060009060208501906115b3565b611122610d09565b6000818152600560205260409020546001600160a01b031633148015611150575061114c81610b1e565b8211155b61115957600080fd5b600e546040516370a0823160e01b81523060048201526000916001600160a01b0316906370a0823190602401602060405180830381865afa1580156111a2573d6000803e3d6000fd5b505050506040513d601f19601f820116820180604052508101906111c69190611a87565b90506000806111d48461064e565b90508085111561125c576111e88186611a3b565b60008581526008602052604081208054929450849290919061120b908490611a3b565b9250508190555081600a60008282546112249190611a3b565b909155505060095460008581526008602052604090205461124591906119fa565b600085815260086020526040902060010155611292565b61126b856402540be4006119fa565b6000858152600860205260408120600101805490919061128c908490611a52565b90915550505b60008386116112a25760006112ac565b6112ac8487611a3b565b905080156112d5576112bd8161153b565b82600d60008282546112cf9190611a3b565b90915550505b600e5460405163a9059cbb60e01b8152336004820152602481018890526001600160a01b039091169063a9059cbb906044016020604051808303816000875af1158015611326573d6000803e3d6000fd5b505050506040513d601f19601f8201168201806040525081019061134a9190611a6a565b50505050505050565b6000818152600560205260409020546001600160a01b0316806113a55760405162461bcd60e51b815260206004820152600a6024820152691393d517d3525395115160b21b60448201526064016105c9565b6001600160a01b038116600081815260046020908152604080832080546000190190558583526005825280832080546001600160a01b031990811690915560069092528083208054909216909155518492907fddf252ad1be2c89b69c2b068fc378daa952ba7f163c4a11628f55a4df523b3ef908390a45050565b60006001600160a01b03831661146c5760405162461bcd60e51b81526020600482015260116024820152701253959053125117d49150d25412515395607a1b60448201526064016105c9565b6000828152600560205260409020546001600160a01b0316156114c25760405162461bcd60e51b815260206004820152600e60248201526d1053149150511657d3525395115160921b60448201526064016105c9565b6001600160a01b038316600081815260046020908152604080832080546001908101909155600380549091019055858352600590915280822080546001600160a01b0319168417905551849291907fddf252ad1be2c89b69c2b068fc378daa952ba7f163c4a11628f55a4df523b3ef908290a450919050565b601054604051631c8901bb60e31b8152600481018390526001600160a01b039091169063e4480dd890602401600060405180830381600087803b15801561158157600080fd5b505af1158015611595573d6000803e3d6000fd5b5050505080600c60008282546115ab9190611a3b565b909155505050565b8280546115bf906119a9565b90600052602060002090601f0160209004810192826115e15760008555611627565b82601f106115fa57805160ff1916838001178555611627565b82800160010185558215611627579182015b8281111561162757825182559160200191906001019061160c565b50611633929150611637565b5090565b5b808211156116335760008155600101611638565b60006020828403121561165e57600080fd5b81356001600160e01b0319811681146106ad57600080fd5b6000815180845260005b8181101561169c57602081850181015186830182015201611680565b818111156116ae576000602083870101525b50601f01601f19169290920160200192915050565b6020815260006106ad6020830184611676565b6000602082840312156116e857600080fd5b5035919050565b80356001600160a01b038116811461170657600080fd5b919050565b6000806040838503121561171e57600080fd5b611727836116ef565b946020939093013593505050565b634e487b7160e01b600052604160045260246000fd5b600082601f83011261175c57600080fd5b813567ffffffffffffffff8082111561177757611777611735565b604051601f8301601f19908116603f0116810190828211818310171561179f5761179f611735565b816040528381528660208588010111156117b857600080fd5b836020870160208301376000602085830101528094505050505092915050565b600080600080608085870312156117ee57600080fd5b843567ffffffffffffffff8082111561180657600080fd5b6118128883890161174b565b9550602087013591508082111561182857600080fd5b506118358782880161174b565b935050611844604086016116ef565b9150611852606086016116ef565b905092959194509250565b6000806040838503121561187057600080fd5b50508035926020909101359150565b60008060006060848603121561189457600080fd5b61189d846116ef565b92506118ab602085016116ef565b9150604084013590509250925092565b6000602082840312156118cd57600080fd5b6106ad826116ef565b80151581146118e457600080fd5b50565b600080604083850312156118fa57600080fd5b611903836116ef565b91506020830135611913816118d6565b809150509250929050565b602081526000825160a0602084015261193a60c0840182611676565b905060018060a01b0360208501511660408401526040840151606084015260608401516080840152608084015160a08401528091505092915050565b6000806040838503121561198957600080fd5b611992836116ef565b91506119a0602084016116ef565b90509250929050565b600181811c908216806119bd57607f821691505b602082108114156119de57634e487b7160e01b600052602260045260246000fd5b50919050565b634e487b7160e01b600052601160045260246000fd5b6000816000190483118215151615611a1457611a146119e4565b500290565b600082611a3657634e487b7160e01b600052601260045260246000fd5b500490565b600082821015611a4d57611a4d6119e4565b500390565b60008219821115611a6557611a656119e4565b500190565b600060208284031215611a7c57600080fd5b81516106ad816118d6565b600060208284031215611a9957600080fd5b505191905056fea2646970667358221220227ac94310fffd36fe337d6f9e98b7714d192006b7806993fc16660d7373d9d864736f6c634300080a0033",
    "linkReferences": {}
  },
  "methodIdentifiers": {
    "approve(address,uint256)": "095ea7b3",
    "balanceOf(address)": "70a08231",
    "baseInit(string,string,address,address)": "6c9980e1",
    "burnNFTAndWithdrawl(uint256)": "89f3dd37",
    "currentId()": "e00dd161",
    "depositToId(uint256,uint256)": "159b4962",
    "deposits(uint256)": "b02c43d0",
    "distributeYeild()": "ca1e3c83",
    "getApproved(uint256)": "081812fc",
    "init(string,string,address,address)": "0e07f854",
    "initStrat()": "34d894c9",
    "isApprovedForAll(address,address)": "e985e9c5",
    "mintNewNft(uint256)": "4b6d69d3",
    "name()": "06fdde03",
    "ownerOf(uint256)": "6352211e",
    "returnManagedFunds(uint256)": "4fad28a7",
    "setApprovalForAll(address,bool)": "a22cb465",
    "strat()": "059b2a10",
    "supportsInterface(bytes4)": "01ffc9a7",
    "symbol()": "95d89b41",
    "tokenURI(uint256)": "c87b56dd",
    "totalDeposits()": "7d882097",
    "transferFrom(address,address,uint256)": "23b872dd",
    "vaultToken()": "703bafd5",
    "withdrawFromId(uint256,uint256)": "eaaf1fca",
    "withdrawableById(uint256)": "6d43d9f1",
    "yeildPerDeposit()": "a2d6b25f",
    "yieldPerId(uint256)": "1ab2f6af"
  }
}