{
  "abi": [
    {
      "type": "constructor",
      "inputs": [
        {
          "internalType": "address",
          "name": "_vaultToken",
          "type": "address"
        },
        {
          "internalType": "string",
          "name": "name",
          "type": "string"
        },
        {
          "internalType": "string",
          "name": "symbol",
          "type": "string"
        }
      ]
    },
    {
      "type": "function",
      "name": "approve",
      "inputs": [
        {
          "internalType": "address",
          "name": "spender",
          "type": "address"
        },
        {
          "internalType": "uint256",
          "name": "id",
          "type": "uint256"
        }
      ],
      "outputs": [],
      "stateMutability": "nonpayable"
    },
    {
      "type": "function",
      "name": "balanceOf",
      "inputs": [
        {
          "internalType": "address",
          "name": "",
          "type": "address"
        }
      ],
      "outputs": [
        {
          "internalType": "uint256",
          "name": "",
          "type": "uint256"
        }
      ],
      "stateMutability": "view"
    },
    {
      "type": "function",
      "name": "burnNFTAndWithdrawl",
      "inputs": [
        {
          "internalType": "uint256",
          "name": "id",
          "type": "uint256"
        }
      ],
      "outputs": [],
      "stateMutability": "nonpayable"
    },
    {
      "type": "function",
      "name": "currentId",
      "inputs": [],
      "outputs": [
        {
          "internalType": "uint256",
          "name": "",
          "type": "uint256"
        }
      ],
      "stateMutability": "view"
    },
    {
      "type": "function",
      "name": "depositToId",
      "inputs": [
        {
          "internalType": "uint256",
          "name": "amount",
          "type": "uint256"
        },
        {
          "internalType": "uint256",
          "name": "id",
          "type": "uint256"
        }
      ],
      "outputs": [],
      "stateMutability": "nonpayable"
    },
    {
      "type": "function",
      "name": "deposits",
      "inputs": [
        {
          "internalType": "uint256",
          "name": "",
          "type": "uint256"
        }
      ],
      "outputs": [
        {
          "internalType": "uint256",
          "name": "amount",
          "type": "uint256"
        },
        {
          "internalType": "uint256",
          "name": "tracker",
          "type": "uint256"
        }
      ],
      "stateMutability": "view"
    },
    {
      "type": "function",
      "name": "distributeYeild",
      "inputs": [],
      "outputs": [],
      "stateMutability": "nonpayable"
    },
    {
      "type": "function",
      "name": "getApproved",
      "inputs": [
        {
          "internalType": "uint256",
          "name": "",
          "type": "uint256"
        }
      ],
      "outputs": [
        {
          "internalType": "address",
          "name": "",
          "type": "address"
        }
      ],
      "stateMutability": "view"
    },
    {
      "type": "function",
      "name": "initStrat",
      "inputs": [],
      "outputs": [],
      "stateMutability": "nonpayable"
    },
    {
      "type": "function",
      "name": "isApprovedForAll",
      "inputs": [
        {
          "internalType": "address",
          "name": "",
          "type": "address"
        },
        {
          "internalType": "address",
          "name": "",
          "type": "address"
        }
      ],
      "outputs": [
        {
          "internalType": "bool",
          "name": "",
          "type": "bool"
        }
      ],
      "stateMutability": "view"
    },
    {
      "type": "function",
      "name": "mintNewNft",
      "inputs": [
        {
          "internalType": "uint256",
          "name": "amount",
          "type": "uint256"
        }
      ],
      "outputs": [
        {
          "internalType": "uint256",
          "name": "",
          "type": "uint256"
        }
      ],
      "stateMutability": "nonpayable"
    },
    {
      "type": "function",
      "name": "name",
      "inputs": [],
      "outputs": [
        {
          "internalType": "string",
          "name": "",
          "type": "string"
        }
      ],
      "stateMutability": "view"
    },
    {
      "type": "function",
      "name": "ownerOf",
      "inputs": [
        {
          "internalType": "uint256",
          "name": "",
          "type": "uint256"
        }
      ],
      "outputs": [
        {
          "internalType": "address",
          "name": "",
          "type": "address"
        }
      ],
      "stateMutability": "view"
    },
    {
      "type": "function",
      "name": "returnManagedFunds",
      "inputs": [
        {
          "internalType": "uint256",
          "name": "amount",
          "type": "uint256"
        }
      ],
      "outputs": [],
      "stateMutability": "nonpayable"
    },
    {
      "type": "function",
      "name": "setApprovalForAll",
      "inputs": [
        {
          "internalType": "address",
          "name": "operator",
          "type": "address"
        },
        {
          "internalType": "bool",
          "name": "approved",
          "type": "bool"
        }
      ],
      "outputs": [],
      "stateMutability": "nonpayable"
    },
    {
      "type": "function",
      "name": "setStrat",
      "inputs": [
        {
          "internalType": "address",
          "name": "addr",
          "type": "address"
        }
      ],
      "outputs": [],
      "stateMutability": "nonpayable"
    },
    {
      "type": "function",
      "name": "supportsInterface",
      "inputs": [
        {
          "internalType": "bytes4",
          "name": "interfaceId",
          "type": "bytes4"
        }
      ],
      "outputs": [
        {
          "internalType": "bool",
          "name": "",
          "type": "bool"
        }
      ],
      "stateMutability": "pure"
    },
    {
      "type": "function",
      "name": "symbol",
      "inputs": [],
      "outputs": [
        {
          "internalType": "string",
          "name": "",
          "type": "string"
        }
      ],
      "stateMutability": "view"
    },
    {
      "type": "function",
      "name": "tokenURI",
      "inputs": [
        {
          "internalType": "uint256",
          "name": "id",
          "type": "uint256"
        }
      ],
      "outputs": [
        {
          "internalType": "struct BaseVault.MetaData",
          "name": "",
          "type": "tuple",
          "components": [
            {
              "type": "string"
            },
            {
              "type": "address"
            },
            {
              "type": "uint256"
            },
            {
              "type": "uint256"
            },
            {
              "type": "uint256"
            }
          ]
        }
      ],
      "stateMutability": "view"
    },
    {
      "type": "function",
      "name": "totalDeposits",
      "inputs": [],
      "outputs": [
        {
          "internalType": "uint256",
          "name": "",
          "type": "uint256"
        }
      ],
      "stateMutability": "view"
    },
    {
      "type": "function",
      "name": "transferFrom",
      "inputs": [
        {
          "internalType": "address",
          "name": "from",
          "type": "address"
        },
        {
          "internalType": "address",
          "name": "to",
          "type": "address"
        },
        {
          "internalType": "uint256",
          "name": "id",
          "type": "uint256"
        }
      ],
      "outputs": [],
      "stateMutability": "nonpayable"
    },
    {
      "type": "function",
      "name": "withdrawFromId",
      "inputs": [
        {
          "internalType": "uint256",
          "name": "id",
          "type": "uint256"
        },
        {
          "internalType": "uint256",
          "name": "amount",
          "type": "uint256"
        }
      ],
      "outputs": [],
      "stateMutability": "nonpayable"
    },
    {
      "type": "function",
      "name": "withdrawableById",
      "inputs": [
        {
          "internalType": "uint256",
          "name": "id",
          "type": "uint256"
        }
      ],
      "outputs": [
        {
          "internalType": "uint256",
          "name": "",
          "type": "uint256"
        }
      ],
      "stateMutability": "view"
    },
    {
      "type": "function",
      "name": "yeildPerDeposit",
      "inputs": [],
      "outputs": [
        {
          "internalType": "uint256",
          "name": "",
          "type": "uint256"
        }
      ],
      "stateMutability": "view"
    },
    {
      "type": "function",
      "name": "yieldPerId",
      "inputs": [
        {
          "internalType": "uint256",
          "name": "id",
          "type": "uint256"
        }
      ],
      "outputs": [
        {
          "internalType": "uint256",
          "name": "",
          "type": "uint256"
        }
      ],
      "stateMutability": "view"
    },
    {
      "type": "event",
      "name": "Approval",
      "inputs": [
        {
          "name": "owner",
          "type": "address",
          "indexed": true
        },
        {
          "name": "spender",
          "type": "address",
          "indexed": true
        },
        {
          "name": "id",
          "type": "uint256",
          "indexed": true
        }
      ],
      "anonymous": false
    },
    {
      "type": "event",
      "name": "ApprovalForAll",
      "inputs": [
        {
          "name": "owner",
          "type": "address",
          "indexed": true
        },
        {
          "name": "operator",
          "type": "address",
          "indexed": true
        },
        {
          "name": "approved",
          "type": "bool",
          "indexed": false
        }
      ],
      "anonymous": false
    },
    {
      "type": "event",
      "name": "Transfer",
      "inputs": [
        {
          "name": "from",
          "type": "address",
          "indexed": true
        },
        {
          "name": "to",
          "type": "address",
          "indexed": true
        },
        {
          "name": "id",
          "type": "uint256",
          "indexed": true
        }
      ],
      "anonymous": false
    }
  ],
  "bytecode": {
    "object": "0x60c060405260016003553480156200001657600080fd5b5060405162001c5138038062001c51833981016040819052620000399162000200565b82828281818160009080519060200190620000569291906200008d565b5080516200006c9060019060208401906200008d565b5050506001600160a01b0390921660805250503360a05250620002c7915050565b8280546200009b906200028a565b90600052602060002090601f016020900481019282620000bf57600085556200010a565b82601f10620000da57805160ff19168380011785556200010a565b828001600101855582156200010a579182015b828111156200010a578251825591602001919060010190620000ed565b50620001189291506200011c565b5090565b5b808211156200011857600081556001016200011d565b634e487b7160e01b600052604160045260246000fd5b600082601f8301126200015b57600080fd5b81516001600160401b038082111562000178576200017862000133565b604051601f8301601f19908116603f01168101908282118183101715620001a357620001a362000133565b81604052838152602092508683858801011115620001c057600080fd5b600091505b83821015620001e45785820183015181830184015290820190620001c5565b83821115620001f65760008385830101525b9695505050505050565b6000806000606084860312156200021657600080fd5b83516001600160a01b03811681146200022e57600080fd5b60208501519093506001600160401b03808211156200024c57600080fd5b6200025a8783880162000149565b935060408601519150808211156200027157600080fd5b50620002808682870162000149565b9150509250925092565b600181811c908216806200029f57607f821691505b60208210811415620002c157634e487b7160e01b600052602260045260246000fd5b50919050565b60805160a05161193a6200031760003960006105bd01526000818161093601528181610a6501528181610ce901528181610f55015281816110890152818161115c01526112fa015261193a6000f3fe608060405234801561001057600080fd5b50600436106101735760003560e01c80636d43d9f1116100de578063a2d6b25f11610097578063ca1e3c8311610071578063ca1e3c831461038b578063e00dd16114610393578063e985e9c51461039c578063eaaf1fca146103ca57600080fd5b8063a2d6b25f14610326578063b02c43d01461032f578063c87b56dd1461036b57600080fd5b80636d43d9f1146102bc57806370a08231146102cf5780637d882097146102ef57806389f3dd37146102f857806395d89b411461030b578063a22cb4651461031357600080fd5b80631ab2f6af116101305780631ab2f6af1461023157806323b872dd1461025257806334d894c9146102655780634b6d69d31461026d5780634fad28a7146102805780636352211e1461029357600080fd5b806301ffc9a71461017857806306fdde03146101a0578063081812fc146101b5578063095ea7b3146101f6578063159b49621461020b57806316cc3b071461021e575b600080fd5b61018b6101863660046115d8565b6103dd565b60405190151581526020015b60405180910390f35b6101a861042f565b604051610197919061164f565b6101de6101c3366004611662565b6006602052600090815260409020546001600160a01b031681565b6040516001600160a01b039091168152602001610197565b610209610204366004611697565b6104bd565b005b6102096102193660046116c1565b6105a4565b61020961022c3660046116e3565b6105b2565b61024461023f366004611662565b61061e565b604051908152602001610197565b6102096102603660046116fe565b610684565b61020961084b565b61024461027b366004611662565b610a08565b61020961028e366004611662565b610a13565b6101de6102a1366004611662565b6005602052600090815260409020546001600160a01b031681565b6102446102ca366004611662565b610ada565b6102446102dd3660046116e3565b60046020526000908152604090205481565b610244600a5481565b610209610306366004611662565b610b2f565b6101a8610b4f565b61020961032136600461174b565b610b5c565b61024460095481565b61035661033d366004611662565b6008602052600090815260409020805460019091015482565b60408051928352602083019190915201610197565b61037e610379366004611662565b610bc8565b6040516101979190611782565b610209610cc5565b61024460035481565b61018b6103aa3660046117da565b600760209081526000928352604080842090915290825290205460ff1681565b6102096103d83660046116c1565b610e6e565b60006301ffc9a760e01b6001600160e01b03198316148061040e57506380ac58cd60e01b6001600160e01b03198316145b806104295750635b5e139f60e01b6001600160e01b03198316145b92915050565b6000805461043c9061180d565b80601f01602080910402602001604051908101604052809291908181526020018280546104689061180d565b80156104b55780601f1061048a576101008083540402835291602001916104b5565b820191906000526020600020905b81548152906001019060200180831161049857829003601f168201915b505050505081565b6000818152600560205260409020546001600160a01b03163381148061050657506001600160a01b038116600090815260076020908152604080832033845290915290205460ff165b6105485760405162461bcd60e51b815260206004820152600e60248201526d1393d517d055551213d49256915160921b60448201526064015b60405180910390fd5b60008281526006602052604080822080546001600160a01b0319166001600160a01b0387811691821790925591518593918516917f8c5be1e5ebec7d5bd14f71427d1e84f3dd0314c0f7b2291e5b200ac8c7c3b92591a4505050565b6105ae8282610e78565b5050565b336001600160a01b037f0000000000000000000000000000000000000000000000000000000000000000161480156105f35750600e546001600160a01b0316155b6105fc57600080fd5b600e80546001600160a01b0319166001600160a01b0392909216919091179055565b600954600082815260086020526040812054909182916402540be400916106449161185e565b61064e919061187d565b600084815260086020526040902060010154909150610673906402540be4009061187d565b61067d908261189f565b9392505050565b6000818152600560205260409020546001600160a01b038481169116146106da5760405162461bcd60e51b815260206004820152600a60248201526957524f4e475f46524f4d60b01b604482015260640161053f565b6001600160a01b0382166107245760405162461bcd60e51b81526020600482015260116024820152701253959053125117d49150d25412515395607a1b604482015260640161053f565b336001600160a01b038416148061075157506000818152600660205260409020546001600160a01b031633145b8061077f57506001600160a01b038316600090815260076020908152604080832033845290915290205460ff165b6107bc5760405162461bcd60e51b815260206004820152600e60248201526d1393d517d055551213d49256915160921b604482015260640161053f565b6001600160a01b0380841660008181526004602090815260408083208054600019019055938616808352848320805460010190558583526005825284832080546001600160a01b03199081168317909155600690925284832080549092169091559251849392917fddf252ad1be2c89b69c2b068fc378daa952ba7f163c4a11628f55a4df523b3ef91a4505050565b600e546001600160a01b03166108915760405162461bcd60e51b815260206004820152600b60248201526a4e6f20537472617465677960a81b604482015260640161053f565b6000612710600a546113886108a6919061185e565b6108b0919061187d565b90506000600d54826108c2919061189f565b905080600d60008282546108d691906118b6565b9250508190555080600c60008282546108ef91906118b6565b9250508190555080600b6000828254610908919061189f565b9091555050600e5460405163095ea7b360e01b81526001600160a01b039182166004820152602481018390527f00000000000000000000000000000000000000000000000000000000000000009091169063095ea7b3906044016020604051808303816000875af1158015610981573d6000803e3d6000fd5b505050506040513d601f19601f820116820180604052508101906109a591906118ce565b50600e5460405163b6b55f2560e01b8152600481018390526001600160a01b039091169063b6b55f2590602401600060405180830381600087803b1580156109ec57600080fd5b505af1158015610a00573d6000803e3d6000fd5b505050505050565b600061042982610fcf565b80600b6000828254610a2591906118b6565b9250508190555080600f6000828254610a3e919061189f565b90915550506040516323b872dd60e01b8152336004820152306024820152604481018290527f00000000000000000000000000000000000000000000000000000000000000006001600160a01b0316906323b872dd906064016020604051808303816000875af1158015610ab6573d6000803e3d6000fd5b505050506040513d601f19601f820116820180604052508101906105ae91906118ce565b6000610ae58261061e565b600a54600084815260086020526040902054600f54600d54610b0790846118b6565b610b11919061189f565b610b1b919061185e565b610b25919061187d565b61042991906118b6565b6000610b3a82610ada565b9050610b468183611105565b6105ae82611378565b6001805461043c9061180d565b3360008181526007602090815260408083206001600160a01b03871680855290835292819020805460ff191686151590811790915590519081529192917f17307eab39ab6107e8899845ad3d59bd9653f200f220920489ca2b5937696c31910160405180910390a35050565b610c036040518060a001604052806060815260200160006001600160a01b031681526020016000815260200160008152602001600081525090565b6040518060a0016040528060008054610c1b9061180d565b80601f0160208091040260200160405190810160405280929190818152602001828054610c479061180d565b8015610c945780601f10610c6957610100808354040283529160200191610c94565b820191906000526020600020905b815481529060010190602001808311610c7757829003601f168201915b5050509183525050306020820152604001610cae84610ada565b815260200183815260200160008152509050919050565b600b546040516370a0823160e01b8152306004820152600091906001600160a01b037f000000000000000000000000000000000000000000000000000000000000000016906370a0823190602401602060405180830381865afa158015610d30573d6000803e3d6000fd5b505050506040513d601f19601f82011682018060405250810190610d5491906118eb565b610d5e919061189f565b905080600b6000828254610d7291906118b6565b9091555050600e546000906001600160a01b0316610d91576000610e15565b600c54600e60009054906101000a90046001600160a01b03166001600160a01b031663460ffdae6040518163ffffffff1660e01b8152600401602060405180830381865afa158015610de7573d6000803e3d6000fd5b505050506040513d601f19601f82011682018060405250810190610e0b91906118eb565b610e15919061189f565b905080600c6000828254610e2991906118b6565b9091555050600a54610e3b82846118b6565b610e4a906402540be40061185e565b610e54919061187d565b60096000828254610e6591906118b6565b90915550505050565b6105ae8183611105565b6000818152600560205260409020546001600160a01b03163314610e9b57600080fd5b600a5415610eab57610eab610cc5565b60008181526008602052604081208054849290610ec99084906118b6565b9091555050600954610edb908361185e565b60008281526008602052604081206001018054909190610efc9084906118b6565b9250508190555081600a6000828254610f1591906118b6565b9250508190555081600b6000828254610f2e91906118b6565b90915550506040516323b872dd60e01b8152336004820152306024820152604481018390527f00000000000000000000000000000000000000000000000000000000000000006001600160a01b0316906323b872dd906064016020604051808303816000875af1158015610fa6573d6000803e3d6000fd5b505050506040513d601f19601f82011682018060405250810190610fca91906118ce565b505050565b600080610fde33600354611445565b600a5490915015610ff157610ff1610cc5565b600081815260086020526040902083905560095461100f908461185e565b600082815260086020526040812060010180549091906110309084906118b6565b9250508190555082600a600082825461104991906118b6565b9250508190555082600b600082825461106291906118b6565b90915550506040516323b872dd60e01b8152336004820152306024820152604481018490527f00000000000000000000000000000000000000000000000000000000000000006001600160a01b0316906323b872dd906064016020604051808303816000875af11580156110da573d6000803e3d6000fd5b505050506040513d601f19601f820116820180604052508101906110fe91906118ce565b5092915050565b61110d610cc5565b6000818152600560205260409020546001600160a01b03163314801561113b575061113781610ada565b8211155b61114457600080fd5b6040516370a0823160e01b81523060048201526000907f00000000000000000000000000000000000000000000000000000000000000006001600160a01b0316906370a0823190602401602060405180830381865afa1580156111ab573d6000803e3d6000fd5b505050506040513d601f19601f820116820180604052508101906111cf91906118eb565b90506000806111dd8461061e565b905080851115611265576111f1818661189f565b60008581526008602052604081208054929450849290919061121490849061189f565b9250508190555081600a600082825461122d919061189f565b909155505060095460008581526008602052604090205461124e919061185e565b60008581526008602052604090206001015561129b565b611274856402540be40061185e565b600085815260086020526040812060010180549091906112959084906118b6565b90915550505b60008386116112ab5760006112b5565b6112b5848761189f565b905080156112de576112c681611560565b82600d60008282546112d8919061189f565b90915550505b60405163a9059cbb60e01b8152336004820152602481018790527f00000000000000000000000000000000000000000000000000000000000000006001600160a01b03169063a9059cbb906044016020604051808303816000875af115801561134b573d6000803e3d6000fd5b505050506040513d601f19601f8201168201806040525081019061136f91906118ce565b50505050505050565b6000818152600560205260409020546001600160a01b0316806113ca5760405162461bcd60e51b815260206004820152600a6024820152691393d517d3525395115160b21b604482015260640161053f565b6001600160a01b038116600081815260046020908152604080832080546000190190558583526005825280832080546001600160a01b031990811690915560069092528083208054909216909155518492907fddf252ad1be2c89b69c2b068fc378daa952ba7f163c4a11628f55a4df523b3ef908390a45050565b60006001600160a01b0383166114915760405162461bcd60e51b81526020600482015260116024820152701253959053125117d49150d25412515395607a1b604482015260640161053f565b6000828152600560205260409020546001600160a01b0316156114e75760405162461bcd60e51b815260206004820152600e60248201526d1053149150511657d3525395115160921b604482015260640161053f565b6001600160a01b038316600081815260046020908152604080832080546001908101909155600380549091019055858352600590915280822080546001600160a01b0319168417905551849291907fddf252ad1be2c89b69c2b068fc378daa952ba7f163c4a11628f55a4df523b3ef908290a450919050565b600e54604051631c8901bb60e31b8152600481018390526001600160a01b039091169063e4480dd890602401600060405180830381600087803b1580156115a657600080fd5b505af11580156115ba573d6000803e3d6000fd5b5050505080600c60008282546115d0919061189f565b909155505050565b6000602082840312156115ea57600080fd5b81356001600160e01b03198116811461067d57600080fd5b6000815180845260005b818110156116285760208185018101518683018201520161160c565b8181111561163a576000602083870101525b50601f01601f19169290920160200192915050565b60208152600061067d6020830184611602565b60006020828403121561167457600080fd5b5035919050565b80356001600160a01b038116811461169257600080fd5b919050565b600080604083850312156116aa57600080fd5b6116b38361167b565b946020939093013593505050565b600080604083850312156116d457600080fd5b50508035926020909101359150565b6000602082840312156116f557600080fd5b61067d8261167b565b60008060006060848603121561171357600080fd5b61171c8461167b565b925061172a6020850161167b565b9150604084013590509250925092565b801515811461174857600080fd5b50565b6000806040838503121561175e57600080fd5b6117678361167b565b915060208301356117778161173a565b809150509250929050565b602081526000825160a0602084015261179e60c0840182611602565b905060018060a01b0360208501511660408401526040840151606084015260608401516080840152608084015160a08401528091505092915050565b600080604083850312156117ed57600080fd5b6117f68361167b565b91506118046020840161167b565b90509250929050565b600181811c9082168061182157607f821691505b6020821081141561184257634e487b7160e01b600052602260045260246000fd5b50919050565b634e487b7160e01b600052601160045260246000fd5b600081600019048311821515161561187857611878611848565b500290565b60008261189a57634e487b7160e01b600052601260045260246000fd5b500490565b6000828210156118b1576118b1611848565b500390565b600082198211156118c9576118c9611848565b500190565b6000602082840312156118e057600080fd5b815161067d8161173a565b6000602082840312156118fd57600080fd5b505191905056fea2646970667358221220e53ecb7feeeba2ed3e4fae5ac88a9dee2608b5a46657bcd601bf5b10fcf141da64736f6c634300080b0033",
    "linkReferences": {}
  }
}