{
  "abi": [
    {
      "type": "constructor",
      "inputs": [
        {
          "internalType": "address",
          "name": "_vaultToken",
          "type": "address"
        },
        {
          "internalType": "string",
          "name": "name",
          "type": "string"
        },
        {
          "internalType": "string",
          "name": "symbol",
          "type": "string"
        }
      ]
    },
    {
      "type": "function",
      "name": "approve",
      "inputs": [
        {
          "internalType": "address",
          "name": "spender",
          "type": "address"
        },
        {
          "internalType": "uint256",
          "name": "id",
          "type": "uint256"
        }
      ],
      "outputs": [],
      "stateMutability": "nonpayable"
    },
    {
      "type": "function",
      "name": "balanceOf",
      "inputs": [
        {
          "internalType": "address",
          "name": "",
          "type": "address"
        }
      ],
      "outputs": [
        {
          "internalType": "uint256",
          "name": "",
          "type": "uint256"
        }
      ],
      "stateMutability": "view"
    },
    {
      "type": "function",
      "name": "burnNFTAndWithdrawl",
      "inputs": [
        {
          "internalType": "uint256",
          "name": "id",
          "type": "uint256"
        }
      ],
      "outputs": [],
      "stateMutability": "nonpayable"
    },
    {
      "type": "function",
      "name": "currentId",
      "inputs": [],
      "outputs": [
        {
          "internalType": "uint256",
          "name": "",
          "type": "uint256"
        }
      ],
      "stateMutability": "view"
    },
    {
      "type": "function",
      "name": "depositToId",
      "inputs": [
        {
          "internalType": "uint256",
          "name": "amount",
          "type": "uint256"
        },
        {
          "internalType": "uint256",
          "name": "id",
          "type": "uint256"
        }
      ],
      "outputs": [],
      "stateMutability": "nonpayable"
    },
    {
      "type": "function",
      "name": "deposits",
      "inputs": [
        {
          "internalType": "uint256",
          "name": "",
          "type": "uint256"
        }
      ],
      "outputs": [
        {
          "internalType": "uint256",
          "name": "amount",
          "type": "uint256"
        },
        {
          "internalType": "uint256",
          "name": "tracker",
          "type": "uint256"
        }
      ],
      "stateMutability": "view"
    },
    {
      "type": "function",
      "name": "distributeYeild",
      "inputs": [],
      "outputs": [],
      "stateMutability": "nonpayable"
    },
    {
      "type": "function",
      "name": "getApproved",
      "inputs": [
        {
          "internalType": "uint256",
          "name": "",
          "type": "uint256"
        }
      ],
      "outputs": [
        {
          "internalType": "address",
          "name": "",
          "type": "address"
        }
      ],
      "stateMutability": "view"
    },
    {
      "type": "function",
      "name": "initStrat",
      "inputs": [],
      "outputs": [],
      "stateMutability": "nonpayable"
    },
    {
      "type": "function",
      "name": "isApprovedForAll",
      "inputs": [
        {
          "internalType": "address",
          "name": "",
          "type": "address"
        },
        {
          "internalType": "address",
          "name": "",
          "type": "address"
        }
      ],
      "outputs": [
        {
          "internalType": "bool",
          "name": "",
          "type": "bool"
        }
      ],
      "stateMutability": "view"
    },
    {
      "type": "function",
      "name": "mintNewNft",
      "inputs": [
        {
          "internalType": "uint256",
          "name": "amount",
          "type": "uint256"
        }
      ],
      "outputs": [
        {
          "internalType": "uint256",
          "name": "",
          "type": "uint256"
        }
      ],
      "stateMutability": "nonpayable"
    },
    {
      "type": "function",
      "name": "name",
      "inputs": [],
      "outputs": [
        {
          "internalType": "string",
          "name": "",
          "type": "string"
        }
      ],
      "stateMutability": "view"
    },
    {
      "type": "function",
      "name": "ownerOf",
      "inputs": [
        {
          "internalType": "uint256",
          "name": "",
          "type": "uint256"
        }
      ],
      "outputs": [
        {
          "internalType": "address",
          "name": "",
          "type": "address"
        }
      ],
      "stateMutability": "view"
    },
    {
      "type": "function",
      "name": "returnManagedFunds",
      "inputs": [
        {
          "internalType": "uint256",
          "name": "amount",
          "type": "uint256"
        }
      ],
      "outputs": [],
      "stateMutability": "nonpayable"
    },
    {
      "type": "function",
      "name": "setApprovalForAll",
      "inputs": [
        {
          "internalType": "address",
          "name": "operator",
          "type": "address"
        },
        {
          "internalType": "bool",
          "name": "approved",
          "type": "bool"
        }
      ],
      "outputs": [],
      "stateMutability": "nonpayable"
    },
    {
      "type": "function",
      "name": "setStrat",
      "inputs": [
        {
          "internalType": "address",
          "name": "addr",
          "type": "address"
        }
      ],
      "outputs": [],
      "stateMutability": "nonpayable"
    },
    {
      "type": "function",
      "name": "supportsInterface",
      "inputs": [
        {
          "internalType": "bytes4",
          "name": "interfaceId",
          "type": "bytes4"
        }
      ],
      "outputs": [
        {
          "internalType": "bool",
          "name": "",
          "type": "bool"
        }
      ],
      "stateMutability": "pure"
    },
    {
      "type": "function",
      "name": "symbol",
      "inputs": [],
      "outputs": [
        {
          "internalType": "string",
          "name": "",
          "type": "string"
        }
      ],
      "stateMutability": "view"
    },
    {
      "type": "function",
      "name": "tokenURI",
      "inputs": [
        {
          "internalType": "uint256",
          "name": "id",
          "type": "uint256"
        }
      ],
      "outputs": [
        {
          "internalType": "struct BaseVault.MetaData",
          "name": "",
          "type": "tuple",
          "components": [
            {
              "type": "string"
            },
            {
              "type": "address"
            },
            {
              "type": "uint256"
            },
            {
              "type": "uint256"
            },
            {
              "type": "uint256"
            }
          ]
        }
      ],
      "stateMutability": "view"
    },
    {
      "type": "function",
      "name": "totalDeposits",
      "inputs": [],
      "outputs": [
        {
          "internalType": "uint256",
          "name": "",
          "type": "uint256"
        }
      ],
      "stateMutability": "view"
    },
    {
      "type": "function",
      "name": "transferFrom",
      "inputs": [
        {
          "internalType": "address",
          "name": "from",
          "type": "address"
        },
        {
          "internalType": "address",
          "name": "to",
          "type": "address"
        },
        {
          "internalType": "uint256",
          "name": "id",
          "type": "uint256"
        }
      ],
      "outputs": [],
      "stateMutability": "nonpayable"
    },
    {
      "type": "function",
      "name": "withdrawFromId",
      "inputs": [
        {
          "internalType": "uint256",
          "name": "id",
          "type": "uint256"
        },
        {
          "internalType": "uint256",
          "name": "amount",
          "type": "uint256"
        }
      ],
      "outputs": [],
      "stateMutability": "nonpayable"
    },
    {
      "type": "function",
      "name": "withdrawableById",
      "inputs": [
        {
          "internalType": "uint256",
          "name": "id",
          "type": "uint256"
        }
      ],
      "outputs": [
        {
          "internalType": "uint256",
          "name": "",
          "type": "uint256"
        }
      ],
      "stateMutability": "view"
    },
    {
      "type": "function",
      "name": "yeildPerDeposit",
      "inputs": [],
      "outputs": [
        {
          "internalType": "uint256",
          "name": "",
          "type": "uint256"
        }
      ],
      "stateMutability": "view"
    },
    {
      "type": "function",
      "name": "yieldPerId",
      "inputs": [
        {
          "internalType": "uint256",
          "name": "id",
          "type": "uint256"
        }
      ],
      "outputs": [
        {
          "internalType": "uint256",
          "name": "",
          "type": "uint256"
        }
      ],
      "stateMutability": "view"
    },
    {
      "type": "event",
      "name": "Approval",
      "inputs": [
        {
          "name": "owner",
          "type": "address",
          "indexed": true
        },
        {
          "name": "spender",
          "type": "address",
          "indexed": true
        },
        {
          "name": "id",
          "type": "uint256",
          "indexed": true
        }
      ],
      "anonymous": false
    },
    {
      "type": "event",
      "name": "ApprovalForAll",
      "inputs": [
        {
          "name": "owner",
          "type": "address",
          "indexed": true
        },
        {
          "name": "operator",
          "type": "address",
          "indexed": true
        },
        {
          "name": "approved",
          "type": "bool",
          "indexed": false
        }
      ],
      "anonymous": false
    },
    {
      "type": "event",
      "name": "Transfer",
      "inputs": [
        {
          "name": "from",
          "type": "address",
          "indexed": true
        },
        {
          "name": "to",
          "type": "address",
          "indexed": true
        },
        {
          "name": "id",
          "type": "uint256",
          "indexed": true
        }
      ],
      "anonymous": false
    }
  ],
  "bytecode": {
    "object": "0x60c060405260016003556402540be400600b553480156200001f57600080fd5b5060405162001c3938038062001c39833981016040819052620000429162000209565b828282818181600090805190602001906200005f92919062000096565b5080516200007590600190602084019062000096565b5050506001600160a01b0390921660805250503360a05250620002d0915050565b828054620000a49062000293565b90600052602060002090601f016020900481019282620000c8576000855562000113565b82601f10620000e357805160ff191683800117855562000113565b8280016001018555821562000113579182015b8281111562000113578251825591602001919060010190620000f6565b506200012192915062000125565b5090565b5b8082111562000121576000815560010162000126565b634e487b7160e01b600052604160045260246000fd5b600082601f8301126200016457600080fd5b81516001600160401b03808211156200018157620001816200013c565b604051601f8301601f19908116603f01168101908282118183101715620001ac57620001ac6200013c565b81604052838152602092508683858801011115620001c957600080fd5b600091505b83821015620001ed5785820183015181830184015290820190620001ce565b83821115620001ff5760008385830101525b9695505050505050565b6000806000606084860312156200021f57600080fd5b83516001600160a01b03811681146200023757600080fd5b60208501519093506001600160401b03808211156200025557600080fd5b620002638783880162000152565b935060408601519150808211156200027a57600080fd5b50620002898682870162000152565b9150509250925092565b600181811c90821680620002a857607f821691505b60208210811415620002ca57634e487b7160e01b600052602260045260246000fd5b50919050565b60805160a0516119196200032060003960006105bd01526000818161093101528181610a4701528181610ccb01528181610f34015281816110680152818161113401526112d901526119196000f3fe608060405234801561001057600080fd5b50600436106101735760003560e01c80636d43d9f1116100de578063a2d6b25f11610097578063ca1e3c8311610071578063ca1e3c831461038b578063e00dd16114610393578063e985e9c51461039c578063eaaf1fca146103ca57600080fd5b8063a2d6b25f14610326578063b02c43d01461032f578063c87b56dd1461036b57600080fd5b80636d43d9f1146102bc57806370a08231146102cf5780637d882097146102ef57806389f3dd37146102f857806395d89b411461030b578063a22cb4651461031357600080fd5b80631ab2f6af116101305780631ab2f6af1461023157806323b872dd1461025257806334d894c9146102655780634b6d69d31461026d5780634fad28a7146102805780636352211e1461029357600080fd5b806301ffc9a71461017857806306fdde03146101a0578063081812fc146101b5578063095ea7b3146101f6578063159b49621461020b57806316cc3b071461021e575b600080fd5b61018b6101863660046115b7565b6103dd565b60405190151581526020015b60405180910390f35b6101a861042f565b604051610197919061162e565b6101de6101c3366004611641565b6006602052600090815260409020546001600160a01b031681565b6040516001600160a01b039091168152602001610197565b610209610204366004611676565b6104bd565b005b6102096102193660046116a0565b6105a4565b61020961022c3660046116c2565b6105b2565b61024461023f366004611641565b61061e565b604051908152602001610197565b6102096102603660046116dd565b61067f565b610209610846565b61024461027b366004611641565b610a03565b61020961028e366004611641565b610a0e565b6101de6102a1366004611641565b6005602052600090815260409020546001600160a01b031681565b6102446102ca366004611641565b610abc565b6102446102dd3660046116c2565b60046020526000908152604090205481565b610244600a5481565b610209610306366004611641565b610b11565b6101a8610b31565b61020961032136600461172a565b610b3e565b61024460095481565b61035661033d366004611641565b6008602052600090815260409020805460019091015482565b60408051928352602083019190915201610197565b61037e610379366004611641565b610baa565b6040516101979190611761565b610209610ca7565b61024460035481565b61018b6103aa3660046117b9565b600760209081526000928352604080842090915290825290205460ff1681565b6102096103d83660046116a0565b610e55565b60006301ffc9a760e01b6001600160e01b03198316148061040e57506380ac58cd60e01b6001600160e01b03198316145b806104295750635b5e139f60e01b6001600160e01b03198316145b92915050565b6000805461043c906117ec565b80601f0160208091040260200160405190810160405280929190818152602001828054610468906117ec565b80156104b55780601f1061048a576101008083540402835291602001916104b5565b820191906000526020600020905b81548152906001019060200180831161049857829003601f168201915b505050505081565b6000818152600560205260409020546001600160a01b03163381148061050657506001600160a01b038116600090815260076020908152604080832033845290915290205460ff165b6105485760405162461bcd60e51b815260206004820152600e60248201526d1393d517d055551213d49256915160921b60448201526064015b60405180910390fd5b60008281526006602052604080822080546001600160a01b0319166001600160a01b0387811691821790925591518593918516917f8c5be1e5ebec7d5bd14f71427d1e84f3dd0314c0f7b2291e5b200ac8c7c3b92591a4505050565b6105ae8282610e5f565b5050565b336001600160a01b037f0000000000000000000000000000000000000000000000000000000000000000161480156105f35750600f546001600160a01b0316155b6105fc57600080fd5b600f80546001600160a01b0319166001600160a01b0392909216919091179055565b600b54600954600083815260086020526040812054909283929091610643919061183d565b61064d919061185c565b600b5460008581526008602052604090206001015491925061066e9161185c565b610678908261187e565b9392505050565b6000818152600560205260409020546001600160a01b038481169116146106d55760405162461bcd60e51b815260206004820152600a60248201526957524f4e475f46524f4d60b01b604482015260640161053f565b6001600160a01b03821661071f5760405162461bcd60e51b81526020600482015260116024820152701253959053125117d49150d25412515395607a1b604482015260640161053f565b336001600160a01b038416148061074c57506000818152600660205260409020546001600160a01b031633145b8061077a57506001600160a01b038316600090815260076020908152604080832033845290915290205460ff165b6107b75760405162461bcd60e51b815260206004820152600e60248201526d1393d517d055551213d49256915160921b604482015260640161053f565b6001600160a01b0380841660008181526004602090815260408083208054600019019055938616808352848320805460010190558583526005825284832080546001600160a01b03199081168317909155600690925284832080549092169091559251849392917fddf252ad1be2c89b69c2b068fc378daa952ba7f163c4a11628f55a4df523b3ef91a4505050565b600f546001600160a01b031661088c5760405162461bcd60e51b815260206004820152600b60248201526a4e6f20537472617465677960a81b604482015260640161053f565b6000612710600a546113886108a1919061183d565b6108ab919061185c565b90506000600e54826108bd919061187e565b905080600e60008282546108d19190611895565b9250508190555080600d60008282546108ea9190611895565b9250508190555080600c6000828254610903919061187e565b9091555050600f5460405163095ea7b360e01b81526001600160a01b039182166004820152602481018390527f00000000000000000000000000000000000000000000000000000000000000009091169063095ea7b3906044016020604051808303816000875af115801561097c573d6000803e3d6000fd5b505050506040513d601f19601f820116820180604052508101906109a091906118ad565b50600f5460405163b6b55f2560e01b8152600481018390526001600160a01b039091169063b6b55f2590602401600060405180830381600087803b1580156109e757600080fd5b505af11580156109fb573d6000803e3d6000fd5b505050505050565b600061042982610fae565b80600c6000828254610a20919061187e565b90915550506040516323b872dd60e01b8152336004820152306024820152604481018290527f00000000000000000000000000000000000000000000000000000000000000006001600160a01b0316906323b872dd906064016020604051808303816000875af1158015610a98573d6000803e3d6000fd5b505050506040513d601f19601f820116820180604052508101906105ae91906118ad565b6000610ac78261061e565b600a54600084815260086020526040902054601054600e54610ae99084611895565b610af3919061187e565b610afd919061183d565b610b07919061185c565b6104299190611895565b6000610b1c82610abc565b9050610b2881836110e4565b6105ae82611357565b6001805461043c906117ec565b3360008181526007602090815260408083206001600160a01b03871680855290835292819020805460ff191686151590811790915590519081529192917f17307eab39ab6107e8899845ad3d59bd9653f200f220920489ca2b5937696c31910160405180910390a35050565b610be56040518060a001604052806060815260200160006001600160a01b031681526020016000815260200160008152602001600081525090565b6040518060a0016040528060008054610bfd906117ec565b80601f0160208091040260200160405190810160405280929190818152602001828054610c29906117ec565b8015610c765780601f10610c4b57610100808354040283529160200191610c76565b820191906000526020600020905b815481529060010190602001808311610c5957829003601f168201915b5050509183525050306020820152604001610c9084610abc565b815260200183815260200160008152509050919050565b600c546040516370a0823160e01b8152306004820152600091906001600160a01b037f000000000000000000000000000000000000000000000000000000000000000016906370a0823190602401602060405180830381865afa158015610d12573d6000803e3d6000fd5b505050506040513d601f19601f82011682018060405250810190610d3691906118ca565b610d40919061187e565b905080600c6000828254610d549190611895565b9091555050600f546000906001600160a01b0316610d73576000610df7565b600d54600f60009054906101000a90046001600160a01b03166001600160a01b031663460ffdae6040518163ffffffff1660e01b8152600401602060405180830381865afa158015610dc9573d6000803e3d6000fd5b505050506040513d601f19601f82011682018060405250810190610ded91906118ca565b610df7919061187e565b905080600d6000828254610e0b9190611895565b9091555060009050610e1d8284611895565b9050600a54600b5482610e30919061183d565b610e3a919061185c565b60096000828254610e4b9190611895565b9091555050505050565b6105ae81836110e4565b6000818152600560205260409020546001600160a01b03163314610e8257600080fd5b610e8a610ca7565b60008181526008602052604081208054849290610ea8908490611895565b9091555050600954610eba908361183d565b60008281526008602052604081206001018054909190610edb908490611895565b9250508190555081600a6000828254610ef49190611895565b9250508190555081600c6000828254610f0d9190611895565b90915550506040516323b872dd60e01b8152336004820152306024820152604481018390527f00000000000000000000000000000000000000000000000000000000000000006001600160a01b0316906323b872dd906064016020604051808303816000875af1158015610f85573d6000803e3d6000fd5b505050506040513d601f19601f82011682018060405250810190610fa991906118ad565b505050565b600080610fbd33600354611424565b600a5490915015610fd057610fd0610ca7565b6000818152600860205260409020839055600954610fee908461183d565b6000828152600860205260408120600101805490919061100f908490611895565b9250508190555082600a60008282546110289190611895565b9250508190555082600c60008282546110419190611895565b90915550506040516323b872dd60e01b8152336004820152306024820152604481018490527f00000000000000000000000000000000000000000000000000000000000000006001600160a01b0316906323b872dd906064016020604051808303816000875af11580156110b9573d6000803e3d6000fd5b505050506040513d601f19601f820116820180604052508101906110dd91906118ad565b5092915050565b6000818152600560205260409020546001600160a01b0316331461110757600080fd5b61111081610abc565b82111561111c57600080fd5b6040516370a0823160e01b81523060048201526000907f00000000000000000000000000000000000000000000000000000000000000006001600160a01b0316906370a0823190602401602060405180830381865afa158015611183573d6000803e3d6000fd5b505050506040513d601f19601f820116820180604052508101906111a791906118ca565b905060006111b3610ca7565b60006111be8461061e565b905080851115611246576111d2818661187e565b6000858152600860205260408120805492945084929091906111f590849061187e565b9250508190555081600a600082825461120e919061187e565b909155505060095460008581526008602052604090205461122f919061183d565b60008581526008602052604090206001015561127a565b600b54611253908661183d565b60008581526008602052604081206001018054909190611274908490611895565b90915550505b600083861161128a576000611294565b611294848761187e565b905080156112bd576112a58161153f565b82600e60008282546112b7919061187e565b90915550505b60405163a9059cbb60e01b8152336004820152602481018790527f00000000000000000000000000000000000000000000000000000000000000006001600160a01b03169063a9059cbb906044016020604051808303816000875af115801561132a573d6000803e3d6000fd5b505050506040513d601f19601f8201168201806040525081019061134e91906118ad565b50505050505050565b6000818152600560205260409020546001600160a01b0316806113a95760405162461bcd60e51b815260206004820152600a6024820152691393d517d3525395115160b21b604482015260640161053f565b6001600160a01b038116600081815260046020908152604080832080546000190190558583526005825280832080546001600160a01b031990811690915560069092528083208054909216909155518492907fddf252ad1be2c89b69c2b068fc378daa952ba7f163c4a11628f55a4df523b3ef908390a45050565b60006001600160a01b0383166114705760405162461bcd60e51b81526020600482015260116024820152701253959053125117d49150d25412515395607a1b604482015260640161053f565b6000828152600560205260409020546001600160a01b0316156114c65760405162461bcd60e51b815260206004820152600e60248201526d1053149150511657d3525395115160921b604482015260640161053f565b6001600160a01b038316600081815260046020908152604080832080546001908101909155600380549091019055858352600590915280822080546001600160a01b0319168417905551849291907fddf252ad1be2c89b69c2b068fc378daa952ba7f163c4a11628f55a4df523b3ef908290a450919050565b600f54604051631c8901bb60e31b8152600481018390526001600160a01b039091169063e4480dd890602401600060405180830381600087803b15801561158557600080fd5b505af1158015611599573d6000803e3d6000fd5b5050505080600d60008282546115af919061187e565b909155505050565b6000602082840312156115c957600080fd5b81356001600160e01b03198116811461067857600080fd5b6000815180845260005b81811015611607576020818501810151868301820152016115eb565b81811115611619576000602083870101525b50601f01601f19169290920160200192915050565b60208152600061067860208301846115e1565b60006020828403121561165357600080fd5b5035919050565b80356001600160a01b038116811461167157600080fd5b919050565b6000806040838503121561168957600080fd5b6116928361165a565b946020939093013593505050565b600080604083850312156116b357600080fd5b50508035926020909101359150565b6000602082840312156116d457600080fd5b6106788261165a565b6000806000606084860312156116f257600080fd5b6116fb8461165a565b92506117096020850161165a565b9150604084013590509250925092565b801515811461172757600080fd5b50565b6000806040838503121561173d57600080fd5b6117468361165a565b9150602083013561175681611719565b809150509250929050565b602081526000825160a0602084015261177d60c08401826115e1565b905060018060a01b0360208501511660408401526040840151606084015260608401516080840152608084015160a08401528091505092915050565b600080604083850312156117cc57600080fd5b6117d58361165a565b91506117e36020840161165a565b90509250929050565b600181811c9082168061180057607f821691505b6020821081141561182157634e487b7160e01b600052602260045260246000fd5b50919050565b634e487b7160e01b600052601160045260246000fd5b600081600019048311821515161561185757611857611827565b500290565b60008261187957634e487b7160e01b600052601260045260246000fd5b500490565b60008282101561189057611890611827565b500390565b600082198211156118a8576118a8611827565b500190565b6000602082840312156118bf57600080fd5b815161067881611719565b6000602082840312156118dc57600080fd5b505191905056fea26469706673582212208d5da83a6227a6ac34962008af2b79a221461aa4123dcc7ab4149a24fe46bcd864736f6c634300080a0033",
    "linkReferences": {}
  }
}