{
  "abi": [
    {
      "type": "constructor",
      "inputs": [
        {
          "internalType": "address",
          "name": "_yVault",
          "type": "address"
        },
        {
          "internalType": "address",
          "name": "_token",
          "type": "address"
        }
      ]
    },
    {
      "type": "function",
      "name": "deposit",
      "inputs": [
        {
          "internalType": "uint256",
          "name": "amount",
          "type": "uint256"
        }
      ],
      "outputs": [],
      "stateMutability": "nonpayable"
    },
    {
      "type": "function",
      "name": "initVault",
      "inputs": [
        {
          "internalType": "address",
          "name": "_vault",
          "type": "address"
        }
      ],
      "outputs": [],
      "stateMutability": "nonpayable"
    },
    {
      "type": "function",
      "name": "withdrawl",
      "inputs": [
        {
          "internalType": "uint256",
          "name": "tokenAmount",
          "type": "uint256"
        }
      ],
      "outputs": [],
      "stateMutability": "nonpayable"
    },
    {
      "type": "function",
      "name": "withdrawlableVaultToken",
      "inputs": [],
      "outputs": [
        {
          "internalType": "uint256",
          "name": "",
          "type": "uint256"
        }
      ],
      "stateMutability": "view"
    }
  ],
  "bytecode": {
    "object": "0x60a060405234801561001057600080fd5b5060405161071e38038061071e83398101604081905261002f91610080565b600080546001600160a01b039384166001600160a01b03199182161790915560018054929093169116179055336080526100b3565b80516001600160a01b038116811461007b57600080fd5b919050565b6000806040838503121561009357600080fd5b61009c83610064565b91506100aa60208401610064565b90509250929050565b6080516106516100cd600039600060b101526106516000f3fe608060405234801561001057600080fd5b506004361061004c5760003560e01c80632ebe3fbb14610051578063460ffdae14610066578063b6b55f2514610080578063e4480dd814610093575b600080fd5b61006461005f366004610548565b6100a6565b005b61006e610112565b60405190815260200160405180910390f35b61006461008e366004610578565b610201565b6100646100a1366004610578565b610330565b336001600160a01b037f0000000000000000000000000000000000000000000000000000000000000000161480156100e757506002546001600160a01b0316155b6100f057600080fd5b600280546001600160a01b0319166001600160a01b0392909216919091179055565b6000805460408051631df1ee3f60e21b8152905183926001600160a01b0316916377c7b8fc9160048083019260209291908290030181865afa15801561015c573d6000803e3d6000fd5b505050506040513d601f19601f820116820180604052508101906101809190610591565b6000546040516370a0823160e01b815230600482015291925082916001600160a01b03909116906370a0823190602401602060405180830381865afa1580156101cd573d6000803e3d6000fd5b505050506040513d601f19601f820116820180604052508101906101f19190610591565b6101fb91906105aa565b91505090565b6002546001600160a01b0316331461024f5760405162461bcd60e51b815260206004820152600c60248201526b155b985d5d1a1bdc9a5e995960a21b60448201526064015b60405180910390fd5b6001546002546040516323b872dd60e01b81526001600160a01b039182166004820152306024820152604481018490529116906323b872dd906064016020604051808303816000875af11580156102aa573d6000803e3d6000fd5b505050506040513d601f19601f820116820180604052508101906102ce91906105d7565b5060005460405163b6b55f2560e01b8152600481018390526001600160a01b039091169063b6b55f2590602401600060405180830381600087803b15801561031557600080fd5b505af1158015610329573d6000803e3d6000fd5b5050505050565b6002546001600160a01b031633146103795760405162461bcd60e51b815260206004820152600c60248201526b155b985d5d1a1bdc9a5e995960a21b6044820152606401610246565b60008060009054906101000a90046001600160a01b03166001600160a01b03166377c7b8fc6040518163ffffffff1660e01b8152600401602060405180830381865afa1580156103cd573d6000803e3d6000fd5b505050506040513d601f19601f820116820180604052508101906103f19190610591565b905060006103ff82846105f9565b600054604051632e1a7d4d60e01b8152600481018390529192506001600160a01b031690632e1a7d4d90602401600060405180830381600087803b15801561044657600080fd5b505af115801561045a573d6000803e3d6000fd5b50506001546040516370a0823160e01b8152306004820152600093506001600160a01b0390911691506370a0823190602401602060405180830381865afa1580156104a9573d6000803e3d6000fd5b505050506040513d601f19601f820116820180604052508101906104cd9190610591565b60015460025460405163a9059cbb60e01b81526001600160a01b03918216600482015260248101849052929350169063a9059cbb906044016020604051808303816000875af1158015610524573d6000803e3d6000fd5b505050506040513d601f19601f8201168201806040525081019061032991906105d7565b60006020828403121561055a57600080fd5b81356001600160a01b038116811461057157600080fd5b9392505050565b60006020828403121561058a57600080fd5b5035919050565b6000602082840312156105a357600080fd5b5051919050565b60008160001904831182151516156105d257634e487b7160e01b600052601160045260246000fd5b500290565b6000602082840312156105e957600080fd5b8151801515811461057157600080fd5b60008261061657634e487b7160e01b600052601260045260246000fd5b50049056fea2646970667358221220adfdbf0fdd084f3f28c796de03cbe3e11a30cb99a00c1b2bfc5d3e7132b080ae64736f6c634300080a0033",
    "linkReferences": {}
  }
}