{
  "abi": [
    {
      "type": "constructor",
      "inputs": [
        {
          "internalType": "address",
          "name": "_vaultToken",
          "type": "address"
        },
        {
          "internalType": "string",
          "name": "name",
          "type": "string"
        },
        {
          "internalType": "string",
          "name": "symbol",
          "type": "string"
        },
        {
          "internalType": "address[]",
          "name": "_signer",
          "type": "address[]"
        },
        {
          "internalType": "uint16",
          "name": "_signersNeeded",
          "type": "uint16"
        }
      ]
    },
    {
      "type": "function",
      "name": "approve",
      "inputs": [
        {
          "internalType": "address",
          "name": "spender",
          "type": "address"
        },
        {
          "internalType": "uint256",
          "name": "id",
          "type": "uint256"
        }
      ],
      "outputs": [],
      "stateMutability": "nonpayable"
    },
    {
      "type": "function",
      "name": "balanceOf",
      "inputs": [
        {
          "internalType": "address",
          "name": "",
          "type": "address"
        }
      ],
      "outputs": [
        {
          "internalType": "uint256",
          "name": "",
          "type": "uint256"
        }
      ],
      "stateMutability": "view"
    },
    {
      "type": "function",
      "name": "burnNFTAndWithdrawl",
      "inputs": [
        {
          "internalType": "uint256",
          "name": "id",
          "type": "uint256"
        }
      ],
      "outputs": [],
      "stateMutability": "nonpayable"
    },
    {
      "type": "function",
      "name": "ctx",
      "inputs": [],
      "outputs": [
        {
          "internalType": "uint16",
          "name": "signersNeeded",
          "type": "uint16"
        },
        {
          "internalType": "uint16",
          "name": "vaultType",
          "type": "uint16"
        }
      ],
      "stateMutability": "view"
    },
    {
      "type": "function",
      "name": "currentId",
      "inputs": [],
      "outputs": [
        {
          "internalType": "uint256",
          "name": "",
          "type": "uint256"
        }
      ],
      "stateMutability": "view"
    },
    {
      "type": "function",
      "name": "depositToId",
      "inputs": [
        {
          "internalType": "uint256",
          "name": "amount",
          "type": "uint256"
        },
        {
          "internalType": "uint256",
          "name": "id",
          "type": "uint256"
        }
      ],
      "outputs": [],
      "stateMutability": "nonpayable"
    },
    {
      "type": "function",
      "name": "deposits",
      "inputs": [
        {
          "internalType": "uint256",
          "name": "",
          "type": "uint256"
        }
      ],
      "outputs": [
        {
          "internalType": "uint256",
          "name": "amount",
          "type": "uint256"
        },
        {
          "internalType": "uint256",
          "name": "tracker",
          "type": "uint256"
        }
      ],
      "stateMutability": "view"
    },
    {
      "type": "function",
      "name": "distributeYeild",
      "inputs": [],
      "outputs": [],
      "stateMutability": "nonpayable"
    },
    {
      "type": "function",
      "name": "getApproved",
      "inputs": [
        {
          "internalType": "uint256",
          "name": "",
          "type": "uint256"
        }
      ],
      "outputs": [
        {
          "internalType": "address",
          "name": "",
          "type": "address"
        }
      ],
      "stateMutability": "view"
    },
    {
      "type": "function",
      "name": "initStrat",
      "inputs": [],
      "outputs": [],
      "stateMutability": "nonpayable"
    },
    {
      "type": "function",
      "name": "internalCall",
      "inputs": [
        {
          "internalType": "bool",
          "name": "manage",
          "type": "bool"
        },
        {
          "internalType": "uint256",
          "name": "key",
          "type": "uint256"
        }
      ],
      "outputs": [
        {
          "internalType": "bool",
          "name": "",
          "type": "bool"
        }
      ],
      "stateMutability": "nonpayable"
    },
    {
      "type": "function",
      "name": "isApprovedForAll",
      "inputs": [
        {
          "internalType": "address",
          "name": "",
          "type": "address"
        },
        {
          "internalType": "address",
          "name": "",
          "type": "address"
        }
      ],
      "outputs": [
        {
          "internalType": "bool",
          "name": "",
          "type": "bool"
        }
      ],
      "stateMutability": "view"
    },
    {
      "type": "function",
      "name": "isSigner",
      "inputs": [
        {
          "internalType": "address",
          "name": "",
          "type": "address"
        }
      ],
      "outputs": [
        {
          "internalType": "bool",
          "name": "",
          "type": "bool"
        }
      ],
      "stateMutability": "view"
    },
    {
      "type": "function",
      "name": "mintNewNft",
      "inputs": [
        {
          "internalType": "uint256",
          "name": "amount",
          "type": "uint256"
        }
      ],
      "outputs": [
        {
          "internalType": "uint256",
          "name": "",
          "type": "uint256"
        }
      ],
      "stateMutability": "nonpayable"
    },
    {
      "type": "function",
      "name": "name",
      "inputs": [],
      "outputs": [
        {
          "internalType": "string",
          "name": "",
          "type": "string"
        }
      ],
      "stateMutability": "view"
    },
    {
      "type": "function",
      "name": "ownerOf",
      "inputs": [
        {
          "internalType": "uint256",
          "name": "",
          "type": "uint256"
        }
      ],
      "outputs": [
        {
          "internalType": "address",
          "name": "",
          "type": "address"
        }
      ],
      "stateMutability": "view"
    },
    {
      "type": "function",
      "name": "proposeManage",
      "inputs": [
        {
          "internalType": "address",
          "name": "to",
          "type": "address"
        },
        {
          "internalType": "uint256",
          "name": "amount",
          "type": "uint256"
        }
      ],
      "outputs": [
        {
          "internalType": "uint256",
          "name": "",
          "type": "uint256"
        }
      ],
      "stateMutability": "nonpayable"
    },
    {
      "type": "function",
      "name": "proposeSignerAdjustment",
      "inputs": [
        {
          "internalType": "address",
          "name": "signer",
          "type": "address"
        },
        {
          "internalType": "uint16",
          "name": "sigsNeeded",
          "type": "uint16"
        },
        {
          "internalType": "bool",
          "name": "add",
          "type": "bool"
        }
      ],
      "outputs": [
        {
          "internalType": "uint256",
          "name": "",
          "type": "uint256"
        }
      ],
      "stateMutability": "nonpayable"
    },
    {
      "type": "function",
      "name": "returnManagedFunds",
      "inputs": [
        {
          "internalType": "uint256",
          "name": "amount",
          "type": "uint256"
        }
      ],
      "outputs": [],
      "stateMutability": "nonpayable"
    },
    {
      "type": "function",
      "name": "setApprovalForAll",
      "inputs": [
        {
          "internalType": "address",
          "name": "operator",
          "type": "address"
        },
        {
          "internalType": "bool",
          "name": "approved",
          "type": "bool"
        }
      ],
      "outputs": [],
      "stateMutability": "nonpayable"
    },
    {
      "type": "function",
      "name": "setStrat",
      "inputs": [
        {
          "internalType": "address",
          "name": "addr",
          "type": "address"
        }
      ],
      "outputs": [],
      "stateMutability": "nonpayable"
    },
    {
      "type": "function",
      "name": "signers",
      "inputs": [
        {
          "internalType": "uint256",
          "name": "",
          "type": "uint256"
        }
      ],
      "outputs": [
        {
          "internalType": "address",
          "name": "",
          "type": "address"
        }
      ],
      "stateMutability": "view"
    },
    {
      "type": "function",
      "name": "supportsInterface",
      "inputs": [
        {
          "internalType": "bytes4",
          "name": "interfaceId",
          "type": "bytes4"
        }
      ],
      "outputs": [
        {
          "internalType": "bool",
          "name": "",
          "type": "bool"
        }
      ],
      "stateMutability": "pure"
    },
    {
      "type": "function",
      "name": "symbol",
      "inputs": [],
      "outputs": [
        {
          "internalType": "string",
          "name": "",
          "type": "string"
        }
      ],
      "stateMutability": "view"
    },
    {
      "type": "function",
      "name": "toAdjust",
      "inputs": [
        {
          "internalType": "uint256",
          "name": "",
          "type": "uint256"
        }
      ],
      "outputs": [
        {
          "internalType": "address",
          "name": "signer",
          "type": "address"
        },
        {
          "internalType": "uint256",
          "name": "deadline",
          "type": "uint256"
        },
        {
          "internalType": "uint16",
          "name": "sigsNeeded",
          "type": "uint16"
        },
        {
          "internalType": "bool",
          "name": "add",
          "type": "bool"
        },
        {
          "internalType": "bool",
          "name": "executed",
          "type": "bool"
        }
      ],
      "stateMutability": "view"
    },
    {
      "type": "function",
      "name": "toManage",
      "inputs": [
        {
          "internalType": "uint256",
          "name": "",
          "type": "uint256"
        }
      ],
      "outputs": [
        {
          "internalType": "address",
          "name": "to",
          "type": "address"
        },
        {
          "internalType": "uint256",
          "name": "amount",
          "type": "uint256"
        },
        {
          "internalType": "uint256",
          "name": "deadline",
          "type": "uint256"
        },
        {
          "internalType": "bool",
          "name": "executed",
          "type": "bool"
        }
      ],
      "stateMutability": "view"
    },
    {
      "type": "function",
      "name": "tokenURI",
      "inputs": [
        {
          "internalType": "uint256",
          "name": "id",
          "type": "uint256"
        }
      ],
      "outputs": [
        {
          "internalType": "struct BaseVault.MetaData",
          "name": "",
          "type": "tuple",
          "components": [
            {
              "type": "string"
            },
            {
              "type": "address"
            },
            {
              "type": "uint256"
            },
            {
              "type": "uint256"
            },
            {
              "type": "uint256"
            }
          ]
        }
      ],
      "stateMutability": "view"
    },
    {
      "type": "function",
      "name": "totalDeposits",
      "inputs": [],
      "outputs": [
        {
          "internalType": "uint256",
          "name": "",
          "type": "uint256"
        }
      ],
      "stateMutability": "view"
    },
    {
      "type": "function",
      "name": "transferFrom",
      "inputs": [
        {
          "internalType": "address",
          "name": "from",
          "type": "address"
        },
        {
          "internalType": "address",
          "name": "to",
          "type": "address"
        },
        {
          "internalType": "uint256",
          "name": "id",
          "type": "uint256"
        }
      ],
      "outputs": [],
      "stateMutability": "nonpayable"
    },
    {
      "type": "function",
      "name": "vote",
      "inputs": [
        {
          "internalType": "uint256",
          "name": "key",
          "type": "uint256"
        },
        {
          "internalType": "bool",
          "name": "flag",
          "type": "bool"
        }
      ],
      "outputs": [],
      "stateMutability": "nonpayable"
    },
    {
      "type": "function",
      "name": "withdrawFromId",
      "inputs": [
        {
          "internalType": "uint256",
          "name": "id",
          "type": "uint256"
        },
        {
          "internalType": "uint256",
          "name": "amount",
          "type": "uint256"
        }
      ],
      "outputs": [],
      "stateMutability": "nonpayable"
    },
    {
      "type": "function",
      "name": "withdrawableById",
      "inputs": [
        {
          "internalType": "uint256",
          "name": "id",
          "type": "uint256"
        }
      ],
      "outputs": [
        {
          "internalType": "uint256",
          "name": "",
          "type": "uint256"
        }
      ],
      "stateMutability": "view"
    },
    {
      "type": "function",
      "name": "yeildPerDeposit",
      "inputs": [],
      "outputs": [
        {
          "internalType": "uint256",
          "name": "",
          "type": "uint256"
        }
      ],
      "stateMutability": "view"
    },
    {
      "type": "function",
      "name": "yieldPerId",
      "inputs": [
        {
          "internalType": "uint256",
          "name": "id",
          "type": "uint256"
        }
      ],
      "outputs": [
        {
          "internalType": "uint256",
          "name": "",
          "type": "uint256"
        }
      ],
      "stateMutability": "view"
    },
    {
      "type": "event",
      "name": "Approval",
      "inputs": [
        {
          "name": "owner",
          "type": "address",
          "indexed": true
        },
        {
          "name": "spender",
          "type": "address",
          "indexed": true
        },
        {
          "name": "id",
          "type": "uint256",
          "indexed": true
        }
      ],
      "anonymous": false
    },
    {
      "type": "event",
      "name": "ApprovalForAll",
      "inputs": [
        {
          "name": "owner",
          "type": "address",
          "indexed": true
        },
        {
          "name": "operator",
          "type": "address",
          "indexed": true
        },
        {
          "name": "approved",
          "type": "bool",
          "indexed": false
        }
      ],
      "anonymous": false
    },
    {
      "type": "event",
      "name": "Transfer",
      "inputs": [
        {
          "name": "from",
          "type": "address",
          "indexed": true
        },
        {
          "name": "to",
          "type": "address",
          "indexed": true
        },
        {
          "name": "id",
          "type": "uint256",
          "indexed": true
        }
      ],
      "anonymous": false
    }
  ],
  "bytecode": {
    "object": "0x60c060405260016003553480156200001657600080fd5b5060405162002a3838038062002a38833981016040819052620000399162000367565b84848482828281818160009080519060200190620000599291906200015b565b5080516200006f9060019060208401906200015b565b505050506001600160a01b039190911660805250503360a05250506040805180820190915261ffff821680825260026020909201919091526012805463ffffffff191690911762020000179055815160005b8161ffff168161ffff1610156200013857600160106000868461ffff1681518110620000f157620000f162000499565b6020908102919091018101516001600160a01b03168252810191909152604001600020805460ff1916911515919091179055806200012f81620004af565b915050620000c1565b5082516200014e906011906020860190620001ea565b505050505050506200051d565b8280546200016990620004e0565b90600052602060002090601f0160209004810192826200018d5760008555620001d8565b82601f10620001a857805160ff1916838001178555620001d8565b82800160010185558215620001d8579182015b82811115620001d8578251825591602001919060010190620001bb565b50620001e692915062000242565b5090565b828054828255906000526020600020908101928215620001d8579160200282015b82811115620001d857825182546001600160a01b0319166001600160a01b039091161782556020909201916001909101906200020b565b5b80821115620001e6576000815560010162000243565b80516001600160a01b03811681146200027157600080fd5b919050565b634e487b7160e01b600052604160045260246000fd5b604051601f8201601f191681016001600160401b0381118282101715620002b757620002b762000276565b604052919050565b600082601f830112620002d157600080fd5b81516001600160401b03811115620002ed57620002ed62000276565b602062000303601f8301601f191682016200028c565b82815285828487010111156200031857600080fd5b60005b83811015620003385785810183015182820184015282016200031b565b838111156200034a5760008385840101525b5095945050505050565b805161ffff811681146200027157600080fd5b600080600080600060a086880312156200038057600080fd5b6200038b8662000259565b602087810151919650906001600160401b0380821115620003ab57600080fd5b620003b98a838b01620002bf565b96506040890151915080821115620003d057600080fd5b620003de8a838b01620002bf565b95506060890151915080821115620003f557600080fd5b818901915089601f8301126200040a57600080fd5b8151818111156200041f576200041f62000276565b8060051b9150620004328483016200028c565b818152918301840191848101908c8411156200044d57600080fd5b938501935b838510156200047657620004668562000259565b8252938501939085019062000452565b8097505050505050506200048d6080870162000354565b90509295509295909350565b634e487b7160e01b600052603260045260246000fd5b600061ffff80831681811415620004d657634e487b7160e01b600052601160045260246000fd5b6001019392505050565b600181811c90821680620004f557607f821691505b602082108114156200051757634e487b7160e01b600052602260045260246000fd5b50919050565b60805160a0516124bd6200057b6000396000610794015260008181610e9a01528181610fc9015281816114a8015281816118f40152818161198401528181611a5801528181611b4101528181611c140152611db201526124bd6000f3fe608060405234801561001057600080fd5b50600436106102065760003560e01c80636d43d9f11161011a578063b02c43d0116100ad578063ddc05c0a1161007c578063ddc05c0a14610507578063e00dd16114610557578063e985e9c514610560578063eaaf1fca1461058e578063f2a09537146105a157600080fd5b8063b02c43d014610490578063c87b56dd146104cc578063c9d27afe146104ec578063ca1e3c83146104ff57600080fd5b806389f3dd37116100e957806389f3dd371461045957806395d89b411461046c578063a22cb46514610474578063a2d6b25f1461048757600080fd5b80636d43d9f1146103fa57806370a082311461040d5780637d8820971461042d5780637df73e271461043657600080fd5b80632079fb9a1161019d57806334d894c91161016c57806334d894c9146103905780634b6d69d3146103985780634fad28a7146103ab5780636352211e146103be57806368a8d052146103e757600080fd5b80632079fb9a1461032457806323b872dd14610337578063277838df1461034a578063285934881461037d57600080fd5b8063159b4962116101d9578063159b49621461029e57806316cc3b07146102b15780631ab2f6af146102c45780631b7f511d146102e557600080fd5b806301ffc9a71461020b57806306fdde0314610233578063081812fc14610248578063095ea7b314610289575b600080fd5b61021e610219366004612090565b6105b4565b60405190151581526020015b60405180910390f35b61023b610606565b60405161022a9190612107565b61027161025636600461211a565b6006602052600090815260409020546001600160a01b031681565b6040516001600160a01b03909116815260200161022a565b61029c61029736600461214f565b610694565b005b61029c6102ac366004612179565b61077b565b61029c6102bf36600461219b565b610789565b6102d76102d236600461211a565b6107f5565b60405190815260200161022a565b6102f86102f336600461211a565b61085b565b604080516001600160a01b0390951685526020850193909352918301521515606082015260800161022a565b61027161033236600461211a565b6108a2565b61029c6103453660046121b6565b6108cc565b6012546103629061ffff808216916201000090041682565b6040805161ffff93841681529290911660208301520161022a565b61021e61038b366004612203565b610a93565b61029c610daf565b6102d76103a636600461211a565b610f6c565b61029c6103b936600461211a565b610f77565b6102716103cc36600461211a565b6005602052600090815260409020546001600160a01b031681565b6102d76103f536600461214f565b61103e565b6102d761040836600461211a565b61118e565b6102d761041b36600461219b565b60046020526000908152604090205481565b6102d7600a5481565b61021e61044436600461219b565b60106020526000908152604090205460ff1681565b61029c61046736600461211a565b6111e3565b61023b611203565b61029c610482366004612221565b611210565b6102d760095481565b6104b761049e36600461211a565b6008602052600090815260409020805460019091015482565b6040805192835260208301919091520161022a565b6104df6104da36600461211a565b61127c565b60405161022a9190612258565b61029c6104fa3660046122b0565b611379565b61029c611484565b61051a61051536600461211a565b61162d565b604080516001600160a01b039096168652602086019490945261ffff9092169284019290925290151560608301521515608082015260a00161022a565b6102d760035481565b61021e61056e3660046122d5565b600760209081526000928352604080842090915290825290205460ff1681565b61029c61059c366004612179565b611683565b6102d76105af366004612308565b61168d565b60006301ffc9a760e01b6001600160e01b0319831614806105e557506380ac58cd60e01b6001600160e01b03198316145b806106005750635b5e139f60e01b6001600160e01b03198316145b92915050565b6000805461061390612358565b80601f016020809104026020016040519081016040528092919081815260200182805461063f90612358565b801561068c5780601f106106615761010080835404028352916020019161068c565b820191906000526020600020905b81548152906001019060200180831161066f57829003601f168201915b505050505081565b6000818152600560205260409020546001600160a01b0316338114806106dd57506001600160a01b038116600090815260076020908152604080832033845290915290205460ff165b61071f5760405162461bcd60e51b815260206004820152600e60248201526d1393d517d055551213d49256915160921b60448201526064015b60405180910390fd5b60008281526006602052604080822080546001600160a01b0319166001600160a01b0387811691821790925591518593918516917f8c5be1e5ebec7d5bd14f71427d1e84f3dd0314c0f7b2291e5b200ac8c7c3b92591a4505050565b6107858282611817565b5050565b336001600160a01b037f0000000000000000000000000000000000000000000000000000000000000000161480156107ca5750600e546001600160a01b0316155b6107d357600080fd5b600e80546001600160a01b0319166001600160a01b0392909216919091179055565b600954600082815260086020526040812054909182916402540be4009161081b916123a9565b61082591906123c8565b60008481526008602052604090206001015490915061084a906402540be400906123c8565b61085490826123ea565b9392505050565b6013818154811061086b57600080fd5b600091825260209091206004909102018054600182015460028301546003909301546001600160a01b039092169350919060ff1684565b601181815481106108b257600080fd5b6000918252602090912001546001600160a01b0316905081565b6000818152600560205260409020546001600160a01b038481169116146109225760405162461bcd60e51b815260206004820152600a60248201526957524f4e475f46524f4d60b01b6044820152606401610716565b6001600160a01b03821661096c5760405162461bcd60e51b81526020600482015260116024820152701253959053125117d49150d25412515395607a1b6044820152606401610716565b336001600160a01b038416148061099957506000818152600660205260409020546001600160a01b031633145b806109c757506001600160a01b038316600090815260076020908152604080832033845290915290205460ff165b610a045760405162461bcd60e51b815260206004820152600e60248201526d1393d517d055551213d49256915160921b6044820152606401610716565b6001600160a01b0380841660008181526004602090815260408083208054600019019055938616808352848320805460010190558583526005825284832080546001600160a01b03199081168317909155600690925284832080549092169091559251849392917fddf252ad1be2c89b69c2b068fc378daa952ba7f163c4a11628f55a4df523b3ef91a4505050565b60008215610bbf5760138281548110610aae57610aae612401565b600091825260209091206003600490920201015460ff16158015610aea575060125460008381526014602052604090205461ffff918216911610155b8015610b1a57504260138381548110610b0557610b05612401565b90600052602060002090600402016002015411155b610b2357600080fd5b600160138381548110610b3857610b38612401565b906000526020600020906004020160030160006101000a81548160ff021916908315150217905550610bba60138381548110610b7657610b76612401565b90600052602060002090600402016001015460138481548110610b9b57610b9b612401565b60009182526020909120600490910201546001600160a01b031661196f565b610600565b60168281548110610bd257610bd2612401565b906000526020600020906003020160020160039054906101000a900460ff16158015610c16575060125460008381526017602052604090205461ffff918216911610155b8015610c4657504260168381548110610c3157610c31612401565b90600052602060002090600302016001015411155b610c4f57600080fd5b600160168381548110610c6457610c64612401565b906000526020600020906003020160020160036101000a81548160ff02191690831515021790555060168281548110610c9f57610c9f612401565b906000526020600020906003020160020160029054906101000a900460ff1615610d1a5760016010600060168581548110610cdc57610cdc612401565b60009182526020808320600392909202909101546001600160a01b031683528201929092526040019020805460ff1916911515919091179055610d6d565b60006010600060168581548110610d3357610d33612401565b60009182526020808320600392909202909101546001600160a01b031683528201929092526040019020805460ff19169115159190911790555b60168281548110610d8057610d80612401565b60009182526020909120600260039092020101546012805461ffff191661ffff90921691909117905592915050565b600e546001600160a01b0316610df55760405162461bcd60e51b815260206004820152600b60248201526a4e6f20537472617465677960a81b6044820152606401610716565b6000612710600a54611388610e0a91906123a9565b610e1491906123c8565b90506000600d5482610e2691906123ea565b905080600d6000828254610e3a9190612417565b9250508190555080600c6000828254610e539190612417565b9250508190555080600b6000828254610e6c91906123ea565b9091555050600e5460405163095ea7b360e01b81526001600160a01b039182166004820152602481018390527f00000000000000000000000000000000000000000000000000000000000000009091169063095ea7b3906044016020604051808303816000875af1158015610ee5573d6000803e3d6000fd5b505050506040513d601f19601f82011682018060405250810190610f09919061242f565b50600e5460405163b6b55f2560e01b8152600481018390526001600160a01b039091169063b6b55f2590602401600060405180830381600087803b158015610f5057600080fd5b505af1158015610f64573d6000803e3d6000fd5b505050505050565b600061060082611a87565b80600b6000828254610f899190612417565b9250508190555080600f6000828254610fa291906123ea565b90915550506040516323b872dd60e01b8152336004820152306024820152604481018290527f00000000000000000000000000000000000000000000000000000000000000006001600160a01b0316906323b872dd906064016020604051808303816000875af115801561101a573d6000803e3d6000fd5b505050506040513d601f19601f82011682018060405250810190610785919061242f565b3360009081526010602052604081205460ff1661105a57600080fd5b60006040518060800160405280856001600160a01b03168152602001848152602001426203f48061108b9190612417565b81526000602091820181905260138054600180820183559282905284517f66de8ffda797e3de9c05e8fc57b3bf0ec28a930d40b0d285d93c06501cf6a090600490920291820180546001600160a01b0319166001600160a01b03909216919091179055928401517f66de8ffda797e3de9c05e8fc57b3bf0ec28a930d40b0d285d93c06501cf6a09184015560408401517f66de8ffda797e3de9c05e8fc57b3bf0ec28a930d40b0d285d93c06501cf6a09284015560608401517f66de8ffda797e3de9c05e8fc57b3bf0ec28a930d40b0d285d93c06501cf6a093909301805460ff1916931515939093179092559054919250611186916123ea565b949350505050565b6000611199826107f5565b600a54600084815260086020526040902054600f54600d546111bb9084612417565b6111c591906123ea565b6111cf91906123a9565b6111d991906123c8565b6106009190612417565b60006111ee8261118e565b90506111fa8183611bbd565b61078582611e30565b6001805461061390612358565b3360008181526007602090815260408083206001600160a01b03871680855290835292819020805460ff191686151590811790915590519081529192917f17307eab39ab6107e8899845ad3d59bd9653f200f220920489ca2b5937696c31910160405180910390a35050565b6112b76040518060a001604052806060815260200160006001600160a01b031681526020016000815260200160008152602001600081525090565b6040518060a00160405280600080546112cf90612358565b80601f01602080910402602001604051908101604052809291908181526020018280546112fb90612358565b80156113485780601f1061131d57610100808354040283529160200191611348565b820191906000526020600020905b81548152906001019060200180831161132b57829003601f168201915b50505091835250503060208201526040016113628461118e565b815260200183815260200160008152509050919050565b3360009081526010602052604090205460ff1661139557600080fd5b801561141f57600082815260156020908152604080832033845290915290205460ff16156113c257600080fd5b60008281526015602090815260408083203384528252808320805460ff1916600117905584835260149091528120805461ffff16916114008361244c565b91906101000a81548161ffff021916908361ffff160217905550505050565b600082815260186020908152604080832033845290915290205460ff161561144657600080fd5b60008281526018602090815260408083203384528252808320805460ff1916600117905584835260179091528120805461ffff16916114008361244c565b600b546040516370a0823160e01b8152306004820152600091906001600160a01b037f000000000000000000000000000000000000000000000000000000000000000016906370a0823190602401602060405180830381865afa1580156114ef573d6000803e3d6000fd5b505050506040513d601f19601f82011682018060405250810190611513919061246e565b61151d91906123ea565b905080600b60008282546115319190612417565b9091555050600e546000906001600160a01b03166115505760006115d4565b600c54600e60009054906101000a90046001600160a01b03166001600160a01b031663460ffdae6040518163ffffffff1660e01b8152600401602060405180830381865afa1580156115a6573d6000803e3d6000fd5b505050506040513d601f19601f820116820180604052508101906115ca919061246e565b6115d491906123ea565b905080600c60008282546115e89190612417565b9091555050600a546115fa8284612417565b611609906402540be4006123a9565b61161391906123c8565b600960008282546116249190612417565b90915550505050565b6016818154811061163d57600080fd5b60009182526020909120600390910201805460018201546002909201546001600160a01b03909116925061ffff81169060ff620100008204811691630100000090041685565b6107858183611bbd565b3360009081526010602052604081205460ff1680156116bd57506011546116b5906001612417565b8361ffff1611155b6116c657600080fd5b60006040518060a00160405280866001600160a01b03168152602001426203f4806116f19190612417565b815261ffff80871660208084019190915286151560408085019190915260006060948501819052601680546001818101835592829052875160039091027fd833147d7dc355ba459fc788f669e58cfaf9dc25ddcd0702e87d69c7b5124289810180546001600160a01b039093166001600160a01b031990931692909217909155938701517fd833147d7dc355ba459fc788f669e58cfaf9dc25ddcd0702e87d69c7b512428a850155918601517fd833147d7dc355ba459fc788f669e58cfaf9dc25ddcd0702e87d69c7b512428b9093018054958701516080880151151563010000000263ff00000019911515620100000262ffffff1990981695909616949094179590951792909216929092179092555491925061180e916123ea565b95945050505050565b6000818152600560205260409020546001600160a01b0316331461183a57600080fd5b600a541561184a5761184a611484565b60008181526008602052604081208054849290611868908490612417565b909155505060095461187a90836123a9565b6000828152600860205260408120600101805490919061189b908490612417565b9250508190555081600a60008282546118b49190612417565b9250508190555081600b60008282546118cd9190612417565b90915550506040516323b872dd60e01b8152336004820152306024820152604481018390527f00000000000000000000000000000000000000000000000000000000000000006001600160a01b0316906323b872dd906064015b6020604051808303816000875af1158015611946573d6000803e3d6000fd5b505050506040513d601f19601f8201168201806040525081019061196a919061242f565b505050565b6040516370a0823160e01b81523060048201527f00000000000000000000000000000000000000000000000000000000000000006001600160a01b0316906370a0823190602401602060405180830381865afa1580156119d3573d6000803e3d6000fd5b505050506040513d601f19601f820116820180604052508101906119f7919061246e565b8210611a0257600080fd5b81600f6000828254611a149190612417565b9250508190555081600b6000828254611a2d91906123ea565b909155505060405163a9059cbb60e01b81526001600160a01b038281166004830152602482018490527f0000000000000000000000000000000000000000000000000000000000000000169063a9059cbb90604401611927565b600080611a9633600354611efd565b600a5490915015611aa957611aa9611484565b6000818152600860205260409020839055600954611ac790846123a9565b60008281526008602052604081206001018054909190611ae8908490612417565b9250508190555082600a6000828254611b019190612417565b9250508190555082600b6000828254611b1a9190612417565b90915550506040516323b872dd60e01b8152336004820152306024820152604481018490527f00000000000000000000000000000000000000000000000000000000000000006001600160a01b0316906323b872dd906064016020604051808303816000875af1158015611b92573d6000803e3d6000fd5b505050506040513d601f19601f82011682018060405250810190611bb6919061242f565b5092915050565b611bc5611484565b6000818152600560205260409020546001600160a01b031633148015611bf35750611bef8161118e565b8211155b611bfc57600080fd5b6040516370a0823160e01b81523060048201526000907f00000000000000000000000000000000000000000000000000000000000000006001600160a01b0316906370a0823190602401602060405180830381865afa158015611c63573d6000803e3d6000fd5b505050506040513d601f19601f82011682018060405250810190611c87919061246e565b9050600080611c95846107f5565b905080851115611d1d57611ca981866123ea565b600085815260086020526040812080549294508492909190611ccc9084906123ea565b9250508190555081600a6000828254611ce591906123ea565b9091555050600954600085815260086020526040902054611d0691906123a9565b600085815260086020526040902060010155611d53565b611d2c856402540be4006123a9565b60008581526008602052604081206001018054909190611d4d908490612417565b90915550505b6000838611611d63576000611d6d565b611d6d84876123ea565b90508015611d9657611d7e81612018565b82600d6000828254611d9091906123ea565b90915550505b60405163a9059cbb60e01b8152336004820152602481018790527f00000000000000000000000000000000000000000000000000000000000000006001600160a01b03169063a9059cbb906044016020604051808303816000875af1158015611e03573d6000803e3d6000fd5b505050506040513d601f19601f82011682018060405250810190611e27919061242f565b50505050505050565b6000818152600560205260409020546001600160a01b031680611e825760405162461bcd60e51b815260206004820152600a6024820152691393d517d3525395115160b21b6044820152606401610716565b6001600160a01b038116600081815260046020908152604080832080546000190190558583526005825280832080546001600160a01b031990811690915560069092528083208054909216909155518492907fddf252ad1be2c89b69c2b068fc378daa952ba7f163c4a11628f55a4df523b3ef908390a45050565b60006001600160a01b038316611f495760405162461bcd60e51b81526020600482015260116024820152701253959053125117d49150d25412515395607a1b6044820152606401610716565b6000828152600560205260409020546001600160a01b031615611f9f5760405162461bcd60e51b815260206004820152600e60248201526d1053149150511657d3525395115160921b6044820152606401610716565b6001600160a01b038316600081815260046020908152604080832080546001908101909155600380549091019055858352600590915280822080546001600160a01b0319168417905551849291907fddf252ad1be2c89b69c2b068fc378daa952ba7f163c4a11628f55a4df523b3ef908290a450919050565b600e54604051631c8901bb60e31b8152600481018390526001600160a01b039091169063e4480dd890602401600060405180830381600087803b15801561205e57600080fd5b505af1158015612072573d6000803e3d6000fd5b5050505080600c600082825461208891906123ea565b909155505050565b6000602082840312156120a257600080fd5b81356001600160e01b03198116811461085457600080fd5b6000815180845260005b818110156120e0576020818501810151868301820152016120c4565b818111156120f2576000602083870101525b50601f01601f19169290920160200192915050565b60208152600061085460208301846120ba565b60006020828403121561212c57600080fd5b5035919050565b80356001600160a01b038116811461214a57600080fd5b919050565b6000806040838503121561216257600080fd5b61216b83612133565b946020939093013593505050565b6000806040838503121561218c57600080fd5b50508035926020909101359150565b6000602082840312156121ad57600080fd5b61085482612133565b6000806000606084860312156121cb57600080fd5b6121d484612133565b92506121e260208501612133565b9150604084013590509250925092565b801515811461220057600080fd5b50565b6000806040838503121561221657600080fd5b823561216b816121f2565b6000806040838503121561223457600080fd5b61223d83612133565b9150602083013561224d816121f2565b809150509250929050565b602081526000825160a0602084015261227460c08401826120ba565b905060018060a01b0360208501511660408401526040840151606084015260608401516080840152608084015160a08401528091505092915050565b600080604083850312156122c357600080fd5b82359150602083013561224d816121f2565b600080604083850312156122e857600080fd5b6122f183612133565b91506122ff60208401612133565b90509250929050565b60008060006060848603121561231d57600080fd5b61232684612133565b9250602084013561ffff8116811461233d57600080fd5b9150604084013561234d816121f2565b809150509250925092565b600181811c9082168061236c57607f821691505b6020821081141561238d57634e487b7160e01b600052602260045260246000fd5b50919050565b634e487b7160e01b600052601160045260246000fd5b60008160001904831182151516156123c3576123c3612393565b500290565b6000826123e557634e487b7160e01b600052601260045260246000fd5b500490565b6000828210156123fc576123fc612393565b500390565b634e487b7160e01b600052603260045260246000fd5b6000821982111561242a5761242a612393565b500190565b60006020828403121561244157600080fd5b8151610854816121f2565b600061ffff8083168181141561246457612464612393565b6001019392505050565b60006020828403121561248057600080fd5b505191905056fea2646970667358221220ba6050aa07dcc4e39514c8cf29f5ff4955fd6a92d3e822bad355a8684492dc5064736f6c634300080b0033",
    "linkReferences": {}
  }
}