{
  "abi": [
    {
      "type": "constructor",
      "inputs": [
        {
          "internalType": "address",
          "name": "_vaultToken",
          "type": "address"
        },
        {
          "internalType": "string",
          "name": "name",
          "type": "string"
        },
        {
          "internalType": "string",
          "name": "symbol",
          "type": "string"
        },
        {
          "internalType": "address[]",
          "name": "_signer",
          "type": "address[]"
        },
        {
          "internalType": "uint16",
          "name": "_signersNeeded",
          "type": "uint16"
        }
      ]
    },
    {
      "type": "function",
      "name": "approve",
      "inputs": [
        {
          "internalType": "address",
          "name": "spender",
          "type": "address"
        },
        {
          "internalType": "uint256",
          "name": "id",
          "type": "uint256"
        }
      ],
      "outputs": [],
      "stateMutability": "nonpayable"
    },
    {
      "type": "function",
      "name": "balanceOf",
      "inputs": [
        {
          "internalType": "address",
          "name": "",
          "type": "address"
        }
      ],
      "outputs": [
        {
          "internalType": "uint256",
          "name": "",
          "type": "uint256"
        }
      ],
      "stateMutability": "view"
    },
    {
      "type": "function",
      "name": "burnNFTAndWithdrawl",
      "inputs": [
        {
          "internalType": "uint256",
          "name": "id",
          "type": "uint256"
        }
      ],
      "outputs": [],
      "stateMutability": "nonpayable"
    },
    {
      "type": "function",
      "name": "ctx",
      "inputs": [],
      "outputs": [
        {
          "internalType": "uint16",
          "name": "signersNeeded",
          "type": "uint16"
        },
        {
          "internalType": "uint16",
          "name": "vaultType",
          "type": "uint16"
        }
      ],
      "stateMutability": "view"
    },
    {
      "type": "function",
      "name": "currentId",
      "inputs": [],
      "outputs": [
        {
          "internalType": "uint256",
          "name": "",
          "type": "uint256"
        }
      ],
      "stateMutability": "view"
    },
    {
      "type": "function",
      "name": "depositToId",
      "inputs": [
        {
          "internalType": "uint256",
          "name": "amount",
          "type": "uint256"
        },
        {
          "internalType": "uint256",
          "name": "id",
          "type": "uint256"
        }
      ],
      "outputs": [],
      "stateMutability": "nonpayable"
    },
    {
      "type": "function",
      "name": "deposits",
      "inputs": [
        {
          "internalType": "uint256",
          "name": "",
          "type": "uint256"
        }
      ],
      "outputs": [
        {
          "internalType": "uint256",
          "name": "amount",
          "type": "uint256"
        },
        {
          "internalType": "uint256",
          "name": "tracker",
          "type": "uint256"
        }
      ],
      "stateMutability": "view"
    },
    {
      "type": "function",
      "name": "distributeYeild",
      "inputs": [],
      "outputs": [],
      "stateMutability": "nonpayable"
    },
    {
      "type": "function",
      "name": "getApproved",
      "inputs": [
        {
          "internalType": "uint256",
          "name": "",
          "type": "uint256"
        }
      ],
      "outputs": [
        {
          "internalType": "address",
          "name": "",
          "type": "address"
        }
      ],
      "stateMutability": "view"
    },
    {
      "type": "function",
      "name": "initStrat",
      "inputs": [],
      "outputs": [],
      "stateMutability": "nonpayable"
    },
    {
      "type": "function",
      "name": "internalCall",
      "inputs": [
        {
          "internalType": "bool",
          "name": "manage",
          "type": "bool"
        },
        {
          "internalType": "uint256",
          "name": "key",
          "type": "uint256"
        }
      ],
      "outputs": [
        {
          "internalType": "bool",
          "name": "",
          "type": "bool"
        }
      ],
      "stateMutability": "nonpayable"
    },
    {
      "type": "function",
      "name": "isApprovedForAll",
      "inputs": [
        {
          "internalType": "address",
          "name": "",
          "type": "address"
        },
        {
          "internalType": "address",
          "name": "",
          "type": "address"
        }
      ],
      "outputs": [
        {
          "internalType": "bool",
          "name": "",
          "type": "bool"
        }
      ],
      "stateMutability": "view"
    },
    {
      "type": "function",
      "name": "isSigner",
      "inputs": [
        {
          "internalType": "address",
          "name": "",
          "type": "address"
        }
      ],
      "outputs": [
        {
          "internalType": "bool",
          "name": "",
          "type": "bool"
        }
      ],
      "stateMutability": "view"
    },
    {
      "type": "function",
      "name": "mintNewNft",
      "inputs": [
        {
          "internalType": "uint256",
          "name": "amount",
          "type": "uint256"
        }
      ],
      "outputs": [
        {
          "internalType": "uint256",
          "name": "",
          "type": "uint256"
        }
      ],
      "stateMutability": "nonpayable"
    },
    {
      "type": "function",
      "name": "name",
      "inputs": [],
      "outputs": [
        {
          "internalType": "string",
          "name": "",
          "type": "string"
        }
      ],
      "stateMutability": "view"
    },
    {
      "type": "function",
      "name": "ownerOf",
      "inputs": [
        {
          "internalType": "uint256",
          "name": "",
          "type": "uint256"
        }
      ],
      "outputs": [
        {
          "internalType": "address",
          "name": "",
          "type": "address"
        }
      ],
      "stateMutability": "view"
    },
    {
      "type": "function",
      "name": "proposeManage",
      "inputs": [
        {
          "internalType": "address",
          "name": "to",
          "type": "address"
        },
        {
          "internalType": "uint256",
          "name": "amount",
          "type": "uint256"
        }
      ],
      "outputs": [
        {
          "internalType": "uint256",
          "name": "",
          "type": "uint256"
        }
      ],
      "stateMutability": "nonpayable"
    },
    {
      "type": "function",
      "name": "proposeSignerAdjustment",
      "inputs": [
        {
          "internalType": "address",
          "name": "signer",
          "type": "address"
        },
        {
          "internalType": "uint16",
          "name": "sigsNeeded",
          "type": "uint16"
        },
        {
          "internalType": "bool",
          "name": "add",
          "type": "bool"
        }
      ],
      "outputs": [
        {
          "internalType": "uint256",
          "name": "",
          "type": "uint256"
        }
      ],
      "stateMutability": "nonpayable"
    },
    {
      "type": "function",
      "name": "returnManagedFunds",
      "inputs": [
        {
          "internalType": "uint256",
          "name": "amount",
          "type": "uint256"
        }
      ],
      "outputs": [],
      "stateMutability": "nonpayable"
    },
    {
      "type": "function",
      "name": "setApprovalForAll",
      "inputs": [
        {
          "internalType": "address",
          "name": "operator",
          "type": "address"
        },
        {
          "internalType": "bool",
          "name": "approved",
          "type": "bool"
        }
      ],
      "outputs": [],
      "stateMutability": "nonpayable"
    },
    {
      "type": "function",
      "name": "setStrat",
      "inputs": [
        {
          "internalType": "address",
          "name": "addr",
          "type": "address"
        }
      ],
      "outputs": [],
      "stateMutability": "nonpayable"
    },
    {
      "type": "function",
      "name": "signers",
      "inputs": [
        {
          "internalType": "uint256",
          "name": "",
          "type": "uint256"
        }
      ],
      "outputs": [
        {
          "internalType": "address",
          "name": "",
          "type": "address"
        }
      ],
      "stateMutability": "view"
    },
    {
      "type": "function",
      "name": "supportsInterface",
      "inputs": [
        {
          "internalType": "bytes4",
          "name": "interfaceId",
          "type": "bytes4"
        }
      ],
      "outputs": [
        {
          "internalType": "bool",
          "name": "",
          "type": "bool"
        }
      ],
      "stateMutability": "pure"
    },
    {
      "type": "function",
      "name": "symbol",
      "inputs": [],
      "outputs": [
        {
          "internalType": "string",
          "name": "",
          "type": "string"
        }
      ],
      "stateMutability": "view"
    },
    {
      "type": "function",
      "name": "toAdjust",
      "inputs": [
        {
          "internalType": "uint256",
          "name": "",
          "type": "uint256"
        }
      ],
      "outputs": [
        {
          "internalType": "address",
          "name": "signer",
          "type": "address"
        },
        {
          "internalType": "uint256",
          "name": "deadline",
          "type": "uint256"
        },
        {
          "internalType": "uint16",
          "name": "sigsNeeded",
          "type": "uint16"
        },
        {
          "internalType": "bool",
          "name": "add",
          "type": "bool"
        },
        {
          "internalType": "bool",
          "name": "executed",
          "type": "bool"
        }
      ],
      "stateMutability": "view"
    },
    {
      "type": "function",
      "name": "toManage",
      "inputs": [
        {
          "internalType": "uint256",
          "name": "",
          "type": "uint256"
        }
      ],
      "outputs": [
        {
          "internalType": "address",
          "name": "to",
          "type": "address"
        },
        {
          "internalType": "uint256",
          "name": "amount",
          "type": "uint256"
        },
        {
          "internalType": "uint256",
          "name": "deadline",
          "type": "uint256"
        },
        {
          "internalType": "bool",
          "name": "executed",
          "type": "bool"
        }
      ],
      "stateMutability": "view"
    },
    {
      "type": "function",
      "name": "tokenURI",
      "inputs": [
        {
          "internalType": "uint256",
          "name": "id",
          "type": "uint256"
        }
      ],
      "outputs": [
        {
          "internalType": "struct BaseVault.MetaData",
          "name": "",
          "type": "tuple",
          "components": [
            {
              "type": "string"
            },
            {
              "type": "address"
            },
            {
              "type": "uint256"
            },
            {
              "type": "uint256"
            },
            {
              "type": "uint256"
            }
          ]
        }
      ],
      "stateMutability": "view"
    },
    {
      "type": "function",
      "name": "totalDeposits",
      "inputs": [],
      "outputs": [
        {
          "internalType": "uint256",
          "name": "",
          "type": "uint256"
        }
      ],
      "stateMutability": "view"
    },
    {
      "type": "function",
      "name": "transferFrom",
      "inputs": [
        {
          "internalType": "address",
          "name": "from",
          "type": "address"
        },
        {
          "internalType": "address",
          "name": "to",
          "type": "address"
        },
        {
          "internalType": "uint256",
          "name": "id",
          "type": "uint256"
        }
      ],
      "outputs": [],
      "stateMutability": "nonpayable"
    },
    {
      "type": "function",
      "name": "vote",
      "inputs": [
        {
          "internalType": "uint256",
          "name": "key",
          "type": "uint256"
        },
        {
          "internalType": "bool",
          "name": "flag",
          "type": "bool"
        }
      ],
      "outputs": [],
      "stateMutability": "nonpayable"
    },
    {
      "type": "function",
      "name": "withdrawFromId",
      "inputs": [
        {
          "internalType": "uint256",
          "name": "id",
          "type": "uint256"
        },
        {
          "internalType": "uint256",
          "name": "amount",
          "type": "uint256"
        }
      ],
      "outputs": [],
      "stateMutability": "nonpayable"
    },
    {
      "type": "function",
      "name": "withdrawableById",
      "inputs": [
        {
          "internalType": "uint256",
          "name": "id",
          "type": "uint256"
        }
      ],
      "outputs": [
        {
          "internalType": "uint256",
          "name": "",
          "type": "uint256"
        }
      ],
      "stateMutability": "view"
    },
    {
      "type": "function",
      "name": "yeildPerDeposit",
      "inputs": [],
      "outputs": [
        {
          "internalType": "uint256",
          "name": "",
          "type": "uint256"
        }
      ],
      "stateMutability": "view"
    },
    {
      "type": "function",
      "name": "yieldPerId",
      "inputs": [
        {
          "internalType": "uint256",
          "name": "id",
          "type": "uint256"
        }
      ],
      "outputs": [
        {
          "internalType": "uint256",
          "name": "",
          "type": "uint256"
        }
      ],
      "stateMutability": "view"
    },
    {
      "type": "event",
      "name": "Approval",
      "inputs": [
        {
          "name": "owner",
          "type": "address",
          "indexed": true
        },
        {
          "name": "spender",
          "type": "address",
          "indexed": true
        },
        {
          "name": "id",
          "type": "uint256",
          "indexed": true
        }
      ],
      "anonymous": false
    },
    {
      "type": "event",
      "name": "ApprovalForAll",
      "inputs": [
        {
          "name": "owner",
          "type": "address",
          "indexed": true
        },
        {
          "name": "operator",
          "type": "address",
          "indexed": true
        },
        {
          "name": "approved",
          "type": "bool",
          "indexed": false
        }
      ],
      "anonymous": false
    },
    {
      "type": "event",
      "name": "Transfer",
      "inputs": [
        {
          "name": "from",
          "type": "address",
          "indexed": true
        },
        {
          "name": "to",
          "type": "address",
          "indexed": true
        },
        {
          "name": "id",
          "type": "uint256",
          "indexed": true
        }
      ],
      "anonymous": false
    }
  ],
  "bytecode": {
    "object": "0x60c060405260016003556402540be400600b553480156200001f57600080fd5b5060405162002a3938038062002a39833981016040819052620000429162000370565b848484828282818181600090805190602001906200006292919062000164565b5080516200007890600190602084019062000164565b505050506001600160a01b039190911660805250503360a05250506040805180820190915261ffff821680825260026020909201919091526013805463ffffffff191690911762020000179055815160005b8161ffff168161ffff1610156200014157600160116000868461ffff1681518110620000fa57620000fa620004a2565b6020908102919091018101516001600160a01b03168252810191909152604001600020805460ff1916911515919091179055806200013881620004b8565b915050620000ca565b50825162000157906012906020860190620001f3565b5050505050505062000526565b8280546200017290620004e9565b90600052602060002090601f016020900481019282620001965760008555620001e1565b82601f10620001b157805160ff1916838001178555620001e1565b82800160010185558215620001e1579182015b82811115620001e1578251825591602001919060010190620001c4565b50620001ef9291506200024b565b5090565b828054828255906000526020600020908101928215620001e1579160200282015b82811115620001e157825182546001600160a01b0319166001600160a01b0390911617825560209092019160019091019062000214565b5b80821115620001ef57600081556001016200024c565b80516001600160a01b03811681146200027a57600080fd5b919050565b634e487b7160e01b600052604160045260246000fd5b604051601f8201601f191681016001600160401b0381118282101715620002c057620002c06200027f565b604052919050565b600082601f830112620002da57600080fd5b81516001600160401b03811115620002f657620002f66200027f565b60206200030c601f8301601f1916820162000295565b82815285828487010111156200032157600080fd5b60005b838110156200034157858101830151828201840152820162000324565b83811115620003535760008385840101525b5095945050505050565b805161ffff811681146200027a57600080fd5b600080600080600060a086880312156200038957600080fd5b620003948662000262565b602087810151919650906001600160401b0380821115620003b457600080fd5b620003c28a838b01620002c8565b96506040890151915080821115620003d957600080fd5b620003e78a838b01620002c8565b95506060890151915080821115620003fe57600080fd5b818901915089601f8301126200041357600080fd5b8151818111156200042857620004286200027f565b8060051b91506200043b84830162000295565b818152918301840191848101908c8411156200045657600080fd5b938501935b838510156200047f576200046f8562000262565b825293850193908501906200045b565b80975050505050505062000496608087016200035d565b90509295509295909350565b634e487b7160e01b600052603260045260246000fd5b600061ffff80831681811415620004df57634e487b7160e01b600052601160045260246000fd5b6001019392505050565b600181811c90821680620004fe57607f821691505b602082108114156200052057634e487b7160e01b600052602260045260246000fd5b50919050565b60805160a0516124b5620005846000396000610794015260008181610e9501528181610fc4015281816114a3015281816118ed0152818161197d01528181611a5101528181611b3a01528181611c050152611daa01526124b56000f3fe608060405234801561001057600080fd5b50600436106102065760003560e01c80636d43d9f11161011a578063b02c43d0116100ad578063ddc05c0a1161007c578063ddc05c0a14610507578063e00dd16114610557578063e985e9c514610560578063eaaf1fca1461058e578063f2a09537146105a157600080fd5b8063b02c43d014610490578063c87b56dd146104cc578063c9d27afe146104ec578063ca1e3c83146104ff57600080fd5b806389f3dd37116100e957806389f3dd371461045957806395d89b411461046c578063a22cb46514610474578063a2d6b25f1461048757600080fd5b80636d43d9f1146103fa57806370a082311461040d5780637d8820971461042d5780637df73e271461043657600080fd5b80632079fb9a1161019d57806334d894c91161016c57806334d894c9146103905780634b6d69d3146103985780634fad28a7146103ab5780636352211e146103be57806368a8d052146103e757600080fd5b80632079fb9a1461032457806323b872dd14610337578063277838df1461034a578063285934881461037d57600080fd5b8063159b4962116101d9578063159b49621461029e57806316cc3b07146102b15780631ab2f6af146102c45780631b7f511d146102e557600080fd5b806301ffc9a71461020b57806306fdde0314610233578063081812fc14610248578063095ea7b314610289575b600080fd5b61021e610219366004612088565b6105b4565b60405190151581526020015b60405180910390f35b61023b610606565b60405161022a91906120ff565b610271610256366004612112565b6006602052600090815260409020546001600160a01b031681565b6040516001600160a01b03909116815260200161022a565b61029c610297366004612147565b610694565b005b61029c6102ac366004612171565b61077b565b61029c6102bf366004612193565b610789565b6102d76102d2366004612112565b6107f5565b60405190815260200161022a565b6102f86102f3366004612112565b610856565b604080516001600160a01b0390951685526020850193909352918301521515606082015260800161022a565b610271610332366004612112565b61089d565b61029c6103453660046121ae565b6108c7565b6013546103629061ffff808216916201000090041682565b6040805161ffff93841681529290911660208301520161022a565b61021e61038b3660046121fb565b610a8e565b61029c610daa565b6102d76103a6366004612112565b610f67565b61029c6103b9366004612112565b610f72565b6102716103cc366004612112565b6005602052600090815260409020546001600160a01b031681565b6102d76103f5366004612147565b611039565b6102d7610408366004612112565b611189565b6102d761041b366004612193565b60046020526000908152604090205481565b6102d7600a5481565b61021e610444366004612193565b60116020526000908152604090205460ff1681565b61029c610467366004612112565b6111de565b61023b6111fe565b61029c610482366004612219565b61120b565b6102d760095481565b6104b761049e366004612112565b6008602052600090815260409020805460019091015482565b6040805192835260208301919091520161022a565b6104df6104da366004612112565b611277565b60405161022a9190612250565b61029c6104fa3660046122a8565b611374565b61029c61147f565b61051a610515366004612112565b611626565b604080516001600160a01b039096168652602086019490945261ffff9092169284019290925290151560608301521515608082015260a00161022a565b6102d760035481565b61021e61056e3660046122cd565b600760209081526000928352604080842090915290825290205460ff1681565b61029c61059c366004612171565b61167c565b6102d76105af366004612300565b611686565b60006301ffc9a760e01b6001600160e01b0319831614806105e557506380ac58cd60e01b6001600160e01b03198316145b806106005750635b5e139f60e01b6001600160e01b03198316145b92915050565b6000805461061390612350565b80601f016020809104026020016040519081016040528092919081815260200182805461063f90612350565b801561068c5780601f106106615761010080835404028352916020019161068c565b820191906000526020600020905b81548152906001019060200180831161066f57829003601f168201915b505050505081565b6000818152600560205260409020546001600160a01b0316338114806106dd57506001600160a01b038116600090815260076020908152604080832033845290915290205460ff165b61071f5760405162461bcd60e51b815260206004820152600e60248201526d1393d517d055551213d49256915160921b60448201526064015b60405180910390fd5b60008281526006602052604080822080546001600160a01b0319166001600160a01b0387811691821790925591518593918516917f8c5be1e5ebec7d5bd14f71427d1e84f3dd0314c0f7b2291e5b200ac8c7c3b92591a4505050565b6107858282611810565b5050565b336001600160a01b037f0000000000000000000000000000000000000000000000000000000000000000161480156107ca5750600f546001600160a01b0316155b6107d357600080fd5b600f80546001600160a01b0319166001600160a01b0392909216919091179055565b600b5460095460008381526008602052604081205490928392909161081a91906123a1565b61082491906123c0565b600b54600085815260086020526040902060010154919250610845916123c0565b61084f90826123e2565b9392505050565b6014818154811061086657600080fd5b600091825260209091206004909102018054600182015460028301546003909301546001600160a01b039092169350919060ff1684565b601281815481106108ad57600080fd5b6000918252602090912001546001600160a01b0316905081565b6000818152600560205260409020546001600160a01b0384811691161461091d5760405162461bcd60e51b815260206004820152600a60248201526957524f4e475f46524f4d60b01b6044820152606401610716565b6001600160a01b0382166109675760405162461bcd60e51b81526020600482015260116024820152701253959053125117d49150d25412515395607a1b6044820152606401610716565b336001600160a01b038416148061099457506000818152600660205260409020546001600160a01b031633145b806109c257506001600160a01b038316600090815260076020908152604080832033845290915290205460ff165b6109ff5760405162461bcd60e51b815260206004820152600e60248201526d1393d517d055551213d49256915160921b6044820152606401610716565b6001600160a01b0380841660008181526004602090815260408083208054600019019055938616808352848320805460010190558583526005825284832080546001600160a01b03199081168317909155600690925284832080549092169091559251849392917fddf252ad1be2c89b69c2b068fc378daa952ba7f163c4a11628f55a4df523b3ef91a4505050565b60008215610bba5760148281548110610aa957610aa96123f9565b600091825260209091206003600490920201015460ff16158015610ae5575060135460008381526015602052604090205461ffff918216911610155b8015610b1557504260148381548110610b0057610b006123f9565b90600052602060002090600402016002015411155b610b1e57600080fd5b600160148381548110610b3357610b336123f9565b906000526020600020906004020160030160006101000a81548160ff021916908315150217905550610bb560148381548110610b7157610b716123f9565b90600052602060002090600402016001015460148481548110610b9657610b966123f9565b60009182526020909120600490910201546001600160a01b0316611968565b610600565b60178281548110610bcd57610bcd6123f9565b906000526020600020906003020160020160039054906101000a900460ff16158015610c11575060135460008381526018602052604090205461ffff918216911610155b8015610c4157504260178381548110610c2c57610c2c6123f9565b90600052602060002090600302016001015411155b610c4a57600080fd5b600160178381548110610c5f57610c5f6123f9565b906000526020600020906003020160020160036101000a81548160ff02191690831515021790555060178281548110610c9a57610c9a6123f9565b906000526020600020906003020160020160029054906101000a900460ff1615610d155760016011600060178581548110610cd757610cd76123f9565b60009182526020808320600392909202909101546001600160a01b031683528201929092526040019020805460ff1916911515919091179055610d68565b60006011600060178581548110610d2e57610d2e6123f9565b60009182526020808320600392909202909101546001600160a01b031683528201929092526040019020805460ff19169115159190911790555b60178281548110610d7b57610d7b6123f9565b60009182526020909120600260039092020101546013805461ffff191661ffff90921691909117905592915050565b600f546001600160a01b0316610df05760405162461bcd60e51b815260206004820152600b60248201526a4e6f20537472617465677960a81b6044820152606401610716565b6000612710600a54611388610e0591906123a1565b610e0f91906123c0565b90506000600e5482610e2191906123e2565b905080600e6000828254610e35919061240f565b9250508190555080600d6000828254610e4e919061240f565b9250508190555080600c6000828254610e6791906123e2565b9091555050600f5460405163095ea7b360e01b81526001600160a01b039182166004820152602481018390527f00000000000000000000000000000000000000000000000000000000000000009091169063095ea7b3906044016020604051808303816000875af1158015610ee0573d6000803e3d6000fd5b505050506040513d601f19601f82011682018060405250810190610f049190612427565b50600f5460405163b6b55f2560e01b8152600481018390526001600160a01b039091169063b6b55f2590602401600060405180830381600087803b158015610f4b57600080fd5b505af1158015610f5f573d6000803e3d6000fd5b505050505050565b600061060082611a80565b80600c6000828254610f84919061240f565b925050819055508060106000828254610f9d91906123e2565b90915550506040516323b872dd60e01b8152336004820152306024820152604481018290527f00000000000000000000000000000000000000000000000000000000000000006001600160a01b0316906323b872dd906064016020604051808303816000875af1158015611015573d6000803e3d6000fd5b505050506040513d601f19601f820116820180604052508101906107859190612427565b3360009081526011602052604081205460ff1661105557600080fd5b60006040518060800160405280856001600160a01b03168152602001848152602001426203f480611086919061240f565b81526000602091820181905260148054600180820183559282905284517fce6d7b5282bd9a3661ae061feed1dbda4e52ab073b1f9285be6e155d9c38d4ec600490920291820180546001600160a01b0319166001600160a01b03909216919091179055928401517fce6d7b5282bd9a3661ae061feed1dbda4e52ab073b1f9285be6e155d9c38d4ed84015560408401517fce6d7b5282bd9a3661ae061feed1dbda4e52ab073b1f9285be6e155d9c38d4ee84015560608401517fce6d7b5282bd9a3661ae061feed1dbda4e52ab073b1f9285be6e155d9c38d4ef909301805460ff1916931515939093179092559054919250611181916123e2565b949350505050565b6000611194826107f5565b600a54600084815260086020526040902054601054600e546111b6908461240f565b6111c091906123e2565b6111ca91906123a1565b6111d491906123c0565b610600919061240f565b60006111e982611189565b90506111f58183611bb6565b61078582611e28565b6001805461061390612350565b3360008181526007602090815260408083206001600160a01b03871680855290835292819020805460ff191686151590811790915590519081529192917f17307eab39ab6107e8899845ad3d59bd9653f200f220920489ca2b5937696c31910160405180910390a35050565b6112b26040518060a001604052806060815260200160006001600160a01b031681526020016000815260200160008152602001600081525090565b6040518060a00160405280600080546112ca90612350565b80601f01602080910402602001604051908101604052809291908181526020018280546112f690612350565b80156113435780601f1061131857610100808354040283529160200191611343565b820191906000526020600020905b81548152906001019060200180831161132657829003601f168201915b505050918352505030602082015260400161135d84611189565b815260200183815260200160008152509050919050565b3360009081526011602052604090205460ff1661139057600080fd5b801561141a57600082815260166020908152604080832033845290915290205460ff16156113bd57600080fd5b60008281526016602090815260408083203384528252808320805460ff1916600117905584835260159091528120805461ffff16916113fb83612444565b91906101000a81548161ffff021916908361ffff160217905550505050565b600082815260196020908152604080832033845290915290205460ff161561144157600080fd5b60008281526019602090815260408083203384528252808320805460ff1916600117905584835260189091528120805461ffff16916113fb83612444565b600c546040516370a0823160e01b8152306004820152600091906001600160a01b037f000000000000000000000000000000000000000000000000000000000000000016906370a0823190602401602060405180830381865afa1580156114ea573d6000803e3d6000fd5b505050506040513d601f19601f8201168201806040525081019061150e9190612466565b61151891906123e2565b905080600c600082825461152c919061240f565b9091555050600f546000906001600160a01b031661154b5760006115cf565b600d54600f60009054906101000a90046001600160a01b03166001600160a01b031663460ffdae6040518163ffffffff1660e01b8152600401602060405180830381865afa1580156115a1573d6000803e3d6000fd5b505050506040513d601f19601f820116820180604052508101906115c59190612466565b6115cf91906123e2565b905080600d60008282546115e3919061240f565b9091555050600a54600b546115f8838561240f565b61160291906123a1565b61160c91906123c0565b6009600082825461161d919061240f565b90915550505050565b6017818154811061163657600080fd5b60009182526020909120600390910201805460018201546002909201546001600160a01b03909116925061ffff81169060ff620100008204811691630100000090041685565b6107858183611bb6565b3360009081526011602052604081205460ff1680156116b657506012546116ae90600161240f565b8361ffff1611155b6116bf57600080fd5b60006040518060a00160405280866001600160a01b03168152602001426203f4806116ea919061240f565b815261ffff80871660208084019190915286151560408085019190915260006060948501819052601780546001818101835592829052875160039091027fc624b66cc0138b8fabc209247f72d758e1cf3343756d543badbf24212bed8c15810180546001600160a01b039093166001600160a01b031990931692909217909155938701517fc624b66cc0138b8fabc209247f72d758e1cf3343756d543badbf24212bed8c16850155918601517fc624b66cc0138b8fabc209247f72d758e1cf3343756d543badbf24212bed8c179093018054958701516080880151151563010000000263ff00000019911515620100000262ffffff19909816959096169490941795909517929092169290921790925554919250611807916123e2565b95945050505050565b6000818152600560205260409020546001600160a01b0316331461183357600080fd5b600a54156118435761184361147f565b6000818152600860205260408120805484929061186190849061240f565b909155505060095461187390836123a1565b6000828152600860205260408120600101805490919061189490849061240f565b9250508190555081600a60008282546118ad919061240f565b9250508190555081600c60008282546118c6919061240f565b90915550506040516323b872dd60e01b8152336004820152306024820152604481018390527f00000000000000000000000000000000000000000000000000000000000000006001600160a01b0316906323b872dd906064015b6020604051808303816000875af115801561193f573d6000803e3d6000fd5b505050506040513d601f19601f820116820180604052508101906119639190612427565b505050565b6040516370a0823160e01b81523060048201527f00000000000000000000000000000000000000000000000000000000000000006001600160a01b0316906370a0823190602401602060405180830381865afa1580156119cc573d6000803e3d6000fd5b505050506040513d601f19601f820116820180604052508101906119f09190612466565b82106119fb57600080fd5b8160106000828254611a0d919061240f565b9250508190555081600c6000828254611a2691906123e2565b909155505060405163a9059cbb60e01b81526001600160a01b038281166004830152602482018490527f0000000000000000000000000000000000000000000000000000000000000000169063a9059cbb90604401611920565b600080611a8f33600354611ef5565b600a5490915015611aa257611aa261147f565b6000818152600860205260409020839055600954611ac090846123a1565b60008281526008602052604081206001018054909190611ae190849061240f565b9250508190555082600a6000828254611afa919061240f565b9250508190555082600c6000828254611b13919061240f565b90915550506040516323b872dd60e01b8152336004820152306024820152604481018490527f00000000000000000000000000000000000000000000000000000000000000006001600160a01b0316906323b872dd906064016020604051808303816000875af1158015611b8b573d6000803e3d6000fd5b505050506040513d601f19601f82011682018060405250810190611baf9190612427565b5092915050565b6000818152600560205260409020546001600160a01b031633148015611be45750611be081611189565b8211155b611bed57600080fd5b6040516370a0823160e01b81523060048201526000907f00000000000000000000000000000000000000000000000000000000000000006001600160a01b0316906370a0823190602401602060405180830381865afa158015611c54573d6000803e3d6000fd5b505050506040513d601f19601f82011682018060405250810190611c789190612466565b90506000611c8461147f565b6000611c8f846107f5565b905080851115611d1757611ca381866123e2565b600085815260086020526040812080549294508492909190611cc69084906123e2565b9250508190555081600a6000828254611cdf91906123e2565b9091555050600954600085815260086020526040902054611d0091906123a1565b600085815260086020526040902060010155611d4b565b600b54611d2490866123a1565b60008581526008602052604081206001018054909190611d4590849061240f565b90915550505b6000838611611d5b576000611d65565b611d6584876123e2565b90508015611d8e57611d7681612010565b82600e6000828254611d8891906123e2565b90915550505b60405163a9059cbb60e01b8152336004820152602481018790527f00000000000000000000000000000000000000000000000000000000000000006001600160a01b03169063a9059cbb906044016020604051808303816000875af1158015611dfb573d6000803e3d6000fd5b505050506040513d601f19601f82011682018060405250810190611e1f9190612427565b50505050505050565b6000818152600560205260409020546001600160a01b031680611e7a5760405162461bcd60e51b815260206004820152600a6024820152691393d517d3525395115160b21b6044820152606401610716565b6001600160a01b038116600081815260046020908152604080832080546000190190558583526005825280832080546001600160a01b031990811690915560069092528083208054909216909155518492907fddf252ad1be2c89b69c2b068fc378daa952ba7f163c4a11628f55a4df523b3ef908390a45050565b60006001600160a01b038316611f415760405162461bcd60e51b81526020600482015260116024820152701253959053125117d49150d25412515395607a1b6044820152606401610716565b6000828152600560205260409020546001600160a01b031615611f975760405162461bcd60e51b815260206004820152600e60248201526d1053149150511657d3525395115160921b6044820152606401610716565b6001600160a01b038316600081815260046020908152604080832080546001908101909155600380549091019055858352600590915280822080546001600160a01b0319168417905551849291907fddf252ad1be2c89b69c2b068fc378daa952ba7f163c4a11628f55a4df523b3ef908290a450919050565b600f54604051631c8901bb60e31b8152600481018390526001600160a01b039091169063e4480dd890602401600060405180830381600087803b15801561205657600080fd5b505af115801561206a573d6000803e3d6000fd5b5050505080600d600082825461208091906123e2565b909155505050565b60006020828403121561209a57600080fd5b81356001600160e01b03198116811461084f57600080fd5b6000815180845260005b818110156120d8576020818501810151868301820152016120bc565b818111156120ea576000602083870101525b50601f01601f19169290920160200192915050565b60208152600061084f60208301846120b2565b60006020828403121561212457600080fd5b5035919050565b80356001600160a01b038116811461214257600080fd5b919050565b6000806040838503121561215a57600080fd5b6121638361212b565b946020939093013593505050565b6000806040838503121561218457600080fd5b50508035926020909101359150565b6000602082840312156121a557600080fd5b61084f8261212b565b6000806000606084860312156121c357600080fd5b6121cc8461212b565b92506121da6020850161212b565b9150604084013590509250925092565b80151581146121f857600080fd5b50565b6000806040838503121561220e57600080fd5b8235612163816121ea565b6000806040838503121561222c57600080fd5b6122358361212b565b91506020830135612245816121ea565b809150509250929050565b602081526000825160a0602084015261226c60c08401826120b2565b905060018060a01b0360208501511660408401526040840151606084015260608401516080840152608084015160a08401528091505092915050565b600080604083850312156122bb57600080fd5b823591506020830135612245816121ea565b600080604083850312156122e057600080fd5b6122e98361212b565b91506122f76020840161212b565b90509250929050565b60008060006060848603121561231557600080fd5b61231e8461212b565b9250602084013561ffff8116811461233557600080fd5b91506040840135612345816121ea565b809150509250925092565b600181811c9082168061236457607f821691505b6020821081141561238557634e487b7160e01b600052602260045260246000fd5b50919050565b634e487b7160e01b600052601160045260246000fd5b60008160001904831182151516156123bb576123bb61238b565b500290565b6000826123dd57634e487b7160e01b600052601260045260246000fd5b500490565b6000828210156123f4576123f461238b565b500390565b634e487b7160e01b600052603260045260246000fd5b600082198211156124225761242261238b565b500190565b60006020828403121561243957600080fd5b815161084f816121ea565b600061ffff8083168181141561245c5761245c61238b565b6001019392505050565b60006020828403121561247857600080fd5b505191905056fea26469706673582212203051a8c6e1921b0927c93aeb2b6df96512c4e864a6f2c9f5ff6a63ae0a9d421b64736f6c634300080a0033",
    "linkReferences": {}
  }
}